{
  "contractName": "AttributeStore",
  "abi": [
    {
      "constant": true,
      "inputs": [
        {
          "name": "self",
          "type": "AttributeStore.Data storage"
        },
        {
          "name": "_UUID",
          "type": "bytes32"
        },
        {
          "name": "_attrName",
          "type": "string"
        }
      ],
      "name": "getAttribute",
      "outputs": [
        {
          "name": "",
          "type": "uint256"
        }
      ],
      "payable": false,
      "stateMutability": "view",
      "type": "function"
    },
    {
      "constant": false,
      "inputs": [
        {
          "name": "self",
          "type": "AttributeStore.Data storage"
        },
        {
          "name": "_UUID",
          "type": "bytes32"
        },
        {
          "name": "_attrName",
          "type": "string"
        },
        {
          "name": "_attrVal",
          "type": "uint256"
        }
      ],
      "name": "setAttribute",
      "outputs": [],
      "payable": false,
      "stateMutability": "nonpayable",
      "type": "function"
    }
  ],
  "bytecode": "0x6102cc610030600b82828239805160001a6073146000811461002057610022565bfe5b5030600052607381538281f3007300000000000000000000000000000000000000003014606060405260043610610063576000357c0100000000000000000000000000000000000000000000000000000000900463ffffffff16806350389f5c14610068578063977aa031146100e4575b600080fd5b6100ce60048080359060200190919080356000191690602001909190803590602001908201803590602001908080601f01602080910402602001604051908101604052809392919081815260200183838082843782019150505050505091905050610160565b6040518082815260200191505060405180910390f35b81156100ef57600080fd5b61015e60048080359060200190919080356000191690602001909190803590602001908201803590602001908080601f01602080910402602001604051908101604052809392919081815260200183838082843782019150505050505091908035906020019091905050610200565b005b600080838360405180836000191660001916815260200182805190602001908083835b6020831015156101a85780518252602082019150602081019050602083039250610183565b6001836020036101000a03801982511681845116808217855250505050505090500192505050604051809103902090508460000160008260001916600019168152602001908152602001600020549150509392505050565b6000838360405180836000191660001916815260200182805190602001908083835b6020831015156102475780518252602082019150602081019050602083039250610222565b6001836020036101000a03801982511681845116808217855250505050505090500192505050604051809103902090508185600001600083600019166000191681526020019081526020016000208190555050505050505600a165627a7a723058209558efe0e910e1ebd4738baac1bfcce100b9754d6e9b56f463a520ea333bcd3e0029",
  "source": "pragma solidity^0.4.11;\r\n\r\nlibrary AttributeStore {\r\n    struct Data {\r\n        mapping(bytes32 => uint) store;\r\n    }\r\n\r\n    function getAttribute(Data storage self, bytes32 _UUID, string _attrName)\r\n    public view returns (uint) {\r\n        bytes32 key = keccak256(_UUID, _attrName);\r\n        return self.store[key];\r\n    }\r\n\r\n    function setAttribute(Data storage self, bytes32 _UUID, string _attrName, uint _attrVal)\r\n    public {\r\n        bytes32 key = keccak256(_UUID, _attrName);\r\n        self.store[key] = _attrVal;\r\n    }\r\n}\r\n",
  "sourcePath": "attrstore/AttributeStore.sol",
  "compiler": {
    "name": "solc",
    "version": "0.4.21+commit.dfe3193c.Emscripten.clang"
  },
  "schemaVersion": "2.0.0",
  "updatedAt": "2018-04-10T00:47:29.359Z"
}