{
  "contractName": "EIP20Factory",
  "abi": [
    {
      "constant": true,
      "inputs": [
        {
          "name": "",
          "type": "address"
        },
        {
          "name": "",
          "type": "uint256"
        }
      ],
      "name": "created",
      "outputs": [
        {
          "name": "",
          "type": "address"
        }
      ],
      "payable": false,
      "stateMutability": "view",
      "type": "function"
    },
    {
      "constant": true,
      "inputs": [
        {
          "name": "",
          "type": "address"
        }
      ],
      "name": "isEIP20",
      "outputs": [
        {
          "name": "",
          "type": "bool"
        }
      ],
      "payable": false,
      "stateMutability": "view",
      "type": "function"
    },
    {
      "constant": true,
      "inputs": [],
      "name": "EIP20ByteCode",
      "outputs": [
        {
          "name": "",
          "type": "bytes"
        }
      ],
      "payable": false,
      "stateMutability": "view",
      "type": "function"
    },
    {
      "inputs": [],
      "payable": false,
      "stateMutability": "nonpayable",
      "type": "constructor"
    },
    {
      "constant": true,
      "inputs": [
        {
          "name": "_tokenContract",
          "type": "address"
        }
      ],
      "name": "verifyEIP20",
      "outputs": [
        {
          "name": "",
          "type": "bool"
        }
      ],
      "payable": false,
      "stateMutability": "view",
      "type": "function"
    },
    {
      "constant": false,
      "inputs": [
        {
          "name": "_initialAmount",
          "type": "uint256"
        },
        {
          "name": "_name",
          "type": "string"
        },
        {
          "name": "_decimals",
          "type": "uint8"
        },
        {
          "name": "_symbol",
          "type": "string"
        }
      ],
      "name": "createEIP20",
      "outputs": [
        {
          "name": "",
          "type": "address"
        }
      ],
      "payable": false,
      "stateMutability": "nonpayable",
      "type": "function"
    }
  ],
  "bytecode": "0x606060405234156200001057600080fd5b6000620000a16127106040805190810160405280600c81526020017f56657269667920546f6b656e000000000000000000000000000000000000000081525060036040805190810160405280600381526020017f5654580000000000000000000000000000000000000000000000000000000000815250620000e16401000000000262000319176401000000009004565b9050620000c281620003cd6401000000000262000874176401000000009004565b60029080519060200190620000d992919062000400565b505062000503565b60008085858585620000f262000487565b80858152602001806020018460ff1660ff16815260200180602001838103835286818151815260200191508051906020019080838360005b83811015620001475780820151818401526020810190506200012a565b50505050905090810190601f168015620001755780820380516001836020036101000a031916815260200191505b50838103825284818151815260200191508051906020019080838360005b83811015620001b057808201518184015260208101905062000193565b50505050905090810190601f168015620001de5780820380516001836020036101000a031916815260200191505b509650505050505050604051809103906000f0801515620001fe57600080fd5b90506000803373ffffffffffffffffffffffffffffffffffffffff1673ffffffffffffffffffffffffffffffffffffffff168152602001908152602001600020805480600101828162000252919062000498565b9160005260206000209001600083909190916101000a81548173ffffffffffffffffffffffffffffffffffffffff021916908373ffffffffffffffffffffffffffffffffffffffff1602179055505060018060008373ffffffffffffffffffffffffffffffffffffffff1673ffffffffffffffffffffffffffffffffffffffff16815260200190815260200160002060006101000a81548160ff0219169083151502179055508073ffffffffffffffffffffffffffffffffffffffff1663a9059cbb33886000604051602001526040518363ffffffff167c0100000000000000000000000000000000000000000000000000000000028152600401808373ffffffffffffffffffffffffffffffffffffffff1673ffffffffffffffffffffffffffffffffffffffff16815260200182815260200192505050602060405180830381600087803b1515620003a457600080fd5b6102c65a03f11515620003b657600080fd5b505050604051805190505080915050949350505050565b620003d7620004c7565b813b6040519150601f19601f602083010116820160405280825280600060208401853c50919050565b828054600181600116156101000203166002900490600052602060002090601f016020900481019282601f106200044357805160ff191683800117855562000474565b8280016001018555821562000474579182015b828111156200047357825182559160200191906001019062000456565b5b509050620004839190620004db565b5090565b604051610dd18062001c2a83390190565b815481835581811511620004c257818360005260206000209182019101620004c19190620004db565b5b505050565b602060405190810160405280600081525090565b6200050091905b80821115620004fc576000816000905550600101620004e2565b5090565b90565b61171780620005136000396000f30060606040526004361061006d576000357c0100000000000000000000000000000000000000000000000000000000900463ffffffff1680631e5f3569146100725780635f8dead314610167578063706438d1146101e95780637cf628381461023a578063cd4d6895146102c8575b600080fd5b341561007d57600080fd5b610125600480803590602001909190803590602001908201803590602001908080601f0160208091040260200160405190810160405280939291908181526020018383808284378201915050505050509190803560ff1690602001909190803590602001908201803590602001908080601f01602080910402602001604051908101604052809392919081815260200183838082843782019150505050505091905050610319565b604051808273ffffffffffffffffffffffffffffffffffffffff1673ffffffffffffffffffffffffffffffffffffffff16815260200191505060405180910390f35b341561017257600080fd5b6101a7600480803573ffffffffffffffffffffffffffffffffffffffff169060200190919080359060200190919050506105f8565b604051808273ffffffffffffffffffffffffffffffffffffffff1673ffffffffffffffffffffffffffffffffffffffff16815260200191505060405180910390f35b34156101f457600080fd5b610220600480803573ffffffffffffffffffffffffffffffffffffffff16906020019091905050610646565b604051808215151515815260200191505060405180910390f35b341561024557600080fd5b61024d610666565b6040518080602001828103825283818151815260200191508051906020019080838360005b8381101561028d578082015181840152602081019050610272565b50505050905090810190601f1680156102ba5780820380516001836020036101000a031916815260200191505b509250505060405180910390f35b34156102d357600080fd5b6102ff600480803573ffffffffffffffffffffffffffffffffffffffff16906020019091905050610704565b604051808215151515815260200191505060405180910390f35b600080858585856103286108a5565b80858152602001806020018460ff1660ff16815260200180602001838103835286818151815260200191508051906020019080838360005b8381101561037b578082015181840152602081019050610360565b50505050905090810190601f1680156103a85780820380516001836020036101000a031916815260200191505b50838103825284818151815260200191508051906020019080838360005b838110156103e15780820151818401526020810190506103c6565b50505050905090810190601f16801561040e5780820380516001836020036101000a031916815260200191505b509650505050505050604051809103906000f080151561042d57600080fd5b90506000803373ffffffffffffffffffffffffffffffffffffffff1673ffffffffffffffffffffffffffffffffffffffff168152602001908152602001600020805480600101828161047f91906108b5565b9160005260206000209001600083909190916101000a81548173ffffffffffffffffffffffffffffffffffffffff021916908373ffffffffffffffffffffffffffffffffffffffff1602179055505060018060008373ffffffffffffffffffffffffffffffffffffffff1673ffffffffffffffffffffffffffffffffffffffff16815260200190815260200160002060006101000a81548160ff0219169083151502179055508073ffffffffffffffffffffffffffffffffffffffff1663a9059cbb33886000604051602001526040518363ffffffff167c0100000000000000000000000000000000000000000000000000000000028152600401808373ffffffffffffffffffffffffffffffffffffffff1673ffffffffffffffffffffffffffffffffffffffff16815260200182815260200192505050602060405180830381600087803b15156105d057600080fd5b6102c65a03f115156105e157600080fd5b505050604051805190505080915050949350505050565b60006020528160005260406000208181548110151561061357fe5b90600052602060002090016000915091509054906101000a900473ffffffffffffffffffffffffffffffffffffffff1681565b60016020528060005260406000206000915054906101000a900460ff1681565b60028054600181600116156101000203166002900480601f0160208091040260200160405190810160405280929190818152602001828054600181600116156101000203166002900480156106fc5780601f106106d1576101008083540402835291602001916106fc565b820191906000526020600020905b8154815290600101906020018083116106df57829003601f168201915b505050505081565b600061070e6108e1565b600061071984610874565b915060028054600181600116156101000203166002900490508251141515610744576000925061086d565b60009050815181101561086c57600281815460018160011615610100020316600290048110151561077157fe5b8154600116156107905790600052602060002090602091828204019190065b9054901a7f0100000000000000000000000000000000000000000000000000000000000000027effffffffffffffffffffffffffffffffffffffffffffffffffffffffffffff191682828151811015156107e657fe5b9060200101517f010000000000000000000000000000000000000000000000000000000000000090047f0100000000000000000000000000000000000000000000000000000000000000027effffffffffffffffffffffffffffffffffffffffffffffffffffffffffffff1916141515610863576000925061086d565b6001925061086d565b5b5050919050565b61087c6108e1565b813b6040519150601f19601f602083010116820160405280825280600060208401853c50919050565b604051610dd18061091b83390190565b8154818355818115116108dc578183600052602060002091820191016108db91906108f5565b5b505050565b602060405190810160405280600081525090565b61091791905b808211156109135760008160009055506001016108fb565b5090565b9056006060604052341561000f57600080fd5b604051610dd1380380610dd18339810160405280805190602001909190805182019190602001805190602001909190805182019190505083600160003373ffffffffffffffffffffffffffffffffffffffff1673ffffffffffffffffffffffffffffffffffffffff168152602001908152602001600020819055508360008190555082600390805190602001906100a79291906100e3565b5081600460006101000a81548160ff021916908360ff16021790555080600590805190602001906100d99291906100e3565b5050505050610188565b828054600181600116156101000203166002900490600052602060002090601f016020900481019282601f1061012457805160ff1916838001178555610152565b82800160010185558215610152579182015b82811115610151578251825591602001919060010190610136565b5b50905061015f9190610163565b5090565b61018591905b80821115610181576000816000905550600101610169565b5090565b90565b610c3a806101976000396000f3006060604052600436106100af576000357c0100000000000000000000000000000000000000000000000000000000900463ffffffff16806306fdde03146100b4578063095ea7b31461014257806318160ddd1461019c57806323b872dd146101c557806327e235e31461023e578063313ce5671461028b5780635c658165146102ba57806370a082311461032657806395d89b4114610373578063a9059cbb14610401578063dd62ed3e1461045b575b600080fd5b34156100bf57600080fd5b6100c76104c7565b6040518080602001828103825283818151815260200191508051906020019080838360005b838110156101075780820151818401526020810190506100ec565b50505050905090810190601f1680156101345780820380516001836020036101000a031916815260200191505b509250505060405180910390f35b341561014d57600080fd5b610182600480803573ffffffffffffffffffffffffffffffffffffffff16906020019091908035906020019091905050610565565b604051808215151515815260200191505060405180910390f35b34156101a757600080fd5b6101af610657565b6040518082815260200191505060405180910390f35b34156101d057600080fd5b610224600480803573ffffffffffffffffffffffffffffffffffffffff1690602001909190803573ffffffffffffffffffffffffffffffffffffffff1690602001909190803590602001909190505061065d565b604051808215151515815260200191505060405180910390f35b341561024957600080fd5b610275600480803573ffffffffffffffffffffffffffffffffffffffff169060200190919050506108f7565b6040518082815260200191505060405180910390f35b341561029657600080fd5b61029e61090f565b604051808260ff1660ff16815260200191505060405180910390f35b34156102c557600080fd5b610310600480803573ffffffffffffffffffffffffffffffffffffffff1690602001909190803573ffffffffffffffffffffffffffffffffffffffff16906020019091905050610922565b6040518082815260200191505060405180910390f35b341561033157600080fd5b61035d600480803573ffffffffffffffffffffffffffffffffffffffff16906020019091905050610947565b6040518082815260200191505060405180910390f35b341561037e57600080fd5b610386610990565b6040518080602001828103825283818151815260200191508051906020019080838360005b838110156103c65780820151818401526020810190506103ab565b50505050905090810190601f1680156103f35780820380516001836020036101000a031916815260200191505b509250505060405180910390f35b341561040c57600080fd5b610441600480803573ffffffffffffffffffffffffffffffffffffffff16906020019091908035906020019091905050610a2e565b604051808215151515815260200191505060405180910390f35b341561046657600080fd5b6104b1600480803573ffffffffffffffffffffffffffffffffffffffff1690602001909190803573ffffffffffffffffffffffffffffffffffffffff16906020019091905050610b87565b6040518082815260200191505060405180910390f35b60038054600181600116156101000203166002900480601f01602080910402602001604051908101604052809291908181526020018280546001816001161561010002031660029004801561055d5780601f106105325761010080835404028352916020019161055d565b820191906000526020600020905b81548152906001019060200180831161054057829003601f168201915b505050505081565b600081600260003373ffffffffffffffffffffffffffffffffffffffff1673ffffffffffffffffffffffffffffffffffffffff16815260200190815260200160002060008573ffffffffffffffffffffffffffffffffffffffff1673ffffffffffffffffffffffffffffffffffffffff168152602001908152602001600020819055508273ffffffffffffffffffffffffffffffffffffffff163373ffffffffffffffffffffffffffffffffffffffff167f8c5be1e5ebec7d5bd14f71427d1e84f3dd0314c0f7b2291e5b200ac8c7c3b925846040518082815260200191505060405180910390a36001905092915050565b60005481565b600080600260008673ffffffffffffffffffffffffffffffffffffffff1673ffffffffffffffffffffffffffffffffffffffff16815260200190815260200160002060003373ffffffffffffffffffffffffffffffffffffffff1673ffffffffffffffffffffffffffffffffffffffff16815260200190815260200160002054905082600160008773ffffffffffffffffffffffffffffffffffffffff1673ffffffffffffffffffffffffffffffffffffffff168152602001908152602001600020541015801561072e5750828110155b151561073957600080fd5b82600160008673ffffffffffffffffffffffffffffffffffffffff1673ffffffffffffffffffffffffffffffffffffffff1681526020019081526020016000206000828254019250508190555082600160008773ffffffffffffffffffffffffffffffffffffffff1673ffffffffffffffffffffffffffffffffffffffff168152602001908152602001600020600082825403925050819055507fffffffffffffffffffffffffffffffffffffffffffffffffffffffffffffffff8110156108865782600260008773ffffffffffffffffffffffffffffffffffffffff1673ffffffffffffffffffffffffffffffffffffffff16815260200190815260200160002060003373ffffffffffffffffffffffffffffffffffffffff1673ffffffffffffffffffffffffffffffffffffffff168152602001908152602001600020600082825403925050819055505b8373ffffffffffffffffffffffffffffffffffffffff168573ffffffffffffffffffffffffffffffffffffffff167fddf252ad1be2c89b69c2b068fc378daa952ba7f163c4a11628f55a4df523b3ef856040518082815260200191505060405180910390a360019150509392505050565b60016020528060005260406000206000915090505481565b600460009054906101000a900460ff1681565b6002602052816000526040600020602052806000526040600020600091509150505481565b6000600160008373ffffffffffffffffffffffffffffffffffffffff1673ffffffffffffffffffffffffffffffffffffffff168152602001908152602001600020549050919050565b60058054600181600116156101000203166002900480601f016020809104026020016040519081016040528092919081815260200182805460018160011615610100020316600290048015610a265780601f106109fb57610100808354040283529160200191610a26565b820191906000526020600020905b815481529060010190602001808311610a0957829003601f168201915b505050505081565b600081600160003373ffffffffffffffffffffffffffffffffffffffff1673ffffffffffffffffffffffffffffffffffffffff1681526020019081526020016000205410151515610a7e57600080fd5b81600160003373ffffffffffffffffffffffffffffffffffffffff1673ffffffffffffffffffffffffffffffffffffffff1681526020019081526020016000206000828254039250508190555081600160008573ffffffffffffffffffffffffffffffffffffffff1673ffffffffffffffffffffffffffffffffffffffff168152602001908152602001600020600082825401925050819055508273ffffffffffffffffffffffffffffffffffffffff163373ffffffffffffffffffffffffffffffffffffffff167fddf252ad1be2c89b69c2b068fc378daa952ba7f163c4a11628f55a4df523b3ef846040518082815260200191505060405180910390a36001905092915050565b6000600260008473ffffffffffffffffffffffffffffffffffffffff1673ffffffffffffffffffffffffffffffffffffffff16815260200190815260200160002060008373ffffffffffffffffffffffffffffffffffffffff1673ffffffffffffffffffffffffffffffffffffffff168152602001908152602001600020549050929150505600a165627a7a72305820bcc979cb1ea7f3bd31ee383cfe8ca5ce91a9873e0e686d1e727d5a0392de1c720029a165627a7a72305820354d935f9f626d098022cdafa93eb14798fae29fa1064a16c95277645079ea7900296060604052341561000f57600080fd5b604051610dd1380380610dd18339810160405280805190602001909190805182019190602001805190602001909190805182019190505083600160003373ffffffffffffffffffffffffffffffffffffffff1673ffffffffffffffffffffffffffffffffffffffff168152602001908152602001600020819055508360008190555082600390805190602001906100a79291906100e3565b5081600460006101000a81548160ff021916908360ff16021790555080600590805190602001906100d99291906100e3565b5050505050610188565b828054600181600116156101000203166002900490600052602060002090601f016020900481019282601f1061012457805160ff1916838001178555610152565b82800160010185558215610152579182015b82811115610151578251825591602001919060010190610136565b5b50905061015f9190610163565b5090565b61018591905b80821115610181576000816000905550600101610169565b5090565b90565b610c3a806101976000396000f3006060604052600436106100af576000357c0100000000000000000000000000000000000000000000000000000000900463ffffffff16806306fdde03146100b4578063095ea7b31461014257806318160ddd1461019c57806323b872dd146101c557806327e235e31461023e578063313ce5671461028b5780635c658165146102ba57806370a082311461032657806395d89b4114610373578063a9059cbb14610401578063dd62ed3e1461045b575b600080fd5b34156100bf57600080fd5b6100c76104c7565b6040518080602001828103825283818151815260200191508051906020019080838360005b838110156101075780820151818401526020810190506100ec565b50505050905090810190601f1680156101345780820380516001836020036101000a031916815260200191505b509250505060405180910390f35b341561014d57600080fd5b610182600480803573ffffffffffffffffffffffffffffffffffffffff16906020019091908035906020019091905050610565565b604051808215151515815260200191505060405180910390f35b34156101a757600080fd5b6101af610657565b6040518082815260200191505060405180910390f35b34156101d057600080fd5b610224600480803573ffffffffffffffffffffffffffffffffffffffff1690602001909190803573ffffffffffffffffffffffffffffffffffffffff1690602001909190803590602001909190505061065d565b604051808215151515815260200191505060405180910390f35b341561024957600080fd5b610275600480803573ffffffffffffffffffffffffffffffffffffffff169060200190919050506108f7565b6040518082815260200191505060405180910390f35b341561029657600080fd5b61029e61090f565b604051808260ff1660ff16815260200191505060405180910390f35b34156102c557600080fd5b610310600480803573ffffffffffffffffffffffffffffffffffffffff1690602001909190803573ffffffffffffffffffffffffffffffffffffffff16906020019091905050610922565b6040518082815260200191505060405180910390f35b341561033157600080fd5b61035d600480803573ffffffffffffffffffffffffffffffffffffffff16906020019091905050610947565b6040518082815260200191505060405180910390f35b341561037e57600080fd5b610386610990565b6040518080602001828103825283818151815260200191508051906020019080838360005b838110156103c65780820151818401526020810190506103ab565b50505050905090810190601f1680156103f35780820380516001836020036101000a031916815260200191505b509250505060405180910390f35b341561040c57600080fd5b610441600480803573ffffffffffffffffffffffffffffffffffffffff16906020019091908035906020019091905050610a2e565b604051808215151515815260200191505060405180910390f35b341561046657600080fd5b6104b1600480803573ffffffffffffffffffffffffffffffffffffffff1690602001909190803573ffffffffffffffffffffffffffffffffffffffff16906020019091905050610b87565b6040518082815260200191505060405180910390f35b60038054600181600116156101000203166002900480601f01602080910402602001604051908101604052809291908181526020018280546001816001161561010002031660029004801561055d5780601f106105325761010080835404028352916020019161055d565b820191906000526020600020905b81548152906001019060200180831161054057829003601f168201915b505050505081565b600081600260003373ffffffffffffffffffffffffffffffffffffffff1673ffffffffffffffffffffffffffffffffffffffff16815260200190815260200160002060008573ffffffffffffffffffffffffffffffffffffffff1673ffffffffffffffffffffffffffffffffffffffff168152602001908152602001600020819055508273ffffffffffffffffffffffffffffffffffffffff163373ffffffffffffffffffffffffffffffffffffffff167f8c5be1e5ebec7d5bd14f71427d1e84f3dd0314c0f7b2291e5b200ac8c7c3b925846040518082815260200191505060405180910390a36001905092915050565b60005481565b600080600260008673ffffffffffffffffffffffffffffffffffffffff1673ffffffffffffffffffffffffffffffffffffffff16815260200190815260200160002060003373ffffffffffffffffffffffffffffffffffffffff1673ffffffffffffffffffffffffffffffffffffffff16815260200190815260200160002054905082600160008773ffffffffffffffffffffffffffffffffffffffff1673ffffffffffffffffffffffffffffffffffffffff168152602001908152602001600020541015801561072e5750828110155b151561073957600080fd5b82600160008673ffffffffffffffffffffffffffffffffffffffff1673ffffffffffffffffffffffffffffffffffffffff1681526020019081526020016000206000828254019250508190555082600160008773ffffffffffffffffffffffffffffffffffffffff1673ffffffffffffffffffffffffffffffffffffffff168152602001908152602001600020600082825403925050819055507fffffffffffffffffffffffffffffffffffffffffffffffffffffffffffffffff8110156108865782600260008773ffffffffffffffffffffffffffffffffffffffff1673ffffffffffffffffffffffffffffffffffffffff16815260200190815260200160002060003373ffffffffffffffffffffffffffffffffffffffff1673ffffffffffffffffffffffffffffffffffffffff168152602001908152602001600020600082825403925050819055505b8373ffffffffffffffffffffffffffffffffffffffff168573ffffffffffffffffffffffffffffffffffffffff167fddf252ad1be2c89b69c2b068fc378daa952ba7f163c4a11628f55a4df523b3ef856040518082815260200191505060405180910390a360019150509392505050565b60016020528060005260406000206000915090505481565b600460009054906101000a900460ff1681565b6002602052816000526040600020602052806000526040600020600091509150505481565b6000600160008373ffffffffffffffffffffffffffffffffffffffff1673ffffffffffffffffffffffffffffffffffffffff168152602001908152602001600020549050919050565b60058054600181600116156101000203166002900480601f016020809104026020016040519081016040528092919081815260200182805460018160011615610100020316600290048015610a265780601f106109fb57610100808354040283529160200191610a26565b820191906000526020600020905b815481529060010190602001808311610a0957829003601f168201915b505050505081565b600081600160003373ffffffffffffffffffffffffffffffffffffffff1673ffffffffffffffffffffffffffffffffffffffff1681526020019081526020016000205410151515610a7e57600080fd5b81600160003373ffffffffffffffffffffffffffffffffffffffff1673ffffffffffffffffffffffffffffffffffffffff1681526020019081526020016000206000828254039250508190555081600160008573ffffffffffffffffffffffffffffffffffffffff1673ffffffffffffffffffffffffffffffffffffffff168152602001908152602001600020600082825401925050819055508273ffffffffffffffffffffffffffffffffffffffff163373ffffffffffffffffffffffffffffffffffffffff167fddf252ad1be2c89b69c2b068fc378daa952ba7f163c4a11628f55a4df523b3ef846040518082815260200191505060405180910390a36001905092915050565b6000600260008473ffffffffffffffffffffffffffffffffffffffff1673ffffffffffffffffffffffffffffffffffffffff16815260200190815260200160002060008373ffffffffffffffffffffffffffffffffffffffff1673ffffffffffffffffffffffffffffffffffffffff168152602001908152602001600020549050929150505600a165627a7a72305820bcc979cb1ea7f3bd31ee383cfe8ca5ce91a9873e0e686d1e727d5a0392de1c720029",
  "source": "import \"./EIP20.sol\";\r\n\r\npragma solidity ^0.4.18;\r\n\r\n\r\ncontract EIP20Factory {\r\n\r\n    mapping(address => address[]) public created;\r\n    mapping(address => bool) public isEIP20; //verify without having to do a bytecode check.\r\n    bytes public EIP20ByteCode; // solhint-disable-line var-name-mixedcase  \r\n\r\n    function EIP20Factory() public {\r\n        //upon creation of the factory, deploy a EIP20 (parameters are meaningless) and store the bytecode provably.\r\n        address verifiedToken = createEIP20(10000, \"Verify Token\", 3, \"VTX\");\r\n        EIP20ByteCode = codeAt(verifiedToken);\r\n    }\r\n\r\n    //verifies if a contract that has been deployed is a Human Standard Token.\r\n    //NOTE: This is a very expensive function, and should only be used in an eth_call. ~800k gas\r\n    function verifyEIP20(address _tokenContract) public view returns (bool) {\r\n        bytes memory fetchedTokenByteCode = codeAt(_tokenContract);\r\n\r\n        if (fetchedTokenByteCode.length != EIP20ByteCode.length) {\r\n            return false; //clear mismatch\r\n        }\r\n\r\n      //starting iterating through it if lengths match\r\n        for (uint i = 0; i < fetchedTokenByteCode.length; i++) {\r\n            if (fetchedTokenByteCode[i] != EIP20ByteCode[i]) {\r\n                return false;\r\n            }\r\n            return true;\r\n        }\r\n    }\r\n    \r\n    function createEIP20(uint256 _initialAmount, string _name, uint8 _decimals, string _symbol) \r\n        public \r\n    returns (address) {\r\n\r\n        EIP20 newToken = (new EIP20(_initialAmount, _name, _decimals, _symbol));\r\n        created[msg.sender].push(address(newToken));\r\n        isEIP20[address(newToken)] = true;\r\n        //the factory will own the created tokens. You must transfer them.\r\n        newToken.transfer(msg.sender, _initialAmount); \r\n        return address(newToken);\r\n    }\r\n\r\n    //for now, keeping this internal. Ideally there should also be a live version of this that \r\n    // any contract can use, lib-style.\r\n    //retrieves the bytecode at a specific address.\r\n    function codeAt(address _addr) internal view returns (bytes outputCode) {\r\n        assembly { // solhint-disable-line no-inline-assembly   \r\n            // retrieve the size of the code, this needs assembly\r\n            let size := extcodesize(_addr)\r\n            // allocate output byte array - this could also be done without assembly\r\n            // by using outputCode = new bytes(size)\r\n            outputCode := mload(0x40)\r\n            // new \"memory end\" including padding\r\n            mstore(0x40, add(outputCode, and(add(add(size, 0x20), 0x1f), not(0x1f))))\r\n            // store length in memory\r\n            mstore(outputCode, size)\r\n            // actually retrieve the code, this needs assembly\r\n            extcodecopy(_addr, add(outputCode, 0x20), 0, size)\r\n        }\r\n    }\r\n}\r\n",
  "sourcePath": "C:\\Users\\CryptoMonk\\Documents\\Projects\\DeconetRegistry\\contracts\\lib\\tokens\\contracts\\eip20\\EIP20Factory.sol",
  "compiler": {
    "name": "solc",
    "version": "0.4.19+commit.c4cbbb05.Emscripten.clang"
  },
  "schemaVersion": "1.0.1",
  "updatedAt": "2018-02-13T12:10:54.275Z"
}