{
  "contractName": "EIP20Factory",
  "abi": [
    {
      "constant": false,
      "inputs": [
        {
          "name": "_initialAmount",
          "type": "uint256"
        },
        {
          "name": "_name",
          "type": "string"
        },
        {
          "name": "_decimals",
          "type": "uint8"
        },
        {
          "name": "_symbol",
          "type": "string"
        }
      ],
      "name": "createEIP20",
      "outputs": [
        {
          "name": "",
          "type": "address"
        }
      ],
      "payable": false,
      "stateMutability": "nonpayable",
      "type": "function"
    },
    {
      "constant": true,
      "inputs": [
        {
          "name": "",
          "type": "address"
        },
        {
          "name": "",
          "type": "uint256"
        }
      ],
      "name": "created",
      "outputs": [
        {
          "name": "",
          "type": "address"
        }
      ],
      "payable": false,
      "stateMutability": "view",
      "type": "function"
    },
    {
      "constant": true,
      "inputs": [
        {
          "name": "",
          "type": "address"
        }
      ],
      "name": "isEIP20",
      "outputs": [
        {
          "name": "",
          "type": "bool"
        }
      ],
      "payable": false,
      "stateMutability": "view",
      "type": "function"
    },
    {
      "constant": true,
      "inputs": [],
      "name": "EIP20ByteCode",
      "outputs": [
        {
          "name": "",
          "type": "bytes"
        }
      ],
      "payable": false,
      "stateMutability": "view",
      "type": "function"
    },
    {
      "constant": true,
      "inputs": [
        {
          "name": "_tokenContract",
          "type": "address"
        }
      ],
      "name": "verifyEIP20",
      "outputs": [
        {
          "name": "",
          "type": "bool"
        }
      ],
      "payable": false,
      "stateMutability": "view",
      "type": "function"
    },
    {
      "inputs": [],
      "payable": false,
      "stateMutability": "nonpayable",
      "type": "constructor"
    }
  ],
  "bytecode": "0x606060405234156200001057600080fd5b6000620000996127106040805190810160405280600c81526020017f56657269667920546f6b656e0000000000000000000000000000000000000000815250600360408051908101604052600381527f565458000000000000000000000000000000000000000000000000000000000060208201526401000000006200022f620000d182021704565b9050620000b48164010000000062000642620002eb82021704565b6002908051620000c99291602001906200031b565b50506200040f565b60008085858585620000e2620003a0565b84815260ff83166040820152608060208201818152906060830190830186818151815260200191508051906020019080838360005b838110156200013157808201518382015260200162000117565b50505050905090810190601f1680156200015f5780820380516001836020036101000a031916815260200191505b50838103825284818151815260200191508051906020019080838360005b83811015620001975780820151838201526020016200017d565b50505050905090810190601f168015620001c55780820380516001836020036101000a031916815260200191505b509650505050505050604051809103906000f0801515620001e557600080fd5b600160a060020a033316600090815260208190526040902080549192509060018101620002138382620003b1565b5060009182526020808320919091018054600160a060020a031916600160a060020a0385169081179091558083526001918290526040808420805460ff19169093179092559163a9059cbb9133918a9151602001526040517c010000000000000000000000000000000000000000000000000000000063ffffffff8516028152600160a060020a0390921660048301526024820152604401602060405180830381600087803b1515620002c557600080fd5b6102c65a03f11515620002d757600080fd5b505050604051805150909695505050505050565b620002f5620003dd565b813b604051603f8201601f19168101604052818152915080600060208401853c50919050565b828054600181600116156101000203166002900490600052602060002090601f016020900481019282601f106200035e57805160ff19168380011785556200038e565b828001600101855582156200038e579182015b828111156200038e57825182559160200191906001019062000371565b506200039c929150620003ef565b5090565b6040516107ae80620012d583390190565b815481835581811511620003d857600083815260209020620003d8918101908301620003ef565b505050565b60206040519081016040526000815290565b6200040c91905b808211156200039c5760008155600101620003f6565b90565b610eb6806200041f6000396000f30060606040526004361061006c5763ffffffff7c01000000000000000000000000000000000000000000000000000000006000350416631e5f356981146100715780635f8dead314610131578063706438d1146101535780637cf6283814610186578063cd4d689514610210575b600080fd5b341561007c57600080fd5b610115600480359060446024803590810190830135806020601f8201819004810201604051908101604052818152929190602084018383808284378201915050505050509190803560ff1690602001909190803590602001908201803590602001908080601f01602080910402602001604051908101604052818152929190602084018383808284375094965061022f95505050505050565b604051600160a060020a03909116815260200160405180910390f35b341561013c57600080fd5b610115600160a060020a0360043516602435610449565b341561015e57600080fd5b610172600160a060020a0360043516610480565b604051901515815260200160405180910390f35b341561019157600080fd5b610199610495565b60405160208082528190810183818151815260200191508051906020019080838360005b838110156101d55780820151838201526020016101bd565b50505050905090810190601f1680156102025780820380516001836020036101000a031916815260200191505b509250505060405180910390f35b341561021b57600080fd5b610172600160a060020a0360043516610533565b6000808585858561023e610670565b84815260ff83166040820152608060208201818152906060830190830186818151815260200191508051906020019080838360005b8381101561028b578082015183820152602001610273565b50505050905090810190601f1680156102b85780820380516001836020036101000a031916815260200191505b50838103825284818151815260200191508051906020019080838360005b838110156102ee5780820151838201526020016102d6565b50505050905090810190601f16801561031b5780820380516001836020036101000a031916815260200191505b509650505050505050604051809103906000f080151561033a57600080fd5b600160a060020a0333166000908152602081905260409020805491925090600181016103668382610680565b506000918252602080832091909101805473ffffffffffffffffffffffffffffffffffffffff1916600160a060020a0385169081179091558083526001918290526040808420805460ff19169093179092559163a9059cbb9133918a9151602001526040517c010000000000000000000000000000000000000000000000000000000063ffffffff8516028152600160a060020a0390921660048301526024820152604401602060405180830381600087803b151561042457600080fd5b6102c65a03f1151561043557600080fd5b505050604051805150909695505050505050565b60006020528160005260406000208181548110151561046457fe5b600091825260209091200154600160a060020a03169150829050565b60016020526000908152604090205460ff1681565b60028054600181600116156101000203166002900480601f01602080910402602001604051908101604052809291908181526020018280546001816001161561010002031660029004801561052b5780601f106105005761010080835404028352916020019161052b565b820191906000526020600020905b81548152906001019060200180831161050e57829003601f168201915b505050505081565b600061053d6106a9565b600061054884610642565b600280549193506000196101006001841615020190911604825114610570576000925061063b565b506000815181101561063b576002805482906000196101006001831615020116829004811061059b57fe5b8154600116156105ba5790600052602060002090602091828204019190065b9054901a60f860020a027effffffffffffffffffffffffffffffffffffffffffffffffffffffffffffff19168282815181106105f257fe5b016020015160f860020a900460f860020a027effffffffffffffffffffffffffffffffffffffffffffffffffffffffffffff1916141515610636576000925061063b565b600192505b5050919050565b61064a6106a9565b813b604051603f8201601f19168101604052818152915080600060208401853c50919050565b6040516107ae806106dd83390190565b8154818355818115116106a4576000838152602090206106a49181019083016106bb565b505050565b60206040519081016040526000815290565b6106d991905b808211156106d557600081556001016106c1565b5090565b9056006060604052341561000f57600080fd5b6040516107ae3803806107ae833981016040528080519190602001805182019190602001805191906020018051600160a060020a03331660009081526001602052604081208790558690559091019050600383805161007292916020019061009f565b506004805460ff191660ff8416179055600581805161009592916020019061009f565b505050505061013a565b828054600181600116156101000203166002900490600052602060002090601f016020900481019282601f106100e057805160ff191683800117855561010d565b8280016001018555821561010d579182015b8281111561010d5782518255916020019190600101906100f2565b5061011992915061011d565b5090565b61013791905b808211156101195760008155600101610123565b90565b610665806101496000396000f3006060604052600436106100ae5763ffffffff7c010000000000000000000000000000000000000000000000000000000060003504166306fdde0381146100b3578063095ea7b31461013d57806318160ddd1461017357806323b872dd1461019857806327e235e3146101c0578063313ce567146101df5780635c6581651461020857806370a082311461022d57806395d89b411461024c578063a9059cbb1461025f578063dd62ed3e14610281575b600080fd5b34156100be57600080fd5b6100c66102a6565b60405160208082528190810183818151815260200191508051906020019080838360005b838110156101025780820151838201526020016100ea565b50505050905090810190601f16801561012f5780820380516001836020036101000a031916815260200191505b509250505060405180910390f35b341561014857600080fd5b61015f600160a060020a0360043516602435610344565b604051901515815260200160405180910390f35b341561017e57600080fd5b6101866103b0565b60405190815260200160405180910390f35b34156101a357600080fd5b61015f600160a060020a03600435811690602435166044356103b6565b34156101cb57600080fd5b610186600160a060020a03600435166104bc565b34156101ea57600080fd5b6101f26104ce565b60405160ff909116815260200160405180910390f35b341561021357600080fd5b610186600160a060020a03600435811690602435166104d7565b341561023857600080fd5b610186600160a060020a03600435166104f4565b341561025757600080fd5b6100c661050f565b341561026a57600080fd5b61015f600160a060020a036004351660243561057a565b341561028c57600080fd5b610186600160a060020a036004358116906024351661060e565b60038054600181600116156101000203166002900480601f01602080910402602001604051908101604052809291908181526020018280546001816001161561010002031660029004801561033c5780601f106103115761010080835404028352916020019161033c565b820191906000526020600020905b81548152906001019060200180831161031f57829003601f168201915b505050505081565b600160a060020a03338116600081815260026020908152604080832094871680845294909152808220859055909291907f8c5be1e5ebec7d5bd14f71427d1e84f3dd0314c0f7b2291e5b200ac8c7c3b9259085905190815260200160405180910390a350600192915050565b60005481565b600160a060020a0380841660008181526002602090815260408083203390951683529381528382205492825260019052918220548390108015906103fa5750828110155b151561040557600080fd5b600160a060020a038085166000908152600160205260408082208054870190559187168152208054849003905560001981101561046a57600160a060020a03808616600090815260026020908152604080832033909416835292905220805484900390555b83600160a060020a031685600160a060020a03167fddf252ad1be2c89b69c2b068fc378daa952ba7f163c4a11628f55a4df523b3ef8560405190815260200160405180910390a3506001949350505050565b60016020526000908152604090205481565b60045460ff1681565b600260209081526000928352604080842090915290825290205481565b600160a060020a031660009081526001602052604090205490565b60058054600181600116156101000203166002900480601f01602080910402602001604051908101604052809291908181526020018280546001816001161561010002031660029004801561033c5780601f106103115761010080835404028352916020019161033c565b600160a060020a033316600090815260016020526040812054829010156105a057600080fd5b600160a060020a033381166000818152600160205260408082208054879003905592861680825290839020805486019055917fddf252ad1be2c89b69c2b068fc378daa952ba7f163c4a11628f55a4df523b3ef9085905190815260200160405180910390a350600192915050565b600160a060020a039182166000908152600260209081526040808320939094168252919091522054905600a165627a7a7230582015c50e9aa81fb8ac138b8115ae25fc8637237ee9e2f487adcbc9ddb678189f700029a165627a7a72305820085905793a6ef4876726daaababf61a14fc906b0c086ab17b1f42d09b7d705b700296060604052341561000f57600080fd5b6040516107ae3803806107ae833981016040528080519190602001805182019190602001805191906020018051600160a060020a03331660009081526001602052604081208790558690559091019050600383805161007292916020019061009f565b506004805460ff191660ff8416179055600581805161009592916020019061009f565b505050505061013a565b828054600181600116156101000203166002900490600052602060002090601f016020900481019282601f106100e057805160ff191683800117855561010d565b8280016001018555821561010d579182015b8281111561010d5782518255916020019190600101906100f2565b5061011992915061011d565b5090565b61013791905b808211156101195760008155600101610123565b90565b610665806101496000396000f3006060604052600436106100ae5763ffffffff7c010000000000000000000000000000000000000000000000000000000060003504166306fdde0381146100b3578063095ea7b31461013d57806318160ddd1461017357806323b872dd1461019857806327e235e3146101c0578063313ce567146101df5780635c6581651461020857806370a082311461022d57806395d89b411461024c578063a9059cbb1461025f578063dd62ed3e14610281575b600080fd5b34156100be57600080fd5b6100c66102a6565b60405160208082528190810183818151815260200191508051906020019080838360005b838110156101025780820151838201526020016100ea565b50505050905090810190601f16801561012f5780820380516001836020036101000a031916815260200191505b509250505060405180910390f35b341561014857600080fd5b61015f600160a060020a0360043516602435610344565b604051901515815260200160405180910390f35b341561017e57600080fd5b6101866103b0565b60405190815260200160405180910390f35b34156101a357600080fd5b61015f600160a060020a03600435811690602435166044356103b6565b34156101cb57600080fd5b610186600160a060020a03600435166104bc565b34156101ea57600080fd5b6101f26104ce565b60405160ff909116815260200160405180910390f35b341561021357600080fd5b610186600160a060020a03600435811690602435166104d7565b341561023857600080fd5b610186600160a060020a03600435166104f4565b341561025757600080fd5b6100c661050f565b341561026a57600080fd5b61015f600160a060020a036004351660243561057a565b341561028c57600080fd5b610186600160a060020a036004358116906024351661060e565b60038054600181600116156101000203166002900480601f01602080910402602001604051908101604052809291908181526020018280546001816001161561010002031660029004801561033c5780601f106103115761010080835404028352916020019161033c565b820191906000526020600020905b81548152906001019060200180831161031f57829003601f168201915b505050505081565b600160a060020a03338116600081815260026020908152604080832094871680845294909152808220859055909291907f8c5be1e5ebec7d5bd14f71427d1e84f3dd0314c0f7b2291e5b200ac8c7c3b9259085905190815260200160405180910390a350600192915050565b60005481565b600160a060020a0380841660008181526002602090815260408083203390951683529381528382205492825260019052918220548390108015906103fa5750828110155b151561040557600080fd5b600160a060020a038085166000908152600160205260408082208054870190559187168152208054849003905560001981101561046a57600160a060020a03808616600090815260026020908152604080832033909416835292905220805484900390555b83600160a060020a031685600160a060020a03167fddf252ad1be2c89b69c2b068fc378daa952ba7f163c4a11628f55a4df523b3ef8560405190815260200160405180910390a3506001949350505050565b60016020526000908152604090205481565b60045460ff1681565b600260209081526000928352604080842090915290825290205481565b600160a060020a031660009081526001602052604090205490565b60058054600181600116156101000203166002900480601f01602080910402602001604051908101604052809291908181526020018280546001816001161561010002031660029004801561033c5780601f106103115761010080835404028352916020019161033c565b600160a060020a033316600090815260016020526040812054829010156105a057600080fd5b600160a060020a033381166000818152600160205260408082208054879003905592861680825290839020805486019055917fddf252ad1be2c89b69c2b068fc378daa952ba7f163c4a11628f55a4df523b3ef9085905190815260200160405180910390a350600192915050565b600160a060020a039182166000908152600260209081526040808320939094168252919091522054905600a165627a7a7230582015c50e9aa81fb8ac138b8115ae25fc8637237ee9e2f487adcbc9ddb678189f700029",
  "source": "import \"./EIP20.sol\";\r\n\r\npragma solidity ^0.4.18;\r\n\r\n\r\ncontract EIP20Factory {\r\n\r\n    mapping(address => address[]) public created;\r\n    mapping(address => bool) public isEIP20; //verify without having to do a bytecode check.\r\n    bytes public EIP20ByteCode; // solhint-disable-line var-name-mixedcase  \r\n\r\n    function EIP20Factory() public {\r\n        //upon creation of the factory, deploy a EIP20 (parameters are meaningless) and store the bytecode provably.\r\n        address verifiedToken = createEIP20(10000, \"Verify Token\", 3, \"VTX\");\r\n        EIP20ByteCode = codeAt(verifiedToken);\r\n    }\r\n\r\n    //verifies if a contract that has been deployed is a Human Standard Token.\r\n    //NOTE: This is a very expensive function, and should only be used in an eth_call. ~800k gas\r\n    function verifyEIP20(address _tokenContract) public view returns (bool) {\r\n        bytes memory fetchedTokenByteCode = codeAt(_tokenContract);\r\n\r\n        if (fetchedTokenByteCode.length != EIP20ByteCode.length) {\r\n            return false; //clear mismatch\r\n        }\r\n\r\n      //starting iterating through it if lengths match\r\n        for (uint i = 0; i < fetchedTokenByteCode.length; i++) {\r\n            if (fetchedTokenByteCode[i] != EIP20ByteCode[i]) {\r\n                return false;\r\n            }\r\n            return true;\r\n        }\r\n    }\r\n    \r\n    function createEIP20(uint256 _initialAmount, string _name, uint8 _decimals, string _symbol) \r\n        public \r\n    returns (address) {\r\n\r\n        EIP20 newToken = (new EIP20(_initialAmount, _name, _decimals, _symbol));\r\n        created[msg.sender].push(address(newToken));\r\n        isEIP20[address(newToken)] = true;\r\n        //the factory will own the created tokens. You must transfer them.\r\n        newToken.transfer(msg.sender, _initialAmount); \r\n        return address(newToken);\r\n    }\r\n\r\n    //for now, keeping this internal. Ideally there should also be a live version of this that \r\n    // any contract can use, lib-style.\r\n    //retrieves the bytecode at a specific address.\r\n    function codeAt(address _addr) internal view returns (bytes outputCode) {\r\n        assembly { // solhint-disable-line no-inline-assembly   \r\n            // retrieve the size of the code, this needs assembly\r\n            let size := extcodesize(_addr)\r\n            // allocate output byte array - this could also be done without assembly\r\n            // by using outputCode = new bytes(size)\r\n            outputCode := mload(0x40)\r\n            // new \"memory end\" including padding\r\n            mstore(0x40, add(outputCode, and(add(add(size, 0x20), 0x1f), not(0x1f))))\r\n            // store length in memory\r\n            mstore(outputCode, size)\r\n            // actually retrieve the code, this needs assembly\r\n            extcodecopy(_addr, add(outputCode, 0x20), 0, size)\r\n        }\r\n    }\r\n}\r\n",
  "sourcePath": "C:\\Users\\shach\\Documents\\Deco.Network\\DeconetRegistry\\contracts\\lib\\tokens\\contracts\\eip20\\EIP20Factory.sol",
  "compiler": {
    "name": "solc",
    "version": "0.4.18+commit.9cf6e910.Emscripten.clang"
  },
  "schemaVersion": "1.0.1",
  "updatedAt": "2018-02-07T18:41:12.076Z"
}