{
  "contractName": "Parameterizer",
  "abi": [
    {
      "constant": true,
      "inputs": [],
      "name": "PROCESSBY",
      "outputs": [
        {
          "name": "",
          "type": "uint256"
        }
      ],
      "payable": false,
      "stateMutability": "view",
      "type": "function"
    },
    {
      "constant": true,
      "inputs": [
        {
          "name": "",
          "type": "bytes32"
        }
      ],
      "name": "proposals",
      "outputs": [
        {
          "name": "appExpiry",
          "type": "uint256"
        },
        {
          "name": "challengeID",
          "type": "uint256"
        },
        {
          "name": "deposit",
          "type": "uint256"
        },
        {
          "name": "name",
          "type": "string"
        },
        {
          "name": "owner",
          "type": "address"
        },
        {
          "name": "processBy",
          "type": "uint256"
        },
        {
          "name": "value",
          "type": "uint256"
        }
      ],
      "payable": false,
      "stateMutability": "view",
      "type": "function"
    },
    {
      "constant": true,
      "inputs": [
        {
          "name": "",
          "type": "uint256"
        }
      ],
      "name": "challenges",
      "outputs": [
        {
          "name": "rewardPool",
          "type": "uint256"
        },
        {
          "name": "challenger",
          "type": "address"
        },
        {
          "name": "resolved",
          "type": "bool"
        },
        {
          "name": "stake",
          "type": "uint256"
        },
        {
          "name": "winningTokens",
          "type": "uint256"
        }
      ],
      "payable": false,
      "stateMutability": "view",
      "type": "function"
    },
    {
      "constant": true,
      "inputs": [
        {
          "name": "",
          "type": "bytes32"
        }
      ],
      "name": "params",
      "outputs": [
        {
          "name": "",
          "type": "uint256"
        }
      ],
      "payable": false,
      "stateMutability": "view",
      "type": "function"
    },
    {
      "constant": true,
      "inputs": [],
      "name": "token",
      "outputs": [
        {
          "name": "",
          "type": "address"
        }
      ],
      "payable": false,
      "stateMutability": "view",
      "type": "function"
    },
    {
      "constant": true,
      "inputs": [],
      "name": "voting",
      "outputs": [
        {
          "name": "",
          "type": "address"
        }
      ],
      "payable": false,
      "stateMutability": "view",
      "type": "function"
    },
    {
      "inputs": [
        {
          "name": "_tokenAddr",
          "type": "address"
        },
        {
          "name": "_plcrAddr",
          "type": "address"
        },
        {
          "name": "_minDeposit",
          "type": "uint256"
        },
        {
          "name": "_pMinDeposit",
          "type": "uint256"
        },
        {
          "name": "_applyStageLen",
          "type": "uint256"
        },
        {
          "name": "_pApplyStageLen",
          "type": "uint256"
        },
        {
          "name": "_commitStageLen",
          "type": "uint256"
        },
        {
          "name": "_pCommitStageLen",
          "type": "uint256"
        },
        {
          "name": "_revealStageLen",
          "type": "uint256"
        },
        {
          "name": "_pRevealStageLen",
          "type": "uint256"
        },
        {
          "name": "_dispensationPct",
          "type": "uint256"
        },
        {
          "name": "_pDispensationPct",
          "type": "uint256"
        },
        {
          "name": "_voteQuorum",
          "type": "uint256"
        },
        {
          "name": "_pVoteQuorum",
          "type": "uint256"
        }
      ],
      "payable": false,
      "stateMutability": "nonpayable",
      "type": "constructor"
    },
    {
      "anonymous": false,
      "inputs": [
        {
          "indexed": false,
          "name": "name",
          "type": "string"
        },
        {
          "indexed": false,
          "name": "value",
          "type": "uint256"
        },
        {
          "indexed": false,
          "name": "propID",
          "type": "bytes32"
        },
        {
          "indexed": false,
          "name": "deposit",
          "type": "uint256"
        },
        {
          "indexed": false,
          "name": "appEndDate",
          "type": "uint256"
        }
      ],
      "name": "_ReparameterizationProposal",
      "type": "event"
    },
    {
      "anonymous": false,
      "inputs": [
        {
          "indexed": true,
          "name": "propID",
          "type": "bytes32"
        },
        {
          "indexed": false,
          "name": "challengeID",
          "type": "uint256"
        },
        {
          "indexed": false,
          "name": "commitEndDate",
          "type": "uint256"
        },
        {
          "indexed": false,
          "name": "revealEndDate",
          "type": "uint256"
        }
      ],
      "name": "_NewChallenge",
      "type": "event"
    },
    {
      "anonymous": false,
      "inputs": [
        {
          "indexed": true,
          "name": "propID",
          "type": "bytes32"
        },
        {
          "indexed": false,
          "name": "name",
          "type": "string"
        },
        {
          "indexed": false,
          "name": "value",
          "type": "uint256"
        }
      ],
      "name": "_ProposalAccepted",
      "type": "event"
    },
    {
      "anonymous": false,
      "inputs": [
        {
          "indexed": true,
          "name": "propID",
          "type": "bytes32"
        }
      ],
      "name": "_ProposalExpired",
      "type": "event"
    },
    {
      "anonymous": false,
      "inputs": [
        {
          "indexed": true,
          "name": "propID",
          "type": "bytes32"
        },
        {
          "indexed": true,
          "name": "challengeID",
          "type": "uint256"
        },
        {
          "indexed": false,
          "name": "rewardPool",
          "type": "uint256"
        },
        {
          "indexed": false,
          "name": "totalTokens",
          "type": "uint256"
        }
      ],
      "name": "_ChallengeSucceeded",
      "type": "event"
    },
    {
      "anonymous": false,
      "inputs": [
        {
          "indexed": true,
          "name": "propID",
          "type": "bytes32"
        },
        {
          "indexed": true,
          "name": "challengeID",
          "type": "uint256"
        },
        {
          "indexed": false,
          "name": "rewardPool",
          "type": "uint256"
        },
        {
          "indexed": false,
          "name": "totalTokens",
          "type": "uint256"
        }
      ],
      "name": "_ChallengeFailed",
      "type": "event"
    },
    {
      "anonymous": false,
      "inputs": [
        {
          "indexed": true,
          "name": "challengeID",
          "type": "uint256"
        },
        {
          "indexed": false,
          "name": "reward",
          "type": "uint256"
        }
      ],
      "name": "_RewardClaimed",
      "type": "event"
    },
    {
      "constant": false,
      "inputs": [
        {
          "name": "_name",
          "type": "string"
        },
        {
          "name": "_value",
          "type": "uint256"
        }
      ],
      "name": "proposeReparameterization",
      "outputs": [
        {
          "name": "",
          "type": "bytes32"
        }
      ],
      "payable": false,
      "stateMutability": "nonpayable",
      "type": "function"
    },
    {
      "constant": false,
      "inputs": [
        {
          "name": "_propID",
          "type": "bytes32"
        }
      ],
      "name": "challengeReparameterization",
      "outputs": [
        {
          "name": "challengeID",
          "type": "uint256"
        }
      ],
      "payable": false,
      "stateMutability": "nonpayable",
      "type": "function"
    },
    {
      "constant": false,
      "inputs": [
        {
          "name": "_propID",
          "type": "bytes32"
        }
      ],
      "name": "processProposal",
      "outputs": [],
      "payable": false,
      "stateMutability": "nonpayable",
      "type": "function"
    },
    {
      "constant": false,
      "inputs": [
        {
          "name": "_challengeID",
          "type": "uint256"
        },
        {
          "name": "_salt",
          "type": "uint256"
        }
      ],
      "name": "claimReward",
      "outputs": [],
      "payable": false,
      "stateMutability": "nonpayable",
      "type": "function"
    },
    {
      "constant": true,
      "inputs": [
        {
          "name": "_voter",
          "type": "address"
        },
        {
          "name": "_challengeID",
          "type": "uint256"
        },
        {
          "name": "_salt",
          "type": "uint256"
        }
      ],
      "name": "voterReward",
      "outputs": [
        {
          "name": "",
          "type": "uint256"
        }
      ],
      "payable": false,
      "stateMutability": "view",
      "type": "function"
    },
    {
      "constant": true,
      "inputs": [
        {
          "name": "_propID",
          "type": "bytes32"
        }
      ],
      "name": "canBeSet",
      "outputs": [
        {
          "name": "",
          "type": "bool"
        }
      ],
      "payable": false,
      "stateMutability": "view",
      "type": "function"
    },
    {
      "constant": true,
      "inputs": [
        {
          "name": "_propID",
          "type": "bytes32"
        }
      ],
      "name": "propExists",
      "outputs": [
        {
          "name": "",
          "type": "bool"
        }
      ],
      "payable": false,
      "stateMutability": "view",
      "type": "function"
    },
    {
      "constant": true,
      "inputs": [
        {
          "name": "_propID",
          "type": "bytes32"
        }
      ],
      "name": "challengeCanBeResolved",
      "outputs": [
        {
          "name": "",
          "type": "bool"
        }
      ],
      "payable": false,
      "stateMutability": "view",
      "type": "function"
    },
    {
      "constant": true,
      "inputs": [
        {
          "name": "_challengeID",
          "type": "uint256"
        }
      ],
      "name": "challengeWinnerReward",
      "outputs": [
        {
          "name": "",
          "type": "uint256"
        }
      ],
      "payable": false,
      "stateMutability": "view",
      "type": "function"
    },
    {
      "constant": true,
      "inputs": [
        {
          "name": "_name",
          "type": "string"
        }
      ],
      "name": "get",
      "outputs": [
        {
          "name": "value",
          "type": "uint256"
        }
      ],
      "payable": false,
      "stateMutability": "view",
      "type": "function"
    },
    {
      "constant": true,
      "inputs": [
        {
          "name": "_challengeID",
          "type": "uint256"
        },
        {
          "name": "_voter",
          "type": "address"
        }
      ],
      "name": "tokenClaims",
      "outputs": [
        {
          "name": "",
          "type": "bool"
        }
      ],
      "payable": false,
      "stateMutability": "view",
      "type": "function"
    }
  ],
  "bytecode": "0x606060405262093a8060055534156200001757600080fd5b6040516101c0806200369f833981016040528080519060200190919080519060200190919080519060200190919080519060200190919080519060200190919080519060200190919080519060200190919080519060200190919080519060200190919080519060200190919080519060200190919080519060200190919080519060200190919080519060200190919050508d600360006101000a81548173ffffffffffffffffffffffffffffffffffffffff021916908373ffffffffffffffffffffffffffffffffffffffff1602179055508c600460006101000a81548173ffffffffffffffffffffffffffffffffffffffff021916908373ffffffffffffffffffffffffffffffffffffffff160217905550620001816040805190810160405280600a81526020017f6d696e4465706f736974000000000000000000000000000000000000000000008152508d6200053c6401000000000262002816176401000000009004565b620001d66040805190810160405280600b81526020017f704d696e4465706f7369740000000000000000000000000000000000000000008152508c6200053c6401000000000262002816176401000000009004565b6200022b6040805190810160405280600d81526020017f6170706c7953746167654c656e000000000000000000000000000000000000008152508b6200053c6401000000000262002816176401000000009004565b620002806040805190810160405280600e81526020017f704170706c7953746167654c656e0000000000000000000000000000000000008152508a6200053c6401000000000262002816176401000000009004565b620002d56040805190810160405280600e81526020017f636f6d6d697453746167654c656e000000000000000000000000000000000000815250896200053c6401000000000262002816176401000000009004565b6200032a6040805190810160405280600f81526020017f70436f6d6d697453746167654c656e0000000000000000000000000000000000815250886200053c6401000000000262002816176401000000009004565b6200037f6040805190810160405280600e81526020017f72657665616c53746167654c656e000000000000000000000000000000000000815250876200053c6401000000000262002816176401000000009004565b620003d46040805190810160405280600f81526020017f7052657665616c53746167654c656e0000000000000000000000000000000000815250866200053c6401000000000262002816176401000000009004565b620004296040805190810160405280600f81526020017f64697370656e736174696f6e5063740000000000000000000000000000000000815250856200053c6401000000000262002816176401000000009004565b6200047e6040805190810160405280601081526020017f7044697370656e736174696f6e50637400000000000000000000000000000000815250846200053c6401000000000262002816176401000000009004565b620004d36040805190810160405280600a81526020017f766f746551756f72756d00000000000000000000000000000000000000000000815250836200053c6401000000000262002816176401000000009004565b620005286040805190810160405280600b81526020017f70566f746551756f72756d000000000000000000000000000000000000000000815250826200053c6401000000000262002816176401000000009004565b5050505050505050505050505050620005c3565b80600080846040518082805190602001908083835b60208310151562000578578051825260208201915060208101905060208303925062000551565b6001836020036101000a038019825116818451168082178552505050505050905001915050604051809103902060001916600019168152602001908152602001600020819055505050565b6130cc80620005d36000396000f3006060604052600436106100f0576000357c0100000000000000000000000000000000000000000000000000000000900463ffffffff16806229514f146100f557806330490e911461011e57806332ed5b1214610145578063353009901461023b578063504115521461027a578063693ec85e146102b157806377609a41146103225780638240ae4b1461036157806386bb8f371461039c5780638f1d3776146103c8578063a5ba3b1e1461044b578063a7aad3db146104a5578063bade1c5414610504578063c51131fb14610586578063dc6ab527146105c5578063fc0c546a14610600578063fce1ccca14610655575b600080fd5b341561010057600080fd5b6101086106aa565b6040518082815260200191505060405180910390f35b341561012957600080fd5b6101436004808035600019169060200190919050506106b0565b005b341561015057600080fd5b61016a600480803560001916906020019091905050610dcf565b60405180888152602001878152602001868152602001806020018573ffffffffffffffffffffffffffffffffffffffff1673ffffffffffffffffffffffffffffffffffffffff168152602001848152602001838152602001828103825286818151815260200191508051906020019080838360005b838110156101fa5780820151818401526020810190506101df565b50505050905090810190601f1680156102275780820380516001836020036101000a031916815260200191505b509850505050505050505060405180910390f35b341561024657600080fd5b610260600480803560001916906020019091905050610ec9565b604051808215151515815260200191505060405180910390f35b341561028557600080fd5b61029b6004808035906020019091905050610ef3565b6040518082815260200191505060405180910390f35b34156102bc57600080fd5b61030c600480803590602001908201803590602001908080601f01602080910402602001604051908101604052809392919081815260200183838082843782019150505050505091905050610ffe565b6040518082815260200191505060405180910390f35b341561032d57600080fd5b610347600480803560001916906020019091905050611084565b604051808215151515815260200191505060405180910390f35b341561036c57600080fd5b610386600480803560001916906020019091905050611375565b6040518082815260200191505060405180910390f35b34156103a757600080fd5b6103c66004808035906020019091908035906020019091905050611a18565b005b34156103d357600080fd5b6103e96004808035906020019091905050611d8d565b604051808681526020018573ffffffffffffffffffffffffffffffffffffffff1673ffffffffffffffffffffffffffffffffffffffff168152602001841515151581526020018381526020018281526020019550505050505060405180910390f35b341561045657600080fd5b61048b600480803590602001909190803573ffffffffffffffffffffffffffffffffffffffff16906020019091905050611df0565b604051808215151515815260200191505060405180910390f35b34156104b057600080fd5b6104ee600480803573ffffffffffffffffffffffffffffffffffffffff16906020019091908035906020019091908035906020019091905050611e5b565b6040518082815260200191505060405180910390f35b341561050f57600080fd5b610568600480803590602001908201803590602001908080601f01602080910402602001604051908101604052809392919081815260200183838082843782019150505050505091908035906020019091905050611f92565b60405180826000191660001916815260200191505060405180910390f35b341561059157600080fd5b6105ab600480803560001916906020019091905050612627565b604051808215151515815260200191505060405180910390f35b34156105d057600080fd5b6105ea6004808035600019169060200190919050506127b2565b6040518082815260200191505060405180910390f35b341561060b57600080fd5b6106136127ca565b604051808273ffffffffffffffffffffffffffffffffffffffff1673ffffffffffffffffffffffffffffffffffffffff16815260200191505060405180910390f35b341561066057600080fd5b6106686127f0565b604051808273ffffffffffffffffffffffffffffffffffffffff1673ffffffffffffffffffffffffffffffffffffffff16815260200191505060405180910390f35b60055481565b600080600060026000856000191660001916815260200190815260200160002092508260040160009054906101000a900473ffffffffffffffffffffffffffffffffffffffff1691508260020154905061070984612627565b156109ed576107b8836003018054600181600116156101000203166002900480601f0160208091040260200160405190810160405280929190818152602001828054600181600116156101000203166002900480156107a95780601f1061077e576101008083540402835291602001916107a9565b820191906000526020600020905b81548152906001019060200180831161078c57829003601f168201915b50505050508460060154612816565b83600019167f37f3986c71e1aa2c470cfc4a92af70820610c3065589d35ef1664ea27f3e73a584600301856006015460405180806020018381526020018281038252848181546001816001161561010002031660029004815260200191508054600181600116156101000203166002900480156108765780601f1061084b57610100808354040283529160200191610876565b820191906000526020600020905b81548152906001019060200180831161085957829003601f168201915b5050935050505060405180910390a2600260008560001916600019168152602001908152602001600020600080820160009055600182016000905560028201600090556003820160006108c99190612efd565b6004820160006101000a81549073ffffffffffffffffffffffffffffffffffffffff0219169055600582016000905560068201600090555050600360009054906101000a900473ffffffffffffffffffffffffffffffffffffffff1673ffffffffffffffffffffffffffffffffffffffff1663a9059cbb83836040518363ffffffff167c0100000000000000000000000000000000000000000000000000000000028152600401808373ffffffffffffffffffffffffffffffffffffffff1673ffffffffffffffffffffffffffffffffffffffff16815260200182815260200192505050602060405180830381600087803b15156109c657600080fd5b5af115156109d357600080fd5b5050506040518051905015156109e857600080fd5b610bb5565b6109f684611084565b15610a0957610a048461289b565b610bb4565b8260050154421115610bae5783600019167f29026cb2acebe6d0a4b6d593ccadf76e3fc6d0a02254e078b0c4a619608089d760405160405180910390a260026000856000191660001916815260200190815260200160002060008082016000905560018201600090556002820160009055600382016000610a8a9190612efd565b6004820160006101000a81549073ffffffffffffffffffffffffffffffffffffffff0219169055600582016000905560068201600090555050600360009054906101000a900473ffffffffffffffffffffffffffffffffffffffff1673ffffffffffffffffffffffffffffffffffffffff1663a9059cbb83836040518363ffffffff167c0100000000000000000000000000000000000000000000000000000000028152600401808373ffffffffffffffffffffffffffffffffffffffff1673ffffffffffffffffffffffffffffffffffffffff16815260200182815260200192505050602060405180830381600087803b1515610b8757600080fd5b5af11515610b9457600080fd5b505050604051805190501515610ba957600080fd5b610bb3565b600080fd5b5b5b6064610bf56040805190810160405280600f81526020017f64697370656e736174696f6e5063740000000000000000000000000000000000815250610ffe565b11151515610bff57fe5b6064610c3f6040805190810160405280601081526020017f7044697370656e736174696f6e50637400000000000000000000000000000000815250610ffe565b11151515610c4957fe5b610d4b600554610d3d610c906040805190810160405280600f81526020017f7052657665616c53746167654c656e0000000000000000000000000000000000815250610ffe565b610d2f610cd16040805190810160405280600f81526020017f70436f6d6d697453746167654c656e0000000000000000000000000000000000815250610ffe565b610d21610d126040805190810160405280600e81526020017f704170706c7953746167654c656e000000000000000000000000000000000000815250610ffe565b42612e7890919063ffffffff16565b612e7890919063ffffffff16565b612e7890919063ffffffff16565b612e7890919063ffffffff16565b5060026000856000191660001916815260200190815260200160002060008082016000905560018201600090556002820160009055600382016000610d909190612efd565b6004820160006101000a81549073ffffffffffffffffffffffffffffffffffffffff021916905560058201600090556006820160009055505050505050565b6002602052806000526040600020600091509050806000015490806001015490806002015490806003018054600181600116156101000203166002900480601f016020809104026020016040519081016040528092919081815260200182805460018160011615610100020316600290048015610e8d5780601f10610e6257610100808354040283529160200191610e8d565b820191906000526020600020905b815481529060010190602001808311610e7057829003601f168201915b5050505050908060040160009054906101000a900473ffffffffffffffffffffffffffffffffffffffff16908060050154908060060154905087565b60008060026000846000191660001916815260200190815260200160002060050154119050919050565b600080600460009054906101000a900473ffffffffffffffffffffffffffffffffffffffff1673ffffffffffffffffffffffffffffffffffffffff1663053e71a6846040518263ffffffff167c010000000000000000000000000000000000000000000000000000000002815260040180828152602001915050602060405180830381600087803b1515610f8657600080fd5b5af11515610f9357600080fd5b505050604051805190501415610fc45760016000838152602001908152602001600020600201546002029050610ff9565b600160008381526020019081526020016000206000015460016000848152602001908152602001600020600201546002020390505b919050565b6000806000836040518082805190602001908083835b6020831015156110395780518252602082019150602081019050602083039250611014565b6001836020036101000a038019825116818451168082178552505050505050905001915050604051809103902060001916600019168152602001908152602001600020549050919050565b600061108e612f45565b611096612f9f565b60026000856000191660001916815260200190815260200160002060e06040519081016040529081600082015481526020016001820154815260200160028201548152602001600382018054600181600116156101000203166002900480601f0160208091040260200160405190810160405280929190818152602001828054600181600116156101000203166002900480156111745780601f1061114957610100808354040283529160200191611174565b820191906000526020600020905b81548152906001019060200180831161115757829003601f168201915b505050505081526020016004820160009054906101000a900473ffffffffffffffffffffffffffffffffffffffff1673ffffffffffffffffffffffffffffffffffffffff1673ffffffffffffffffffffffffffffffffffffffff168152602001600582015481526020016006820154815250509150600160008360200151815260200190815260200160002060a06040519081016040529081600082015481526020016001820160009054906101000a900473ffffffffffffffffffffffffffffffffffffffff1673ffffffffffffffffffffffffffffffffffffffff1673ffffffffffffffffffffffffffffffffffffffff1681526020016001820160149054906101000a900460ff16151515158152602001600282015481526020016003820154815250509050600082602001511180156112b957506000151581604001511515145b801561136c5750600460009054906101000a900473ffffffffffffffffffffffffffffffffffffffff1673ffffffffffffffffffffffffffffffffffffffff1663ee68483083602001516040518263ffffffff167c010000000000000000000000000000000000000000000000000000000002815260040180828152602001915050602060405180830381600087803b151561135457600080fd5b5af1151561136157600080fd5b505050604051805190505b92505050919050565b600061137f612f45565b60008060008060026000886000191660001916815260200190815260200160002060e06040519081016040529081600082015481526020016001820154815260200160028201548152602001600382018054600181600116156101000203166002900480601f0160208091040260200160405190810160405280929190818152602001828054600181600116156101000203166002900480156114635780601f1061143857610100808354040283529160200191611463565b820191906000526020600020905b81548152906001019060200180831161144657829003601f168201915b505050505081526020016004820160009054906101000a900473ffffffffffffffffffffffffffffffffffffffff1673ffffffffffffffffffffffffffffffffffffffff1673ffffffffffffffffffffffffffffffffffffffff168152602001600582015481526020016006820154815250509450846040015193506114e887610ec9565b80156114f8575060008560200151145b151561150357600080fd5b600460009054906101000a900473ffffffffffffffffffffffffffffffffffffffff1673ffffffffffffffffffffffffffffffffffffffff166332ed3d6061157f6040805190810160405280600b81526020017f70566f746551756f72756d000000000000000000000000000000000000000000815250610ffe565b6115bd6040805190810160405280600f81526020017f70436f6d6d697453746167654c656e0000000000000000000000000000000000815250610ffe565b6115fb6040805190810160405280600f81526020017f7052657665616c53746167654c656e0000000000000000000000000000000000815250610ffe565b6040518463ffffffff167c0100000000000000000000000000000000000000000000000000000000028152600401808481526020018381526020018281526020019350505050602060405180830381600087803b151561165a57600080fd5b5af1151561166757600080fd5b50505060405180519050925060a0604051908101604052806116ec60646116de886116d060646116cb6040805190810160405280601081526020017f7044697370656e736174696f6e50637400000000000000000000000000000000815250610ffe565b612e96565b612eaf90919063ffffffff16565b612ee290919063ffffffff16565b81526020013373ffffffffffffffffffffffffffffffffffffffff1681526020016000151581526020018581526020016000815250600160008581526020019081526020016000206000820151816000015560208201518160010160006101000a81548173ffffffffffffffffffffffffffffffffffffffff021916908373ffffffffffffffffffffffffffffffffffffffff16021790555060408201518160010160146101000a81548160ff02191690831515021790555060608201518160020155608082015181600301559050508260026000896000191660001916815260200190815260200160002060010181905550600360009054906101000a900473ffffffffffffffffffffffffffffffffffffffff1673ffffffffffffffffffffffffffffffffffffffff166323b872dd3330876040518463ffffffff167c0100000000000000000000000000000000000000000000000000000000028152600401808473ffffffffffffffffffffffffffffffffffffffff1673ffffffffffffffffffffffffffffffffffffffff1681526020018373ffffffffffffffffffffffffffffffffffffffff1673ffffffffffffffffffffffffffffffffffffffff1681526020018281526020019350505050602060405180830381600087803b15156118d757600080fd5b5af115156118e457600080fd5b5050506040518051905015156118f957600080fd5b600460009054906101000a900473ffffffffffffffffffffffffffffffffffffffff1673ffffffffffffffffffffffffffffffffffffffff16636148fed5846040518263ffffffff167c01000000000000000000000000000000000000000000000000000000000281526004018082815260200191505060a060405180830381600087803b151561198957600080fd5b5af1151561199657600080fd5b505050604051805190602001805190602001805190602001805190602001805190505050509150915086600019167f5e88249c51013cbfd75f686dff3af52c2c5fd311c0a3507c44eb311e0aa19ef984848460405180848152602001838152602001828152602001935050505060405180910390a28295505050505050919050565b600080600015156001600086815260200190815260200160002060040160003373ffffffffffffffffffffffffffffffffffffffff1673ffffffffffffffffffffffffffffffffffffffff16815260200190815260200160002060009054906101000a900460ff161515141515611a8e57600080fd5b600115156001600086815260200190815260200160002060010160149054906101000a900460ff161515141515611ac457600080fd5b600460009054906101000a900473ffffffffffffffffffffffffffffffffffffffff1673ffffffffffffffffffffffffffffffffffffffff1663b43bd0693386866040518463ffffffff167c0100000000000000000000000000000000000000000000000000000000028152600401808473ffffffffffffffffffffffffffffffffffffffff1673ffffffffffffffffffffffffffffffffffffffff1681526020018381526020018281526020019350505050602060405180830381600087803b1515611b9057600080fd5b5af11515611b9d57600080fd5b505050604051805190509150611bb4338585611e5b565b9050816001600086815260200190815260200160002060030160008282540392505081905550806001600086815260200190815260200160002060000160008282540392505081905550600180600086815260200190815260200160002060040160003373ffffffffffffffffffffffffffffffffffffffff1673ffffffffffffffffffffffffffffffffffffffff16815260200190815260200160002060006101000a81548160ff021916908315150217905550837fdd8c90eb7b58b95be79e20fdec3539242183fc9657e5ced305a7498aee449033826040518082815260200191505060405180910390a2600360009054906101000a900473ffffffffffffffffffffffffffffffffffffffff1673ffffffffffffffffffffffffffffffffffffffff1663a9059cbb33836040518363ffffffff167c0100000000000000000000000000000000000000000000000000000000028152600401808373ffffffffffffffffffffffffffffffffffffffff1673ffffffffffffffffffffffffffffffffffffffff16815260200182815260200192505050602060405180830381600087803b1515611d6557600080fd5b5af11515611d7257600080fd5b505050604051805190501515611d8757600080fd5b50505050565b60016020528060005260406000206000915090508060000154908060010160009054906101000a900473ffffffffffffffffffffffffffffffffffffffff16908060010160149054906101000a900460ff16908060020154908060030154905085565b60006001600084815260200190815260200160002060040160008373ffffffffffffffffffffffffffffffffffffffff1673ffffffffffffffffffffffffffffffffffffffff16815260200190815260200160002060009054906101000a900460ff16905092915050565b6000806000806001600087815260200190815260200160002060030154925060016000878152602001908152602001600020600001549150600460009054906101000a900473ffffffffffffffffffffffffffffffffffffffff1673ffffffffffffffffffffffffffffffffffffffff1663b43bd0698888886040518463ffffffff167c0100000000000000000000000000000000000000000000000000000000028152600401808473ffffffffffffffffffffffffffffffffffffffff1673ffffffffffffffffffffffffffffffffffffffff1681526020018381526020018281526020019350505050602060405180830381600087803b1515611f5f57600080fd5b5af11515611f6c57600080fd5b50505060405180519050905082828202811515611f8557fe5b0493505050509392505050565b6000806000611fd56040805190810160405280600b81526020017f704d696e4465706f736974000000000000000000000000000000000000000000815250610ffe565b915084846040518083805190602001908083835b60208310151561200e5780518252602082019150602081019050602083039250611fe9565b6001836020036101000a038019825116818451168082178552505050505050905001828152602001925050506040518091039020905060405180807f64697370656e736174696f6e5063740000000000000000000000000000000000815250600f019050604051809103902060001916856040518082805190602001908083835b6020831015156120b4578051825260208201915060208101905060208303925061208f565b6001836020036101000a038019825116818451168082178552505050505050905001915050604051809103902060001916148061218f575060405180807f7044697370656e736174696f6e506374000000000000000000000000000000008152506010019050604051809103902060001916856040518082805190602001908083835b60208310151561215c5780518252602082019150602081019050602083039250612137565b6001836020036101000a038019825116818451168082178552505050505050905001915050604051809103902060001916145b156121a557606484111515156121a457600080fd5b5b6121ae81610ec9565b1515156121ba57600080fd5b836121c486610ffe565b141515156121d157600080fd5b60e06040519081016040528061222d61221e6040805190810160405280600e81526020017f704170706c7953746167654c656e000000000000000000000000000000000000815250610ffe565b42612e7890919063ffffffff16565b8152602001600081526020018381526020018681526020013373ffffffffffffffffffffffffffffffffffffffff1681526020016123636005546123556122a86040805190810160405280600f81526020017f7052657665616c53746167654c656e0000000000000000000000000000000000815250610ffe565b6123476122e96040805190810160405280600f81526020017f70436f6d6d697453746167654c656e0000000000000000000000000000000000815250610ffe565b61233961232a6040805190810160405280600e81526020017f704170706c7953746167654c656e000000000000000000000000000000000000815250610ffe565b42612e7890919063ffffffff16565b612e7890919063ffffffff16565b612e7890919063ffffffff16565b612e7890919063ffffffff16565b81526020018581525060026000836000191660001916815260200190815260200160002060008201518160000155602082015181600101556040820151816002015560608201518160030190805190602001906123c1929190612fe7565b5060808201518160040160006101000a81548173ffffffffffffffffffffffffffffffffffffffff021916908373ffffffffffffffffffffffffffffffffffffffff16021790555060a0820151816005015560c08201518160060155905050600360009054906101000a900473ffffffffffffffffffffffffffffffffffffffff1673ffffffffffffffffffffffffffffffffffffffff166323b872dd3330856040518463ffffffff167c0100000000000000000000000000000000000000000000000000000000028152600401808473ffffffffffffffffffffffffffffffffffffffff1673ffffffffffffffffffffffffffffffffffffffff1681526020018373ffffffffffffffffffffffffffffffffffffffff1673ffffffffffffffffffffffffffffffffffffffff1681526020018281526020019350505050602060405180830381600087803b151561251857600080fd5b5af1151561252557600080fd5b50505060405180519050151561253a57600080fd5b7f04c8a7b97062ecc3336d361d448d1c9083de4446c7970ff8bb0d63985f72abb1858583856002600087600019166000191681526020019081526020016000206000015460405180806020018681526020018560001916600019168152602001848152602001838152602001828103825287818151815260200191508051906020019080838360005b838110156125de5780820151818401526020810190506125c3565b50505050905090810190601f16801561260b5780820380516001836020036101000a031916815260200191505b50965050505050505060405180910390a1809250505092915050565b6000612631612f45565b60026000846000191660001916815260200190815260200160002060e06040519081016040529081600082015481526020016001820154815260200160028201548152602001600382018054600181600116156101000203166002900480601f01602080910402602001604051908101604052809291908181526020018280546001816001161561010002031660029004801561270f5780601f106126e45761010080835404028352916020019161270f565b820191906000526020600020905b8154815290600101906020018083116126f257829003601f168201915b505050505081526020016004820160009054906101000a900473ffffffffffffffffffffffffffffffffffffffff1673ffffffffffffffffffffffffffffffffffffffff1673ffffffffffffffffffffffffffffffffffffffff16815260200160058201548152602001600682015481525050905080600001514211801561279a57508060a0015142105b80156127aa575060008160200151145b915050919050565b60006020528060005260406000206000915090505481565b600360009054906101000a900473ffffffffffffffffffffffffffffffffffffffff1681565b600460009054906101000a900473ffffffffffffffffffffffffffffffffffffffff1681565b80600080846040518082805190602001908083835b602083101515612850578051825260208201915060208101905060208303925061282b565b6001836020036101000a038019825116818451168082178552505050505050905001915050604051809103902060001916600019168152602001908152602001600020819055505050565b6128a3612f45565b60008060026000856000191660001916815260200190815260200160002060e06040519081016040529081600082015481526020016001820154815260200160028201548152602001600382018054600181600116156101000203166002900480601f0160208091040260200160405190810160405280929190818152602001828054600181600116156101000203166002900480156129845780601f1061295957610100808354040283529160200191612984565b820191906000526020600020905b81548152906001019060200180831161296757829003601f168201915b505050505081526020016004820160009054906101000a900473ffffffffffffffffffffffffffffffffffffffff1673ffffffffffffffffffffffffffffffffffffffff1673ffffffffffffffffffffffffffffffffffffffff16815260200160058201548152602001600682015481525050925060016000846020015181526020019081526020016000209150612a1f8360200151610ef3565b9050600460009054906101000a900473ffffffffffffffffffffffffffffffffffffffff1673ffffffffffffffffffffffffffffffffffffffff1663053e71a684602001516040518263ffffffff167c010000000000000000000000000000000000000000000000000000000002815260040180828152602001915050602060405180830381600087803b1515612ab557600080fd5b5af11515612ac257600080fd5b50505060405180519050826003018190555060018260010160146101000a81548160ff021916908315150217905550600460009054906101000a900473ffffffffffffffffffffffffffffffffffffffff1673ffffffffffffffffffffffffffffffffffffffff16634940318384602001516040518263ffffffff167c010000000000000000000000000000000000000000000000000000000002815260040180828152602001915050602060405180830381600087803b1515612b8557600080fd5b5af11515612b9257600080fd5b5050506040518051905015612d0057428360a001511115612bc057612bbf83606001518460c00151612816565b5b826020015184600019167fc4497224aa78dd50c9b3e344aab02596201ca1e6dca4057a91a6c02f83f4f6c184600001548560030154604051808381526020018281526020019250505060405180910390a3600360009054906101000a900473ffffffffffffffffffffffffffffffffffffffff1673ffffffffffffffffffffffffffffffffffffffff1663a9059cbb8460800151836040518363ffffffff167c0100000000000000000000000000000000000000000000000000000000028152600401808373ffffffffffffffffffffffffffffffffffffffff1673ffffffffffffffffffffffffffffffffffffffff16815260200182815260200192505050602060405180830381600087803b1515612cd957600080fd5b5af11515612ce657600080fd5b505050604051805190501515612cfb57600080fd5b612e72565b826020015184600019167f362a12431f779a2baff4f77f75ba7960ae993a5c41b425df11f7fd0af2b9cbe684600001548560030154604051808381526020018281526020019250505060405180910390a3600360009054906101000a900473ffffffffffffffffffffffffffffffffffffffff1673ffffffffffffffffffffffffffffffffffffffff1663a9059cbb600160008660200151815260200190815260200160002060010160009054906101000a900473ffffffffffffffffffffffffffffffffffffffff16836040518363ffffffff167c0100000000000000000000000000000000000000000000000000000000028152600401808373ffffffffffffffffffffffffffffffffffffffff1673ffffffffffffffffffffffffffffffffffffffff16815260200182815260200192505050602060405180830381600087803b1515612e4f57600080fd5b5af11515612e5c57600080fd5b505050604051805190501515612e7157600080fd5b5b50505050565b6000808284019050838110151515612e8c57fe5b8091505092915050565b6000828211151515612ea457fe5b818303905092915050565b60008082840290506000841480612ed05750828482811515612ecd57fe5b04145b1515612ed857fe5b8091505092915050565b6000808284811515612ef057fe5b0490508091505092915050565b50805460018160011615610100020316600290046000825580601f10612f235750612f42565b601f016020900490600052602060002090810190612f419190613067565b5b50565b60e060405190810160405280600081526020016000815260200160008152602001612f6e61308c565b8152602001600073ffffffffffffffffffffffffffffffffffffffff16815260200160008152602001600081525090565b60a06040519081016040528060008152602001600073ffffffffffffffffffffffffffffffffffffffff16815260200160001515815260200160008152602001600081525090565b828054600181600116156101000203166002900490600052602060002090601f016020900481019282601f1061302857805160ff1916838001178555613056565b82800160010185558215613056579182015b8281111561305557825182559160200191906001019061303a565b5b5090506130639190613067565b5090565b61308991905b8082111561308557600081600090555060010161306d565b5090565b90565b6020604051908101604052806000815250905600a165627a7a723058209e737338c21250df94f6490e6def8c80899bb02bed53a237928bcf53753998130029",
  "source": "pragma solidity^0.4.20;\r\n\r\nimport \"plcrvoting/PLCRVoting.sol\";\r\nimport \"tokens/eip20/EIP20Interface.sol\";\r\nimport \"zeppelin/math/SafeMath.sol\";\r\n\r\ncontract Parameterizer {\r\n\r\n  // ------\r\n  // EVENTS\r\n  // ------\r\n\r\n  event _ReparameterizationProposal(string name, uint value, bytes32 propID, uint deposit, uint appEndDate);\r\n  event _NewChallenge(bytes32 indexed propID, uint challengeID, uint commitEndDate, uint revealEndDate);\r\n  event _ProposalAccepted(bytes32 indexed propID, string name, uint value);\r\n  event _ProposalExpired(bytes32 indexed propID);\r\n  event _ChallengeSucceeded(bytes32 indexed propID, uint indexed challengeID, uint rewardPool, uint totalTokens);\r\n  event _ChallengeFailed(bytes32 indexed propID, uint indexed challengeID, uint rewardPool, uint totalTokens);\r\n  event _RewardClaimed(uint indexed challengeID, uint reward);\r\n\r\n\r\n  // ------\r\n  // DATA STRUCTURES\r\n  // ------\r\n\r\n  using SafeMath for uint;\r\n\r\n  struct ParamProposal {\r\n    uint appExpiry;\r\n    uint challengeID;\r\n    uint deposit;\r\n    string name;\r\n    address owner;\r\n    uint processBy;\r\n    uint value;\r\n  }\r\n\r\n  struct Challenge {\r\n    uint rewardPool;        // (remaining) pool of tokens distributed amongst winning voters\r\n    address challenger;     // owner of Challenge\r\n    bool resolved;          // indication of if challenge is resolved\r\n    uint stake;             // number of tokens at risk for either party during challenge\r\n    uint winningTokens;     // (remaining) amount of tokens used for voting by the winning side\r\n    mapping(address => bool) tokenClaims;\r\n  }\r\n\r\n  // ------\r\n  // STATE\r\n  // ------\r\n\r\n  mapping(bytes32 => uint) public params;\r\n\r\n  // maps challengeIDs to associated challenge data\r\n  mapping(uint => Challenge) public challenges;\r\n\r\n  // maps pollIDs to intended data change if poll passes\r\n  mapping(bytes32 => ParamProposal) public proposals;\r\n\r\n  // Global Variables\r\n  EIP20Interface public token;\r\n  PLCRVoting public voting;\r\n  uint public PROCESSBY = 604800; // 7 days\r\n\r\n  // ------------\r\n  // CONSTRUCTOR\r\n  // ------------\r\n\r\n  /**\r\n  @dev constructor\r\n  @param _tokenAddr        address of the token which parameterizes this system\r\n  @param _plcrAddr         address of a PLCR voting contract for the provided token\r\n  @param _minDeposit       minimum deposit for listing to be whitelisted\r\n  @param _pMinDeposit      minimum deposit to propose a reparameterization\r\n  @param _applyStageLen    period over which applicants wait to be whitelisted\r\n  @param _pApplyStageLen   period over which reparmeterization proposals wait to be processed\r\n  @param _dispensationPct  percentage of losing party's deposit distributed to winning party\r\n  @param _pDispensationPct percentage of losing party's deposit distributed to winning party in parameterizer\r\n  @param _commitStageLen  length of commit period for voting\r\n  @param _pCommitStageLen length of commit period for voting in parameterizer\r\n  @param _revealStageLen  length of reveal period for voting\r\n  @param _pRevealStageLen length of reveal period for voting in parameterizer\r\n  @param _voteQuorum       type of majority out of 100 necessary for vote success\r\n  @param _pVoteQuorum      type of majority out of 100 necessary for vote success in parameterizer\r\n  */\r\n  function Parameterizer(\r\n    address _tokenAddr,\r\n    address _plcrAddr,\r\n    uint _minDeposit,\r\n    uint _pMinDeposit,\r\n    uint _applyStageLen,\r\n    uint _pApplyStageLen,\r\n    uint _commitStageLen,\r\n    uint _pCommitStageLen,\r\n    uint _revealStageLen,\r\n    uint _pRevealStageLen,\r\n    uint _dispensationPct,\r\n    uint _pDispensationPct,\r\n    uint _voteQuorum,\r\n    uint _pVoteQuorum\r\n    ) public {\r\n      token = EIP20Interface(_tokenAddr);\r\n      voting = PLCRVoting(_plcrAddr);\r\n\r\n      set(\"minDeposit\", _minDeposit);\r\n      set(\"pMinDeposit\", _pMinDeposit);\r\n      set(\"applyStageLen\", _applyStageLen);\r\n      set(\"pApplyStageLen\", _pApplyStageLen);\r\n      set(\"commitStageLen\", _commitStageLen);\r\n      set(\"pCommitStageLen\", _pCommitStageLen);\r\n      set(\"revealStageLen\", _revealStageLen);\r\n      set(\"pRevealStageLen\", _pRevealStageLen);\r\n      set(\"dispensationPct\", _dispensationPct);\r\n      set(\"pDispensationPct\", _pDispensationPct);\r\n      set(\"voteQuorum\", _voteQuorum);\r\n      set(\"pVoteQuorum\", _pVoteQuorum);\r\n  }\r\n\r\n  // -----------------------\r\n  // TOKEN HOLDER INTERFACE\r\n  // -----------------------\r\n\r\n  /**\r\n  @notice propose a reparamaterization of the key _name's value to _value.\r\n  @param _name the name of the proposed param to be set\r\n  @param _value the proposed value to set the param to be set\r\n  */\r\n  function proposeReparameterization(string _name, uint _value) public returns (bytes32) {\r\n    uint deposit = get(\"pMinDeposit\");\r\n    bytes32 propID = keccak256(_name, _value);\r\n\r\n    if (keccak256(_name) == keccak256('dispensationPct') ||\r\n       keccak256(_name) == keccak256('pDispensationPct')) {\r\n        require(_value <= 100);\r\n    }\r\n\r\n    require(!propExists(propID)); // Forbid duplicate proposals\r\n    require(get(_name) != _value); // Forbid NOOP reparameterizations\r\n\r\n    // attach name and value to pollID\r\n    proposals[propID] = ParamProposal({\r\n      appExpiry: now.add(get(\"pApplyStageLen\")),\r\n      challengeID: 0,\r\n      deposit: deposit,\r\n      name: _name,\r\n      owner: msg.sender,\r\n      processBy: now.add(get(\"pApplyStageLen\"))\r\n        .add(get(\"pCommitStageLen\"))\r\n        .add(get(\"pRevealStageLen\"))\r\n        .add(PROCESSBY),\r\n      value: _value\r\n    });\r\n\r\n    require(token.transferFrom(msg.sender, this, deposit)); // escrow tokens (deposit amt)\r\n\r\n    _ReparameterizationProposal(_name, _value, propID, deposit, proposals[propID].appExpiry);\r\n    return propID;\r\n  }\r\n\r\n  /**\r\n  @notice challenge the provided proposal ID, and put tokens at stake to do so.\r\n  @param _propID the proposal ID to challenge\r\n  */\r\n  function challengeReparameterization(bytes32 _propID) public returns (uint challengeID) {\r\n    ParamProposal memory prop = proposals[_propID];\r\n    uint deposit = prop.deposit;\r\n\r\n    require(propExists(_propID) && prop.challengeID == 0);\r\n\r\n    //start poll\r\n    uint pollID = voting.startPoll(\r\n      get(\"pVoteQuorum\"),\r\n      get(\"pCommitStageLen\"),\r\n      get(\"pRevealStageLen\")\r\n    );\r\n\r\n    challenges[pollID] = Challenge({\r\n      challenger: msg.sender,\r\n      rewardPool: SafeMath.sub(100, get(\"pDispensationPct\")).mul(deposit).div(100),\r\n      stake: deposit,\r\n      resolved: false,\r\n      winningTokens: 0\r\n    });\r\n\r\n    proposals[_propID].challengeID = pollID;       // update listing to store most recent challenge\r\n\r\n    //take tokens from challenger\r\n    require(token.transferFrom(msg.sender, this, deposit));\r\n\r\n    var (commitEndDate, revealEndDate,) = voting.pollMap(pollID);\r\n\r\n    _NewChallenge(_propID, pollID, commitEndDate, revealEndDate);\r\n    return pollID;\r\n  }\r\n\r\n  /**\r\n  @notice for the provided proposal ID, set it, resolve its challenge, or delete it depending on whether it can be set, has a challenge which can be resolved, or if its \"process by\" date has passed\r\n  @param _propID the proposal ID to make a determination and state transition for\r\n  */\r\n  function processProposal(bytes32 _propID) public {\r\n    ParamProposal storage prop = proposals[_propID];\r\n    address propOwner = prop.owner;\r\n    uint propDeposit = prop.deposit;\r\n\r\n    \r\n    // Before any token transfers, deleting the proposal will ensure that if reentrancy occurs the\r\n    // prop.owner and prop.deposit will be 0, thereby preventing theft\r\n   if (canBeSet(_propID)) {\r\n      // There is no challenge against the proposal. The processBy date for the proposal has not\r\n     // passed, but the proposal's appExpirty date has passed.\r\n      set(prop.name, prop.value);\r\n      _ProposalAccepted(_propID, prop.name, prop.value);\r\n      delete proposals[_propID];\r\n      require(token.transfer(propOwner, propDeposit));\r\n    } else if (challengeCanBeResolved(_propID)) {\r\n      // There is a challenge against the proposal.\r\n      resolveChallenge(_propID);\r\n    } else if (now > prop.processBy) {\r\n      // There is no challenge against the proposal, but the processBy date has passed.\r\n      _ProposalExpired(_propID);\r\n      delete proposals[_propID];\r\n      require(token.transfer(propOwner, propDeposit));\r\n    } else {\r\n      // There is no challenge against the proposal, and neither the appExpiry date nor the\r\n      // processBy date has passed.\r\n      revert();\r\n    }\r\n\r\n    assert(get(\"dispensationPct\") <= 100);\r\n    assert(get(\"pDispensationPct\") <= 100);\r\n\r\n    // verify that future proposal appExpiry and processBy times will not overflow\r\n    now.add(get(\"pApplyStageLen\"))\r\n      .add(get(\"pCommitStageLen\"))\r\n      .add(get(\"pRevealStageLen\"))\r\n      .add(PROCESSBY);\r\n\r\n    delete proposals[_propID];\r\n  }\r\n\r\n  /**\r\n  @notice claim the tokens owed for the msg.sender in the provided challenge\r\n  @param _challengeID the challenge ID to claim tokens for\r\n  @param _salt the salt used to vote in the challenge being withdrawn for\r\n  */\r\n  function claimReward(uint _challengeID, uint _salt) public {\r\n    // ensure voter has not already claimed tokens and challenge results have been processed\r\n    require(challenges[_challengeID].tokenClaims[msg.sender] == false);\r\n    require(challenges[_challengeID].resolved == true);\r\n\r\n    uint voterTokens = voting.getNumPassingTokens(msg.sender, _challengeID, _salt);\r\n    uint reward = voterReward(msg.sender, _challengeID, _salt);\r\n\r\n    // subtract voter's information to preserve the participation ratios of other voters\r\n    // compared to the remaining pool of rewards\r\n    challenges[_challengeID].winningTokens -= voterTokens;\r\n    challenges[_challengeID].rewardPool -= reward;\r\n\r\n    // ensures a voter cannot claim tokens again\r\n    challenges[_challengeID].tokenClaims[msg.sender] = true;\r\n\r\n    _RewardClaimed(_challengeID, reward);\r\n    require(token.transfer(msg.sender, reward));\r\n  }\r\n\r\n  // --------\r\n  // GETTERS\r\n  // --------\r\n\r\n  /**\r\n  @dev                Calculates the provided voter's token reward for the given poll.\r\n  @param _voter       The address of the voter whose reward balance is to be returned\r\n  @param _challengeID The ID of the challenge the voter's reward is being calculated for\r\n  @param _salt        The salt of the voter's commit hash in the given poll\r\n  @return             The uint indicating the voter's reward\r\n  */\r\n  function voterReward(address _voter, uint _challengeID, uint _salt)\r\n  public view returns (uint) {\r\n    uint winningTokens = challenges[_challengeID].winningTokens;\r\n    uint rewardPool = challenges[_challengeID].rewardPool;\r\n    uint voterTokens = voting.getNumPassingTokens(_voter, _challengeID, _salt);\r\n    return (voterTokens * rewardPool) / winningTokens;\r\n  }\r\n\r\n  /**\r\n  @notice Determines whether a proposal passed its application stage without a challenge\r\n  @param _propID The proposal ID for which to determine whether its application stage passed without a challenge\r\n  */\r\n  function canBeSet(bytes32 _propID) view public returns (bool) {\r\n    ParamProposal memory prop = proposals[_propID];\r\n\r\n    return (now > prop.appExpiry && now < prop.processBy && prop.challengeID == 0);\r\n  }\r\n\r\n  /**\r\n  @notice Determines whether a proposal exists for the provided proposal ID\r\n  @param _propID The proposal ID whose existance is to be determined\r\n  */\r\n  function propExists(bytes32 _propID) view public returns (bool) {\r\n    return proposals[_propID].processBy > 0;\r\n  }\r\n\r\n  /**\r\n  @notice Determines whether the provided proposal ID has a challenge which can be resolved\r\n  @param _propID The proposal ID whose challenge to inspect\r\n  */\r\n  function challengeCanBeResolved(bytes32 _propID) view public returns (bool) {\r\n    ParamProposal memory prop = proposals[_propID];\r\n    Challenge memory challenge = challenges[prop.challengeID];\r\n\r\n    return (prop.challengeID > 0 && challenge.resolved == false &&\r\n            voting.pollEnded(prop.challengeID));\r\n  }\r\n\r\n  /**\r\n  @notice Determines the number of tokens to awarded to the winning party in a challenge\r\n  @param _challengeID The challengeID to determine a reward for\r\n  */\r\n  function challengeWinnerReward(uint _challengeID) public view returns (uint) {\r\n    if(voting.getTotalNumberOfTokensForWinningOption(_challengeID) == 0) {\r\n      // Edge case, nobody voted, give all tokens to the challenger.\r\n      return 2 * challenges[_challengeID].stake;\r\n    }\r\n\r\n    return (2 * challenges[_challengeID].stake) - challenges[_challengeID].rewardPool;\r\n  }\r\n\r\n  /**\r\n  @notice gets the parameter keyed by the provided name value from the params mapping\r\n  @param _name the key whose value is to be determined\r\n  */\r\n  function get(string _name) public view returns (uint value) {\r\n    return params[keccak256(_name)];\r\n  }\r\n\r\n  /**\r\n  @dev                Getter for Challenge tokenClaims mappings\r\n  @param _challengeID The challengeID to query\r\n  @param _voter       The voter whose claim status to query for the provided challengeID\r\n  */\r\n  function tokenClaims(uint _challengeID, address _voter) public view returns (bool) {\r\n    return challenges[_challengeID].tokenClaims[_voter];\r\n  }\r\n\r\n  // ----------------\r\n  // PRIVATE FUNCTIONS\r\n  // ----------------\r\n\r\n  /**\r\n  @dev resolves a challenge for the provided _propID. It must be checked in advance whether the _propID has a challenge on it\r\n  @param _propID the proposal ID whose challenge is to be resolved.\r\n  */\r\n  function resolveChallenge(bytes32 _propID) private {\r\n    ParamProposal memory prop = proposals[_propID];\r\n    Challenge storage challenge = challenges[prop.challengeID];\r\n\r\n    // winner gets back their full staked deposit, and dispensationPct*loser's stake\r\n    uint reward = challengeWinnerReward(prop.challengeID);\r\n\r\n    challenge.winningTokens =\r\n      voting.getTotalNumberOfTokensForWinningOption(prop.challengeID);\r\n    challenge.resolved = true;\r\n\r\n    if (voting.isPassed(prop.challengeID)) { // The challenge failed\r\n      if(prop.processBy > now) {\r\n        set(prop.name, prop.value);\r\n      }\r\n      _ChallengeFailed(_propID, prop.challengeID, challenge.rewardPool, challenge.winningTokens);\r\n      require(token.transfer(prop.owner, reward));\r\n    }\r\n    else { // The challenge succeeded or nobody voted\r\n      _ChallengeSucceeded(_propID, prop.challengeID, challenge.rewardPool, challenge.winningTokens);\r\n      require(token.transfer(challenges[prop.challengeID].challenger, reward));\r\n    }\r\n  }\r\n\r\n  /**\r\n  @dev sets the param keted by the provided name to the provided value\r\n  @param _name the name of the param to be set\r\n  @param _value the value to set the param to be set\r\n  */\r\n  function set(string _name, uint _value) private {\r\n    params[keccak256(_name)] = _value;\r\n  }\r\n}",
  "sourcePath": "C:\\Users\\shach\\Documents\\Deco.Network\\DeconetRegistry\\contracts\\Parameterizer.sol",
  "compiler": {
    "name": "solc",
    "version": "0.4.21+commit.dfe3193c.Emscripten.clang"
  },
  "schemaVersion": "2.0.0",
  "updatedAt": "2018-04-10T00:47:29.297Z"
}