{
  "contractName": "Parameterizer",
  "abi": [
    {
      "constant": true,
      "inputs": [],
      "name": "PROCESSBY",
      "outputs": [
        {
          "name": "",
          "type": "uint256"
        }
      ],
      "payable": false,
      "stateMutability": "view",
      "type": "function"
    },
    {
      "constant": false,
      "inputs": [
        {
          "name": "_propID",
          "type": "bytes32"
        }
      ],
      "name": "processProposal",
      "outputs": [],
      "payable": false,
      "stateMutability": "nonpayable",
      "type": "function"
    },
    {
      "constant": true,
      "inputs": [
        {
          "name": "",
          "type": "bytes32"
        }
      ],
      "name": "proposals",
      "outputs": [
        {
          "name": "appExpiry",
          "type": "uint256"
        },
        {
          "name": "challengeID",
          "type": "uint256"
        },
        {
          "name": "deposit",
          "type": "uint256"
        },
        {
          "name": "name",
          "type": "string"
        },
        {
          "name": "owner",
          "type": "address"
        },
        {
          "name": "processBy",
          "type": "uint256"
        },
        {
          "name": "value",
          "type": "uint256"
        }
      ],
      "payable": false,
      "stateMutability": "view",
      "type": "function"
    },
    {
      "constant": true,
      "inputs": [
        {
          "name": "_propID",
          "type": "bytes32"
        }
      ],
      "name": "propExists",
      "outputs": [
        {
          "name": "",
          "type": "bool"
        }
      ],
      "payable": false,
      "stateMutability": "view",
      "type": "function"
    },
    {
      "constant": true,
      "inputs": [
        {
          "name": "_challengeID",
          "type": "uint256"
        }
      ],
      "name": "challengeWinnerReward",
      "outputs": [
        {
          "name": "",
          "type": "uint256"
        }
      ],
      "payable": false,
      "stateMutability": "view",
      "type": "function"
    },
    {
      "constant": true,
      "inputs": [
        {
          "name": "_name",
          "type": "string"
        }
      ],
      "name": "get",
      "outputs": [
        {
          "name": "value",
          "type": "uint256"
        }
      ],
      "payable": false,
      "stateMutability": "view",
      "type": "function"
    },
    {
      "constant": true,
      "inputs": [
        {
          "name": "_propID",
          "type": "bytes32"
        }
      ],
      "name": "challengeCanBeResolved",
      "outputs": [
        {
          "name": "",
          "type": "bool"
        }
      ],
      "payable": false,
      "stateMutability": "view",
      "type": "function"
    },
    {
      "constant": false,
      "inputs": [
        {
          "name": "_propID",
          "type": "bytes32"
        }
      ],
      "name": "challengeReparameterization",
      "outputs": [
        {
          "name": "challengeID",
          "type": "uint256"
        }
      ],
      "payable": false,
      "stateMutability": "nonpayable",
      "type": "function"
    },
    {
      "constant": false,
      "inputs": [
        {
          "name": "_challengeID",
          "type": "uint256"
        },
        {
          "name": "_salt",
          "type": "uint256"
        }
      ],
      "name": "claimReward",
      "outputs": [],
      "payable": false,
      "stateMutability": "nonpayable",
      "type": "function"
    },
    {
      "constant": true,
      "inputs": [
        {
          "name": "",
          "type": "uint256"
        }
      ],
      "name": "challenges",
      "outputs": [
        {
          "name": "rewardPool",
          "type": "uint256"
        },
        {
          "name": "challenger",
          "type": "address"
        },
        {
          "name": "resolved",
          "type": "bool"
        },
        {
          "name": "stake",
          "type": "uint256"
        },
        {
          "name": "winningTokens",
          "type": "uint256"
        }
      ],
      "payable": false,
      "stateMutability": "view",
      "type": "function"
    },
    {
      "constant": true,
      "inputs": [
        {
          "name": "_voter",
          "type": "address"
        },
        {
          "name": "_challengeID",
          "type": "uint256"
        },
        {
          "name": "_salt",
          "type": "uint256"
        }
      ],
      "name": "voterReward",
      "outputs": [
        {
          "name": "",
          "type": "uint256"
        }
      ],
      "payable": false,
      "stateMutability": "view",
      "type": "function"
    },
    {
      "constant": false,
      "inputs": [
        {
          "name": "_name",
          "type": "string"
        },
        {
          "name": "_value",
          "type": "uint256"
        }
      ],
      "name": "proposeReparameterization",
      "outputs": [
        {
          "name": "",
          "type": "bytes32"
        }
      ],
      "payable": false,
      "stateMutability": "nonpayable",
      "type": "function"
    },
    {
      "constant": true,
      "inputs": [
        {
          "name": "_propID",
          "type": "bytes32"
        }
      ],
      "name": "canBeSet",
      "outputs": [
        {
          "name": "",
          "type": "bool"
        }
      ],
      "payable": false,
      "stateMutability": "view",
      "type": "function"
    },
    {
      "constant": true,
      "inputs": [
        {
          "name": "",
          "type": "bytes32"
        }
      ],
      "name": "params",
      "outputs": [
        {
          "name": "",
          "type": "uint256"
        }
      ],
      "payable": false,
      "stateMutability": "view",
      "type": "function"
    },
    {
      "constant": true,
      "inputs": [],
      "name": "token",
      "outputs": [
        {
          "name": "",
          "type": "address"
        }
      ],
      "payable": false,
      "stateMutability": "view",
      "type": "function"
    },
    {
      "constant": true,
      "inputs": [],
      "name": "voting",
      "outputs": [
        {
          "name": "",
          "type": "address"
        }
      ],
      "payable": false,
      "stateMutability": "view",
      "type": "function"
    },
    {
      "inputs": [
        {
          "name": "_tokenAddr",
          "type": "address"
        },
        {
          "name": "_plcrAddr",
          "type": "address"
        },
        {
          "name": "_minDeposit",
          "type": "uint256"
        },
        {
          "name": "_pMinDeposit",
          "type": "uint256"
        },
        {
          "name": "_applyStageLen",
          "type": "uint256"
        },
        {
          "name": "_pApplyStageLen",
          "type": "uint256"
        },
        {
          "name": "_commitStageLen",
          "type": "uint256"
        },
        {
          "name": "_pCommitStageLen",
          "type": "uint256"
        },
        {
          "name": "_revealStageLen",
          "type": "uint256"
        },
        {
          "name": "_pRevealStageLen",
          "type": "uint256"
        },
        {
          "name": "_dispensationPct",
          "type": "uint256"
        },
        {
          "name": "_pDispensationPct",
          "type": "uint256"
        },
        {
          "name": "_voteQuorum",
          "type": "uint256"
        },
        {
          "name": "_pVoteQuorum",
          "type": "uint256"
        }
      ],
      "payable": false,
      "stateMutability": "nonpayable",
      "type": "constructor"
    },
    {
      "anonymous": false,
      "inputs": [
        {
          "indexed": false,
          "name": "proposer",
          "type": "address"
        },
        {
          "indexed": false,
          "name": "name",
          "type": "string"
        },
        {
          "indexed": false,
          "name": "value",
          "type": "uint256"
        },
        {
          "indexed": false,
          "name": "propID",
          "type": "bytes32"
        }
      ],
      "name": "_ReparameterizationProposal",
      "type": "event"
    },
    {
      "anonymous": false,
      "inputs": [
        {
          "indexed": false,
          "name": "challenger",
          "type": "address"
        },
        {
          "indexed": false,
          "name": "propID",
          "type": "bytes32"
        },
        {
          "indexed": false,
          "name": "pollID",
          "type": "uint256"
        }
      ],
      "name": "_NewChallenge",
      "type": "event"
    }
  ],
  "bytecode": "0x606060405262093a8060055534156200001757600080fd5b6040516101c08062002df1833981016040528080519060200190919080519060200190919080519060200190919080519060200190919080519060200190919080519060200190919080519060200190919080519060200190919080519060200190919080519060200190919080519060200190919080519060200190919080519060200190919080519060200190919050508d600360006101000a81548173ffffffffffffffffffffffffffffffffffffffff021916908373ffffffffffffffffffffffffffffffffffffffff1602179055508c600460006101000a81548173ffffffffffffffffffffffffffffffffffffffff021916908373ffffffffffffffffffffffffffffffffffffffff160217905550620001816040805190810160405280600a81526020017f6d696e4465706f736974000000000000000000000000000000000000000000008152508d6200053c640100000000026200205b176401000000009004565b620001d66040805190810160405280600b81526020017f704d696e4465706f7369740000000000000000000000000000000000000000008152508c6200053c640100000000026200205b176401000000009004565b6200022b6040805190810160405280600d81526020017f6170706c7953746167654c656e000000000000000000000000000000000000008152508b6200053c640100000000026200205b176401000000009004565b620002806040805190810160405280600e81526020017f704170706c7953746167654c656e0000000000000000000000000000000000008152508a6200053c640100000000026200205b176401000000009004565b620002d56040805190810160405280600e81526020017f636f6d6d697453746167654c656e000000000000000000000000000000000000815250896200053c640100000000026200205b176401000000009004565b6200032a6040805190810160405280600f81526020017f70436f6d6d697453746167654c656e0000000000000000000000000000000000815250886200053c640100000000026200205b176401000000009004565b6200037f6040805190810160405280600e81526020017f72657665616c53746167654c656e000000000000000000000000000000000000815250876200053c640100000000026200205b176401000000009004565b620003d46040805190810160405280600f81526020017f7052657665616c53746167654c656e0000000000000000000000000000000000815250866200053c640100000000026200205b176401000000009004565b620004296040805190810160405280600f81526020017f64697370656e736174696f6e5063740000000000000000000000000000000000815250856200053c640100000000026200205b176401000000009004565b6200047e6040805190810160405280601081526020017f7044697370656e736174696f6e50637400000000000000000000000000000000815250846200053c640100000000026200205b176401000000009004565b620004d36040805190810160405280600a81526020017f766f746551756f72756d00000000000000000000000000000000000000000000815250836200053c640100000000026200205b176401000000009004565b620005286040805190810160405280600b81526020017f70566f746551756f72756d000000000000000000000000000000000000000000815250826200053c640100000000026200205b176401000000009004565b5050505050505050505050505050620005c3565b80600080846040518082805190602001908083835b60208310151562000578578051825260208201915060208101905060208303925062000551565b6001836020036101000a038019825116818451168082178552505050505050905001915050604051809103902060001916600019168152602001908152602001600020819055505050565b61281e80620005d36000396000f3006060604052600436106100e5576000357c0100000000000000000000000000000000000000000000000000000000900463ffffffff16806229514f146100ea57806330490e911461011357806332ed5b121461013a578063353009901461024d578063504115521461028c578063693ec85e146102c357806377609a41146103345780638240ae4b1461037357806386bb8f37146103ae5780638f1d3776146103da578063a7aad3db1461045d578063bade1c54146104bc578063c51131fb1461053e578063dc6ab5271461057d578063fc0c546a146105b8578063fce1ccca1461060d575b600080fd5b34156100f557600080fd5b6100fd610662565b6040518082815260200191505060405180910390f35b341561011e57600080fd5b610138600480803560001916906020019091905050610668565b005b341561014557600080fd5b61015f600480803560001916906020019091905050610914565b60405180888152602001878152602001868152602001806020018573ffffffffffffffffffffffffffffffffffffffff1673ffffffffffffffffffffffffffffffffffffffff1681526020018481526020018381526020018281038252868181546001816001161561010002031660029004815260200191508054600181600116156101000203166002900480156102385780601f1061020d57610100808354040283529160200191610238565b820191906000526020600020905b81548152906001019060200180831161021b57829003601f168201915b50509850505050505050505060405180910390f35b341561025857600080fd5b610272600480803560001916906020019091905050610975565b604051808215151515815260200191505060405180910390f35b341561029757600080fd5b6102ad600480803590602001909190505061099f565b6040518082815260200191505060405180910390f35b34156102ce57600080fd5b61031e600480803590602001908201803590602001908080601f01602080910402602001604051908101604052809392919081815260200183838082843782019150505050505091905050610ab7565b6040518082815260200191505060405180910390f35b341561033f57600080fd5b610359600480803560001916906020019091905050610b3d565b604051808215151515815260200191505060405180910390f35b341561037e57600080fd5b610398600480803560001916906020019091905050610e3b565b6040518082815260200191505060405180910390f35b34156103b957600080fd5b6103d86004808035906020019091908035906020019091905050611477565b005b34156103e557600080fd5b6103fb60048080359060200190919050506117ce565b604051808681526020018573ffffffffffffffffffffffffffffffffffffffff1673ffffffffffffffffffffffffffffffffffffffff168152602001841515151581526020018381526020018281526020019550505050505060405180910390f35b341561046857600080fd5b6104a6600480803573ffffffffffffffffffffffffffffffffffffffff16906020019091908035906020019091908035906020019091905050611831565b6040518082815260200191505060405180910390f35b34156104c757600080fd5b610520600480803590602001908201803590602001908080601f01602080910402602001604051908101604052809392919081815260200183838082843782019150505050505091908035906020019091905050611975565b60405180826000191660001916815260200191505060405180910390f35b341561054957600080fd5b610563600480803560001916906020019091905050611e6c565b604051808215151515815260200191505060405180910390f35b341561058857600080fd5b6105a2600480803560001916906020019091905050611ff7565b6040518082815260200191505060405180910390f35b34156105c357600080fd5b6105cb61200f565b604051808273ffffffffffffffffffffffffffffffffffffffff1673ffffffffffffffffffffffffffffffffffffffff16815260200191505060405180910390f35b341561061857600080fd5b610620612035565b604051808273ffffffffffffffffffffffffffffffffffffffff1673ffffffffffffffffffffffffffffffffffffffff16815260200191505060405180910390f35b60055481565b6000600260008360001916600019168152602001908152602001600020905061069082611e6c565b156107445761073f816003018054600181600116156101000203166002900480601f0160208091040260200160405190810160405280929190818152602001828054600181600116156101000203166002900480156107305780601f1061070557610100808354040283529160200191610730565b820191906000526020600020905b81548152906001019060200180831161071357829003601f168201915b5050505050826006015461205b565b610893565b61074d82610b3d565b156107605761075b826120e0565b610892565b806005015442111561088c57600360009054906101000a900473ffffffffffffffffffffffffffffffffffffffff1673ffffffffffffffffffffffffffffffffffffffff1663a9059cbb8260040160009054906101000a900473ffffffffffffffffffffffffffffffffffffffff1683600201546000604051602001526040518363ffffffff167c0100000000000000000000000000000000000000000000000000000000028152600401808373ffffffffffffffffffffffffffffffffffffffff1673ffffffffffffffffffffffffffffffffffffffff16815260200182815260200192505050602060405180830381600087803b151561086157600080fd5b6102c65a03f1151561087257600080fd5b50505060405180519050151561088757600080fd5b610891565b600080fd5b5b5b600260008360001916600019168152602001908152602001600020600080820160009055600182016000905560028201600090556003820160006108d7919061264f565b6004820160006101000a81549073ffffffffffffffffffffffffffffffffffffffff02191690556005820160009055600682016000905550505050565b600260205280600052604060002060009150905080600001549080600101549080600201549080600301908060040160009054906101000a900473ffffffffffffffffffffffffffffffffffffffff16908060050154908060060154905087565b60008060026000846000191660001916815260200190815260200160002060050154119050919050565b600080600460009054906101000a900473ffffffffffffffffffffffffffffffffffffffff1673ffffffffffffffffffffffffffffffffffffffff1663053e71a6846000604051602001526040518263ffffffff167c010000000000000000000000000000000000000000000000000000000002815260040180828152602001915050602060405180830381600087803b1515610a3b57600080fd5b6102c65a03f11515610a4c57600080fd5b505050604051805190501415610a7d5760016000838152602001908152602001600020600201546002029050610ab2565b600160008381526020019081526020016000206000015460016000848152602001908152602001600020600201546002020390505b919050565b6000806000836040518082805190602001908083835b602083101515610af25780518252602082019150602081019050602083039250610acd565b6001836020036101000a038019825116818451168082178552505050505050905001915050604051809103902060001916600019168152602001908152602001600020549050919050565b6000610b47612697565b610b4f6126f1565b60026000856000191660001916815260200190815260200160002060e06040519081016040529081600082015481526020016001820154815260200160028201548152602001600382018054600181600116156101000203166002900480601f016020809104026020016040519081016040528092919081815260200182805460018160011615610100020316600290048015610c2d5780601f10610c0257610100808354040283529160200191610c2d565b820191906000526020600020905b815481529060010190602001808311610c1057829003601f168201915b505050505081526020016004820160009054906101000a900473ffffffffffffffffffffffffffffffffffffffff1673ffffffffffffffffffffffffffffffffffffffff1673ffffffffffffffffffffffffffffffffffffffff168152602001600582015481526020016006820154815250509150600160008360200151815260200190815260200160002060a06040519081016040529081600082015481526020016001820160009054906101000a900473ffffffffffffffffffffffffffffffffffffffff1673ffffffffffffffffffffffffffffffffffffffff1673ffffffffffffffffffffffffffffffffffffffff1681526020016001820160149054906101000a900460ff1615151515815260200160028201548152602001600382015481525050905060008260200151118015610d7257506000151581604001511515145b8015610e325750600460009054906101000a900473ffffffffffffffffffffffffffffffffffffffff1673ffffffffffffffffffffffffffffffffffffffff1663ee68483083602001516000604051602001526040518263ffffffff167c010000000000000000000000000000000000000000000000000000000002815260040180828152602001915050602060405180830381600087803b1515610e1657600080fd5b6102c65a03f11515610e2757600080fd5b505050604051805190505b92505050919050565b6000610e45612697565b60008060026000866000191660001916815260200190815260200160002060e06040519081016040529081600082015481526020016001820154815260200160028201548152602001600382018054600181600116156101000203166002900480601f016020809104026020016040519081016040528092919081815260200182805460018160011615610100020316600290048015610f265780601f10610efb57610100808354040283529160200191610f26565b820191906000526020600020905b815481529060010190602001808311610f0957829003601f168201915b505050505081526020016004820160009054906101000a900473ffffffffffffffffffffffffffffffffffffffff1673ffffffffffffffffffffffffffffffffffffffff1673ffffffffffffffffffffffffffffffffffffffff168152602001600582015481526020016006820154815250509250610fd96040805190810160405280600b81526020017f704d696e4465706f736974000000000000000000000000000000000000000000815250610ab7565b9150610fe485610975565b8015610ff4575060008360200151145b1515610fff57600080fd5b600360009054906101000a900473ffffffffffffffffffffffffffffffffffffffff1673ffffffffffffffffffffffffffffffffffffffff166323b872dd3330856000604051602001526040518463ffffffff167c0100000000000000000000000000000000000000000000000000000000028152600401808473ffffffffffffffffffffffffffffffffffffffff1673ffffffffffffffffffffffffffffffffffffffff1681526020018373ffffffffffffffffffffffffffffffffffffffff1673ffffffffffffffffffffffffffffffffffffffff1681526020018281526020019350505050602060405180830381600087803b151561110057600080fd5b6102c65a03f1151561111157600080fd5b50505060405180519050151561112657600080fd5b600460009054906101000a900473ffffffffffffffffffffffffffffffffffffffff1673ffffffffffffffffffffffffffffffffffffffff166332ed3d606111a26040805190810160405280600b81526020017f70566f746551756f72756d000000000000000000000000000000000000000000815250610ab7565b6111e06040805190810160405280600f81526020017f70436f6d6d697453746167654c656e0000000000000000000000000000000000815250610ab7565b61121e6040805190810160405280600f81526020017f7052657665616c53746167654c656e0000000000000000000000000000000000815250610ab7565b6000604051602001526040518463ffffffff167c0100000000000000000000000000000000000000000000000000000000028152600401808481526020018381526020018281526020019350505050602060405180830381600087803b151561128657600080fd5b6102c65a03f1151561129757600080fd5b50505060405180519050905060a0604051908101604052806064846112f06040805190810160405280601081526020017f7044697370656e736174696f6e50637400000000000000000000000000000000815250610ab7565b606403028115156112fd57fe5b0481526020013373ffffffffffffffffffffffffffffffffffffffff1681526020016000151581526020018381526020016000815250600160008381526020019081526020016000206000820151816000015560208201518160010160006101000a81548173ffffffffffffffffffffffffffffffffffffffff021916908373ffffffffffffffffffffffffffffffffffffffff16021790555060408201518160010160146101000a81548160ff021916908315150217905550606082015181600201556080820151816003015590505080600260008760001916600019168152602001908152602001600020600101819055507f514f310f0599dc7152cbceb4f1b80297d1a615826350a8dcdc54168447e84050338683604051808473ffffffffffffffffffffffffffffffffffffffff1673ffffffffffffffffffffffffffffffffffffffff1681526020018360001916600019168152602001828152602001935050505060405180910390a1809350505050919050565b600080600015156001600086815260200190815260200160002060040160003373ffffffffffffffffffffffffffffffffffffffff1673ffffffffffffffffffffffffffffffffffffffff16815260200190815260200160002060009054906101000a900460ff1615151415156114ed57600080fd5b600115156001600086815260200190815260200160002060010160149054906101000a900460ff16151514151561152357600080fd5b600460009054906101000a900473ffffffffffffffffffffffffffffffffffffffff1673ffffffffffffffffffffffffffffffffffffffff1663b43bd0693386866000604051602001526040518463ffffffff167c0100000000000000000000000000000000000000000000000000000000028152600401808473ffffffffffffffffffffffffffffffffffffffff1673ffffffffffffffffffffffffffffffffffffffff1681526020018381526020018281526020019350505050602060405180830381600087803b15156115f857600080fd5b6102c65a03f1151561160957600080fd5b505050604051805190509150611620338585611831565b9050816001600086815260200190815260200160002060030160008282540392505081905550806001600086815260200190815260200160002060000160008282540392505081905550600360009054906101000a900473ffffffffffffffffffffffffffffffffffffffff1673ffffffffffffffffffffffffffffffffffffffff1663a9059cbb33836000604051602001526040518363ffffffff167c0100000000000000000000000000000000000000000000000000000000028152600401808373ffffffffffffffffffffffffffffffffffffffff1673ffffffffffffffffffffffffffffffffffffffff16815260200182815260200192505050602060405180830381600087803b151561173757600080fd5b6102c65a03f1151561174857600080fd5b50505060405180519050151561175d57600080fd5b600180600086815260200190815260200160002060040160003373ffffffffffffffffffffffffffffffffffffffff1673ffffffffffffffffffffffffffffffffffffffff16815260200190815260200160002060006101000a81548160ff02191690831515021790555050505050565b60016020528060005260406000206000915090508060000154908060010160009054906101000a900473ffffffffffffffffffffffffffffffffffffffff16908060010160149054906101000a900460ff16908060020154908060030154905085565b6000806000806001600087815260200190815260200160002060030154925060016000878152602001908152602001600020600001549150600460009054906101000a900473ffffffffffffffffffffffffffffffffffffffff1673ffffffffffffffffffffffffffffffffffffffff1663b43bd0698888886000604051602001526040518463ffffffff167c0100000000000000000000000000000000000000000000000000000000028152600401808473ffffffffffffffffffffffffffffffffffffffff1673ffffffffffffffffffffffffffffffffffffffff1681526020018381526020018281526020019350505050602060405180830381600087803b151561193e57600080fd5b6102c65a03f1151561194f57600080fd5b5050506040518051905090508282820281151561196857fe5b0493505050509392505050565b60008060006119b86040805190810160405280600b81526020017f704d696e4465706f736974000000000000000000000000000000000000000000815250610ab7565b915084846040518083805190602001908083835b6020831015156119f157805182526020820191506020810190506020830392506119cc565b6001836020036101000a0380198251168184511680821785525050505050509050018281526020019250505060405180910390209050611a3081610975565b151515611a3c57600080fd5b83611a4686610ab7565b14151515611a5357600080fd5b600360009054906101000a900473ffffffffffffffffffffffffffffffffffffffff1673ffffffffffffffffffffffffffffffffffffffff166323b872dd3330856000604051602001526040518463ffffffff167c0100000000000000000000000000000000000000000000000000000000028152600401808473ffffffffffffffffffffffffffffffffffffffff1673ffffffffffffffffffffffffffffffffffffffff1681526020018373ffffffffffffffffffffffffffffffffffffffff1673ffffffffffffffffffffffffffffffffffffffff1681526020018281526020019350505050602060405180830381600087803b1515611b5457600080fd5b6102c65a03f11515611b6557600080fd5b505050604051805190501515611b7a57600080fd5b60e060405190810160405280611bc46040805190810160405280600e81526020017f704170706c7953746167654c656e000000000000000000000000000000000000815250610ab7565b42018152602001600081526020018381526020018681526020013373ffffffffffffffffffffffffffffffffffffffff168152602001600554611c3b6040805190810160405280600f81526020017f7052657665616c53746167654c656e0000000000000000000000000000000000815250610ab7565b611c796040805190810160405280600f81526020017f70436f6d6d697453746167654c656e0000000000000000000000000000000000815250610ab7565b611cb76040805190810160405280600e81526020017f704170706c7953746167654c656e000000000000000000000000000000000000815250610ab7565b42010101018152602001858152506002600083600019166000191681526020019081526020016000206000820151816000015560208201518160010155604082015181600201556060820151816003019080519060200190611d1a929190612739565b5060808201518160040160006101000a81548173ffffffffffffffffffffffffffffffffffffffff021916908373ffffffffffffffffffffffffffffffffffffffff16021790555060a0820151816005015560c082015181600601559050507f7ad5a045a626580a5b80e13a14bcc0745de6a803fff9656c1792124bb9ee675033868684604051808573ffffffffffffffffffffffffffffffffffffffff1673ffffffffffffffffffffffffffffffffffffffff168152602001806020018481526020018360001916600019168152602001828103825285818151815260200191508051906020019080838360005b83811015611e24578082015181840152602081019050611e09565b50505050905090810190601f168015611e515780820380516001836020036101000a031916815260200191505b509550505050505060405180910390a1809250505092915050565b6000611e76612697565b60026000846000191660001916815260200190815260200160002060e06040519081016040529081600082015481526020016001820154815260200160028201548152602001600382018054600181600116156101000203166002900480601f016020809104026020016040519081016040528092919081815260200182805460018160011615610100020316600290048015611f545780601f10611f2957610100808354040283529160200191611f54565b820191906000526020600020905b815481529060010190602001808311611f3757829003601f168201915b505050505081526020016004820160009054906101000a900473ffffffffffffffffffffffffffffffffffffffff1673ffffffffffffffffffffffffffffffffffffffff1673ffffffffffffffffffffffffffffffffffffffff168152602001600582015481526020016006820154815250509050806000015142118015611fdf57508060a0015142105b8015611fef575060008160200151145b915050919050565b60006020528060005260406000206000915090505481565b600360009054906101000a900473ffffffffffffffffffffffffffffffffffffffff1681565b600460009054906101000a900473ffffffffffffffffffffffffffffffffffffffff1681565b80600080846040518082805190602001908083835b6020831015156120955780518252602082019150602081019050602083039250612070565b6001836020036101000a038019825116818451168082178552505050505050905001915050604051809103902060001916600019168152602001908152602001600020819055505050565b6120e8612697565b60008060026000856000191660001916815260200190815260200160002060e06040519081016040529081600082015481526020016001820154815260200160028201548152602001600382018054600181600116156101000203166002900480601f0160208091040260200160405190810160405280929190818152602001828054600181600116156101000203166002900480156121c95780601f1061219e576101008083540402835291602001916121c9565b820191906000526020600020905b8154815290600101906020018083116121ac57829003601f168201915b505050505081526020016004820160009054906101000a900473ffffffffffffffffffffffffffffffffffffffff1673ffffffffffffffffffffffffffffffffffffffff1673ffffffffffffffffffffffffffffffffffffffff16815260200160058201548152602001600682015481525050925060016000846020015181526020019081526020016000209150612264836020015161099f565b9050600460009054906101000a900473ffffffffffffffffffffffffffffffffffffffff1673ffffffffffffffffffffffffffffffffffffffff16634940318384602001516000604051602001526040518263ffffffff167c010000000000000000000000000000000000000000000000000000000002815260040180828152602001915050602060405180830381600087803b151561230357600080fd5b6102c65a03f1151561231457600080fd5b505050604051805190501561243e57428360a0015111156123425761234183606001518460c0015161205b565b5b600360009054906101000a900473ffffffffffffffffffffffffffffffffffffffff1673ffffffffffffffffffffffffffffffffffffffff1663a9059cbb8460800151836000604051602001526040518363ffffffff167c0100000000000000000000000000000000000000000000000000000000028152600401808373ffffffffffffffffffffffffffffffffffffffff1673ffffffffffffffffffffffffffffffffffffffff16815260200182815260200192505050602060405180830381600087803b151561241357600080fd5b6102c65a03f1151561242457600080fd5b50505060405180519050151561243957600080fd5b61256c565b600360009054906101000a900473ffffffffffffffffffffffffffffffffffffffff1673ffffffffffffffffffffffffffffffffffffffff1663a9059cbb600160008660200151815260200190815260200160002060010160009054906101000a900473ffffffffffffffffffffffffffffffffffffffff16836000604051602001526040518363ffffffff167c0100000000000000000000000000000000000000000000000000000000028152600401808373ffffffffffffffffffffffffffffffffffffffff1673ffffffffffffffffffffffffffffffffffffffff16815260200182815260200192505050602060405180830381600087803b151561254557600080fd5b6102c65a03f1151561255657600080fd5b50505060405180519050151561256b57600080fd5b5b600460009054906101000a900473ffffffffffffffffffffffffffffffffffffffff1673ffffffffffffffffffffffffffffffffffffffff1663053e71a684602001516000604051602001526040518263ffffffff167c010000000000000000000000000000000000000000000000000000000002815260040180828152602001915050602060405180830381600087803b151561260957600080fd5b6102c65a03f1151561261a57600080fd5b50505060405180519050826003018190555060018260010160146101000a81548160ff02191690831515021790555050505050565b50805460018160011615610100020316600290046000825580601f106126755750612694565b601f01602090049060005260206000209081019061269391906127b9565b5b50565b60e0604051908101604052806000815260200160008152602001600081526020016126c06127de565b8152602001600073ffffffffffffffffffffffffffffffffffffffff16815260200160008152602001600081525090565b60a06040519081016040528060008152602001600073ffffffffffffffffffffffffffffffffffffffff16815260200160001515815260200160008152602001600081525090565b828054600181600116156101000203166002900490600052602060002090601f016020900481019282601f1061277a57805160ff19168380011785556127a8565b828001600101855582156127a8579182015b828111156127a757825182559160200191906001019061278c565b5b5090506127b591906127b9565b5090565b6127db91905b808211156127d75760008160009055506001016127bf565b5090565b90565b6020604051908101604052806000815250905600a165627a7a72305820047ce56e10fb8261e361dc6f886b010be5f91d9a2e129719263fe1afdaf51f820029",
  "source": "pragma solidity ^0.4.18;\r\n\r\nlibrary AttributeStore {\r\n    struct Data {\r\n        mapping(bytes32 => uint) store;\r\n    }\r\n\r\n    function getAttribute(Data storage self, bytes32 _UUID, string _attrName) public view returns (uint) {\r\n        bytes32 key = keccak256(_UUID, _attrName);\r\n        return self.store[key];\r\n    }\r\n\r\n    function setAttribute(Data storage self, bytes32 _UUID, string _attrName, uint _attrVal) public {\r\n        bytes32 key = keccak256(_UUID, _attrName);\r\n        self.store[key] = _attrVal;\r\n    }\r\n}\r\n\r\n\r\nlibrary DLL {\r\n\r\n  uint constant NULL_NODE_ID = 0;\r\n\r\n  struct Node {\r\n    uint next;\r\n    uint prev;\r\n  }\r\n\r\n  struct Data {\r\n    mapping(uint => Node) dll;\r\n  }\r\n\r\n  function isEmpty(Data storage self) public view returns (bool) {\r\n    return getStart(self) == NULL_NODE_ID;\r\n  }\r\n\r\n  function contains(Data storage self, uint _curr) public view returns (bool) {\r\n    if (isEmpty(self) || _curr == NULL_NODE_ID) {\r\n      return false;\r\n    } \r\n\r\n    bool isSingleNode = (getStart(self) == _curr) && (getEnd(self) == _curr);\r\n    bool isNullNode = (getNext(self, _curr) == NULL_NODE_ID) && (getPrev(self, _curr) == NULL_NODE_ID);\r\n    return isSingleNode || !isNullNode;\r\n  }\r\n\r\n  function getNext(Data storage self, uint _curr) public view returns (uint) {\r\n    return self.dll[_curr].next;\r\n  }\r\n\r\n  function getPrev(Data storage self, uint _curr) public view returns (uint) {\r\n    return self.dll[_curr].prev;\r\n  }\r\n\r\n  function getStart(Data storage self) public view returns (uint) {\r\n    return getNext(self, NULL_NODE_ID);\r\n  }\r\n\r\n  function getEnd(Data storage self) public view returns (uint) {\r\n    return getPrev(self, NULL_NODE_ID);\r\n  }\r\n\r\n  /**\r\n  @dev Inserts a new node between _prev and _next. When inserting a node already existing in \r\n  the list it will be automatically removed from the old position.\r\n  @param _prev the node which _new will be inserted after\r\n  @param _curr the id of the new node being inserted\r\n  @param _next the node which _new will be inserted before\r\n  */\r\n  function insert(Data storage self, uint _prev, uint _curr, uint _next) public {\r\n    require(_curr != NULL_NODE_ID);\r\n    require(_prev == NULL_NODE_ID || contains(self, _prev));\r\n\r\n    remove(self, _curr);\r\n\r\n    require(getNext(self, _prev) == _next);\r\n\r\n    self.dll[_curr].prev = _prev;\r\n    self.dll[_curr].next = _next;\r\n\r\n    self.dll[_prev].next = _curr;\r\n    self.dll[_next].prev = _curr;\r\n  }\r\n\r\n  function remove(Data storage self, uint _curr) public {\r\n    if (!contains(self, _curr)) {\r\n      return;\r\n    }\r\n\r\n    uint next = getNext(self, _curr);\r\n    uint prev = getPrev(self, _curr);\r\n\r\n    self.dll[next].prev = prev;\r\n    self.dll[prev].next = next;\r\n\r\n    delete self.dll[_curr];\r\n  }\r\n}\r\n\r\n\r\n\r\n\r\n\r\n\r\n\r\n\r\n/**\r\n@title Partial-Lock-Commit-Reveal Voting scheme with ERC20 tokens \r\n@author Team: \r\n*/\r\ncontract PLCRVoting {\r\n\r\n    // ============\r\n    // EVENTS:\r\n    // ============\r\n\r\n    event VoteCommitted(address voter, uint pollID, uint numTokens);\r\n    event VoteRevealed(address voter, uint pollID, uint numTokens, uint choice);\r\n    event PollCreated(uint voteQuorum, uint commitDuration, uint revealDuration, uint pollID);\r\n    event VotingRightsGranted(address voter, uint numTokens);\r\n    event VotingRightsWithdrawn(address voter, uint numTokens);\r\n\r\n    // ============\r\n    // DATA STRUCTURES:\r\n    // ============\r\n\r\n    using AttributeStore for AttributeStore.Data;\r\n    using DLL for DLL.Data;\r\n\r\n    struct Poll {\r\n        uint commitEndDate;     /// expiration date of commit period for poll\r\n        uint revealEndDate;     /// expiration date of reveal period for poll\r\n        uint voteQuorum;\t      /// number of votes required for a proposal to pass\r\n        uint votesFor;\t\t      /// tally of votes supporting proposal\r\n        uint votesAgainst;      /// tally of votes countering proposal\r\n    }\r\n    \r\n    // ============\r\n    // STATE VARIABLES:\r\n    // ============\r\n\r\n    uint constant public INITIAL_POLL_NONCE = 0;\r\n    uint public pollNonce;\r\n\r\n    mapping(uint => Poll) public pollMap; // maps pollID to Poll struct\r\n    mapping(address => uint) public voteTokenBalance; // maps user's address to voteToken balance\r\n\r\n    mapping(address => DLL.Data) dllMap;\r\n    AttributeStore.Data store;\r\n\r\n    EIP20 public token;\r\n\r\n    // ============\r\n    // CONSTRUCTOR:\r\n    // ============\r\n\r\n    /**\r\n    @dev Initializes voteQuorum, commitDuration, revealDuration, and pollNonce in addition to token contract and trusted mapping\r\n    @param _tokenAddr The address where the ERC20 token contract is deployed\r\n    */\r\n    function PLCRVoting(address _tokenAddr) public {\r\n        token = EIP20(_tokenAddr);\r\n        pollNonce = INITIAL_POLL_NONCE;\r\n    }\r\n\r\n    // ================\r\n    // TOKEN INTERFACE:\r\n    // ================\r\n\r\n    /**    \r\n    @notice Loads _numTokens ERC20 tokens into the voting contract for one-to-one voting rights\r\n    @dev Assumes that msg.sender has approved voting contract to spend on their behalf\r\n    @param _numTokens The number of votingTokens desired in exchange for ERC20 tokens\r\n    */\r\n    function requestVotingRights(uint _numTokens) external {\r\n        require(token.balanceOf(msg.sender) >= _numTokens);\r\n        require(token.transferFrom(msg.sender, this, _numTokens));\r\n        voteTokenBalance[msg.sender] += _numTokens;\r\n        VotingRightsGranted(msg.sender, _numTokens);\r\n    }\r\n\r\n    /**\r\n    @notice Withdraw _numTokens ERC20 tokens from the voting contract, revoking these voting rights\r\n    @param _numTokens The number of ERC20 tokens desired in exchange for voting rights\r\n    */\r\n    function withdrawVotingRights(uint _numTokens) external {\r\n        uint availableTokens = voteTokenBalance[msg.sender] - getLockedTokens(msg.sender);\r\n        require(availableTokens >= _numTokens);\r\n        require(token.transfer(msg.sender, _numTokens));\r\n        voteTokenBalance[msg.sender] -= _numTokens;\r\n        VotingRightsWithdrawn(msg.sender, _numTokens);\r\n    }\r\n\r\n    /**\r\n    @dev Unlocks tokens locked in unrevealed vote where poll has ended\r\n    @param _pollID Integer identifier associated with the target poll\r\n    */\r\n    function rescueTokens(uint _pollID) external {\r\n        require(pollEnded(_pollID));\r\n        require(!hasBeenRevealed(msg.sender, _pollID));\r\n\r\n        dllMap[msg.sender].remove(_pollID);\r\n    }\r\n\r\n    // =================\r\n    // VOTING INTERFACE:\r\n    // =================\r\n\r\n    /**\r\n    @notice Commits vote using hash of choice and secret salt to conceal vote until reveal\r\n    @param _pollID Integer identifier associated with target poll\r\n    @param _secretHash Commit keccak256 hash of voter's choice and salt (tightly packed in this order)\r\n    @param _numTokens The number of tokens to be committed towards the target poll\r\n    @param _prevPollID The ID of the poll that the user has voted the maximum number of tokens in which is still less than or equal to numTokens \r\n    */\r\n    function commitVote(uint _pollID, bytes32 _secretHash, uint _numTokens, uint _prevPollID) external {\r\n        require(commitPeriodActive(_pollID));\r\n        require(voteTokenBalance[msg.sender] >= _numTokens); // prevent user from overspending\r\n        require(_pollID != 0);                // prevent user from committing to zero node placeholder\r\n\r\n        // TODO: Move all insert validation into the DLL lib\r\n        // Check if _prevPollID exists\r\n        require(_prevPollID == 0 || getCommitHash(msg.sender, _prevPollID) != 0);\r\n\r\n        uint nextPollID = dllMap[msg.sender].getNext(_prevPollID);\r\n\r\n        // if nextPollID is equal to _pollID, _pollID is being updated,\r\n        nextPollID = (nextPollID == _pollID) ? dllMap[msg.sender].getNext(_pollID) : nextPollID;\r\n\r\n        require(validPosition(_prevPollID, nextPollID, msg.sender, _numTokens));\r\n        dllMap[msg.sender].insert(_prevPollID, _pollID, nextPollID);\r\n\r\n        bytes32 UUID = attrUUID(msg.sender, _pollID);\r\n\r\n        store.setAttribute(UUID, \"numTokens\", _numTokens);\r\n        store.setAttribute(UUID, \"commitHash\", uint(_secretHash));\r\n\r\n        VoteCommitted(msg.sender, _pollID, _numTokens);\r\n    }\r\n\r\n    /**\r\n    @dev Compares previous and next poll's committed tokens for sorting purposes\r\n    @param _prevID Integer identifier associated with previous poll in sorted order\r\n    @param _nextID Integer identifier associated with next poll in sorted order\r\n    @param _voter Address of user to check DLL position for\r\n    @param _numTokens The number of tokens to be committed towards the poll (used for sorting)\r\n    @return valid Boolean indication of if the specified position maintains the sort\r\n    */\r\n    function validPosition(uint _prevID, uint _nextID, address _voter, uint _numTokens) public constant returns (bool valid) {\r\n        bool prevValid = (_numTokens >= getNumTokens(_voter, _prevID));\r\n        // if next is zero node, _numTokens does not need to be greater\r\n        bool nextValid = (_numTokens <= getNumTokens(_voter, _nextID) || _nextID == 0); \r\n        return prevValid && nextValid;\r\n    }\r\n\r\n    /**\r\n    @notice Reveals vote with choice and secret salt used in generating commitHash to attribute committed tokens\r\n    @param _pollID Integer identifier associated with target poll\r\n    @param _voteOption Vote choice used to generate commitHash for associated poll\r\n    @param _salt Secret number used to generate commitHash for associated poll\r\n    */\r\n    function revealVote(uint _pollID, uint _voteOption, uint _salt) external {\r\n        // Make sure the reveal period is active\r\n        require(revealPeriodActive(_pollID));\r\n        require(!hasBeenRevealed(msg.sender, _pollID));                        // prevent user from revealing multiple times\r\n        require(keccak256(_voteOption, _salt) == getCommitHash(msg.sender, _pollID)); // compare resultant hash from inputs to original commitHash\r\n\r\n        uint numTokens = getNumTokens(msg.sender, _pollID); \r\n\r\n        if (_voteOption == 1) // apply numTokens to appropriate poll choice\r\n            pollMap[_pollID].votesFor += numTokens;\r\n        else\r\n            pollMap[_pollID].votesAgainst += numTokens;\r\n        \r\n        dllMap[msg.sender].remove(_pollID); // remove the node referring to this vote upon reveal\r\n\r\n        VoteRevealed(msg.sender, _pollID, numTokens, _voteOption);\r\n    }\r\n\r\n    /**\r\n    @param _pollID Integer identifier associated with target poll\r\n    @param _salt Arbitrarily chosen integer used to generate secretHash\r\n    @return correctVotes Number of tokens voted for winning option\r\n    */\r\n    function getNumPassingTokens(address _voter, uint _pollID, uint _salt) public constant returns (uint correctVotes) {\r\n        require(pollEnded(_pollID));\r\n        require(hasBeenRevealed(_voter, _pollID));\r\n\r\n        uint winningChoice = isPassed(_pollID) ? 1 : 0;\r\n        bytes32 winnerHash = keccak256(winningChoice, _salt);\r\n        bytes32 commitHash = getCommitHash(_voter, _pollID);\r\n\r\n        require(winnerHash == commitHash);\r\n\r\n        return getNumTokens(_voter, _pollID);\r\n    }\r\n\r\n    // ==================\r\n    // POLLING INTERFACE:\r\n    // ================== \r\n\r\n    /**\r\n    @dev Initiates a poll with canonical configured parameters at pollID emitted by PollCreated event\r\n    @param _voteQuorum Type of majority (out of 100) that is necessary for poll to be successful\r\n    @param _commitDuration Length of desired commit period in seconds\r\n    @param _revealDuration Length of desired reveal period in seconds\r\n    */\r\n    function startPoll(uint _voteQuorum, uint _commitDuration, uint _revealDuration) public returns (uint pollID) {\r\n        pollNonce = pollNonce + 1;\r\n\r\n        pollMap[pollNonce] = Poll({\r\n            voteQuorum: _voteQuorum,\r\n            commitEndDate: block.timestamp + _commitDuration,\r\n            revealEndDate: block.timestamp + _commitDuration + _revealDuration,\r\n            votesFor: 0,\r\n            votesAgainst: 0\r\n        });\r\n\r\n        PollCreated(_voteQuorum, _commitDuration, _revealDuration, pollNonce);\r\n        return pollNonce;\r\n    }\r\n \r\n    /**\r\n    @notice Determines if proposal has passed\r\n    @dev Check if votesFor out of totalVotes exceeds votesQuorum (requires pollEnded)\r\n    @param _pollID Integer identifier associated with target poll\r\n    */\r\n    function isPassed(uint _pollID) constant public returns (bool passed) {\r\n        require(pollEnded(_pollID));\r\n\r\n        Poll memory poll = pollMap[_pollID];\r\n        return (100 * poll.votesFor) > (poll.voteQuorum * (poll.votesFor + poll.votesAgainst));\r\n    }\r\n\r\n    // ----------------\r\n    // POLLING HELPERS:\r\n    // ----------------\r\n\r\n    /**\r\n    @dev Gets the total winning votes for reward distribution purposes\r\n    @param _pollID Integer identifier associated with target poll\r\n    @return Total number of votes committed to the winning option for specified poll\r\n    */\r\n    function getTotalNumberOfTokensForWinningOption(uint _pollID) constant public returns (uint numTokens) {\r\n        require(pollEnded(_pollID));\r\n\r\n        if (isPassed(_pollID))\r\n            return pollMap[_pollID].votesFor;\r\n        else\r\n            return pollMap[_pollID].votesAgainst;\r\n    }\r\n\r\n    /**\r\n    @notice Determines if poll is over\r\n    @dev Checks isExpired for specified poll's revealEndDate\r\n    @return Boolean indication of whether polling period is over\r\n    */\r\n    function pollEnded(uint _pollID) constant public returns (bool ended) {\r\n        require(pollExists(_pollID));\r\n\r\n        return isExpired(pollMap[_pollID].revealEndDate);\r\n    }\r\n\r\n    /**\r\n    @notice Checks if the commit period is still active for the specified poll\r\n    @dev Checks isExpired for the specified poll's commitEndDate\r\n    @param _pollID Integer identifier associated with target poll\r\n    @return Boolean indication of isCommitPeriodActive for target poll\r\n    */\r\n    function commitPeriodActive(uint _pollID) constant public returns (bool active) {\r\n        require(pollExists(_pollID));\r\n\r\n        return !isExpired(pollMap[_pollID].commitEndDate);\r\n    }\r\n\r\n    /**\r\n    @notice Checks if the reveal period is still active for the specified poll\r\n    @dev Checks isExpired for the specified poll's revealEndDate\r\n    @param _pollID Integer identifier associated with target poll\r\n    */\r\n    function revealPeriodActive(uint _pollID) constant public returns (bool active) {\r\n        require(pollExists(_pollID));\r\n\r\n        return !isExpired(pollMap[_pollID].revealEndDate) && !commitPeriodActive(_pollID);\r\n    }\r\n\r\n    /**\r\n    @dev Checks if user has already revealed for specified poll\r\n    @param _voter Address of user to check against\r\n    @param _pollID Integer identifier associated with target poll\r\n    @return Boolean indication of whether user has already revealed\r\n    */\r\n    function hasBeenRevealed(address _voter, uint _pollID) constant public returns (bool revealed) {\r\n        require(pollExists(_pollID));\r\n        require(getCommitHash(_voter, _pollID) != 0);\r\n\r\n        return !dllMap[_voter].contains(_pollID);\r\n    }\r\n\r\n    /**\r\n    @dev Checks if a poll exists, throws if the provided poll is in an impossible state\r\n    @param _pollID The pollID whose existance is to be evaluated.\r\n    @return Boolean Indicates whether a poll exists for the provided pollID\r\n    */\r\n    function pollExists(uint _pollID) constant public returns (bool exists) {\r\n        uint commitEndDate = pollMap[_pollID].commitEndDate;\r\n        uint revealEndDate = pollMap[_pollID].revealEndDate;\r\n\r\n        assert(!(commitEndDate == 0 && revealEndDate != 0));\r\n        assert(!(commitEndDate != 0 && revealEndDate == 0));\r\n\r\n        if(commitEndDate == 0 || revealEndDate == 0) { return false; }\r\n        return true;\r\n    }\r\n\r\n    // ---------------------------\r\n    // DOUBLE-LINKED-LIST HELPERS:\r\n    // ---------------------------\r\n\r\n    /**\r\n    @dev Gets the bytes32 commitHash property of target poll\r\n    @param _voter Address of user to check against\r\n    @param _pollID Integer identifier associated with target poll\r\n    @return Bytes32 hash property attached to target poll \r\n    */\r\n    function getCommitHash(address _voter, uint _pollID) constant public returns (bytes32 commitHash) { \r\n        return bytes32(store.getAttribute(attrUUID(_voter, _pollID), \"commitHash\"));    \r\n    } \r\n\r\n    /**\r\n    @dev Wrapper for getAttribute with attrName=\"numTokens\"\r\n    @param _voter Address of user to check against\r\n    @param _pollID Integer identifier associated with target poll\r\n    @return Number of tokens committed to poll in sorted poll-linked-list\r\n    */\r\n    function getNumTokens(address _voter, uint _pollID) constant public returns (uint numTokens) {\r\n        return store.getAttribute(attrUUID(_voter, _pollID), \"numTokens\");\r\n    }\r\n\r\n    /**\r\n    @dev Gets top element of sorted poll-linked-list\r\n    @param _voter Address of user to check against\r\n    @return Integer identifier to poll with maximum number of tokens committed to it\r\n    */\r\n    function getLastNode(address _voter) constant public returns (uint pollID) {\r\n        return dllMap[_voter].getPrev(0);\r\n    }\r\n\r\n    /**\r\n    @dev Gets the numTokens property of getLastNode\r\n    @param _voter Address of user to check against\r\n    @return Maximum number of tokens committed in poll specified \r\n    */\r\n    function getLockedTokens(address _voter) constant public returns (uint numTokens) {\r\n        return getNumTokens(_voter, getLastNode(_voter));\r\n    }\r\n\r\n    /**\r\n    @dev Gets the prevNode a new node should be inserted after given the sort factor\r\n    @param _voter The voter whose DLL will be searched\r\n    @param _numTokens The value for the numTokens attribute in the node to be inserted\r\n    @return the node which the propoded node should be inserted after\r\n    */\r\n    function getInsertPointForNumTokens(address _voter, uint _numTokens)\r\n    constant public returns (uint prevNode) \r\n    {\r\n      uint nodeID = getLastNode(_voter);\r\n      uint tokensInNode = getNumTokens(_voter, nodeID);\r\n\r\n      while(tokensInNode != 0) {\r\n        tokensInNode = getNumTokens(_voter, nodeID);\r\n        if(tokensInNode < _numTokens) {\r\n          return nodeID;\r\n        }\r\n        nodeID = dllMap[_voter].getPrev(nodeID);\r\n      }\r\n\r\n      return nodeID;\r\n    }\r\n \r\n    // ----------------\r\n    // GENERAL HELPERS:\r\n    // ----------------\r\n\r\n    /**\r\n    @dev Checks if an expiration date has been reached\r\n    @param _terminationDate Integer timestamp of date to compare current timestamp with\r\n    @return expired Boolean indication of whether the terminationDate has passed\r\n    */\r\n    function isExpired(uint _terminationDate) constant public returns (bool expired) {\r\n        return (block.timestamp > _terminationDate);\r\n    }\r\n\r\n    /**\r\n    @dev Generates an identifier which associates a user and a poll together\r\n    @param _pollID Integer identifier associated with target poll\r\n    @return UUID Hash which is deterministic from _user and _pollID\r\n    */\r\n    function attrUUID(address _user, uint _pollID) public pure returns (bytes32 UUID) {\r\n        return keccak256(_user, _pollID);\r\n    }\r\n}\r\n\r\n/*\r\nImplements EIP20 token standard: https://github.com/ethereum/EIPs/issues/20\r\n.*/\r\n\r\n\r\n\r\n\r\n// Abstract contract for the full ERC 20 Token standard\r\n// https://github.com/ethereum/EIPs/issues/20\r\n\r\n\r\n\r\ncontract EIP20Interface {\r\n    /* This is a slight change to the ERC20 base standard.\r\n    function totalSupply() constant returns (uint256 supply);\r\n    is replaced with:\r\n    uint256 public totalSupply;\r\n    This automatically creates a getter function for the totalSupply.\r\n    This is moved to the base contract since public getter functions are not\r\n    currently recognised as an implementation of the matching abstract\r\n    function by the compiler.\r\n    */\r\n    /// total amount of tokens\r\n    uint256 public totalSupply;\r\n\r\n    /// @param _owner The address from which the balance will be retrieved\r\n    /// @return The balance\r\n    function balanceOf(address _owner) public view returns (uint256 balance);\r\n\r\n    /// @notice send `_value` token to `_to` from `msg.sender`\r\n    /// @param _to The address of the recipient\r\n    /// @param _value The amount of token to be transferred\r\n    /// @return Whether the transfer was successful or not\r\n    function transfer(address _to, uint256 _value) public returns (bool success);\r\n\r\n    /// @notice send `_value` token to `_to` from `_from` on the condition it is approved by `_from`\r\n    /// @param _from The address of the sender\r\n    /// @param _to The address of the recipient\r\n    /// @param _value The amount of token to be transferred\r\n    /// @return Whether the transfer was successful or not\r\n    function transferFrom(address _from, address _to, uint256 _value) public returns (bool success);\r\n\r\n    /// @notice `msg.sender` approves `_spender` to spend `_value` tokens\r\n    /// @param _spender The address of the account able to transfer the tokens\r\n    /// @param _value The amount of tokens to be approved for transfer\r\n    /// @return Whether the approval was successful or not\r\n    function approve(address _spender, uint256 _value) public returns (bool success);\r\n\r\n    /// @param _owner The address of the account owning tokens\r\n    /// @param _spender The address of the account able to transfer the tokens\r\n    /// @return Amount of remaining tokens allowed to spent\r\n    function allowance(address _owner, address _spender) public view returns (uint256 remaining);\r\n\r\n    // solhint-disable-next-line no-simple-event-func-name  \r\n    event Transfer(address indexed _from, address indexed _to, uint256 _value); \r\n    event Approval(address indexed _owner, address indexed _spender, uint256 _value);\r\n}\r\n\r\n\r\n\r\ncontract EIP20 is EIP20Interface {\r\n\r\n    uint256 constant private MAX_UINT256 = 2**256 - 1;\r\n    mapping (address => uint256) public balances;\r\n    mapping (address => mapping (address => uint256)) public allowed;\r\n    /*\r\n    NOTE:\r\n    The following variables are OPTIONAL vanities. One does not have to include them.\r\n    They allow one to customise the token contract & in no way influences the core functionality.\r\n    Some wallets/interfaces might not even bother to look at this information.\r\n    */\r\n    string public name;                   //fancy name: eg Simon Bucks\r\n    uint8 public decimals;                //How many decimals to show.\r\n    string public symbol;                 //An identifier: eg SBX\r\n\r\n    function EIP20(uint256 _initialAmount, string _tokenName, uint8 _decimalUnits, string _tokenSymbol) public {\r\n        balances[msg.sender] = _initialAmount;               // Give the creator all initial tokens\r\n        totalSupply = _initialAmount;                        // Update total supply\r\n        name = _tokenName;                                   // Set the name for display purposes\r\n        decimals = _decimalUnits;                            // Amount of decimals for display purposes\r\n        symbol = _tokenSymbol;                               // Set the symbol for display purposes\r\n    }\r\n\r\n    function transfer(address _to, uint256 _value) public returns (bool success) {\r\n        require(balances[msg.sender] >= _value);\r\n        balances[msg.sender] -= _value;\r\n        balances[_to] += _value;\r\n        Transfer(msg.sender, _to, _value);\r\n        return true;\r\n    }\r\n\r\n    function transferFrom(address _from, address _to, uint256 _value) public returns (bool success) {\r\n        uint256 allowance = allowed[_from][msg.sender];\r\n        require(balances[_from] >= _value && allowance >= _value);\r\n        balances[_to] += _value;\r\n        balances[_from] -= _value;\r\n        if (allowance < MAX_UINT256) {\r\n            allowed[_from][msg.sender] -= _value;\r\n        }\r\n        Transfer(_from, _to, _value);\r\n        return true;\r\n    }\r\n\r\n    function balanceOf(address _owner) public view returns (uint256 balance) {\r\n        return balances[_owner];\r\n    }\r\n\r\n    function approve(address _spender, uint256 _value) public returns (bool success) {\r\n        allowed[msg.sender][_spender] = _value;\r\n        Approval(msg.sender, _spender, _value);\r\n        return true;\r\n    }\r\n\r\n    function allowance(address _owner, address _spender) public view returns (uint256 remaining) {\r\n        return allowed[_owner][_spender];\r\n    }   \r\n}\r\n\r\n\r\ncontract Parameterizer {\r\n\r\n    // EVENTS\r\n    event _ReparameterizationProposal(address proposer, string name, uint value, bytes32 propID);\r\n    event _NewChallenge(address challenger, bytes32 propID, uint pollID);\r\n\r\n    // DATA STRUCTURES\r\n    struct ParamProposal {\r\n        uint appExpiry;\r\n        uint challengeID;\r\n        uint deposit;\r\n        string name;\r\n        address owner;\r\n        uint processBy;\r\n        uint value;\r\n    }\r\n\r\n    struct Challenge {\r\n        uint rewardPool;        // (remaining) pool of tokens distributed amongst winning voters\r\n        address challenger;     // owner of Challenge\r\n        bool resolved;          // indication of if challenge is resolved\r\n        uint stake;             // number of tokens at risk for either party during challenge\r\n        uint winningTokens;     // (remaining) amount of tokens used for voting by the winning side\r\n        mapping(address => bool) tokenClaims;\r\n    }\r\n\r\n    // STATE\r\n    mapping(bytes32 => uint) public params;\r\n\r\n    // maps challengeIDs to associated challenge data\r\n    mapping(uint => Challenge) public challenges;\r\n\r\n    // maps pollIDs to intended data change if poll passes\r\n    mapping(bytes32 => ParamProposal) public proposals; \r\n\r\n    // Global Variables\r\n    EIP20 public token;\r\n    PLCRVoting public voting;\r\n    uint public PROCESSBY = 604800; // 7 days\r\n\r\n    // CONSTRUCTOR\r\n\r\n    /**\r\n    @dev constructor\r\n    @param _tokenAddr        address of the token which parameterizes this system\r\n    @param _plcrAddr         address of a PLCR voting contract for the provided token\r\n    @param _minDeposit       minimum deposit for listing to be whitelisted  \r\n    @param _pMinDeposit      minimum deposit to propose a reparameterization\r\n    @param _applyStageLen    period over which applicant's wait to be whitelisted\r\n    @param _pApplyStageLen   period over which reparmeterization proposal's wait to be processed \r\n    @param _dispensationPct  percentage of losing party's deposit distributed to winning party\r\n    @param _pDispensationPct percentage of losing party's deposit distributed to winning party in parameterizer\r\n    @param _commitStageLen   length of commit period for voting\r\n    @param _pCommitStageLen  length of commit period for voting in parameterizer\r\n    @param _revealStageLen   length of reveal period for voting\r\n    @param _pRevealStageLen  length of reveal period for voting in parameterizer\r\n    @param _voteQuorum       type of majority out of 100 necessary for vote success\r\n    @param _pVoteQuorum      type of majority out of 100 necessary for vote success in parameterizer\r\n    */\r\n    function Parameterizer(address _tokenAddr, address _plcrAddr, uint _minDeposit, uint _pMinDeposit, uint _applyStageLen, uint _pApplyStageLen, uint _commitStageLen, uint _pCommitStageLen, uint _revealStageLen, uint _pRevealStageLen, uint _dispensationPct, uint _pDispensationPct, uint _voteQuorum, uint _pVoteQuorum) public {\r\n        token = EIP20(_tokenAddr);\r\n        voting = PLCRVoting(_plcrAddr);\r\n        \r\n        set(\"minDeposit\", _minDeposit);\r\n        set(\"pMinDeposit\", _pMinDeposit);\r\n        set(\"applyStageLen\", _applyStageLen);\r\n        set(\"pApplyStageLen\", _pApplyStageLen);\r\n        set(\"commitStageLen\", _commitStageLen);\r\n        set(\"pCommitStageLen\", _pCommitStageLen);\r\n        set(\"revealStageLen\", _revealStageLen);\r\n        set(\"pRevealStageLen\", _pRevealStageLen);\r\n        set(\"dispensationPct\", _dispensationPct);\r\n        set(\"pDispensationPct\", _pDispensationPct);\r\n        set(\"voteQuorum\", _voteQuorum);\r\n        set(\"pVoteQuorum\", _pVoteQuorum);\r\n    }\r\n\r\n    // TOKEN HOLDER INTERFACE\r\n\r\n    /**\r\n    @notice propose a reparamaterization of the key _name's value to _value.\r\n    @param _name the name of the proposed param to be set\r\n    @param _value the proposed value to set the param to be set\r\n    */\r\n    function proposeReparameterization(string _name, uint _value) public returns (bytes32) {\r\n        uint deposit = get(\"pMinDeposit\");\r\n        bytes32 propID = keccak256(_name, _value);\r\n\r\n        require(!propExists(propID)); // Forbid duplicate proposals\r\n        require(get(_name) != _value); // Forbid NOOP reparameterizations\r\n        require(token.transferFrom(msg.sender, this, deposit)); // escrow tokens (deposit amt)\r\n\r\n        // attach name and value to pollID    \r\n        proposals[propID] = ParamProposal({\r\n            appExpiry: now + get(\"pApplyStageLen\"), \r\n            challengeID: 0, \r\n            deposit: deposit, \r\n            name: _name, \r\n            owner: msg.sender, \r\n            processBy: now + get(\"pApplyStageLen\") + get(\"pCommitStageLen\") + get(\"pRevealStageLen\") + PROCESSBY, \r\n            value: _value\r\n        });\r\n\r\n        _ReparameterizationProposal(msg.sender, _name, _value, propID);\r\n        return propID;\r\n    }\r\n\r\n    /**\r\n    @notice challenge the provided proposal ID, and put tokens at stake to do so.\r\n    @param _propID the proposal ID to challenge\r\n    */\r\n    function challengeReparameterization(bytes32 _propID) public returns (uint challengeID) {\r\n        ParamProposal memory prop = proposals[_propID];\r\n        uint deposit = get(\"pMinDeposit\");\r\n\r\n        require(propExists(_propID) && prop.challengeID == 0); \r\n\r\n        //take tokens from challenger\r\n        require(token.transferFrom(msg.sender, this, deposit));\r\n\r\n        //start poll\r\n        uint pollID = voting.startPoll(\r\n            get(\"pVoteQuorum\"),\r\n            get(\"pCommitStageLen\"),\r\n            get(\"pRevealStageLen\")\r\n        );\r\n\r\n        challenges[pollID] = Challenge({\r\n            challenger: msg.sender, \r\n            rewardPool: ((100 - get(\"pDispensationPct\")) * deposit) / 100, \r\n            stake: deposit, \r\n            resolved: false, \r\n            winningTokens: 0\r\n        });\r\n\r\n        proposals[_propID].challengeID = pollID;       // update listing to store most recent challenge\r\n\r\n        _NewChallenge(msg.sender, _propID, pollID);\r\n        return pollID;\r\n    }\r\n\r\n    /**\r\n    @notice for the provided proposal ID, set it, resolve its challenge, or delete it depending on whether it can be set, has a challenge which can be resolved, or if its \"process by\" date has passed\r\n    @param _propID the proposal ID to make a determination and state transition for\r\n    */\r\n    function processProposal(bytes32 _propID) public {\r\n        ParamProposal storage prop = proposals[_propID];\r\n\r\n        if (canBeSet(_propID)) {\r\n            set(prop.name, prop.value);\r\n        } else if (challengeCanBeResolved(_propID)) {\r\n            resolveChallenge(_propID);\r\n        } else if (now > prop.processBy) {\r\n            require(token.transfer(prop.owner, prop.deposit));\r\n        } else {\r\n            revert();\r\n        }\r\n\r\n        delete proposals[_propID];\r\n    }\r\n\r\n    /**\r\n    @notice claim the tokens owed for the msg.sender in the provided challenge\r\n    @param _challengeID the challenge ID to claim tokens for\r\n    @param _salt the salt used to vote in the challenge being withdrawn for\r\n    */\r\n    function claimReward(uint _challengeID, uint _salt) public {\r\n        // ensure voter has not already claimed tokens and challenge results have been processed\r\n        require(challenges[_challengeID].tokenClaims[msg.sender] == false);\r\n        require(challenges[_challengeID].resolved == true);\r\n\r\n        uint voterTokens = voting.getNumPassingTokens(msg.sender, _challengeID, _salt);\r\n        uint reward = voterReward(msg.sender, _challengeID, _salt);\r\n\r\n        // subtract voter's information to preserve the participation ratios of other voters\r\n        // compared to the remaining pool of rewards\r\n        challenges[_challengeID].winningTokens -= voterTokens;\r\n        challenges[_challengeID].rewardPool -= reward;\r\n\r\n        require(token.transfer(msg.sender, reward));\r\n\r\n        // ensures a voter cannot claim tokens again\r\n        challenges[_challengeID].tokenClaims[msg.sender] = true;\r\n    }\r\n\r\n    // GETTERS\r\n\r\n    /**\r\n    @dev                Calculates the provided voter's token reward for the given poll.\r\n    @param _voter       The address of the voter whose reward balance is to be returned\r\n    @param _challengeID The ID of the challenge the voter's reward is being calculated for\r\n    @param _salt        The salt of the voter's commit hash in the given poll\r\n    @return             The uint indicating the voter's reward\r\n    */\r\n    function voterReward(address _voter, uint _challengeID, uint _salt) public view returns (uint) {\r\n        uint winningTokens = challenges[_challengeID].winningTokens;\r\n        uint rewardPool = challenges[_challengeID].rewardPool;\r\n        uint voterTokens = voting.getNumPassingTokens(_voter, _challengeID, _salt);\r\n        return (voterTokens * rewardPool) / winningTokens;\r\n    }\r\n\r\n    /**\r\n    @notice Determines whether a proposal passed its application stage without a challenge\r\n    @param _propID The proposal ID for which to determine whether its application stage passed without a challenge\r\n    */\r\n    function canBeSet(bytes32 _propID) view public returns (bool) {\r\n        ParamProposal memory prop = proposals[_propID];\r\n\r\n        return (now > prop.appExpiry && now < prop.processBy && prop.challengeID == 0);\r\n    }\r\n\r\n    /**\r\n    @notice Determines whether a proposal exists for the provided proposal ID\r\n    @param _propID The proposal ID whose existance is to be determined\r\n    */\r\n    function propExists(bytes32 _propID) view public returns (bool) {\r\n        return proposals[_propID].processBy > 0;\r\n    }\r\n\r\n    /**\r\n    @notice Determines whether the provided proposal ID has a challenge which can be resolved\r\n    @param _propID The proposal ID whose challenge to inspect\r\n    */\r\n    function challengeCanBeResolved(bytes32 _propID) view public returns (bool) {\r\n        ParamProposal memory prop = proposals[_propID];\r\n        Challenge memory challenge = challenges[prop.challengeID];\r\n\r\n        return (prop.challengeID > 0 && challenge.resolved == false && voting.pollEnded(prop.challengeID));\r\n    }\r\n\r\n    /**\r\n    @notice Determines the number of tokens to be awarded to the winning party in a challenge\r\n    @param _challengeID The challengeID to determine a reward for\r\n    */\r\n    function challengeWinnerReward(uint _challengeID) public view returns (uint) {\r\n        if (voting.getTotalNumberOfTokensForWinningOption(_challengeID) == 0) {\r\n            // Edge case, nobody voted, give all tokens to the winner.\r\n            return 2 * challenges[_challengeID].stake;\r\n        }\r\n\r\n        return (2 * challenges[_challengeID].stake) - challenges[_challengeID].rewardPool;\r\n    }\r\n\r\n    /**\r\n    @notice gets the parameter keyed by the provided name value from the params mapping\r\n    @param _name the key whose value is to be determined\r\n    */\r\n    function get(string _name) public view returns (uint value) {\r\n        return params[keccak256(_name)];\r\n    }\r\n\r\n    // PRIVATE FUNCTIONS\r\n    \r\n    /**\r\n    @dev resolves a challenge for the provided _propID. It must be checked in advance whether the _propID has a challenge on it\r\n    @param _propID the proposal ID whose challenge is to be resolved.\r\n    */\r\n    function resolveChallenge(bytes32 _propID) private {\r\n        ParamProposal memory prop = proposals[_propID];\r\n        Challenge storage challenge = challenges[prop.challengeID];\r\n\r\n        // winner gets back their full staked deposit, and dispensationPct*loser's stake\r\n        uint reward = challengeWinnerReward(prop.challengeID);\r\n\r\n        if (voting.isPassed(prop.challengeID)) { // The challenge failed\r\n        if (prop.processBy > now) {\r\n        set(prop.name, prop.value);\r\n        }\r\n        require(token.transfer(prop.owner, reward));\r\n        } else { // The challenge succeeded\r\n        require(token.transfer(challenges[prop.challengeID].challenger, reward));\r\n        }\r\n\r\n        challenge.winningTokens = voting.getTotalNumberOfTokensForWinningOption(prop.challengeID);\r\n        challenge.resolved = true;\r\n    }\r\n\r\n    /**\r\n    @dev sets the param keyed by the provided name to the provided value\r\n    @param _name the name of the param to be set\r\n    @param _value the value to set the param to be set\r\n    */\r\n    function set(string _name, uint _value) private {\r\n        params[keccak256(_name)] = _value;\r\n    }\r\n}",
  "sourcePath": "C:\\Users\\shach\\Documents\\Deco.Network\\DeconetRegistry\\contracts\\Parameterizer_flat.sol",
  "compiler": {
    "name": "solc",
    "version": "0.4.18+commit.9cf6e910.Emscripten.clang"
  },
  "schemaVersion": "1.0.1",
  "updatedAt": "2018-02-07T19:05:09.732Z"
}