{
  "contractName": "PLCRVoting",
  "abi": [
    {
      "constant": true,
      "inputs": [],
      "name": "INITIAL_POLL_NONCE",
      "outputs": [
        {
          "name": "",
          "type": "uint256"
        }
      ],
      "payable": false,
      "stateMutability": "view",
      "type": "function"
    },
    {
      "constant": true,
      "inputs": [
        {
          "name": "",
          "type": "address"
        }
      ],
      "name": "voteTokenBalance",
      "outputs": [
        {
          "name": "",
          "type": "uint256"
        }
      ],
      "payable": false,
      "stateMutability": "view",
      "type": "function"
    },
    {
      "constant": true,
      "inputs": [
        {
          "name": "",
          "type": "uint256"
        }
      ],
      "name": "pollMap",
      "outputs": [
        {
          "name": "commitEndDate",
          "type": "uint256"
        },
        {
          "name": "revealEndDate",
          "type": "uint256"
        },
        {
          "name": "voteQuorum",
          "type": "uint256"
        },
        {
          "name": "votesFor",
          "type": "uint256"
        },
        {
          "name": "votesAgainst",
          "type": "uint256"
        }
      ],
      "payable": false,
      "stateMutability": "view",
      "type": "function"
    },
    {
      "constant": true,
      "inputs": [],
      "name": "pollNonce",
      "outputs": [
        {
          "name": "",
          "type": "uint256"
        }
      ],
      "payable": false,
      "stateMutability": "view",
      "type": "function"
    },
    {
      "constant": true,
      "inputs": [],
      "name": "token",
      "outputs": [
        {
          "name": "",
          "type": "address"
        }
      ],
      "payable": false,
      "stateMutability": "view",
      "type": "function"
    },
    {
      "inputs": [
        {
          "name": "_tokenAddr",
          "type": "address"
        }
      ],
      "payable": false,
      "stateMutability": "nonpayable",
      "type": "constructor"
    },
    {
      "anonymous": false,
      "inputs": [
        {
          "indexed": true,
          "name": "voter",
          "type": "address"
        },
        {
          "indexed": true,
          "name": "pollID",
          "type": "uint256"
        },
        {
          "indexed": true,
          "name": "numTokens",
          "type": "uint256"
        }
      ],
      "name": "VoteCommitted",
      "type": "event"
    },
    {
      "anonymous": false,
      "inputs": [
        {
          "indexed": true,
          "name": "voter",
          "type": "address"
        },
        {
          "indexed": true,
          "name": "pollID",
          "type": "uint256"
        },
        {
          "indexed": true,
          "name": "numTokens",
          "type": "uint256"
        },
        {
          "indexed": false,
          "name": "choice",
          "type": "uint256"
        }
      ],
      "name": "VoteRevealed",
      "type": "event"
    },
    {
      "anonymous": false,
      "inputs": [
        {
          "indexed": true,
          "name": "voteQuorum",
          "type": "uint256"
        },
        {
          "indexed": true,
          "name": "commitDuration",
          "type": "uint256"
        },
        {
          "indexed": false,
          "name": "revealDuration",
          "type": "uint256"
        },
        {
          "indexed": true,
          "name": "pollID",
          "type": "uint256"
        }
      ],
      "name": "PollCreated",
      "type": "event"
    },
    {
      "anonymous": false,
      "inputs": [
        {
          "indexed": true,
          "name": "voter",
          "type": "address"
        },
        {
          "indexed": true,
          "name": "numTokens",
          "type": "uint256"
        }
      ],
      "name": "VotingRightsGranted",
      "type": "event"
    },
    {
      "anonymous": false,
      "inputs": [
        {
          "indexed": true,
          "name": "voter",
          "type": "address"
        },
        {
          "indexed": true,
          "name": "numTokens",
          "type": "uint256"
        }
      ],
      "name": "VotingRightsWithdrawn",
      "type": "event"
    },
    {
      "constant": false,
      "inputs": [
        {
          "name": "_numTokens",
          "type": "uint256"
        }
      ],
      "name": "requestVotingRights",
      "outputs": [],
      "payable": false,
      "stateMutability": "nonpayable",
      "type": "function"
    },
    {
      "constant": false,
      "inputs": [
        {
          "name": "_numTokens",
          "type": "uint256"
        }
      ],
      "name": "withdrawVotingRights",
      "outputs": [],
      "payable": false,
      "stateMutability": "nonpayable",
      "type": "function"
    },
    {
      "constant": false,
      "inputs": [
        {
          "name": "_pollID",
          "type": "uint256"
        }
      ],
      "name": "rescueTokens",
      "outputs": [],
      "payable": false,
      "stateMutability": "nonpayable",
      "type": "function"
    },
    {
      "constant": false,
      "inputs": [
        {
          "name": "_pollID",
          "type": "uint256"
        },
        {
          "name": "_secretHash",
          "type": "bytes32"
        },
        {
          "name": "_numTokens",
          "type": "uint256"
        },
        {
          "name": "_prevPollID",
          "type": "uint256"
        }
      ],
      "name": "commitVote",
      "outputs": [],
      "payable": false,
      "stateMutability": "nonpayable",
      "type": "function"
    },
    {
      "constant": true,
      "inputs": [
        {
          "name": "_prevID",
          "type": "uint256"
        },
        {
          "name": "_nextID",
          "type": "uint256"
        },
        {
          "name": "_voter",
          "type": "address"
        },
        {
          "name": "_numTokens",
          "type": "uint256"
        }
      ],
      "name": "validPosition",
      "outputs": [
        {
          "name": "valid",
          "type": "bool"
        }
      ],
      "payable": false,
      "stateMutability": "view",
      "type": "function"
    },
    {
      "constant": false,
      "inputs": [
        {
          "name": "_pollID",
          "type": "uint256"
        },
        {
          "name": "_voteOption",
          "type": "uint256"
        },
        {
          "name": "_salt",
          "type": "uint256"
        }
      ],
      "name": "revealVote",
      "outputs": [],
      "payable": false,
      "stateMutability": "nonpayable",
      "type": "function"
    },
    {
      "constant": true,
      "inputs": [
        {
          "name": "_voter",
          "type": "address"
        },
        {
          "name": "_pollID",
          "type": "uint256"
        },
        {
          "name": "_salt",
          "type": "uint256"
        }
      ],
      "name": "getNumPassingTokens",
      "outputs": [
        {
          "name": "correctVotes",
          "type": "uint256"
        }
      ],
      "payable": false,
      "stateMutability": "view",
      "type": "function"
    },
    {
      "constant": false,
      "inputs": [
        {
          "name": "_voteQuorum",
          "type": "uint256"
        },
        {
          "name": "_commitDuration",
          "type": "uint256"
        },
        {
          "name": "_revealDuration",
          "type": "uint256"
        }
      ],
      "name": "startPoll",
      "outputs": [
        {
          "name": "pollID",
          "type": "uint256"
        }
      ],
      "payable": false,
      "stateMutability": "nonpayable",
      "type": "function"
    },
    {
      "constant": true,
      "inputs": [
        {
          "name": "_pollID",
          "type": "uint256"
        }
      ],
      "name": "isPassed",
      "outputs": [
        {
          "name": "passed",
          "type": "bool"
        }
      ],
      "payable": false,
      "stateMutability": "view",
      "type": "function"
    },
    {
      "constant": true,
      "inputs": [
        {
          "name": "_pollID",
          "type": "uint256"
        }
      ],
      "name": "getTotalNumberOfTokensForWinningOption",
      "outputs": [
        {
          "name": "numTokens",
          "type": "uint256"
        }
      ],
      "payable": false,
      "stateMutability": "view",
      "type": "function"
    },
    {
      "constant": true,
      "inputs": [
        {
          "name": "_pollID",
          "type": "uint256"
        }
      ],
      "name": "pollEnded",
      "outputs": [
        {
          "name": "ended",
          "type": "bool"
        }
      ],
      "payable": false,
      "stateMutability": "view",
      "type": "function"
    },
    {
      "constant": true,
      "inputs": [
        {
          "name": "_pollID",
          "type": "uint256"
        }
      ],
      "name": "commitPeriodActive",
      "outputs": [
        {
          "name": "active",
          "type": "bool"
        }
      ],
      "payable": false,
      "stateMutability": "view",
      "type": "function"
    },
    {
      "constant": true,
      "inputs": [
        {
          "name": "_pollID",
          "type": "uint256"
        }
      ],
      "name": "revealPeriodActive",
      "outputs": [
        {
          "name": "active",
          "type": "bool"
        }
      ],
      "payable": false,
      "stateMutability": "view",
      "type": "function"
    },
    {
      "constant": true,
      "inputs": [
        {
          "name": "_voter",
          "type": "address"
        },
        {
          "name": "_pollID",
          "type": "uint256"
        }
      ],
      "name": "hasBeenRevealed",
      "outputs": [
        {
          "name": "revealed",
          "type": "bool"
        }
      ],
      "payable": false,
      "stateMutability": "view",
      "type": "function"
    },
    {
      "constant": true,
      "inputs": [
        {
          "name": "_pollID",
          "type": "uint256"
        }
      ],
      "name": "pollExists",
      "outputs": [
        {
          "name": "exists",
          "type": "bool"
        }
      ],
      "payable": false,
      "stateMutability": "view",
      "type": "function"
    },
    {
      "constant": true,
      "inputs": [
        {
          "name": "_voter",
          "type": "address"
        },
        {
          "name": "_pollID",
          "type": "uint256"
        }
      ],
      "name": "getCommitHash",
      "outputs": [
        {
          "name": "commitHash",
          "type": "bytes32"
        }
      ],
      "payable": false,
      "stateMutability": "view",
      "type": "function"
    },
    {
      "constant": true,
      "inputs": [
        {
          "name": "_voter",
          "type": "address"
        },
        {
          "name": "_pollID",
          "type": "uint256"
        }
      ],
      "name": "getNumTokens",
      "outputs": [
        {
          "name": "numTokens",
          "type": "uint256"
        }
      ],
      "payable": false,
      "stateMutability": "view",
      "type": "function"
    },
    {
      "constant": true,
      "inputs": [
        {
          "name": "_voter",
          "type": "address"
        }
      ],
      "name": "getLastNode",
      "outputs": [
        {
          "name": "pollID",
          "type": "uint256"
        }
      ],
      "payable": false,
      "stateMutability": "view",
      "type": "function"
    },
    {
      "constant": true,
      "inputs": [
        {
          "name": "_voter",
          "type": "address"
        }
      ],
      "name": "getLockedTokens",
      "outputs": [
        {
          "name": "numTokens",
          "type": "uint256"
        }
      ],
      "payable": false,
      "stateMutability": "view",
      "type": "function"
    },
    {
      "constant": true,
      "inputs": [
        {
          "name": "_voter",
          "type": "address"
        },
        {
          "name": "_numTokens",
          "type": "uint256"
        }
      ],
      "name": "getInsertPointForNumTokens",
      "outputs": [
        {
          "name": "prevNode",
          "type": "uint256"
        }
      ],
      "payable": false,
      "stateMutability": "view",
      "type": "function"
    },
    {
      "constant": true,
      "inputs": [
        {
          "name": "_terminationDate",
          "type": "uint256"
        }
      ],
      "name": "isExpired",
      "outputs": [
        {
          "name": "expired",
          "type": "bool"
        }
      ],
      "payable": false,
      "stateMutability": "view",
      "type": "function"
    },
    {
      "constant": true,
      "inputs": [
        {
          "name": "_user",
          "type": "address"
        },
        {
          "name": "_pollID",
          "type": "uint256"
        }
      ],
      "name": "attrUUID",
      "outputs": [
        {
          "name": "UUID",
          "type": "bytes32"
        }
      ],
      "payable": false,
      "stateMutability": "pure",
      "type": "function"
    }
  ],
  "bytecode": "0x6060604052341561000f57600080fd5b6040516020806120338339810160405280805190602001909190505080600560006101000a81548173ffffffffffffffffffffffffffffffffffffffff021916908373ffffffffffffffffffffffffffffffffffffffff1602179055506000808190555050611fb0806100836000396000f30060606040526004361061015f576000357c0100000000000000000000000000000000000000000000000000000000900463ffffffff168063053e71a6146101645780632173a10f1461019b57806332ed3d60146101c45780633b9302941461020d578063427fa1d21461025a578063441c77c0146102a757806349403183146102e25780636148fed51461031d5780636b2d95d4146103705780636cbf9c5e146103bd57806372d8e442146103ff578063819b02931461045957806388d21ff3146104c557806397508f36146105005780639760356014610529578063a1103f371461054c578063a25236fe146105aa578063a4439dc5146105cd578063b11d8bb814610608578063b43bd0691461063d578063c622afb01461069c578063d1382092146106f2578063d901402b14610748578063d9548e53146107a6578063e7b1d43c146107e1578063ee68483014610804578063fc0c546a1461083f575b600080fd5b341561016f57600080fd5b6101856004808035906020019091905050610894565b6040518082815260200191505060405180910390f35b34156101a657600080fd5b6101ae6108f5565b6040518082815260200191505060405180910390f35b34156101cf57600080fd5b6101f760048080359060200190919080359060200190919080359060200190919050506108fa565b6040518082815260200191505060405180910390f35b341561021857600080fd5b610244600480803573ffffffffffffffffffffffffffffffffffffffff169060200190919050506109c9565b6040518082815260200191505060405180910390f35b341561026557600080fd5b610291600480803573ffffffffffffffffffffffffffffffffffffffff169060200190919050506109e1565b6040518082815260200191505060405180910390f35b34156102b257600080fd5b6102c86004808035906020019091905050610ac0565b604051808215151515815260200191505060405180910390f35b34156102ed57600080fd5b6103036004808035906020019091905050610b0f565b604051808215151515815260200191505060405180910390f35b341561032857600080fd5b61033e6004808035906020019091905050610ba2565b604051808681526020018581526020018481526020018381526020018281526020019550505050505060405180910390f35b341561037b57600080fd5b6103a7600480803573ffffffffffffffffffffffffffffffffffffffff16906020019091905050610bd8565b6040518082815260200191505060405180910390f35b34156103c857600080fd5b6103fd600480803590602001909190803560001916906020019091908035906020019091908035906020019091905050610bf3565b005b341561040a57600080fd5b61043f600480803573ffffffffffffffffffffffffffffffffffffffff1690602001909190803590602001909190505061113f565b604051808215151515815260200191505060405180910390f35b341561046457600080fd5b6104ab600480803590602001909190803590602001909190803573ffffffffffffffffffffffffffffffffffffffff16906020019091908035906020019091905050611254565b604051808215151515815260200191505060405180910390f35b34156104d057600080fd5b6104e66004808035906020019091905050611298565b604051808215151515815260200191505060405180910390f35b341561050b57600080fd5b61051361132c565b6040518082815260200191505060405180910390f35b341561053457600080fd5b61054a6004808035906020019091905050611332565b005b341561055757600080fd5b61058c600480803573ffffffffffffffffffffffffffffffffffffffff16906020019091908035906020019091905050611425565b60405180826000191660001916815260200191505060405180910390f35b34156105b557600080fd5b6105cb6004808035906020019091905050611488565b005b34156105d857600080fd5b6105ee6004808035906020019091905050611731565b604051808215151515815260200191505060405180910390f35b341561061357600080fd5b61063b600480803590602001909190803590602001909190803590602001909190505061176e565b005b341561064857600080fd5b610686600480803573ffffffffffffffffffffffffffffffffffffffff16906020019091908035906020019091908035906020019091905050611955565b6040518082815260200191505060405180910390f35b34156106a757600080fd5b6106dc600480803573ffffffffffffffffffffffffffffffffffffffff169060200190919080359060200190919050506119f8565b6040518082815260200191505060405180910390f35b34156106fd57600080fd5b610732600480803573ffffffffffffffffffffffffffffffffffffffff16906020019091908035906020019091905050611b24565b6040518082815260200191505060405180910390f35b341561075357600080fd5b610788600480803573ffffffffffffffffffffffffffffffffffffffff16906020019091908035906020019091905050611c11565b60405180826000191660001916815260200191505060405180910390f35b34156107b157600080fd5b6107c76004808035906020019091905050611d01565b604051808215151515815260200191505060405180910390f35b34156107ec57600080fd5b6108026004808035906020019091905050611d0d565b005b341561080f57600080fd5b6108256004808035906020019091905050611ef2565b604051808215151515815260200191505060405180910390f35b341561084a57600080fd5b610852611f2e565b604051808273ffffffffffffffffffffffffffffffffffffffff1673ffffffffffffffffffffffffffffffffffffffff16815260200191505060405180910390f35b600061089f82611ef2565b15156108aa57600080fd5b6108b382610b0f565b156108d657600160008381526020019081526020016000206003015490506108f0565b600160008381526020019081526020016000206004015490505b919050565b600081565b600060016000540160008190555060a0604051908101604052808442018152602001838542010181526020018581526020016000815260200160008152506001600080548152602001908152602001600020600082015181600001556020820151816001015560408201518160020155606082015181600301556080820151816004015590505060005483857fef096063d99f4ef9370b5e89d45025615c869845ca33878d173e8dca429b2be0856040518082815260200191505060405180910390a460005490509392505050565b60026020528060005260406000206000915090505481565b6000600360008373ffffffffffffffffffffffffffffffffffffffff1673ffffffffffffffffffffffffffffffffffffffff16815260200190815260200160002073__DLL___________________________________6330fe0a0a9091600080604051602001526040518363ffffffff167c0100000000000000000000000000000000000000000000000000000000028152600401808381526020018281526020019250505060206040518083038186803b1515610a9e57600080fd5b6102c65a03f41515610aaf57600080fd5b505050604051805190509050919050565b6000610acb82611298565b1515610ad657600080fd5b610af56001600084815260200190815260200160002060010154611d01565b158015610b085750610b0682611731565b155b9050919050565b6000610b19611f54565b610b2283611ef2565b1515610b2d57600080fd5b6001600084815260200190815260200160002060a060405190810160405290816000820154815260200160018201548152602001600282015481526020016003820154815260200160048201548152505090508060800151816060015101816040015102816060015160640211915050919050565b60016020528060005260406000206000915090508060000154908060010154908060020154908060030154908060040154905085565b6000610bec82610be7846109e1565b611b24565b9050919050565b600080610bff86611731565b1515610c0a57600080fd5b83600260003373ffffffffffffffffffffffffffffffffffffffff1673ffffffffffffffffffffffffffffffffffffffff1681526020019081526020016000205410151515610c5857600080fd5b60008614151515610c6857600080fd5b6000831480610c8857506000600102610c813385611c11565b6000191614155b1515610c9357600080fd5b600360003373ffffffffffffffffffffffffffffffffffffffff1673ffffffffffffffffffffffffffffffffffffffff16815260200190815260200160002073__DLL___________________________________6307d29ac99091856000604051602001526040518363ffffffff167c0100000000000000000000000000000000000000000000000000000000028152600401808381526020018281526020019250505060206040518083038186803b1515610d4e57600080fd5b6102c65a03f41515610d5f57600080fd5b505050604051805190509150858214610d785781610e4f565b600360003373ffffffffffffffffffffffffffffffffffffffff1673ffffffffffffffffffffffffffffffffffffffff16815260200190815260200160002073__DLL___________________________________6307d29ac99091886000604051602001526040518363ffffffff167c0100000000000000000000000000000000000000000000000000000000028152600401808381526020018281526020019250505060206040518083038186803b1515610e3357600080fd5b6102c65a03f41515610e4457600080fd5b505050604051805190505b9150610e5d83833387611254565b1515610e6857600080fd5b600360003373ffffffffffffffffffffffffffffffffffffffff1673ffffffffffffffffffffffffffffffffffffffff16815260200190815260200160002073__DLL___________________________________639735c51b90918589866040518563ffffffff167c01000000000000000000000000000000000000000000000000000000000281526004018085815260200184815260200183815260200182815260200194505050505060006040518083038186803b1515610f2a57600080fd5b6102c65a03f41515610f3b57600080fd5b505050610f483387611425565b9050600473__AttributeStore________________________63977aa031909183876040518463ffffffff167c010000000000000000000000000000000000000000000000000000000002815260040180848152602001836000191660001916815260200180602001838152602001828103825260098152602001807f6e756d546f6b656e73000000000000000000000000000000000000000000000081525060200194505050505060006040518083038186803b151561100857600080fd5b6102c65a03f4151561101957600080fd5b505050600473__AttributeStore________________________63977aa03190918388600190046040518463ffffffff167c0100000000000000000000000000000000000000000000000000000000028152600401808481526020018360001916600019168152602001806020018381526020018281038252600a8152602001807f636f6d6d6974486173680000000000000000000000000000000000000000000081525060200194505050505060006040518083038186803b15156110de57600080fd5b6102c65a03f415156110ef57600080fd5b50505083863373ffffffffffffffffffffffffffffffffffffffff167f1d1ce8842c4b2d0eaed42eb6d7732092ca85f0992cae9c760d181efcb0aedf4e60405160405180910390a4505050505050565b600061114a82611298565b151561115557600080fd5b60006001026111648484611c11565b600019161415151561117557600080fd5b600360008473ffffffffffffffffffffffffffffffffffffffff1673ffffffffffffffffffffffffffffffffffffffff16815260200190815260200160002073__DLL___________________________________63366a5ba29091846000604051602001526040518363ffffffff167c0100000000000000000000000000000000000000000000000000000000028152600401808381526020018281526020019250505060206040518083038186803b151561123057600080fd5b6102c65a03f4151561124157600080fd5b5050506040518051905015905092915050565b60008060006112638588611b24565b84101591506112728587611b24565b841115806112805750600086145b905081801561128c5750805b92505050949350505050565b600080600060016000858152602001908152602001600020600001549150600160008581526020019081526020016000206001015490506000821480156112e0575060008114155b1515156112e957fe5b600082141580156112fa5750600081145b15151561130357fe5b60008214806113125750600081145b156113205760009250611325565b600192505b5050919050565b60005481565b61133b81611ef2565b151561134657600080fd5b611350338261113f565b15151561135c57600080fd5b600360003373ffffffffffffffffffffffffffffffffffffffff1673ffffffffffffffffffffffffffffffffffffffff16815260200190815260200160002073__DLL___________________________________636d900ed09091836040518363ffffffff167c0100000000000000000000000000000000000000000000000000000000028152600401808381526020018281526020019250505060006040518083038186803b151561140e57600080fd5b6102c65a03f4151561141f57600080fd5b50505050565b60008282604051808373ffffffffffffffffffffffffffffffffffffffff1673ffffffffffffffffffffffffffffffffffffffff166c01000000000000000000000000028152601401828152602001925050506040518091039020905092915050565b80600560009054906101000a900473ffffffffffffffffffffffffffffffffffffffff1673ffffffffffffffffffffffffffffffffffffffff166370a08231336000604051602001526040518263ffffffff167c0100000000000000000000000000000000000000000000000000000000028152600401808273ffffffffffffffffffffffffffffffffffffffff1673ffffffffffffffffffffffffffffffffffffffff168152602001915050602060405180830381600087803b151561154e57600080fd5b6102c65a03f1151561155f57600080fd5b505050604051805190501015151561157657600080fd5b600560009054906101000a900473ffffffffffffffffffffffffffffffffffffffff1673ffffffffffffffffffffffffffffffffffffffff166323b872dd3330846000604051602001526040518463ffffffff167c0100000000000000000000000000000000000000000000000000000000028152600401808473ffffffffffffffffffffffffffffffffffffffff1673ffffffffffffffffffffffffffffffffffffffff1681526020018373ffffffffffffffffffffffffffffffffffffffff1673ffffffffffffffffffffffffffffffffffffffff1681526020018281526020019350505050602060405180830381600087803b151561167757600080fd5b6102c65a03f1151561168857600080fd5b50505060405180519050151561169d57600080fd5b80600260003373ffffffffffffffffffffffffffffffffffffffff1673ffffffffffffffffffffffffffffffffffffffff16815260200190815260200160002060008282540192505081905550803373ffffffffffffffffffffffffffffffffffffffff167f4bdec44a53feb3aabedf51c989ff2b6aebe7369d3974f57c304758a8537281e160405160405180910390a350565b600061173c82611298565b151561174757600080fd5b6117666001600084815260200190815260200160002060000154611d01565b159050919050565b600061177984610ac0565b151561178457600080fd5b61178e338561113f565b15151561179a57600080fd5b6117a43385611c11565b60001916838360405180838152602001828152602001925050506040518091039020600019161415156117d657600080fd5b6117e03385611b24565b9050600183141561181457806001600086815260200190815260200160002060030160008282540192505081905550611839565b8060016000868152602001908152602001600020600401600082825401925050819055505b600360003373ffffffffffffffffffffffffffffffffffffffff1673ffffffffffffffffffffffffffffffffffffffff16815260200190815260200160002073__DLL___________________________________636d900ed09091866040518363ffffffff167c0100000000000000000000000000000000000000000000000000000000028152600401808381526020018281526020019250505060006040518083038186803b15156118eb57600080fd5b6102c65a03f415156118fc57600080fd5b50505080843373ffffffffffffffffffffffffffffffffffffffff167f7f9df012dd015e7e61a4a17ccf8db7fb6afbe211465b5696368d1d6408d03311866040518082815260200191505060405180910390a450505050565b60008060008061196486611ef2565b151561196f57600080fd5b611979878761113f565b151561198457600080fd5b61198d86610b0f565b61199857600061199b565b60015b60ff16925082856040518083815260200182815260200192505050604051809103902091506119ca8787611c11565b9050806000191682600019161415156119e257600080fd5b6119ec8787611b24565b93505050509392505050565b6000806000611a06856109e1565b9150611a128583611b24565b90505b600081141515611b1857611a298583611b24565b905083811015611a3b57819250611b1c565b600360008673ffffffffffffffffffffffffffffffffffffffff1673ffffffffffffffffffffffffffffffffffffffff16815260200190815260200160002073__DLL___________________________________6330fe0a0a9091846000604051602001526040518363ffffffff167c0100000000000000000000000000000000000000000000000000000000028152600401808381526020018281526020019250505060206040518083038186803b1515611af657600080fd5b6102c65a03f41515611b0757600080fd5b505050604051805190509150611a15565b8192505b505092915050565b6000600473__AttributeStore________________________6350389f5c9091611b4e8686611425565b6000604051602001526040518363ffffffff167c010000000000000000000000000000000000000000000000000000000002815260040180838152602001826000191660001916815260200180602001828103825260098152602001807f6e756d546f6b656e730000000000000000000000000000000000000000000000815250602001935050505060206040518083038186803b1515611bee57600080fd5b6102c65a03f41515611bff57600080fd5b50505060405180519050905092915050565b6000600473__AttributeStore________________________6350389f5c9091611c3b8686611425565b6000604051602001526040518363ffffffff167c0100000000000000000000000000000000000000000000000000000000028152600401808381526020018260001916600019168152602001806020018281038252600a8152602001807f636f6d6d69744861736800000000000000000000000000000000000000000000815250602001935050505060206040518083038186803b1515611cdb57600080fd5b6102c65a03f41515611cec57600080fd5b50505060405180519050600102905092915050565b60008142119050919050565b6000611d1833610bd8565b600260003373ffffffffffffffffffffffffffffffffffffffff1673ffffffffffffffffffffffffffffffffffffffff16815260200190815260200160002054039050818110151515611d6a57600080fd5b600560009054906101000a900473ffffffffffffffffffffffffffffffffffffffff1673ffffffffffffffffffffffffffffffffffffffff1663a9059cbb33846000604051602001526040518363ffffffff167c0100000000000000000000000000000000000000000000000000000000028152600401808373ffffffffffffffffffffffffffffffffffffffff1673ffffffffffffffffffffffffffffffffffffffff16815260200182815260200192505050602060405180830381600087803b1515611e3757600080fd5b6102c65a03f11515611e4857600080fd5b505050604051805190501515611e5d57600080fd5b81600260003373ffffffffffffffffffffffffffffffffffffffff1673ffffffffffffffffffffffffffffffffffffffff16815260200190815260200160002060008282540392505081905550813373ffffffffffffffffffffffffffffffffffffffff167f2c88837e03c4eee367d64fb379bbf7dad76a371c52622230bcf8b79728b9c53260405160405180910390a35050565b6000611efd82611298565b1515611f0857600080fd5b611f276001600084815260200190815260200160002060010154611d01565b9050919050565b600560009054906101000a900473ffffffffffffffffffffffffffffffffffffffff1681565b60a060405190810160405280600081526020016000815260200160008152602001600081526020016000815250905600a165627a7a7230582053c94198af78e3da83f3076d8805ba2ab461713804595256897d426d6ea8b3460029",
  "source": "pragma solidity ^0.4.18;\r\n\r\nimport \"./lib/tokens/contracts/eip20/EIP20.sol\";\r\nimport \"./lib/dll/contracts/DLL.sol\";\r\nimport \"./lib/attrstore/contracts/AttributeStore.sol\";\r\n\r\n/**\r\n@title Partial-Lock-Commit-Reveal Voting scheme with ERC20 tokens \r\n@author Team: Aspyn Palatnick, Cem Ozer, Yorke Rhodes\r\n*/\r\ncontract PLCRVoting {\r\n\r\n    // ============\r\n    // EVENTS:\r\n    // ============\r\n\r\n    event VoteCommitted(address indexed voter, uint indexed pollID, uint indexed numTokens);\r\n    event VoteRevealed(address indexed voter, uint indexed pollID, uint indexed numTokens, uint choice);\r\n    event PollCreated(uint indexed voteQuorum, uint indexed commitDuration, uint revealDuration, uint indexed pollID);\r\n    event VotingRightsGranted(address indexed voter, uint indexed numTokens);\r\n    event VotingRightsWithdrawn(address indexed voter, uint indexed numTokens);\r\n\r\n    // ============\r\n    // DATA STRUCTURES:\r\n    // ============\r\n\r\n    using AttributeStore for AttributeStore.Data;\r\n    using DLL for DLL.Data;\r\n\r\n    struct Poll {\r\n        uint commitEndDate;     /// expiration date of commit period for poll\r\n        uint revealEndDate;     /// expiration date of reveal period for poll\r\n        uint voteQuorum;\t      /// number of votes required for a proposal to pass\r\n        uint votesFor;\t\t      /// tally of votes supporting proposal\r\n        uint votesAgainst;      /// tally of votes countering proposal\r\n    }\r\n    \r\n    // ============\r\n    // STATE VARIABLES:\r\n    // ============\r\n\r\n    uint constant public INITIAL_POLL_NONCE = 0;\r\n    uint public pollNonce;\r\n\r\n    mapping(uint => Poll) public pollMap; // maps pollID to Poll struct\r\n    mapping(address => uint) public voteTokenBalance; // maps user's address to voteToken balance\r\n\r\n    mapping(address => DLL.Data) dllMap;\r\n    AttributeStore.Data store;\r\n\r\n    EIP20 public token;\r\n\r\n    // ============\r\n    // CONSTRUCTOR:\r\n    // ============\r\n\r\n    /**\r\n    @dev                Initializes voteQuorum, commitDuration, revealDuration, and pollNonce in addition to token contract and trusted mapping\r\n    @param _tokenAddr   The address where the ERC20 token contract is deployed\r\n    */\r\n    function PLCRVoting(address _tokenAddr) public {\r\n        token = EIP20(_tokenAddr);\r\n        pollNonce = INITIAL_POLL_NONCE;\r\n    }\r\n\r\n    // ================\r\n    // TOKEN INTERFACE:\r\n    // ================\r\n\r\n    /**    \r\n    @notice             Loads _numTokens ERC20 tokens into the voting contract for one-to-one voting rights\r\n    @dev                Assumes that msg.sender has approved voting contract to spend on their behalf\r\n    @param _numTokens   The number of votingTokens desired in exchange for ERC20 tokens\r\n    */\r\n    function requestVotingRights(uint _numTokens) external {\r\n        require(token.balanceOf(msg.sender) >= _numTokens);\r\n        require(token.transferFrom(msg.sender, this, _numTokens));\r\n        voteTokenBalance[msg.sender] += _numTokens;\r\n        VotingRightsGranted(msg.sender, _numTokens);\r\n    }\r\n\r\n    /**\r\n    @notice Withdraw _numTokens     ERC20 tokens from the voting contract, revoking these voting rights\r\n    @param _numTokens               The number of ERC20 tokens desired in exchange for voting rights\r\n    */\r\n    function withdrawVotingRights(uint _numTokens) external {\r\n        uint availableTokens = voteTokenBalance[msg.sender] - getLockedTokens(msg.sender);\r\n        require(availableTokens >= _numTokens);\r\n        require(token.transfer(msg.sender, _numTokens));\r\n        voteTokenBalance[msg.sender] -= _numTokens;\r\n        VotingRightsWithdrawn(msg.sender, _numTokens);\r\n    }\r\n\r\n    /**\r\n    @dev            Unlocks tokens locked in unrevealed vote where poll has ended\r\n    @param _pollID  Integer identifier associated with the target poll\r\n    */\r\n    function rescueTokens(uint _pollID) external {\r\n        require(pollEnded(_pollID));\r\n        require(!hasBeenRevealed(msg.sender, _pollID));\r\n\r\n        dllMap[msg.sender].remove(_pollID);\r\n    }\r\n\r\n    // =================\r\n    // VOTING INTERFACE:\r\n    // =================\r\n\r\n    /**\r\n    @notice             Commits vote using hash of choice and secret salt to conceal vote until reveal\r\n    @param _pollID      Integer identifier associated with target poll\r\n    @param _secretHash  Commit keccak256 hash of voter's choice and salt (tightly packed in this order)\r\n    @param _numTokens   The number of tokens to be committed towards the target poll\r\n    @param _prevPollID  The ID of the poll that the user has voted the maximum number of tokens in which is still less than or equal to numTokens \r\n    */\r\n    function commitVote(uint _pollID, bytes32 _secretHash, uint _numTokens, uint _prevPollID) external {\r\n        require(commitPeriodActive(_pollID));\r\n        require(voteTokenBalance[msg.sender] >= _numTokens); // prevent user from overspending\r\n        require(_pollID != 0);                // prevent user from committing to zero node placeholder\r\n\r\n        // TODO: Move all insert validation into the DLL lib\r\n        // Check if _prevPollID exists\r\n        require(_prevPollID == 0 || getCommitHash(msg.sender, _prevPollID) != 0);\r\n\r\n        uint nextPollID = dllMap[msg.sender].getNext(_prevPollID);\r\n\r\n        // if nextPollID is equal to _pollID, _pollID is being updated,\r\n        nextPollID = (nextPollID == _pollID) ? dllMap[msg.sender].getNext(_pollID) : nextPollID;\r\n\r\n        require(validPosition(_prevPollID, nextPollID, msg.sender, _numTokens));\r\n        dllMap[msg.sender].insert(_prevPollID, _pollID, nextPollID);\r\n\r\n        bytes32 UUID = attrUUID(msg.sender, _pollID);\r\n\r\n        store.setAttribute(UUID, \"numTokens\", _numTokens);\r\n        store.setAttribute(UUID, \"commitHash\", uint(_secretHash));\r\n\r\n        VoteCommitted(msg.sender, _pollID, _numTokens);\r\n    }\r\n\r\n    /**\r\n    @dev                Compares previous and next poll's committed tokens for sorting purposes\r\n    @param _prevID      Integer identifier associated with previous poll in sorted order\r\n    @param _nextID      Integer identifier associated with next poll in sorted order\r\n    @param _voter       Address of user to check DLL position for\r\n    @param _numTokens   The number of tokens to be committed towards the poll (used for sorting)\r\n    @return valid       Boolean indication of if the specified position maintains the sort\r\n    */\r\n    function validPosition(uint _prevID, uint _nextID, address _voter, uint _numTokens) public constant returns (bool valid) {\r\n        bool prevValid = (_numTokens >= getNumTokens(_voter, _prevID));\r\n        // if next is zero node, _numTokens does not need to be greater\r\n        bool nextValid = (_numTokens <= getNumTokens(_voter, _nextID) || _nextID == 0); \r\n        return prevValid && nextValid;\r\n    }\r\n\r\n    /**\r\n    @notice             Reveals vote with choice and secret salt used in generating commitHash to attribute committed tokens\r\n    @param _pollID      Integer identifier associated with target poll\r\n    @param _voteOption  Vote choice used to generate commitHash for associated poll\r\n    @param _salt        Secret number used to generate commitHash for associated poll\r\n    */\r\n    function revealVote(uint _pollID, uint _voteOption, uint _salt) external {\r\n        // Make sure the reveal period is active\r\n        require(revealPeriodActive(_pollID));\r\n        require(!hasBeenRevealed(msg.sender, _pollID));                        // prevent user from revealing multiple times\r\n        require(keccak256(_voteOption, _salt) == getCommitHash(msg.sender, _pollID)); // compare resultant hash from inputs to original commitHash\r\n\r\n        uint numTokens = getNumTokens(msg.sender, _pollID); \r\n\r\n        if (_voteOption == 1) // apply numTokens to appropriate poll choice\r\n            pollMap[_pollID].votesFor += numTokens;\r\n        else\r\n            pollMap[_pollID].votesAgainst += numTokens;\r\n        \r\n        dllMap[msg.sender].remove(_pollID); // remove the node referring to this vote upon reveal\r\n\r\n        VoteRevealed(msg.sender, _pollID, numTokens, _voteOption);\r\n    }\r\n\r\n    /**\r\n    @param _pollID          Integer identifier associated with target poll\r\n    @param _salt            Arbitrarily chosen integer used to generate secretHash\r\n    @return correctVotes    Number of tokens voted for winning option\r\n    */\r\n    function getNumPassingTokens(address _voter, uint _pollID, uint _salt) public constant returns (uint correctVotes) {\r\n        require(pollEnded(_pollID));\r\n        require(hasBeenRevealed(_voter, _pollID));\r\n\r\n        uint winningChoice = isPassed(_pollID) ? 1 : 0;\r\n        bytes32 winnerHash = keccak256(winningChoice, _salt);\r\n        bytes32 commitHash = getCommitHash(_voter, _pollID);\r\n\r\n        require(winnerHash == commitHash);\r\n\r\n        return getNumTokens(_voter, _pollID);\r\n    }\r\n\r\n    // ==================\r\n    // POLLING INTERFACE:\r\n    // ================== \r\n\r\n    /**\r\n    @dev                    Initiates a poll with canonical configured parameters at pollID emitted by PollCreated event\r\n    @param _voteQuorum      Type of majority (out of 100) that is necessary for poll to be successful\r\n    @param _commitDuration  Length of desired commit period in seconds\r\n    @param _revealDuration  Length of desired reveal period in seconds\r\n    */\r\n    function startPoll(uint _voteQuorum, uint _commitDuration, uint _revealDuration) public returns (uint pollID) {\r\n        pollNonce = pollNonce + 1;\r\n\r\n        pollMap[pollNonce] = Poll({\r\n            voteQuorum: _voteQuorum, \r\n            commitEndDate: block.timestamp + _commitDuration, \r\n            revealEndDate: block.timestamp + _commitDuration + _revealDuration, \r\n            votesFor: 0, \r\n            votesAgainst: 0\r\n        });\r\n\r\n        PollCreated(_voteQuorum, _commitDuration, _revealDuration, pollNonce);\r\n        return pollNonce;\r\n    }\r\n \r\n    /**\r\n    @notice         Determines if proposal has passed\r\n    @dev            Check if votesFor out of totalVotes exceeds votesQuorum (requires pollEnded)\r\n    @param _pollID  Integer identifier associated with target poll\r\n    */\r\n    function isPassed(uint _pollID) constant public returns (bool passed) {\r\n        require(pollEnded(_pollID));\r\n\r\n        Poll memory poll = pollMap[_pollID];\r\n        return (100 * poll.votesFor) > (poll.voteQuorum * (poll.votesFor + poll.votesAgainst));\r\n    }\r\n\r\n    // ----------------\r\n    // POLLING HELPERS:\r\n    // ----------------\r\n\r\n    /**\r\n    @dev Gets the total winning votes for reward distribution purposes\r\n    @param _pollID Integer identifier associated with target poll\r\n    @return Total number of votes committed to the winning option for specified poll\r\n    */\r\n    function getTotalNumberOfTokensForWinningOption(uint _pollID) constant public returns (uint numTokens) {\r\n        require(pollEnded(_pollID));\r\n\r\n        if (isPassed(_pollID))\r\n            return pollMap[_pollID].votesFor;\r\n        else\r\n            return pollMap[_pollID].votesAgainst;\r\n    }\r\n\r\n    /**\r\n    @notice     Determines if poll is over\r\n    @dev        Checks isExpired for specified poll's revealEndDate\r\n    @return     Boolean indication of whether polling period is over\r\n    */\r\n    function pollEnded(uint _pollID) constant public returns (bool ended) {\r\n        require(pollExists(_pollID));\r\n\r\n        return isExpired(pollMap[_pollID].revealEndDate);\r\n    }\r\n\r\n    /**\r\n    @notice         Checks if the commit period is still active for the specified poll\r\n    @dev            Checks isExpired for the specified poll's commitEndDate\r\n    @param _pollID  Integer identifier associated with target poll\r\n    @return         Boolean indication of isCommitPeriodActive for target poll\r\n    */\r\n    function commitPeriodActive(uint _pollID) constant public returns (bool active) {\r\n        require(pollExists(_pollID));\r\n\r\n        return !isExpired(pollMap[_pollID].commitEndDate);\r\n    }\r\n\r\n    /**\r\n    @notice         Checks if the reveal period is still active for the specified poll\r\n    @dev            Checks isExpired for the specified poll's revealEndDate\r\n    @param _pollID  Integer identifier associated with target poll\r\n    */\r\n    function revealPeriodActive(uint _pollID) constant public returns (bool active) {\r\n        require(pollExists(_pollID));\r\n\r\n        return !isExpired(pollMap[_pollID].revealEndDate) && !commitPeriodActive(_pollID);\r\n    }\r\n\r\n    /**\r\n    @dev            Checks if user has already revealed for specified poll\r\n    @param _voter   Address of user to check against\r\n    @param _pollID  Integer identifier associated with target poll\r\n    @return         Boolean indication of whether user has already revealed\r\n    */\r\n    function hasBeenRevealed(address _voter, uint _pollID) constant public returns (bool revealed) {\r\n        require(pollExists(_pollID));\r\n        require(getCommitHash(_voter, _pollID) != 0);\r\n\r\n        return !dllMap[_voter].contains(_pollID);\r\n    }\r\n\r\n    /**\r\n    @dev            Checks if a poll exists, throws if the provided poll is in an impossible state\r\n    @param _pollID  The pollID whose existance is to be evaluated.\r\n    @return         Boolean Indicates whether a poll exists for the provided pollID\r\n    */\r\n    function pollExists(uint _pollID) constant public returns (bool exists) {\r\n        uint commitEndDate = pollMap[_pollID].commitEndDate;\r\n        uint revealEndDate = pollMap[_pollID].revealEndDate;\r\n\r\n        assert(!(commitEndDate == 0 && revealEndDate != 0));\r\n        assert(!(commitEndDate != 0 && revealEndDate == 0));\r\n\r\n        if (commitEndDate == 0 || revealEndDate == 0) {\r\n            return false;\r\n        }\r\n        return true;\r\n    }\r\n\r\n    // ---------------------------\r\n    // DOUBLE-LINKED-LIST HELPERS:\r\n    // ---------------------------\r\n\r\n    /**\r\n    @dev            Gets the bytes32 commitHash property of target poll\r\n    @param _voter   Address of user to check against\r\n    @param _pollID  Integer identifier associated with target poll\r\n    @return         Bytes32 hash property attached to target poll \r\n    */\r\n    function getCommitHash(address _voter, uint _pollID) constant public returns (bytes32 commitHash) { \r\n        return bytes32(store.getAttribute(attrUUID(_voter, _pollID), \"commitHash\"));    \r\n    } \r\n\r\n    /**\r\n    @dev            Wrapper for getAttribute with attrName=\"numTokens\"\r\n    @param _voter   Address of user to check against\r\n    @param _pollID  Integer identifier associated with target poll\r\n    @return         Number of tokens committed to poll in sorted poll-linked-list\r\n    */\r\n    function getNumTokens(address _voter, uint _pollID) constant public returns (uint numTokens) {\r\n        return store.getAttribute(attrUUID(_voter, _pollID), \"numTokens\");\r\n    }\r\n\r\n    /**\r\n    @dev            Gets top element of sorted poll-linked-list\r\n    @param _voter   Address of user to check against\r\n    @return         Integer identifier to poll with maximum number of tokens committed to it\r\n    */\r\n    function getLastNode(address _voter) constant public returns (uint pollID) {\r\n        return dllMap[_voter].getPrev(0);\r\n    }\r\n\r\n    /**\r\n    @dev            Gets the numTokens property of getLastNode\r\n    @param _voter   Address of user to check against\r\n    @return         Maximum number of tokens committed in poll specified \r\n    */\r\n    function getLockedTokens(address _voter) constant public returns (uint numTokens) {\r\n        return getNumTokens(_voter, getLastNode(_voter));\r\n    }\r\n\r\n    /**\r\n    @dev                Gets the prevNode a new node should be inserted after given the sort factor\r\n    @param _voter       The voter whose DLL will be searched\r\n    @param _numTokens   The value for the numTokens attribute in the node to be inserted\r\n    @return             the node which the propoded node should be inserted after\r\n    */\r\n    function getInsertPointForNumTokens(address _voter, uint _numTokens) constant public returns (uint prevNode) {\r\n        uint nodeID = getLastNode(_voter);\r\n        uint tokensInNode = getNumTokens(_voter, nodeID);\r\n\r\n        while (tokensInNode != 0) {\r\n        tokensInNode = getNumTokens(_voter, nodeID);\r\n        if (tokensInNode < _numTokens) {\r\n            return nodeID;\r\n        }\r\n        nodeID = dllMap[_voter].getPrev(nodeID);\r\n        }\r\n\r\n        return nodeID;\r\n    }\r\n \r\n    // ----------------\r\n    // GENERAL HELPERS:\r\n    // ----------------\r\n\r\n    /**\r\n    @dev                    Checks if an expiration date has been reached\r\n    @param _terminationDate Integer timestamp of date to compare current timestamp with\r\n    @return expired         Boolean indication of whether the terminationDate has passed\r\n    */\r\n    function isExpired(uint _terminationDate) constant public returns (bool expired) {\r\n        return (block.timestamp > _terminationDate);\r\n    }\r\n\r\n    /**\r\n    @dev            Generates an identifier which associates a user and a poll together\r\n    @param _pollID  Integer identifier associated with target poll\r\n    @return         UUID Hash which is deterministic from _user and _pollID\r\n    */\r\n    function attrUUID(address _user, uint _pollID) public pure returns (bytes32 UUID) {\r\n        return keccak256(_user, _pollID);\r\n    }\r\n}\r\n",
  "sourcePath": "C:\\Users\\CryptoMonk\\Documents\\Projects\\DeconetRegistry\\contracts\\PLCRVoting.sol",
  "compiler": {
    "name": "solc",
    "version": "0.4.19+commit.c4cbbb05.Emscripten.clang"
  },
  "schemaVersion": "1.0.1",
  "updatedAt": "2018-02-13T12:16:13.823Z"
}