{
  "contractName": "PLCRVoting",
  "abi": [
    {
      "constant": true,
      "inputs": [],
      "name": "INITIAL_POLL_NONCE",
      "outputs": [
        {
          "name": "",
          "type": "uint256"
        }
      ],
      "payable": false,
      "stateMutability": "view",
      "type": "function"
    },
    {
      "constant": true,
      "inputs": [
        {
          "name": "",
          "type": "address"
        }
      ],
      "name": "voteTokenBalance",
      "outputs": [
        {
          "name": "",
          "type": "uint256"
        }
      ],
      "payable": false,
      "stateMutability": "view",
      "type": "function"
    },
    {
      "constant": true,
      "inputs": [
        {
          "name": "",
          "type": "uint256"
        }
      ],
      "name": "pollMap",
      "outputs": [
        {
          "name": "commitEndDate",
          "type": "uint256"
        },
        {
          "name": "revealEndDate",
          "type": "uint256"
        },
        {
          "name": "voteQuorum",
          "type": "uint256"
        },
        {
          "name": "votesFor",
          "type": "uint256"
        },
        {
          "name": "votesAgainst",
          "type": "uint256"
        }
      ],
      "payable": false,
      "stateMutability": "view",
      "type": "function"
    },
    {
      "constant": true,
      "inputs": [],
      "name": "pollNonce",
      "outputs": [
        {
          "name": "",
          "type": "uint256"
        }
      ],
      "payable": false,
      "stateMutability": "view",
      "type": "function"
    },
    {
      "constant": true,
      "inputs": [],
      "name": "token",
      "outputs": [
        {
          "name": "",
          "type": "address"
        }
      ],
      "payable": false,
      "stateMutability": "view",
      "type": "function"
    },
    {
      "inputs": [
        {
          "name": "_tokenAddr",
          "type": "address"
        }
      ],
      "payable": false,
      "stateMutability": "nonpayable",
      "type": "constructor"
    },
    {
      "anonymous": false,
      "inputs": [
        {
          "indexed": true,
          "name": "pollID",
          "type": "uint256"
        },
        {
          "indexed": false,
          "name": "numTokens",
          "type": "uint256"
        }
      ],
      "name": "_VoteCommitted",
      "type": "event"
    },
    {
      "anonymous": false,
      "inputs": [
        {
          "indexed": true,
          "name": "pollID",
          "type": "uint256"
        },
        {
          "indexed": false,
          "name": "numTokens",
          "type": "uint256"
        },
        {
          "indexed": false,
          "name": "votesFor",
          "type": "uint256"
        },
        {
          "indexed": false,
          "name": "votesAgainst",
          "type": "uint256"
        },
        {
          "indexed": true,
          "name": "choice",
          "type": "uint256"
        }
      ],
      "name": "_VoteRevealed",
      "type": "event"
    },
    {
      "anonymous": false,
      "inputs": [
        {
          "indexed": false,
          "name": "voteQuorum",
          "type": "uint256"
        },
        {
          "indexed": false,
          "name": "commitEndDate",
          "type": "uint256"
        },
        {
          "indexed": false,
          "name": "revealEndDate",
          "type": "uint256"
        },
        {
          "indexed": true,
          "name": "pollID",
          "type": "uint256"
        }
      ],
      "name": "_PollCreated",
      "type": "event"
    },
    {
      "anonymous": false,
      "inputs": [
        {
          "indexed": false,
          "name": "numTokens",
          "type": "uint256"
        }
      ],
      "name": "_VotingRightsGranted",
      "type": "event"
    },
    {
      "anonymous": false,
      "inputs": [
        {
          "indexed": false,
          "name": "numTokens",
          "type": "uint256"
        }
      ],
      "name": "_VotingRightsWithdrawn",
      "type": "event"
    },
    {
      "constant": false,
      "inputs": [
        {
          "name": "_numTokens",
          "type": "uint256"
        }
      ],
      "name": "requestVotingRights",
      "outputs": [],
      "payable": false,
      "stateMutability": "nonpayable",
      "type": "function"
    },
    {
      "constant": false,
      "inputs": [
        {
          "name": "_numTokens",
          "type": "uint256"
        }
      ],
      "name": "withdrawVotingRights",
      "outputs": [],
      "payable": false,
      "stateMutability": "nonpayable",
      "type": "function"
    },
    {
      "constant": false,
      "inputs": [
        {
          "name": "_pollID",
          "type": "uint256"
        }
      ],
      "name": "rescueTokens",
      "outputs": [],
      "payable": false,
      "stateMutability": "nonpayable",
      "type": "function"
    },
    {
      "constant": false,
      "inputs": [
        {
          "name": "_pollID",
          "type": "uint256"
        },
        {
          "name": "_secretHash",
          "type": "bytes32"
        },
        {
          "name": "_numTokens",
          "type": "uint256"
        },
        {
          "name": "_prevPollID",
          "type": "uint256"
        }
      ],
      "name": "commitVote",
      "outputs": [],
      "payable": false,
      "stateMutability": "nonpayable",
      "type": "function"
    },
    {
      "constant": true,
      "inputs": [
        {
          "name": "_prevID",
          "type": "uint256"
        },
        {
          "name": "_nextID",
          "type": "uint256"
        },
        {
          "name": "_voter",
          "type": "address"
        },
        {
          "name": "_numTokens",
          "type": "uint256"
        }
      ],
      "name": "validPosition",
      "outputs": [
        {
          "name": "valid",
          "type": "bool"
        }
      ],
      "payable": false,
      "stateMutability": "view",
      "type": "function"
    },
    {
      "constant": false,
      "inputs": [
        {
          "name": "_pollID",
          "type": "uint256"
        },
        {
          "name": "_voteOption",
          "type": "uint256"
        },
        {
          "name": "_salt",
          "type": "uint256"
        }
      ],
      "name": "revealVote",
      "outputs": [],
      "payable": false,
      "stateMutability": "nonpayable",
      "type": "function"
    },
    {
      "constant": true,
      "inputs": [
        {
          "name": "_voter",
          "type": "address"
        },
        {
          "name": "_pollID",
          "type": "uint256"
        },
        {
          "name": "_salt",
          "type": "uint256"
        }
      ],
      "name": "getNumPassingTokens",
      "outputs": [
        {
          "name": "correctVotes",
          "type": "uint256"
        }
      ],
      "payable": false,
      "stateMutability": "view",
      "type": "function"
    },
    {
      "constant": false,
      "inputs": [
        {
          "name": "_voteQuorum",
          "type": "uint256"
        },
        {
          "name": "_commitDuration",
          "type": "uint256"
        },
        {
          "name": "_revealDuration",
          "type": "uint256"
        }
      ],
      "name": "startPoll",
      "outputs": [
        {
          "name": "pollID",
          "type": "uint256"
        }
      ],
      "payable": false,
      "stateMutability": "nonpayable",
      "type": "function"
    },
    {
      "constant": true,
      "inputs": [
        {
          "name": "_pollID",
          "type": "uint256"
        }
      ],
      "name": "isPassed",
      "outputs": [
        {
          "name": "passed",
          "type": "bool"
        }
      ],
      "payable": false,
      "stateMutability": "view",
      "type": "function"
    },
    {
      "constant": true,
      "inputs": [
        {
          "name": "_pollID",
          "type": "uint256"
        }
      ],
      "name": "getTotalNumberOfTokensForWinningOption",
      "outputs": [
        {
          "name": "numTokens",
          "type": "uint256"
        }
      ],
      "payable": false,
      "stateMutability": "view",
      "type": "function"
    },
    {
      "constant": true,
      "inputs": [
        {
          "name": "_pollID",
          "type": "uint256"
        }
      ],
      "name": "pollEnded",
      "outputs": [
        {
          "name": "ended",
          "type": "bool"
        }
      ],
      "payable": false,
      "stateMutability": "view",
      "type": "function"
    },
    {
      "constant": true,
      "inputs": [
        {
          "name": "_pollID",
          "type": "uint256"
        }
      ],
      "name": "commitPeriodActive",
      "outputs": [
        {
          "name": "active",
          "type": "bool"
        }
      ],
      "payable": false,
      "stateMutability": "view",
      "type": "function"
    },
    {
      "constant": true,
      "inputs": [
        {
          "name": "_pollID",
          "type": "uint256"
        }
      ],
      "name": "revealPeriodActive",
      "outputs": [
        {
          "name": "active",
          "type": "bool"
        }
      ],
      "payable": false,
      "stateMutability": "view",
      "type": "function"
    },
    {
      "constant": true,
      "inputs": [
        {
          "name": "_pollID",
          "type": "uint256"
        }
      ],
      "name": "pollExists",
      "outputs": [
        {
          "name": "exists",
          "type": "bool"
        }
      ],
      "payable": false,
      "stateMutability": "view",
      "type": "function"
    },
    {
      "constant": true,
      "inputs": [
        {
          "name": "_voter",
          "type": "address"
        },
        {
          "name": "_pollID",
          "type": "uint256"
        }
      ],
      "name": "getCommitHash",
      "outputs": [
        {
          "name": "commitHash",
          "type": "bytes32"
        }
      ],
      "payable": false,
      "stateMutability": "view",
      "type": "function"
    },
    {
      "constant": true,
      "inputs": [
        {
          "name": "_voter",
          "type": "address"
        },
        {
          "name": "_pollID",
          "type": "uint256"
        }
      ],
      "name": "getNumTokens",
      "outputs": [
        {
          "name": "numTokens",
          "type": "uint256"
        }
      ],
      "payable": false,
      "stateMutability": "view",
      "type": "function"
    },
    {
      "constant": true,
      "inputs": [
        {
          "name": "_voter",
          "type": "address"
        }
      ],
      "name": "getLastNode",
      "outputs": [
        {
          "name": "pollID",
          "type": "uint256"
        }
      ],
      "payable": false,
      "stateMutability": "view",
      "type": "function"
    },
    {
      "constant": true,
      "inputs": [
        {
          "name": "_voter",
          "type": "address"
        }
      ],
      "name": "getLockedTokens",
      "outputs": [
        {
          "name": "numTokens",
          "type": "uint256"
        }
      ],
      "payable": false,
      "stateMutability": "view",
      "type": "function"
    },
    {
      "constant": true,
      "inputs": [
        {
          "name": "_voter",
          "type": "address"
        },
        {
          "name": "_numTokens",
          "type": "uint256"
        },
        {
          "name": "_pollID",
          "type": "uint256"
        }
      ],
      "name": "getInsertPointForNumTokens",
      "outputs": [
        {
          "name": "prevNode",
          "type": "uint256"
        }
      ],
      "payable": false,
      "stateMutability": "view",
      "type": "function"
    },
    {
      "constant": true,
      "inputs": [
        {
          "name": "_terminationDate",
          "type": "uint256"
        }
      ],
      "name": "isExpired",
      "outputs": [
        {
          "name": "expired",
          "type": "bool"
        }
      ],
      "payable": false,
      "stateMutability": "view",
      "type": "function"
    },
    {
      "constant": true,
      "inputs": [
        {
          "name": "_user",
          "type": "address"
        },
        {
          "name": "_pollID",
          "type": "uint256"
        }
      ],
      "name": "attrUUID",
      "outputs": [
        {
          "name": "UUID",
          "type": "bytes32"
        }
      ],
      "payable": false,
      "stateMutability": "pure",
      "type": "function"
    }
  ],
  "bytecode": "0x6060604052341561000f57600080fd5b60405160208061228b8339810160405280805190602001909190505080600560006101000a81548173ffffffffffffffffffffffffffffffffffffffff021916908373ffffffffffffffffffffffffffffffffffffffff1602179055506000808190555050612208806100836000396000f300606060405260043610610154576000357c0100000000000000000000000000000000000000000000000000000000900463ffffffff168063053e71a6146101595780632173a10f146101905780632c052031146101b957806332ed3d60146102185780633b93029414610261578063427fa1d2146102ae578063441c77c0146102fb57806349403183146103365780636148fed5146103715780636b2d95d4146103c45780636cbf9c5e14610411578063819b02931461045357806388d21ff3146104bf57806397508f36146104fa5780639760356014610523578063a1103f3714610546578063a25236fe146105a4578063a4439dc5146105c7578063b11d8bb814610602578063b43bd06914610637578063d138209214610696578063d901402b146106ec578063d9548e531461074a578063e7b1d43c14610785578063ee684830146107a8578063fc0c546a146107e3575b600080fd5b341561016457600080fd5b61017a6004808035906020019091905050610838565b6040518082815260200191505060405180910390f35b341561019b57600080fd5b6101a3610899565b6040518082815260200191505060405180910390f35b34156101c457600080fd5b610202600480803573ffffffffffffffffffffffffffffffffffffffff1690602001909190803590602001909190803590602001909190505061089e565b6040518082815260200191505060405180910390f35b341561022357600080fd5b61024b6004808035906020019091908035906020019091908035906020019091905050610a93565b6040518082815260200191505060405180910390f35b341561026c57600080fd5b610298600480803573ffffffffffffffffffffffffffffffffffffffff16906020019091905050610b99565b6040518082815260200191505060405180910390f35b34156102b957600080fd5b6102e5600480803573ffffffffffffffffffffffffffffffffffffffff16906020019091905050610bb1565b6040518082815260200191505060405180910390f35b341561030657600080fd5b61031c6004808035906020019091905050610c84565b604051808215151515815260200191505060405180910390f35b341561034157600080fd5b6103576004808035906020019091905050610cd3565b604051808215151515815260200191505060405180910390f35b341561037c57600080fd5b6103926004808035906020019091905050610d66565b604051808681526020018581526020018481526020018381526020018281526020019550505050505060405180910390f35b34156103cf57600080fd5b6103fb600480803573ffffffffffffffffffffffffffffffffffffffff16906020019091905050610d9c565b6040518082815260200191505060405180910390f35b341561041c57600080fd5b610451600480803590602001909190803560001916906020019091908035906020019091908035906020019091905050610db7565b005b341561045e57600080fd5b6104a5600480803590602001909190803590602001909190803573ffffffffffffffffffffffffffffffffffffffff169060200190919080359060200190919050506113ef565b604051808215151515815260200191505060405180910390f35b34156104ca57600080fd5b6104e06004808035906020019091905050611433565b604051808215151515815260200191505060405180910390f35b341561050557600080fd5b61050d61144e565b6040518082815260200191505060405180910390f35b341561052e57600080fd5b6105446004808035906020019091905050611454565b005b341561055157600080fd5b610586600480803573ffffffffffffffffffffffffffffffffffffffff16906020019091908035906020019091905050611617565b60405180826000191660001916815260200191505060405180910390f35b34156105af57600080fd5b6105c5600480803590602001909190505061167a565b005b34156105d257600080fd5b6105e860048080359060200190919050506118fc565b604051808215151515815260200191505060405180910390f35b341561060d57600080fd5b6106356004808035906020019091908035906020019091908035906020019091905050611939565b005b341561064257600080fd5b610680600480803573ffffffffffffffffffffffffffffffffffffffff16906020019091908035906020019091908035906020019091905050611c6f565b6040518082815260200191505060405180910390f35b34156106a157600080fd5b6106d6600480803573ffffffffffffffffffffffffffffffffffffffff16906020019091908035906020019091905050611d69565b6040518082815260200191505060405180910390f35b34156106f757600080fd5b61072c600480803573ffffffffffffffffffffffffffffffffffffffff16906020019091908035906020019091905050611e49565b60405180826000191660001916815260200191505060405180910390f35b341561075557600080fd5b61076b6004808035906020019091905050611f2c565b604051808215151515815260200191505060405180910390f35b341561079057600080fd5b6107a66004808035906020019091905050611f38565b005b34156107b357600080fd5b6107c96004808035906020019091905050612113565b604051808215151515815260200191505060405180910390f35b34156107ee57600080fd5b6107f661214f565b604051808273ffffffffffffffffffffffffffffffffffffffff1673ffffffffffffffffffffffffffffffffffffffff16815260200191505060405180910390f35b600061084382612113565b151561084e57600080fd5b61085782610cd3565b1561087a5760016000838152602001908152602001600020600301549050610894565b600160008381526020019081526020016000206004015490505b919050565b600081565b60008060006108ac86610bb1565b91506108b88683611d69565b90505b600082141515610a86576108cf8683611d69565b905084811115156109b657838214156109ae57600360008773ffffffffffffffffffffffffffffffffffffffff1673ffffffffffffffffffffffffffffffffffffffff16815260200190815260200160002073__DLL___________________________________6330fe0a0a9091846040518363ffffffff167c0100000000000000000000000000000000000000000000000000000000028152600401808381526020018281526020019250505060206040518083038186803b151561099457600080fd5b5af415156109a157600080fd5b5050506040518051905091505b819250610a8a565b600360008773ffffffffffffffffffffffffffffffffffffffff1673ffffffffffffffffffffffffffffffffffffffff16815260200190815260200160002073__DLL___________________________________6330fe0a0a9091846040518363ffffffff167c0100000000000000000000000000000000000000000000000000000000028152600401808381526020018281526020019250505060206040518083038186803b1515610a6857600080fd5b5af41515610a7557600080fd5b5050506040518051905091506108bb565b8192505b50509392505050565b6000806000600160005401600081905550610ab7854261217590919063ffffffff16565b9150610acc848361217590919063ffffffff16565b905060a060405190810160405280838152602001828152602001878152602001600081526020016000815250600160008054815260200190815260200160002060008201518160000155602082015181600101556040820151816002015560608201518160030155608082015181600401559050506000547fe7b146274106adc09cd35ec61e059cf1f7c931c29ce04e3cbf63fcb295dcb5a487848460405180848152602001838152602001828152602001935050505060405180910390a2600054925050509392505050565b60026020528060005260406000206000915090505481565b6000600360008373ffffffffffffffffffffffffffffffffffffffff1673ffffffffffffffffffffffffffffffffffffffff16815260200190815260200160002073__DLL___________________________________6330fe0a0a909160006040518363ffffffff167c0100000000000000000000000000000000000000000000000000000000028152600401808381526020018281526020019250505060206040518083038186803b1515610c6657600080fd5b5af41515610c7357600080fd5b505050604051805190509050919050565b6000610c8f82611433565b1515610c9a57600080fd5b610cb96001600084815260200190815260200160002060010154611f2c565b158015610ccc5750610cca826118fc565b155b9050919050565b6000610cdd6121ac565b610ce683612113565b1515610cf157600080fd5b6001600084815260200190815260200160002060a060405190810160405290816000820154815260200160018201548152602001600282015481526020016003820154815260200160048201548152505090508060800151816060015101816040015102816060015160640211915050919050565b60016020528060005260406000206000915090508060000154908060010154908060020154908060030154908060040154905085565b6000610db082610dab84610bb1565b611d69565b9050919050565b600080610dc3866118fc565b1515610dce57600080fd5b83600260003373ffffffffffffffffffffffffffffffffffffffff1673ffffffffffffffffffffffffffffffffffffffff1681526020019081526020016000205410151515610e1c57600080fd5b60008614151515610e2c57600080fd5b6000831480610f005750600360003373ffffffffffffffffffffffffffffffffffffffff1673ffffffffffffffffffffffffffffffffffffffff16815260200190815260200160002073__DLL___________________________________63366a5ba29091856040518363ffffffff167c0100000000000000000000000000000000000000000000000000000000028152600401808381526020018281526020019250505060206040518083038186803b1515610ee857600080fd5b5af41515610ef557600080fd5b505050604051805190505b1515610f0b57600080fd5b600360003373ffffffffffffffffffffffffffffffffffffffff1673ffffffffffffffffffffffffffffffffffffffff16815260200190815260200160002073__DLL___________________________________6307d29ac99091856040518363ffffffff167c0100000000000000000000000000000000000000000000000000000000028152600401808381526020018281526020019250505060206040518083038186803b1515610fbd57600080fd5b5af41515610fca57600080fd5b505050604051805190509150858214610fe357816110ad565b600360003373ffffffffffffffffffffffffffffffffffffffff1673ffffffffffffffffffffffffffffffffffffffff16815260200190815260200160002073__DLL___________________________________6307d29ac99091886040518363ffffffff167c0100000000000000000000000000000000000000000000000000000000028152600401808381526020018281526020019250505060206040518083038186803b151561109557600080fd5b5af415156110a257600080fd5b505050604051805190505b91506110bb838333876113ef565b15156110c657600080fd5b600360003373ffffffffffffffffffffffffffffffffffffffff1673ffffffffffffffffffffffffffffffffffffffff16815260200190815260200160002073__DLL___________________________________639735c51b90918589866040518563ffffffff167c01000000000000000000000000000000000000000000000000000000000281526004018085815260200184815260200183815260200182815260200194505050505060006040518083038186803b151561118857600080fd5b5af4151561119557600080fd5b5050506111a23387611617565b9050600473__AttributeStore________________________63977aa031909183876040518463ffffffff167c010000000000000000000000000000000000000000000000000000000002815260040180848152602001836000191660001916815260200180602001838152602001828103825260098152602001807f6e756d546f6b656e73000000000000000000000000000000000000000000000081525060200194505050505060006040518083038186803b151561126257600080fd5b5af4151561126f57600080fd5b505050600473__AttributeStore________________________63977aa03190918388600190046040518463ffffffff167c0100000000000000000000000000000000000000000000000000000000028152600401808481526020018360001916600019168152602001806020018381526020018281038252600a8152602001807f636f6d6d6974486173680000000000000000000000000000000000000000000081525060200194505050505060006040518083038186803b151561133457600080fd5b5af4151561134157600080fd5b505050600180600088815260200190815260200160002060050160003373ffffffffffffffffffffffffffffffffffffffff1673ffffffffffffffffffffffffffffffffffffffff16815260200190815260200160002060006101000a81548160ff021916908315150217905550857fef32e32baaa2504043b7fad2c025fd8d81f4565394a40a80cc72af80acb14f14856040518082815260200191505060405180910390a2505050505050565b60008060006113fe8588611d69565b841015915061140d8587611d69565b8411158061141b5750600086145b90508180156114275750805b92505050949350505050565b600080821415801561144757506000548211155b9050919050565b60005481565b6114736001600083815260200190815260200160002060010154611f2c565b151561147e57600080fd5b600360003373ffffffffffffffffffffffffffffffffffffffff1673ffffffffffffffffffffffffffffffffffffffff16815260200190815260200160002073__DLL___________________________________63366a5ba29091836040518363ffffffff167c0100000000000000000000000000000000000000000000000000000000028152600401808381526020018281526020019250505060206040518083038186803b151561153057600080fd5b5af4151561153d57600080fd5b50505060405180519050151561155257600080fd5b600360003373ffffffffffffffffffffffffffffffffffffffff1673ffffffffffffffffffffffffffffffffffffffff16815260200190815260200160002073__DLL___________________________________636d900ed09091836040518363ffffffff167c0100000000000000000000000000000000000000000000000000000000028152600401808381526020018281526020019250505060006040518083038186803b151561160457600080fd5b5af4151561161157600080fd5b50505050565b60008282604051808373ffffffffffffffffffffffffffffffffffffffff1673ffffffffffffffffffffffffffffffffffffffff166c01000000000000000000000000028152601401828152602001925050506040518091039020905092915050565b80600560009054906101000a900473ffffffffffffffffffffffffffffffffffffffff1673ffffffffffffffffffffffffffffffffffffffff166370a08231336040518263ffffffff167c0100000000000000000000000000000000000000000000000000000000028152600401808273ffffffffffffffffffffffffffffffffffffffff1673ffffffffffffffffffffffffffffffffffffffff168152602001915050602060405180830381600087803b151561173757600080fd5b5af1151561174457600080fd5b505050604051805190501015151561175b57600080fd5b80600260003373ffffffffffffffffffffffffffffffffffffffff1673ffffffffffffffffffffffffffffffffffffffff16815260200190815260200160002060008282540192505081905550600560009054906101000a900473ffffffffffffffffffffffffffffffffffffffff1673ffffffffffffffffffffffffffffffffffffffff166323b872dd3330846040518463ffffffff167c0100000000000000000000000000000000000000000000000000000000028152600401808473ffffffffffffffffffffffffffffffffffffffff1673ffffffffffffffffffffffffffffffffffffffff1681526020018373ffffffffffffffffffffffffffffffffffffffff1673ffffffffffffffffffffffffffffffffffffffff1681526020018281526020019350505050602060405180830381600087803b15156118a057600080fd5b5af115156118ad57600080fd5b5050506040518051905015156118c257600080fd5b7f355f2802c19a22d834473c600b9de891e644a06ff53a4e75421ec433386d8e18816040518082815260200191505060405180910390a150565b600061190782611433565b151561191257600080fd5b6119316001600084815260200190815260200160002060000154611f2c565b159050919050565b600061194484610c84565b151561194f57600080fd5b6001600085815260200190815260200160002060050160003373ffffffffffffffffffffffffffffffffffffffff1673ffffffffffffffffffffffffffffffffffffffff16815260200190815260200160002060009054906101000a900460ff1615156119bb57600080fd5b6001600085815260200190815260200160002060060160003373ffffffffffffffffffffffffffffffffffffffff1673ffffffffffffffffffffffffffffffffffffffff16815260200190815260200160002060009054906101000a900460ff16151515611a2857600080fd5b611a323385611e49565b6000191683836040518083815260200182815260200192505050604051809103902060001916141515611a6457600080fd5b611a6e3385611d69565b90506001831415611aa257806001600086815260200190815260200160002060030160008282540192505081905550611ac7565b8060016000868152602001908152602001600020600401600082825401925050819055505b600360003373ffffffffffffffffffffffffffffffffffffffff1673ffffffffffffffffffffffffffffffffffffffff16815260200190815260200160002073__DLL___________________________________636d900ed09091866040518363ffffffff167c0100000000000000000000000000000000000000000000000000000000028152600401808381526020018281526020019250505060006040518083038186803b1515611b7957600080fd5b5af41515611b8657600080fd5b505050600180600086815260200190815260200160002060060160003373ffffffffffffffffffffffffffffffffffffffff1673ffffffffffffffffffffffffffffffffffffffff16815260200190815260200160002060006101000a81548160ff02191690831515021790555082847faa55a7f6a820002634a4c272b9505d0739b7c446b16427b725981afb130133b3836001600089815260200190815260200160002060030154600160008a81526020019081526020016000206004015460405180848152602001838152602001828152602001935050505060405180910390a350505050565b600080600080611c7e86612113565b1515611c8957600080fd5b6001600087815260200190815260200160002060060160008873ffffffffffffffffffffffffffffffffffffffff1673ffffffffffffffffffffffffffffffffffffffff16815260200190815260200160002060009054906101000a900460ff161515611cf557600080fd5b611cfe86610cd3565b611d09576000611d0c565b60015b60ff1692508285604051808381526020018281526020019250505060405180910390209150611d3b8787611e49565b905080600019168260001916141515611d5357600080fd5b611d5d8787611d69565b93505050509392505050565b6000600473__AttributeStore________________________6350389f5c9091611d938686611617565b6040518363ffffffff167c010000000000000000000000000000000000000000000000000000000002815260040180838152602001826000191660001916815260200180602001828103825260098152602001807f6e756d546f6b656e730000000000000000000000000000000000000000000000815250602001935050505060206040518083038186803b1515611e2a57600080fd5b5af41515611e3757600080fd5b50505060405180519050905092915050565b6000600473__AttributeStore________________________6350389f5c9091611e738686611617565b6040518363ffffffff167c0100000000000000000000000000000000000000000000000000000000028152600401808381526020018260001916600019168152602001806020018281038252600a8152602001807f636f6d6d69744861736800000000000000000000000000000000000000000000815250602001935050505060206040518083038186803b1515611f0a57600080fd5b5af41515611f1757600080fd5b50505060405180519050600102905092915050565b60008142119050919050565b6000611f94611f4633610d9c565b600260003373ffffffffffffffffffffffffffffffffffffffff1673ffffffffffffffffffffffffffffffffffffffff1681526020019081526020016000205461219390919063ffffffff16565b9050818110151515611fa557600080fd5b81600260003373ffffffffffffffffffffffffffffffffffffffff1673ffffffffffffffffffffffffffffffffffffffff16815260200190815260200160002060008282540392505081905550600560009054906101000a900473ffffffffffffffffffffffffffffffffffffffff1673ffffffffffffffffffffffffffffffffffffffff1663a9059cbb33846040518363ffffffff167c0100000000000000000000000000000000000000000000000000000000028152600401808373ffffffffffffffffffffffffffffffffffffffff1673ffffffffffffffffffffffffffffffffffffffff16815260200182815260200192505050602060405180830381600087803b15156120b657600080fd5b5af115156120c357600080fd5b5050506040518051905015156120d857600080fd5b7fd6784ade8b2bd60c9a91916586958990e23c52315061c0802374966340bbc013826040518082815260200191505060405180910390a15050565b600061211e82611433565b151561212957600080fd5b6121486001600084815260200190815260200160002060010154611f2c565b9050919050565b600560009054906101000a900473ffffffffffffffffffffffffffffffffffffffff1681565b600080828401905083811015151561218957fe5b8091505092915050565b60008282111515156121a157fe5b818303905092915050565b60a060405190810160405280600081526020016000815260200160008152602001600081526020016000815250905600a165627a7a723058208486a1f8c4cbb8c864a227801ba6f72d1bb5f65f2220c3aca9808b9d505848e00029",
  "source": "pragma solidity ^0.4.8;\nimport \"tokens/eip20/EIP20Interface.sol\";\nimport \"dll/DLL.sol\";\nimport \"attrstore/AttributeStore.sol\";\nimport \"zeppelin/math/SafeMath.sol\";\n\n/**\n@title Partial-Lock-Commit-Reveal Voting scheme with ERC20 tokens\n@author Team: Aspyn Palatnick, Cem Ozer, Yorke Rhodes\n*/\ncontract PLCRVoting {\n\n    // ============\n    // EVENTS:\n    // ============\n\n    event _VoteCommitted(uint indexed pollID, uint numTokens);\n    event _VoteRevealed(uint indexed pollID, uint numTokens, uint votesFor, uint votesAgainst, uint indexed choice);\n    event _PollCreated(uint voteQuorum, uint commitEndDate, uint revealEndDate, uint indexed pollID);\n    event _VotingRightsGranted(uint numTokens);\n    event _VotingRightsWithdrawn(uint numTokens);\n\n    // ============\n    // DATA STRUCTURES:\n    // ============\n\n    using AttributeStore for AttributeStore.Data;\n    using DLL for DLL.Data;\n    using SafeMath for uint;\n\n    struct Poll {\n        uint commitEndDate;     /// expiration date of commit period for poll\n        uint revealEndDate;     /// expiration date of reveal period for poll\n        uint voteQuorum;\t    /// number of votes required for a proposal to pass\n        uint votesFor;\t\t    /// tally of votes supporting proposal\n        uint votesAgainst;      /// tally of votes countering proposal\n        mapping(address => bool) didCommit;  /// indicates whether an address committed a vote for this poll\n        mapping(address => bool) didReveal;   /// indicates whether an address revealed a vote for this poll\n    }\n\n    // ============\n    // STATE VARIABLES:\n    // ============\n\n    uint constant public INITIAL_POLL_NONCE = 0;\n    uint public pollNonce;\n\n    mapping(uint => Poll) public pollMap; // maps pollID to Poll struct\n    mapping(address => uint) public voteTokenBalance; // maps user's address to voteToken balance\n\n    mapping(address => DLL.Data) dllMap;\n    AttributeStore.Data store;\n\n    EIP20Interface public token;\n\n    // ============\n    // CONSTRUCTOR:\n    // ============\n\n    /**\n    @dev Initializes voteQuorum, commitDuration, revealDuration, and pollNonce in addition to token contract and trusted mapping\n    @param _tokenAddr The address where the ERC20 token contract is deployed\n    */\n    function PLCRVoting(address _tokenAddr) public {\n        token = EIP20Interface(_tokenAddr);\n        pollNonce = INITIAL_POLL_NONCE;\n    }\n\n    // ================\n    // TOKEN INTERFACE:\n    // ================\n\n    /**\n    @notice Loads _numTokens ERC20 tokens into the voting contract for one-to-one voting rights\n    @dev Assumes that msg.sender has approved voting contract to spend on their behalf\n    @param _numTokens The number of votingTokens desired in exchange for ERC20 tokens\n    */\n    function requestVotingRights(uint _numTokens) external {\n        require(token.balanceOf(msg.sender) >= _numTokens);\n        voteTokenBalance[msg.sender] += _numTokens;\n        require(token.transferFrom(msg.sender, this, _numTokens));\n        _VotingRightsGranted(_numTokens);\n    }\n\n    /**\n    @notice Withdraw _numTokens ERC20 tokens from the voting contract, revoking these voting rights\n    @param _numTokens The number of ERC20 tokens desired in exchange for voting rights\n    */\n    function withdrawVotingRights(uint _numTokens) external {\n        uint availableTokens = voteTokenBalance[msg.sender].sub(getLockedTokens(msg.sender));\n        require(availableTokens >= _numTokens);\n        voteTokenBalance[msg.sender] -= _numTokens;\n        require(token.transfer(msg.sender, _numTokens));\n        _VotingRightsWithdrawn(_numTokens);\n    }\n\n    /**\n    @dev Unlocks tokens locked in unrevealed vote where poll has ended\n    @param _pollID Integer identifier associated with the target poll\n    */\n    function rescueTokens(uint _pollID) external {\n        require(isExpired(pollMap[_pollID].revealEndDate));\n        require(dllMap[msg.sender].contains(_pollID));\n\n        dllMap[msg.sender].remove(_pollID);\n    }\n\n    // =================\n    // VOTING INTERFACE:\n    // =================\n\n    /**\n    @notice Commits vote using hash of choice and secret salt to conceal vote until reveal\n    @param _pollID Integer identifier associated with target poll\n    @param _secretHash Commit keccak256 hash of voter's choice and salt (tightly packed in this order)\n    @param _numTokens The number of tokens to be committed towards the target poll\n    @param _prevPollID The ID of the poll that the user has voted the maximum number of tokens in which is still less than or equal to numTokens\n    */\n    function commitVote(uint _pollID, bytes32 _secretHash, uint _numTokens, uint _prevPollID) external {\n        require(commitPeriodActive(_pollID));\n        require(voteTokenBalance[msg.sender] >= _numTokens); // prevent user from overspending\n        require(_pollID != 0);                // prevent user from committing to zero node placeholder\n\n        // Check if _prevPollID exists in the user's DLL or if _prevPollID is 0\n        require(_prevPollID == 0 || dllMap[msg.sender].contains(_prevPollID));\n\n        uint nextPollID = dllMap[msg.sender].getNext(_prevPollID);\n\n        // if nextPollID is equal to _pollID, _pollID is being updated,\n        nextPollID = (nextPollID == _pollID) ? dllMap[msg.sender].getNext(_pollID) : nextPollID;\n\n        require(validPosition(_prevPollID, nextPollID, msg.sender, _numTokens));\n        dllMap[msg.sender].insert(_prevPollID, _pollID, nextPollID);\n\n        bytes32 UUID = attrUUID(msg.sender, _pollID);\n\n        store.setAttribute(UUID, \"numTokens\", _numTokens);\n        store.setAttribute(UUID, \"commitHash\", uint(_secretHash));\n\n        pollMap[_pollID].didCommit[msg.sender] = true;\n        _VoteCommitted(_pollID, _numTokens);\n    }\n\n    /**\n    @dev Compares previous and next poll's committed tokens for sorting purposes\n    @param _prevID Integer identifier associated with previous poll in sorted order\n    @param _nextID Integer identifier associated with next poll in sorted order\n    @param _voter Address of user to check DLL position for\n    @param _numTokens The number of tokens to be committed towards the poll (used for sorting)\n    @return valid Boolean indication of if the specified position maintains the sort\n    */\n    function validPosition(uint _prevID, uint _nextID, address _voter, uint _numTokens) public constant returns (bool valid) {\n        bool prevValid = (_numTokens >= getNumTokens(_voter, _prevID));\n        // if next is zero node, _numTokens does not need to be greater\n        bool nextValid = (_numTokens <= getNumTokens(_voter, _nextID) || _nextID == 0);\n        return prevValid && nextValid;\n    }\n\n    /**\n    @notice Reveals vote with choice and secret salt used in generating commitHash to attribute committed tokens\n    @param _pollID Integer identifier associated with target poll\n    @param _voteOption Vote choice used to generate commitHash for associated poll\n    @param _salt Secret number used to generate commitHash for associated poll\n    */\n    function revealVote(uint _pollID, uint _voteOption, uint _salt) external {\n        // Make sure the reveal period is active\n        require(revealPeriodActive(_pollID));\n        require(pollMap[_pollID].didCommit[msg.sender]);                         // make sure user has committed a vote for this poll\n        require(!pollMap[_pollID].didReveal[msg.sender]);                        // prevent user from revealing multiple times\n        require(keccak256(_voteOption, _salt) == getCommitHash(msg.sender, _pollID)); // compare resultant hash from inputs to original commitHash\n\n        uint numTokens = getNumTokens(msg.sender, _pollID);\n\n        if (_voteOption == 1) {// apply numTokens to appropriate poll choice\n            pollMap[_pollID].votesFor += numTokens;\n        } else {\n            pollMap[_pollID].votesAgainst += numTokens;\n        }\n\n        dllMap[msg.sender].remove(_pollID); // remove the node referring to this vote upon reveal\n        pollMap[_pollID].didReveal[msg.sender] = true;\n\n        _VoteRevealed(_pollID, numTokens, pollMap[_pollID].votesFor, pollMap[_pollID].votesAgainst, _voteOption);\n    }\n\n    /**\n    @param _pollID Integer identifier associated with target poll\n    @param _salt Arbitrarily chosen integer used to generate secretHash\n    @return correctVotes Number of tokens voted for winning option\n    */\n    function getNumPassingTokens(address _voter, uint _pollID, uint _salt) public constant returns (uint correctVotes) {\n        require(pollEnded(_pollID));\n        require(pollMap[_pollID].didReveal[_voter]);\n\n        uint winningChoice = isPassed(_pollID) ? 1 : 0;\n        bytes32 winnerHash = keccak256(winningChoice, _salt);\n        bytes32 commitHash = getCommitHash(_voter, _pollID);\n\n        require(winnerHash == commitHash);\n\n        return getNumTokens(_voter, _pollID);\n    }\n\n    // ==================\n    // POLLING INTERFACE:\n    // ==================\n\n    /**\n    @dev Initiates a poll with canonical configured parameters at pollID emitted by PollCreated event\n    @param _voteQuorum Type of majority (out of 100) that is necessary for poll to be successful\n    @param _commitDuration Length of desired commit period in seconds\n    @param _revealDuration Length of desired reveal period in seconds\n    */\n    function startPoll(uint _voteQuorum, uint _commitDuration, uint _revealDuration) public returns (uint pollID) {\n        pollNonce = pollNonce + 1;\n\n        uint commitEndDate = block.timestamp.add(_commitDuration);\n        uint revealEndDate = commitEndDate.add(_revealDuration);\n\n        pollMap[pollNonce] = Poll({\n            voteQuorum: _voteQuorum,\n            commitEndDate: commitEndDate,\n            revealEndDate: revealEndDate,\n            votesFor: 0,\n            votesAgainst: 0\n        });\n\n        _PollCreated(_voteQuorum, commitEndDate, revealEndDate, pollNonce);\n        return pollNonce;\n    }\n\n    /**\n    @notice Determines if proposal has passed\n    @dev Check if votesFor out of totalVotes exceeds votesQuorum (requires pollEnded)\n    @param _pollID Integer identifier associated with target poll\n    */\n    function isPassed(uint _pollID) constant public returns (bool passed) {\n        require(pollEnded(_pollID));\n\n        Poll memory poll = pollMap[_pollID];\n        return (100 * poll.votesFor) > (poll.voteQuorum * (poll.votesFor + poll.votesAgainst));\n    }\n\n    // ----------------\n    // POLLING HELPERS:\n    // ----------------\n\n    /**\n    @dev Gets the total winning votes for reward distribution purposes\n    @param _pollID Integer identifier associated with target poll\n    @return Total number of votes committed to the winning option for specified poll\n    */\n    function getTotalNumberOfTokensForWinningOption(uint _pollID) constant public returns (uint numTokens) {\n        require(pollEnded(_pollID));\n\n        if (isPassed(_pollID))\n            return pollMap[_pollID].votesFor;\n        else\n            return pollMap[_pollID].votesAgainst;\n    }\n\n    /**\n    @notice Determines if poll is over\n    @dev Checks isExpired for specified poll's revealEndDate\n    @return Boolean indication of whether polling period is over\n    */\n    function pollEnded(uint _pollID) constant public returns (bool ended) {\n        require(pollExists(_pollID));\n\n        return isExpired(pollMap[_pollID].revealEndDate);\n    }\n\n    /**\n    @notice Checks if the commit period is still active for the specified poll\n    @dev Checks isExpired for the specified poll's commitEndDate\n    @param _pollID Integer identifier associated with target poll\n    @return Boolean indication of isCommitPeriodActive for target poll\n    */\n    function commitPeriodActive(uint _pollID) constant public returns (bool active) {\n        require(pollExists(_pollID));\n\n        return !isExpired(pollMap[_pollID].commitEndDate);\n    }\n\n    /**\n    @notice Checks if the reveal period is still active for the specified poll\n    @dev Checks isExpired for the specified poll's revealEndDate\n    @param _pollID Integer identifier associated with target poll\n    */\n    function revealPeriodActive(uint _pollID) constant public returns (bool active) {\n        require(pollExists(_pollID));\n\n        return !isExpired(pollMap[_pollID].revealEndDate) && !commitPeriodActive(_pollID);\n    }\n\n    /**\n    @dev Checks if a poll exists\n    @param _pollID The pollID whose existance is to be evaluated.\n    @return Boolean Indicates whether a poll exists for the provided pollID\n    */\n    function pollExists(uint _pollID) constant public returns (bool exists) {\n        return (_pollID != 0 && _pollID <= pollNonce);\n    }\n\n    // ---------------------------\n    // DOUBLE-LINKED-LIST HELPERS:\n    // ---------------------------\n\n    /**\n    @dev Gets the bytes32 commitHash property of target poll\n    @param _voter Address of user to check against\n    @param _pollID Integer identifier associated with target poll\n    @return Bytes32 hash property attached to target poll\n    */\n    function getCommitHash(address _voter, uint _pollID) constant public returns (bytes32 commitHash) {\n        return bytes32(store.getAttribute(attrUUID(_voter, _pollID), \"commitHash\"));\n    }\n\n    /**\n    @dev Wrapper for getAttribute with attrName=\"numTokens\"\n    @param _voter Address of user to check against\n    @param _pollID Integer identifier associated with target poll\n    @return Number of tokens committed to poll in sorted poll-linked-list\n    */\n    function getNumTokens(address _voter, uint _pollID) constant public returns (uint numTokens) {\n        return store.getAttribute(attrUUID(_voter, _pollID), \"numTokens\");\n    }\n\n    /**\n    @dev Gets top element of sorted poll-linked-list\n    @param _voter Address of user to check against\n    @return Integer identifier to poll with maximum number of tokens committed to it\n    */\n    function getLastNode(address _voter) constant public returns (uint pollID) {\n        return dllMap[_voter].getPrev(0);\n    }\n\n    /**\n    @dev Gets the numTokens property of getLastNode\n    @param _voter Address of user to check against\n    @return Maximum number of tokens committed in poll specified\n    */\n    function getLockedTokens(address _voter) constant public returns (uint numTokens) {\n        return getNumTokens(_voter, getLastNode(_voter));\n    }\n\n    /*\n    @dev Takes the last node in the user's DLL and iterates backwards through the list searching\n    for a node with a value less than or equal to the provided _numTokens value. When such a node\n    is found, if the provided _pollID matches the found nodeID, this operation is an in-place\n    update. In that case, return the previous node of the node being updated. Otherwise return the\n    first node that was found with a value less than or equal to the provided _numTokens.\n    @param _voter The voter whose DLL will be searched\n    @param _numTokens The value for the numTokens attribute in the node to be inserted\n    @return the node which the propoded node should be inserted after\n    */\n    function getInsertPointForNumTokens(address _voter, uint _numTokens, uint _pollID)\n    constant public returns (uint prevNode) {\n      // Get the last node in the list and the number of tokens in that node\n      uint nodeID = getLastNode(_voter);\n      uint tokensInNode = getNumTokens(_voter, nodeID);\n\n      // Iterate backwards through the list until reaching the root node\n      while(nodeID != 0) {\n        // Get the number of tokens in the current node\n        tokensInNode = getNumTokens(_voter, nodeID);\n        if(tokensInNode <= _numTokens) { // We found the insert point!\n          if(nodeID == _pollID) {\n            // This is an in-place update. Return the prev node of the node being updated\n            nodeID = dllMap[_voter].getPrev(nodeID);\n          }\n          // Return the insert point\n          return nodeID; \n        }\n        // We did not find the insert point. Continue iterating backwards through the list\n        nodeID = dllMap[_voter].getPrev(nodeID);\n      }\n\n      // The list is empty, or a smaller value than anything else in the list is being inserted\n      return nodeID;\n    }\n\n    // ----------------\n    // GENERAL HELPERS:\n    // ----------------\n\n    /**\n    @dev Checks if an expiration date has been reached\n    @param _terminationDate Integer timestamp of date to compare current timestamp with\n    @return expired Boolean indication of whether the terminationDate has passed\n    */\n    function isExpired(uint _terminationDate) constant public returns (bool expired) {\n        return (block.timestamp > _terminationDate);\n    }\n\n    /**\n    @dev Generates an identifier which associates a user and a poll together\n    @param _pollID Integer identifier associated with target poll\n    @return UUID Hash which is deterministic from _user and _pollID\n    */\n    function attrUUID(address _user, uint _pollID) public pure returns (bytes32 UUID) {\n        return keccak256(_user, _pollID);\n    }\n}\n",
  "sourcePath": "plcrvoting/PLCRVoting.sol",
  "compiler": {
    "name": "solc",
    "version": "0.4.21+commit.dfe3193c.Emscripten.clang"
  },
  "schemaVersion": "2.0.0",
  "updatedAt": "2018-04-10T00:47:29.260Z"
}