{
  "contractName": "Registry",
  "abi": [
    {
      "constant": true,
      "inputs": [
        {
          "name": "_listingHash",
          "type": "bytes32"
        }
      ],
      "name": "isWhitelisted",
      "outputs": [
        {
          "name": "whitelisted",
          "type": "bool"
        }
      ],
      "payable": false,
      "stateMutability": "view",
      "type": "function"
    },
    {
      "constant": false,
      "inputs": [
        {
          "name": "_listingHash",
          "type": "bytes32"
        },
        {
          "name": "_amount",
          "type": "uint256"
        }
      ],
      "name": "withdraw",
      "outputs": [],
      "payable": false,
      "stateMutability": "nonpayable",
      "type": "function"
    },
    {
      "constant": false,
      "inputs": [
        {
          "name": "_listingHash",
          "type": "bytes32"
        }
      ],
      "name": "exit",
      "outputs": [],
      "payable": false,
      "stateMutability": "nonpayable",
      "type": "function"
    },
    {
      "constant": true,
      "inputs": [
        {
          "name": "_listingHash",
          "type": "bytes32"
        }
      ],
      "name": "challengeExists",
      "outputs": [
        {
          "name": "",
          "type": "bool"
        }
      ],
      "payable": false,
      "stateMutability": "view",
      "type": "function"
    },
    {
      "constant": false,
      "inputs": [
        {
          "name": "_listingHash",
          "type": "bytes32"
        },
        {
          "name": "_amount",
          "type": "uint256"
        }
      ],
      "name": "deposit",
      "outputs": [],
      "payable": false,
      "stateMutability": "nonpayable",
      "type": "function"
    },
    {
      "constant": false,
      "inputs": [
        {
          "name": "_listingHash",
          "type": "bytes32"
        },
        {
          "name": "_data",
          "type": "string"
        }
      ],
      "name": "challenge",
      "outputs": [
        {
          "name": "challengeID",
          "type": "uint256"
        }
      ],
      "payable": false,
      "stateMutability": "nonpayable",
      "type": "function"
    },
    {
      "constant": true,
      "inputs": [],
      "name": "version",
      "outputs": [
        {
          "name": "",
          "type": "string"
        }
      ],
      "payable": false,
      "stateMutability": "view",
      "type": "function"
    },
    {
      "constant": true,
      "inputs": [
        {
          "name": "_listingHash",
          "type": "bytes32"
        }
      ],
      "name": "canBeWhitelisted",
      "outputs": [
        {
          "name": "",
          "type": "bool"
        }
      ],
      "payable": false,
      "stateMutability": "view",
      "type": "function"
    },
    {
      "constant": true,
      "inputs": [
        {
          "name": "_listingHash",
          "type": "bytes32"
        }
      ],
      "name": "challengeCanBeResolved",
      "outputs": [
        {
          "name": "",
          "type": "bool"
        }
      ],
      "payable": false,
      "stateMutability": "view",
      "type": "function"
    },
    {
      "constant": false,
      "inputs": [
        {
          "name": "_challengeID",
          "type": "uint256"
        },
        {
          "name": "_salt",
          "type": "uint256"
        }
      ],
      "name": "claimReward",
      "outputs": [],
      "payable": false,
      "stateMutability": "nonpayable",
      "type": "function"
    },
    {
      "constant": false,
      "inputs": [
        {
          "name": "_listingHash",
          "type": "bytes32"
        },
        {
          "name": "_amount",
          "type": "uint256"
        },
        {
          "name": "_data",
          "type": "string"
        }
      ],
      "name": "apply",
      "outputs": [],
      "payable": false,
      "stateMutability": "nonpayable",
      "type": "function"
    },
    {
      "constant": false,
      "inputs": [
        {
          "name": "_listingHash",
          "type": "bytes32"
        }
      ],
      "name": "updateStatus",
      "outputs": [],
      "payable": false,
      "stateMutability": "nonpayable",
      "type": "function"
    },
    {
      "constant": true,
      "inputs": [
        {
          "name": "_listingHash",
          "type": "bytes32"
        }
      ],
      "name": "appWasMade",
      "outputs": [
        {
          "name": "exists",
          "type": "bool"
        }
      ],
      "payable": false,
      "stateMutability": "view",
      "type": "function"
    },
    {
      "constant": true,
      "inputs": [
        {
          "name": "",
          "type": "uint256"
        }
      ],
      "name": "challenges",
      "outputs": [
        {
          "name": "rewardPool",
          "type": "uint256"
        },
        {
          "name": "challenger",
          "type": "address"
        },
        {
          "name": "resolved",
          "type": "bool"
        },
        {
          "name": "stake",
          "type": "uint256"
        },
        {
          "name": "totalTokens",
          "type": "uint256"
        }
      ],
      "payable": false,
      "stateMutability": "view",
      "type": "function"
    },
    {
      "constant": true,
      "inputs": [
        {
          "name": "_challengeID",
          "type": "uint256"
        },
        {
          "name": "_voter",
          "type": "address"
        }
      ],
      "name": "tokenClaims",
      "outputs": [
        {
          "name": "",
          "type": "bool"
        }
      ],
      "payable": false,
      "stateMutability": "view",
      "type": "function"
    },
    {
      "constant": true,
      "inputs": [
        {
          "name": "_voter",
          "type": "address"
        },
        {
          "name": "_challengeID",
          "type": "uint256"
        },
        {
          "name": "_salt",
          "type": "uint256"
        }
      ],
      "name": "voterReward",
      "outputs": [
        {
          "name": "",
          "type": "uint256"
        }
      ],
      "payable": false,
      "stateMutability": "view",
      "type": "function"
    },
    {
      "constant": true,
      "inputs": [
        {
          "name": "",
          "type": "bytes32"
        }
      ],
      "name": "listings",
      "outputs": [
        {
          "name": "applicationExpiry",
          "type": "uint256"
        },
        {
          "name": "whitelisted",
          "type": "bool"
        },
        {
          "name": "owner",
          "type": "address"
        },
        {
          "name": "unstakedDeposit",
          "type": "uint256"
        },
        {
          "name": "challengeID",
          "type": "uint256"
        }
      ],
      "payable": false,
      "stateMutability": "view",
      "type": "function"
    },
    {
      "constant": true,
      "inputs": [
        {
          "name": "_challengeID",
          "type": "uint256"
        }
      ],
      "name": "determineReward",
      "outputs": [
        {
          "name": "",
          "type": "uint256"
        }
      ],
      "payable": false,
      "stateMutability": "view",
      "type": "function"
    },
    {
      "constant": true,
      "inputs": [],
      "name": "parameterizer",
      "outputs": [
        {
          "name": "",
          "type": "address"
        }
      ],
      "payable": false,
      "stateMutability": "view",
      "type": "function"
    },
    {
      "constant": true,
      "inputs": [],
      "name": "token",
      "outputs": [
        {
          "name": "",
          "type": "address"
        }
      ],
      "payable": false,
      "stateMutability": "view",
      "type": "function"
    },
    {
      "constant": true,
      "inputs": [],
      "name": "voting",
      "outputs": [
        {
          "name": "",
          "type": "address"
        }
      ],
      "payable": false,
      "stateMutability": "view",
      "type": "function"
    },
    {
      "inputs": [
        {
          "name": "_tokenAddr",
          "type": "address"
        },
        {
          "name": "_plcrAddr",
          "type": "address"
        },
        {
          "name": "_paramsAddr",
          "type": "address"
        }
      ],
      "payable": false,
      "stateMutability": "nonpayable",
      "type": "constructor"
    },
    {
      "anonymous": false,
      "inputs": [
        {
          "indexed": false,
          "name": "listingHash",
          "type": "bytes32"
        },
        {
          "indexed": false,
          "name": "deposit",
          "type": "uint256"
        },
        {
          "indexed": false,
          "name": "data",
          "type": "string"
        }
      ],
      "name": "_Application",
      "type": "event"
    },
    {
      "anonymous": false,
      "inputs": [
        {
          "indexed": false,
          "name": "listingHash",
          "type": "bytes32"
        },
        {
          "indexed": false,
          "name": "deposit",
          "type": "uint256"
        },
        {
          "indexed": false,
          "name": "pollID",
          "type": "uint256"
        },
        {
          "indexed": false,
          "name": "data",
          "type": "string"
        }
      ],
      "name": "_Challenge",
      "type": "event"
    },
    {
      "anonymous": false,
      "inputs": [
        {
          "indexed": false,
          "name": "listingHash",
          "type": "bytes32"
        },
        {
          "indexed": false,
          "name": "added",
          "type": "uint256"
        },
        {
          "indexed": false,
          "name": "newTotal",
          "type": "uint256"
        }
      ],
      "name": "_Deposit",
      "type": "event"
    },
    {
      "anonymous": false,
      "inputs": [
        {
          "indexed": false,
          "name": "listingHash",
          "type": "bytes32"
        },
        {
          "indexed": false,
          "name": "withdrew",
          "type": "uint256"
        },
        {
          "indexed": false,
          "name": "newTotal",
          "type": "uint256"
        }
      ],
      "name": "_Withdrawal",
      "type": "event"
    },
    {
      "anonymous": false,
      "inputs": [
        {
          "indexed": false,
          "name": "listingHash",
          "type": "bytes32"
        }
      ],
      "name": "_NewListingWhitelisted",
      "type": "event"
    },
    {
      "anonymous": false,
      "inputs": [
        {
          "indexed": false,
          "name": "listingHash",
          "type": "bytes32"
        }
      ],
      "name": "_ApplicationRemoved",
      "type": "event"
    },
    {
      "anonymous": false,
      "inputs": [
        {
          "indexed": false,
          "name": "listingHash",
          "type": "bytes32"
        }
      ],
      "name": "_ListingRemoved",
      "type": "event"
    },
    {
      "anonymous": false,
      "inputs": [
        {
          "indexed": false,
          "name": "challengeID",
          "type": "uint256"
        }
      ],
      "name": "_ChallengeFailed",
      "type": "event"
    },
    {
      "anonymous": false,
      "inputs": [
        {
          "indexed": false,
          "name": "challengeID",
          "type": "uint256"
        }
      ],
      "name": "_ChallengeSucceeded",
      "type": "event"
    },
    {
      "anonymous": false,
      "inputs": [
        {
          "indexed": false,
          "name": "voter",
          "type": "address"
        },
        {
          "indexed": false,
          "name": "challengeID",
          "type": "uint256"
        },
        {
          "indexed": false,
          "name": "reward",
          "type": "uint256"
        }
      ],
      "name": "_RewardClaimed",
      "type": "event"
    }
  ],
  "bytecode": "0x60606040526040805190810160405280600181526020017f3100000000000000000000000000000000000000000000000000000000000000815250600590805190602001906200005192919062000159565b5034156200005e57600080fd5b60405160608062002f1f8339810160405280805190602001909190805190602001909190805190602001909190505082600260006101000a81548173ffffffffffffffffffffffffffffffffffffffff021916908373ffffffffffffffffffffffffffffffffffffffff16021790555081600360006101000a81548173ffffffffffffffffffffffffffffffffffffffff021916908373ffffffffffffffffffffffffffffffffffffffff16021790555080600460006101000a81548173ffffffffffffffffffffffffffffffffffffffff021916908373ffffffffffffffffffffffffffffffffffffffff16021790555050505062000208565b828054600181600116156101000203166002900490600052602060002090601f016020900481019282601f106200019c57805160ff1916838001178555620001cd565b82800160010185558215620001cd579182015b82811115620001cc578251825591602001919060010190620001af565b5b509050620001dc9190620001e0565b5090565b6200020591905b8082111562000201576000816000905550600101620001e7565b5090565b90565b612d0780620002186000396000f30060606040526004361061011d576000357c0100000000000000000000000000000000000000000000000000000000900463ffffffff16806301a5e3fe14610122578063040cf020146101615780630ca36263146101915780631b7bbecb146101b85780631de26e16146101f757806343cffefe1461022757806354fd4d5014610276578063691a38ab1461030457806377609a411461034357806386bb8f371461038257806389bb55c7146103ae5780638a59eb56146103f25780638cf8151f146104195780638f1d377614610458578063a5ba3b1e146104db578063a7aad3db14610535578063c18b8db414610594578063c8187cf11461061b578063e1e3f91514610652578063fc0c546a146106a7578063fce1ccca146106fc575b600080fd5b341561012d57600080fd5b610147600480803560001916906020019091905050610751565b604051808215151515815260200191505060405180910390f35b341561016c57600080fd5b61018f600480803560001916906020019091908035906020019091905050610786565b005b341561019c57600080fd5b6101b6600480803560001916906020019091905050610a6c565b005b34156101c357600080fd5b6101dd600480803560001916906020019091905050610b4b565b604051808215151515815260200191505060405180910390f35b341561020257600080fd5b610225600480803560001916906020019091908035906020019091905050610bc5565b005b341561023257600080fd5b6102606004808035600019169060200190919080359060200190820180359060200191909192905050610dd3565b6040518082815260200191505060405180910390f35b341561028157600080fd5b61028961166d565b6040518080602001828103825283818151815260200191508051906020019080838360005b838110156102c95780820151818401526020810190506102ae565b50505050905090810190601f1680156102f65780820380516001836020036101000a031916815260200191505b509250505060405180910390f35b341561030f57600080fd5b61032960048080356000191690602001909190505061170b565b604051808215151515815260200191505060405180910390f35b341561034e57600080fd5b6103686004808035600019169060200190919050506117c9565b604051808215151515815260200191505060405180910390f35b341561038d57600080fd5b6103ac60048080359060200190919080359060200190919050506118bd565b005b34156103b957600080fd5b6103f06004808035600019169060200190919080359060200190919080359060200190820180359060200191909192905050611c83565b005b34156103fd57600080fd5b6104176004808035600019169060200190919050506120b5565b005b341561042457600080fd5b61043e600480803560001916906020019091905050612135565b604051808215151515815260200191505060405180910390f35b341561046357600080fd5b610479600480803590602001909190505061215f565b604051808681526020018573ffffffffffffffffffffffffffffffffffffffff1673ffffffffffffffffffffffffffffffffffffffff168152602001841515151581526020018381526020018281526020019550505050505060405180910390f35b34156104e657600080fd5b61051b600480803590602001909190803573ffffffffffffffffffffffffffffffffffffffff169060200190919050506121c2565b604051808215151515815260200191505060405180910390f35b341561054057600080fd5b61057e600480803573ffffffffffffffffffffffffffffffffffffffff1690602001909190803590602001909190803590602001909190505061222c565b6040518082815260200191505060405180910390f35b341561059f57600080fd5b6105b960048080356000191690602001909190505061236e565b60405180868152602001851515151581526020018473ffffffffffffffffffffffffffffffffffffffff1673ffffffffffffffffffffffffffffffffffffffff1681526020018381526020018281526020019550505050505060405180910390f35b341561062657600080fd5b61063c60048080359060200190919050506123d1565b6040518082815260200191505060405180910390f35b341561065d57600080fd5b6106656125d2565b604051808273ffffffffffffffffffffffffffffffffffffffff1673ffffffffffffffffffffffffffffffffffffffff16815260200191505060405180910390f35b34156106b257600080fd5b6106ba6125f8565b604051808273ffffffffffffffffffffffffffffffffffffffff1673ffffffffffffffffffffffffffffffffffffffff16815260200191505060405180910390f35b341561070757600080fd5b61070f61261e565b604051808273ffffffffffffffffffffffffffffffffffffffff1673ffffffffffffffffffffffffffffffffffffffff16815260200191505060405180910390f35b600060016000836000191660001916815260200190815260200160002060010160009054906101000a900460ff169050919050565b600060016000846000191660001916815260200190815260200160002090503373ffffffffffffffffffffffffffffffffffffffff168160010160019054906101000a900473ffffffffffffffffffffffffffffffffffffffff1673ffffffffffffffffffffffffffffffffffffffff1614151561080357600080fd5b8060020154821115151561081657600080fd5b600460009054906101000a900473ffffffffffffffffffffffffffffffffffffffff1673ffffffffffffffffffffffffffffffffffffffff1663693ec85e6000604051602001526040518163ffffffff167c010000000000000000000000000000000000000000000000000000000002815260040180806020018281038252600a8152602001807f6d696e4465706f73697400000000000000000000000000000000000000000000815250602001915050602060405180830381600087803b15156108e057600080fd5b6102c65a03f115156108f157600080fd5b50505060405180519050828260020154031015151561090f57600080fd5b600260009054906101000a900473ffffffffffffffffffffffffffffffffffffffff1673ffffffffffffffffffffffffffffffffffffffff1663a9059cbb33846000604051602001526040518363ffffffff167c0100000000000000000000000000000000000000000000000000000000028152600401808373ffffffffffffffffffffffffffffffffffffffff1673ffffffffffffffffffffffffffffffffffffffff16815260200182815260200192505050602060405180830381600087803b15156109dc57600080fd5b6102c65a03f115156109ed57600080fd5b505050604051805190501515610a0257600080fd5b8181600201600082825403925050819055507febf81d30de8bdb30e2a07a5e34bd7c1b843c5b9674b224113cc6cee0d8571c9283838360020154604051808460001916600019168152602001838152602001828152602001935050505060405180910390a1505050565b600060016000836000191660001916815260200190815260200160002090508060010160019054906101000a900473ffffffffffffffffffffffffffffffffffffffff1673ffffffffffffffffffffffffffffffffffffffff163373ffffffffffffffffffffffffffffffffffffffff16141515610ae957600080fd5b610af282610751565b1515610afd57600080fd5b600081600301541480610b3357506000808260030154815260200190815260200160002060010160149054906101000a900460ff165b1515610b3e57600080fd5b610b4782612644565b5050565b600080600160008460001916600019168152602001908152602001600020600301549050600060016000856000191660001916815260200190815260200160002060030154118015610bbd575060008082815260200190815260200160002060010160149054906101000a900460ff16155b915050919050565b600060016000846000191660001916815260200190815260200160002090503373ffffffffffffffffffffffffffffffffffffffff168160010160019054906101000a900473ffffffffffffffffffffffffffffffffffffffff1673ffffffffffffffffffffffffffffffffffffffff16141515610c4257600080fd5b600260009054906101000a900473ffffffffffffffffffffffffffffffffffffffff1673ffffffffffffffffffffffffffffffffffffffff166323b872dd3330856000604051602001526040518463ffffffff167c0100000000000000000000000000000000000000000000000000000000028152600401808473ffffffffffffffffffffffffffffffffffffffff1673ffffffffffffffffffffffffffffffffffffffff1681526020018373ffffffffffffffffffffffffffffffffffffffff1673ffffffffffffffffffffffffffffffffffffffff1681526020018281526020019350505050602060405180830381600087803b1515610d4357600080fd5b6102c65a03f11515610d5457600080fd5b505050604051805190501515610d6957600080fd5b8181600201600082825401925050819055507f77e303d2327bb214eb0f6441b799c7b1de3cea010185c2a27a60cbd774e590c283838360020154604051808460001916600019168152602001838152602001828152602001935050505060405180910390a1505050565b6000806000806001600088600019166000191681526020019081526020016000209250600460009054906101000a900473ffffffffffffffffffffffffffffffffffffffff1673ffffffffffffffffffffffffffffffffffffffff1663693ec85e6000604051602001526040518163ffffffff167c010000000000000000000000000000000000000000000000000000000002815260040180806020018281038252600a8152602001807f6d696e4465706f73697400000000000000000000000000000000000000000000815250602001915050602060405180830381600087803b1515610ec057600080fd5b6102c65a03f11515610ed157600080fd5b505050604051805190509150610ee687612135565b80610eff57508260010160009054906101000a900460ff165b1515610f0a57600080fd5b600083600301541480610f4057506000808460030154815260200190815260200160002060010160149054906101000a900460ff165b1515610f4b57600080fd5b8183600201541015610f6957610f6087612644565b60009350611663565b600260009054906101000a900473ffffffffffffffffffffffffffffffffffffffff1673ffffffffffffffffffffffffffffffffffffffff166323b872dd3330856000604051602001526040518463ffffffff167c0100000000000000000000000000000000000000000000000000000000028152600401808473ffffffffffffffffffffffffffffffffffffffff1673ffffffffffffffffffffffffffffffffffffffff1681526020018373ffffffffffffffffffffffffffffffffffffffff1673ffffffffffffffffffffffffffffffffffffffff1681526020018281526020019350505050602060405180830381600087803b151561106a57600080fd5b6102c65a03f1151561107b57600080fd5b50505060405180519050151561109057600080fd5b600360009054906101000a900473ffffffffffffffffffffffffffffffffffffffff1673ffffffffffffffffffffffffffffffffffffffff166332ed3d60600460009054906101000a900473ffffffffffffffffffffffffffffffffffffffff1673ffffffffffffffffffffffffffffffffffffffff1663693ec85e6000604051602001526040518163ffffffff167c010000000000000000000000000000000000000000000000000000000002815260040180806020018281038252600a8152602001807f766f746551756f72756d00000000000000000000000000000000000000000000815250602001915050602060405180830381600087803b151561119857600080fd5b6102c65a03f115156111a957600080fd5b50505060405180519050600460009054906101000a900473ffffffffffffffffffffffffffffffffffffffff1673ffffffffffffffffffffffffffffffffffffffff1663693ec85e6000604051602001526040518163ffffffff167c010000000000000000000000000000000000000000000000000000000002815260040180806020018281038252600e8152602001807f636f6d6d697453746167654c656e000000000000000000000000000000000000815250602001915050602060405180830381600087803b151561127d57600080fd5b6102c65a03f1151561128e57600080fd5b50505060405180519050600460009054906101000a900473ffffffffffffffffffffffffffffffffffffffff1673ffffffffffffffffffffffffffffffffffffffff1663693ec85e6000604051602001526040518163ffffffff167c010000000000000000000000000000000000000000000000000000000002815260040180806020018281038252600e8152602001807f72657665616c53746167654c656e000000000000000000000000000000000000815250602001915050602060405180830381600087803b151561136257600080fd5b6102c65a03f1151561137357600080fd5b505050604051805190506000604051602001526040518463ffffffff167c0100000000000000000000000000000000000000000000000000000000028152600401808481526020018381526020018281526020019350505050602060405180830381600087803b15156113e557600080fd5b6102c65a03f115156113f657600080fd5b50505060405180519050905060a060405190810160405280606484600460009054906101000a900473ffffffffffffffffffffffffffffffffffffffff1673ffffffffffffffffffffffffffffffffffffffff1663693ec85e6000604051602001526040518163ffffffff167c010000000000000000000000000000000000000000000000000000000002815260040180806020018281038252600f8152602001807f64697370656e736174696f6e5063740000000000000000000000000000000000815250602001915050602060405180830381600087803b15156114db57600080fd5b6102c65a03f115156114ec57600080fd5b505050604051805190506064030281151561150357fe5b0481526020013373ffffffffffffffffffffffffffffffffffffffff16815260200160001515815260200183815260200160008152506000808381526020019081526020016000206000820151816000015560208201518160010160006101000a81548173ffffffffffffffffffffffffffffffffffffffff021916908373ffffffffffffffffffffffffffffffffffffffff16021790555060408201518160010160146101000a81548160ff02191690831515021790555060608201518160020155608082015181600301559050508083600301819055508183600201600082825403925050819055507f9a114fb0a925e49fdd5328ae588bc890c8e0d6bcd0fe0813b12aa8cb1b3ba85d87838389896040518086600019166000191681526020018581526020018481526020018060200182810382528484828181526020019250808284378201915050965050505050505060405180910390a18093505b5050509392505050565b60058054600181600116156101000203166002900480601f0160208091040260200160405190810160405280929190818152602001828054600181600116156101000203166002900480156117035780601f106116d857610100808354040283529160200191611703565b820191906000526020600020905b8154815290600101906020018083116116e657829003601f168201915b505050505081565b60008060016000846000191660001916815260200190815260200160002060030154905061173883612135565b801561176157504260016000856000191660001916815260200190815260200160002060000154105b8015611773575061177183610751565b155b80156117b0575060008114806117af57506001151560008083815260200190815260200160002060010160149054906101000a900460ff161515145b5b156117be57600191506117c3565b600091505b50919050565b6000806001600084600019166000191681526020019081526020016000206003015490506117f683610b4b565b151561180157600080fd5b600360009054906101000a900473ffffffffffffffffffffffffffffffffffffffff1673ffffffffffffffffffffffffffffffffffffffff1663ee684830826000604051602001526040518263ffffffff167c010000000000000000000000000000000000000000000000000000000002815260040180828152602001915050602060405180830381600087803b151561189a57600080fd5b6102c65a03f115156118ab57600080fd5b50505060405180519050915050919050565b6000806000151560008086815260200190815260200160002060040160003373ffffffffffffffffffffffffffffffffffffffff1673ffffffffffffffffffffffffffffffffffffffff16815260200190815260200160002060009054906101000a900460ff16151514151561193257600080fd5b6001151560008086815260200190815260200160002060010160149054906101000a900460ff16151514151561196757600080fd5b600360009054906101000a900473ffffffffffffffffffffffffffffffffffffffff1673ffffffffffffffffffffffffffffffffffffffff1663b43bd0693386866000604051602001526040518463ffffffff167c0100000000000000000000000000000000000000000000000000000000028152600401808473ffffffffffffffffffffffffffffffffffffffff1673ffffffffffffffffffffffffffffffffffffffff1681526020018381526020018281526020019350505050602060405180830381600087803b1515611a3c57600080fd5b6102c65a03f11515611a4d57600080fd5b505050604051805190509150611a6433858561222c565b905081600080868152602001908152602001600020600301600082825403925050819055508060008086815260200190815260200160002060000160008282540392505081905550600260009054906101000a900473ffffffffffffffffffffffffffffffffffffffff1673ffffffffffffffffffffffffffffffffffffffff1663a9059cbb33836000604051602001526040518363ffffffff167c0100000000000000000000000000000000000000000000000000000000028152600401808373ffffffffffffffffffffffffffffffffffffffff1673ffffffffffffffffffffffffffffffffffffffff16815260200182815260200192505050602060405180830381600087803b1515611b7957600080fd5b6102c65a03f11515611b8a57600080fd5b505050604051805190501515611b9f57600080fd5b600160008086815260200190815260200160002060040160003373ffffffffffffffffffffffffffffffffffffffff1673ffffffffffffffffffffffffffffffffffffffff16815260200190815260200160002060006101000a81548160ff0219169083151502179055507f8df5fc7a83008bc089286a6396a5ede7efa20b39ccbac5255b8cc0b7b11b0a59338583604051808473ffffffffffffffffffffffffffffffffffffffff1673ffffffffffffffffffffffffffffffffffffffff168152602001838152602001828152602001935050505060405180910390a150505050565b6000611c8e85610751565b151515611c9a57600080fd5b611ca385612135565b151515611caf57600080fd5b600460009054906101000a900473ffffffffffffffffffffffffffffffffffffffff1673ffffffffffffffffffffffffffffffffffffffff1663693ec85e6000604051602001526040518163ffffffff167c010000000000000000000000000000000000000000000000000000000002815260040180806020018281038252600a8152602001807f6d696e4465706f73697400000000000000000000000000000000000000000000815250602001915050602060405180830381600087803b1515611d7957600080fd5b6102c65a03f11515611d8a57600080fd5b505050604051805190508410151515611da257600080fd5b6001600086600019166000191681526020019081526020016000209050338160010160016101000a81548173ffffffffffffffffffffffffffffffffffffffff021916908373ffffffffffffffffffffffffffffffffffffffff160217905550600260009054906101000a900473ffffffffffffffffffffffffffffffffffffffff1673ffffffffffffffffffffffffffffffffffffffff166323b872dd8260010160019054906101000a900473ffffffffffffffffffffffffffffffffffffffff1630876000604051602001526040518463ffffffff167c0100000000000000000000000000000000000000000000000000000000028152600401808473ffffffffffffffffffffffffffffffffffffffff1673ffffffffffffffffffffffffffffffffffffffff1681526020018373ffffffffffffffffffffffffffffffffffffffff1673ffffffffffffffffffffffffffffffffffffffff1681526020018281526020019350505050602060405180830381600087803b1515611f2757600080fd5b6102c65a03f11515611f3857600080fd5b505050604051805190501515611f4d57600080fd5b600460009054906101000a900473ffffffffffffffffffffffffffffffffffffffff1673ffffffffffffffffffffffffffffffffffffffff1663693ec85e6000604051602001526040518163ffffffff167c010000000000000000000000000000000000000000000000000000000002815260040180806020018281038252600d8152602001807f6170706c7953746167654c656e00000000000000000000000000000000000000815250602001915050602060405180830381600087803b151561201757600080fd5b6102c65a03f1151561202857600080fd5b50505060405180519050420181600001819055508381600201819055507f5cde15b9901ca13a7e2eb4fb919870d1bde9e8d93d9aa5e26945b42190067bdc8585858560405180856000191660001916815260200184815260200180602001828103825284848281815260200192508082843782019150509550505050505060405180910390a15050505050565b6120be8161170b565b15612110576120cc81612801565b7fa7dee6157e26f0945c6e2fa27b51c0811370eb1863f1e5285e8dea4291fdd3de8160405180826000191660001916815260200191505060405180910390a1612132565b612119816117c9565b1561212c576121278161283a565b612131565b600080fd5b5b50565b60008060016000846000191660001916815260200190815260200160002060000154119050919050565b60006020528060005260406000206000915090508060000154908060010160009054906101000a900473ffffffffffffffffffffffffffffffffffffffff16908060010160149054906101000a900460ff16908060020154908060030154905085565b600080600084815260200190815260200160002060040160008373ffffffffffffffffffffffffffffffffffffffff1673ffffffffffffffffffffffffffffffffffffffff16815260200190815260200160002060009054906101000a900460ff16905092915050565b600080600080600080878152602001908152602001600020600301549250600080878152602001908152602001600020600001549150600360009054906101000a900473ffffffffffffffffffffffffffffffffffffffff1673ffffffffffffffffffffffffffffffffffffffff1663b43bd0698888886000604051602001526040518463ffffffff167c0100000000000000000000000000000000000000000000000000000000028152600401808473ffffffffffffffffffffffffffffffffffffffff1673ffffffffffffffffffffffffffffffffffffffff1681526020018381526020018281526020019350505050602060405180830381600087803b151561233757600080fd5b6102c65a03f1151561234857600080fd5b5050506040518051905090508282820281151561236157fe5b0493505050509392505050565b60016020528060005260406000206000915090508060000154908060010160009054906101000a900460ff16908060010160019054906101000a900473ffffffffffffffffffffffffffffffffffffffff16908060020154908060030154905085565b600080600083815260200190815260200160002060010160149054906101000a900460ff161580156124b35750600360009054906101000a900473ffffffffffffffffffffffffffffffffffffffff1673ffffffffffffffffffffffffffffffffffffffff1663ee684830836000604051602001526040518263ffffffff167c010000000000000000000000000000000000000000000000000000000002815260040180828152602001915050602060405180830381600087803b151561249757600080fd5b6102c65a03f115156124a857600080fd5b505050604051805190505b15156124be57600080fd5b6000600360009054906101000a900473ffffffffffffffffffffffffffffffffffffffff1673ffffffffffffffffffffffffffffffffffffffff1663053e71a6846000604051602001526040518263ffffffff167c010000000000000000000000000000000000000000000000000000000002815260040180828152602001915050602060405180830381600087803b151561255957600080fd5b6102c65a03f1151561256a57600080fd5b50505060405180519050141561259a576000808381526020019081526020016000206002015460020290506125cd565b60008083815260200190815260200160002060000154600080848152602001908152602001600020600201546002020390505b919050565b600460009054906101000a900473ffffffffffffffffffffffffffffffffffffffff1681565b600260009054906101000a900473ffffffffffffffffffffffffffffffffffffffff1681565b600360009054906101000a900473ffffffffffffffffffffffffffffffffffffffff1681565b6000600160008360001916600019168152602001908152602001600020905060008160020154111561278c57600260009054906101000a900473ffffffffffffffffffffffffffffffffffffffff1673ffffffffffffffffffffffffffffffffffffffff1663a9059cbb8260010160019054906101000a900473ffffffffffffffffffffffffffffffffffffffff1683600201546000604051602001526040518363ffffffff167c0100000000000000000000000000000000000000000000000000000000028152600401808373ffffffffffffffffffffffffffffffffffffffff1673ffffffffffffffffffffffffffffffffffffffff16815260200182815260200192505050602060405180830381600087803b151561276557600080fd5b6102c65a03f1151561277657600080fd5b50505060405180519050151561278b57600080fd5b5b6001600083600019166000191681526020019081526020016000206000808201600090556001820160006101000a81549060ff02191690556001820160016101000a81549073ffffffffffffffffffffffffffffffffffffffff02191690556002820160009055600382016000905550505050565b6001806000836000191660001916815260200190815260200160002060010160006101000a81548160ff02191690831515021790555050565b6000806000600160008560001916600019168152602001908152602001600020600301549250612869836123d1565b915061287484610751565b9050600360009054906101000a900473ffffffffffffffffffffffffffffffffffffffff1673ffffffffffffffffffffffffffffffffffffffff166349403183846000604051602001526040518263ffffffff167c010000000000000000000000000000000000000000000000000000000002815260040180828152602001915050602060405180830381600087803b151561290f57600080fd5b6102c65a03f1151561292057600080fd5b50505060405180519050156129e75761293884612801565b81600160008660001916600019168152602001908152602001600020600201600082825401925050819055507f0596bd84e3e7dc311a8d2e32425107e3c27acef96831b8cf2a2abcae2609461f836040518082815260200191505060405180910390a18015156129e2577fa7dee6157e26f0945c6e2fa27b51c0811370eb1863f1e5285e8dea4291fdd3de8460405180826000191660001916815260200191505060405180910390a15b612bda565b6129f084612644565b600260009054906101000a900473ffffffffffffffffffffffffffffffffffffffff1673ffffffffffffffffffffffffffffffffffffffff1663a9059cbb60008086815260200190815260200160002060010160009054906101000a900473ffffffffffffffffffffffffffffffffffffffff16846000604051602001526040518363ffffffff167c0100000000000000000000000000000000000000000000000000000000028152600401808373ffffffffffffffffffffffffffffffffffffffff1673ffffffffffffffffffffffffffffffffffffffff16815260200182815260200192505050602060405180830381600087803b1515612af257600080fd5b6102c65a03f11515612b0357600080fd5b505050604051805190501515612b1857600080fd5b7f88e47f2988d22858b92549596d2d6a57f107680fc7dc7dcf9dc52a06159e268c836040518082815260200191505060405180910390a18015612b99577fd1ffb796b7108387b2f02adf47b4b81a1690cf2a190422c87a4f670780103e638460405180826000191660001916815260200191505060405180910390a1612bd9565b7f2e5ec035f6eac8ff1cf7cdf36cfeca7c85413f9f67652dc2c13d20f337204a268460405180826000191660001916815260200191505060405180910390a15b5b600160008085815260200190815260200160002060010160146101000a81548160ff021916908315150217905550600360009054906101000a900473ffffffffffffffffffffffffffffffffffffffff1673ffffffffffffffffffffffffffffffffffffffff1663053e71a6846000604051602001526040518263ffffffff167c010000000000000000000000000000000000000000000000000000000002815260040180828152602001915050602060405180830381600087803b1515612ca157600080fd5b6102c65a03f11515612cb257600080fd5b5050506040518051905060008085815260200190815260200160002060030181905550505050505600a165627a7a72305820825d5cf5e9ce00f992df38ccde2e7fe1fe551e248fb667defcf99a8e7456c5cf0029",
  "source": "pragma solidity ^0.4.18;\r\n\r\nimport \"./lib/tokens/contracts/eip20/EIP20.sol\";\r\nimport \"./Parameterizer.sol\";\r\nimport \"./PLCRVoting.sol\";\r\n\r\ncontract Registry {\r\n\r\n    // EVENTS\r\n\r\n    event _Application(bytes32 listingHash, uint deposit, string data);\r\n    event _Challenge(bytes32 listingHash, uint deposit, uint pollID, string data);\r\n    event _Deposit(bytes32 listingHash, uint added, uint newTotal);\r\n    event _Withdrawal(bytes32 listingHash, uint withdrew, uint newTotal);\r\n    event _NewListingWhitelisted(bytes32 listingHash);\r\n    event _ApplicationRemoved(bytes32 listingHash);\r\n    event _ListingRemoved(bytes32 listingHash);\r\n    event _ChallengeFailed(uint challengeID);\r\n    event _ChallengeSucceeded(uint challengeID);\r\n    event _RewardClaimed(address voter, uint challengeID, uint reward);\r\n\r\n    struct Listing {\r\n        uint applicationExpiry; // Expiration date of apply stage\r\n        bool whitelisted;       // Indicates registry status\r\n        address owner;          // Owner of Listing\r\n        uint unstakedDeposit;   // Number of tokens in the listing not locked in a challenge\r\n        uint challengeID;       // Corresponds to a PollID in PLCRVoting\r\n    }\r\n\r\n    struct Challenge {\r\n        uint rewardPool;        // (remaining) Pool of tokens to be distributed to winning voters\r\n        address challenger;     // Owner of Challenge\r\n        bool resolved;          // Indication of if challenge is resolved\r\n        uint stake;             // Number of tokens at stake for either party during challenge\r\n        uint totalTokens;       // (remaining) Number of tokens used in voting by the winning side\r\n        mapping(address => bool) tokenClaims; // Indicates whether a voter has claimed a reward yet\r\n    }\r\n\r\n    // Maps challengeIDs to associated challenge data\r\n    mapping(uint => Challenge) public challenges;\r\n\r\n    // Maps listingHashes to associated listingHash data\r\n    mapping(bytes32 => Listing) public listings;\r\n\r\n    // Global Variables\r\n    EIP20 public token;\r\n    PLCRVoting public voting;\r\n    Parameterizer public parameterizer;\r\n    string public version = \"1\";\r\n\r\n    // CONSTRUCTOR:\r\n\r\n    /**\r\n    @dev Contructor         Sets the addresses for token, voting, and parameterizer\r\n    @param _tokenAddr       Address of the TCR's intrinsic ERC20 token\r\n    @param _plcrAddr        Address of a PLCR voting contract for the provided token\r\n    @param _paramsAddr      Address of a Parameterizer contract \r\n    */\r\n    function Registry(address _tokenAddr, address _plcrAddr, address _paramsAddr) public {\r\n        token = EIP20(_tokenAddr);\r\n        voting = PLCRVoting(_plcrAddr);\r\n        parameterizer = Parameterizer(_paramsAddr);\r\n    }\r\n\r\n    // PUBLISHER INTERFACE:\r\n\r\n    /**\r\n    @dev                Allows a user to start an application. Takes tokens from user and sets apply stage end time.\r\n    @param _listingHash The hash of a potential listing a user is applying to add to the registry\r\n    @param _amount      The number of ERC20 tokens a user is willing to potentially stake\r\n    @param _data        Extra data relevant to the application. Think IPFS hashes.\r\n    */\r\n    function apply(bytes32 _listingHash, uint _amount, string _data) external {\r\n        require(!isWhitelisted(_listingHash));\r\n        require(!appWasMade(_listingHash));\r\n        require(_amount >= parameterizer.get(\"minDeposit\"));\r\n\r\n        // Sets owner\r\n        Listing storage listing = listings[_listingHash];\r\n        listing.owner = msg.sender;\r\n\r\n        // Transfers tokens from user to Registry contract\r\n        require(token.transferFrom(listing.owner, this, _amount));\r\n\r\n        // Sets apply stage end time\r\n        listing.applicationExpiry = block.timestamp + parameterizer.get(\"applyStageLen\");\r\n        listing.unstakedDeposit = _amount;\r\n\r\n        _Application(_listingHash, _amount, _data);\r\n    }\r\n\r\n    /**\r\n    @dev                Allows the owner of a listingHash to increase their unstaked deposit.\r\n    @param _listingHash A listingHash msg.sender is the owner of\r\n    @param _amount      The number of ERC20 tokens to increase a user's unstaked deposit\r\n    */\r\n    function deposit(bytes32 _listingHash, uint _amount) external {\r\n        Listing storage listing = listings[_listingHash];\r\n\r\n        require(listing.owner == msg.sender);\r\n        require(token.transferFrom(msg.sender, this, _amount));\r\n\r\n        listing.unstakedDeposit += _amount;\r\n\r\n        _Deposit(_listingHash, _amount, listing.unstakedDeposit);\r\n    }\r\n\r\n    /**\r\n    @dev                Allows the owner of a listingHash to decrease their unstaked deposit.\r\n    @param _listingHash A listingHash msg.sender is the owner of.\r\n    @param _amount      The number of ERC20 tokens to withdraw from the unstaked deposit.\r\n    */\r\n    function withdraw(bytes32 _listingHash, uint _amount) external {\r\n        Listing storage listing = listings[_listingHash];\r\n\r\n        require(listing.owner == msg.sender);\r\n        require(_amount <= listing.unstakedDeposit);\r\n        require(listing.unstakedDeposit - _amount >= parameterizer.get(\"minDeposit\"));\r\n\r\n        require(token.transfer(msg.sender, _amount));\r\n\r\n        listing.unstakedDeposit -= _amount;\r\n\r\n        _Withdrawal(_listingHash, _amount, listing.unstakedDeposit);\r\n    }\r\n\r\n    /**\r\n    @dev                Allows the owner of a listingHash to remove the listingHash from the whitelist\r\n                        Returns all tokens to the owner of the listingHash\r\n    @param _listingHash A listingHash msg.sender is the owner of.\r\n    */\r\n    function exit(bytes32 _listingHash) external {\r\n        Listing storage listing = listings[_listingHash];\r\n\r\n        require(msg.sender == listing.owner);\r\n        require(isWhitelisted(_listingHash));\r\n\r\n        // Cannot exit during ongoing challenge\r\n        require(listing.challengeID == 0 || challenges[listing.challengeID].resolved);\r\n\r\n        // Remove listingHash & return tokens\r\n        resetListing(_listingHash);\r\n    }\r\n\r\n    // TOKEN HOLDER INTERFACE:\r\n\r\n    /**\r\n    @dev                Starts a poll for a listingHash which is either in the apply stage or\r\n                        already in the whitelist. Tokens are taken from the challenger and the\r\n                        applicant's deposits are locked.\r\n    @param _listingHash The listingHash being challenged, whether listed or in application\r\n    @param _data        Extra data relevant to the challenge. Think IPFS hashes.\r\n    */\r\n    function challenge(bytes32 _listingHash, string _data) external returns (uint challengeID) {\r\n        Listing storage listing = listings[_listingHash];\r\n        uint deposit = parameterizer.get(\"minDeposit\");\r\n\r\n        // Listing must be in apply stage or already on the whitelist\r\n        require(appWasMade(_listingHash) || listing.whitelisted);\r\n        // Prevent multiple challenges\r\n        require(listing.challengeID == 0 || challenges[listing.challengeID].resolved);\r\n\r\n        if (listing.unstakedDeposit < deposit) {\r\n            // Not enough tokens, listingHash auto-delisted\r\n            resetListing(_listingHash);\r\n            return 0;\r\n        }\r\n\r\n        // Takes tokens from challenger\r\n        require(token.transferFrom(msg.sender, this, deposit));\r\n\r\n        // Starts poll\r\n        uint pollID = voting.startPoll(\r\n            parameterizer.get(\"voteQuorum\"),\r\n            parameterizer.get(\"commitStageLen\"),\r\n            parameterizer.get(\"revealStageLen\")\r\n        );\r\n\r\n        challenges[pollID] = Challenge({\r\n            challenger: msg.sender, \r\n            rewardPool: ((100 - parameterizer.get(\"dispensationPct\")) * deposit) / 100, \r\n            stake: deposit, \r\n            resolved: false, \r\n            totalTokens: 0\r\n        });\r\n\r\n        // Updates listingHash to store most recent challenge\r\n        listing.challengeID = pollID;\r\n\r\n        // Locks tokens for listingHash during challenge\r\n        listing.unstakedDeposit -= deposit;\r\n\r\n        _Challenge(_listingHash, deposit, pollID, _data);\r\n        return pollID;\r\n    }\r\n\r\n    /**\r\n    @dev                Updates a listingHash's status from 'application' to 'listing' or resolves\r\n                        a challenge if one exists.\r\n    @param _listingHash The listingHash whose status is being updated\r\n    */\r\n    function updateStatus(bytes32 _listingHash) public {\r\n        if (canBeWhitelisted(_listingHash)) {\r\n          whitelistApplication(_listingHash);\r\n          _NewListingWhitelisted(_listingHash);\r\n        } else if (challengeCanBeResolved(_listingHash)) {\r\n          resolveChallenge(_listingHash);\r\n        } else {\r\n          revert();\r\n        }\r\n    }\r\n\r\n    // TOKEN FUNCTIONS:\r\n\r\n    /**\r\n    @dev                Called by a voter to claim their reward for each completed vote. Someone\r\n                        must call updateStatus() before this can be called.\r\n    @param _challengeID The PLCR pollID of the challenge a reward is being claimed for\r\n    @param _salt        The salt of a voter's commit hash in the given poll\r\n    */\r\n    function claimReward(uint _challengeID, uint _salt) public {\r\n        // Ensures the voter has not already claimed tokens and challenge results have been processed\r\n        require(challenges[_challengeID].tokenClaims[msg.sender] == false);\r\n        require(challenges[_challengeID].resolved == true);\r\n\r\n        uint voterTokens = voting.getNumPassingTokens(msg.sender, _challengeID, _salt);\r\n        uint reward = voterReward(msg.sender, _challengeID, _salt);\r\n\r\n        // Subtracts the voter's information to preserve the participation ratios\r\n        // of other voters compared to the remaining pool of rewards\r\n        challenges[_challengeID].totalTokens -= voterTokens;\r\n        challenges[_challengeID].rewardPool -= reward;\r\n\r\n        require(token.transfer(msg.sender, reward));\r\n\r\n        // Ensures a voter cannot claim tokens again\r\n        challenges[_challengeID].tokenClaims[msg.sender] = true;\r\n\r\n        _RewardClaimed(msg.sender, _challengeID, reward);\r\n    }\r\n\r\n    // GETTERS:\r\n\r\n    /**\r\n    @dev                Calculates the provided voter's token reward for the given poll.\r\n    @param _voter       The address of the voter whose reward balance is to be returned\r\n    @param _challengeID The pollID of the challenge a reward balance is being queried for\r\n    @param _salt        The salt of the voter's commit hash in the given poll\r\n    @return             The uint indicating the voter's reward\r\n    */\r\n    function voterReward(address _voter, uint _challengeID, uint _salt) public view returns (uint) {\r\n        uint totalTokens = challenges[_challengeID].totalTokens;\r\n        uint rewardPool = challenges[_challengeID].rewardPool;\r\n        uint voterTokens = voting.getNumPassingTokens(_voter, _challengeID, _salt);\r\n        return (voterTokens * rewardPool) / totalTokens;\r\n    }\r\n\r\n    /**\r\n    @dev                Determines whether the given listingHash be whitelisted.\r\n    @param _listingHash The listingHash whose status is to be examined\r\n    */\r\n    function canBeWhitelisted(bytes32 _listingHash) view public returns (bool) {\r\n        uint challengeID = listings[_listingHash].challengeID;\r\n\r\n        // Ensures that the application was made,\r\n        // the application period has ended,\r\n        // the listingHash can be whitelisted,\r\n        // and either: the challengeID == 0, or the challenge has been resolved.\r\n        if (appWasMade(_listingHash) && listings[_listingHash].applicationExpiry < now && !isWhitelisted(_listingHash) && (challengeID == 0 || challenges[challengeID].resolved == true)) {\r\n            return true;\r\n        }\r\n\r\n        return false;\r\n    }\r\n\r\n    /**\r\n    @dev                Returns true if the provided listingHash is whitelisted\r\n    @param _listingHash The listingHash whose status is to be examined\r\n    */\r\n    function isWhitelisted(bytes32 _listingHash) view public returns (bool whitelisted) {\r\n        return listings[_listingHash].whitelisted;\r\n    }\r\n\r\n    /**\r\n    @dev                Returns true if apply was called for this listingHash\r\n    @param _listingHash The listingHash whose status is to be examined\r\n    */\r\n    function appWasMade(bytes32 _listingHash) view public returns (bool exists) {\r\n        return listings[_listingHash].applicationExpiry > 0;\r\n    }\r\n\r\n    /**\r\n    @dev                Returns true if the application/listingHash has an unresolved challenge\r\n    @param _listingHash The listingHash whose status is to be examined\r\n    */\r\n    function challengeExists(bytes32 _listingHash) view public returns (bool) {\r\n        uint challengeID = listings[_listingHash].challengeID;\r\n\r\n        return (listings[_listingHash].challengeID > 0 && !challenges[challengeID].resolved);\r\n    }\r\n\r\n    /**\r\n    @dev   Determines whether voting has concluded in a challenge for a given listingHash. Throws if no challenge exists.\r\n    @param _listingHash A listingHash with an unresolved challenge\r\n    */\r\n    function challengeCanBeResolved(bytes32 _listingHash) view public returns (bool) {\r\n        uint challengeID = listings[_listingHash].challengeID;\r\n\r\n        require(challengeExists(_listingHash));\r\n\r\n        return voting.pollEnded(challengeID);\r\n    }\r\n\r\n    /**\r\n    @dev                Determines the number of tokens awarded to the winning party in a challenge.\r\n    @param _challengeID The challengeID to determine a reward for\r\n    */\r\n    function determineReward(uint _challengeID) public view returns (uint) {\r\n        require(!challenges[_challengeID].resolved && voting.pollEnded(_challengeID));\r\n\r\n        // Edge case, nobody voted, give all tokens to the challenger.\r\n        if (voting.getTotalNumberOfTokensForWinningOption(_challengeID) == 0) {\r\n            return 2 * challenges[_challengeID].stake;\r\n        }\r\n\r\n        return (2 * challenges[_challengeID].stake) - challenges[_challengeID].rewardPool;\r\n    }\r\n\r\n    /**\r\n    @dev                Getter for Challenge tokenClaims mappings\r\n    @param _challengeID The challengeID to query\r\n    @param _voter       The voter whose claim status to query for the provided challengeID\r\n    */\r\n    function tokenClaims(uint _challengeID, address _voter) public view returns (bool) {\r\n      return challenges[_challengeID].tokenClaims[_voter];\r\n    }\r\n\r\n    // PRIVATE FUNCTIONS:\r\n\r\n    /**\r\n    @dev                Determines the winner in a challenge. Rewards the winner tokens and\r\n                        either whitelists or de-whitelists the listingHash.\r\n    @param _listingHash A listingHash with a challenge that is to be resolved\r\n    */\r\n    function resolveChallenge(bytes32 _listingHash) private {\r\n        uint challengeID = listings[_listingHash].challengeID;\r\n\r\n        // Calculates the winner's reward,\r\n        // which is: (winner's full stake) + (dispensationPct * loser's stake)\r\n        uint reward = determineReward(challengeID);\r\n\r\n        // Records whether the listingHash is a listingHash or an application\r\n        bool wasWhitelisted = isWhitelisted(_listingHash);\r\n\r\n        // Case: challenge failed\r\n        if (voting.isPassed(challengeID)) {\r\n            whitelistApplication(_listingHash);\r\n            // Unlock stake so that it can be retrieved by the applicant\r\n            listings[_listingHash].unstakedDeposit += reward;\r\n\r\n            _ChallengeFailed(challengeID);\r\n            if (!wasWhitelisted) {\r\n                _NewListingWhitelisted(_listingHash);\r\n            }\r\n        } else {\r\n            // Case: challenge succeeded\r\n            resetListing(_listingHash);\r\n            // Transfer the reward to the challenger\r\n            require(token.transfer(challenges[challengeID].challenger, reward));\r\n\r\n            _ChallengeSucceeded(challengeID);\r\n            if (wasWhitelisted) {\r\n                _ListingRemoved(_listingHash);\r\n            } else {\r\n                _ApplicationRemoved(_listingHash);\r\n            }\r\n        }\r\n\r\n        // Sets flag on challenge being processed\r\n        challenges[challengeID].resolved = true;\r\n\r\n        // Stores the total tokens used for voting by the winning side for reward purposes\r\n        challenges[challengeID].totalTokens = voting.getTotalNumberOfTokensForWinningOption(challengeID);\r\n    }\r\n\r\n    /**\r\n    @dev                Called by updateStatus() if the applicationExpiry date passed without a\r\n                        challenge being made. Called by resolveChallenge() if an\r\n                        application/listing beat a challenge.\r\n    @param _listingHash The listingHash of an application/listingHash to be whitelisted\r\n    */\r\n    function whitelistApplication(bytes32 _listingHash) private {\r\n        listings[_listingHash].whitelisted = true;\r\n    }\r\n\r\n    /**\r\n    @dev                Deletes a listingHash from the whitelist and transfers tokens back to owner\r\n    @param _listingHash The listing hash to delete\r\n    */\r\n    function resetListing(bytes32 _listingHash) private {\r\n        Listing storage listing = listings[_listingHash];\r\n\r\n        // Transfers any remaining balance back to the owner\r\n        if (listing.unstakedDeposit > 0)\r\n            require(token.transfer(listing.owner, listing.unstakedDeposit));\r\n\r\n        delete listings[_listingHash];\r\n    }\r\n}",
  "sourcePath": "C:\\Users\\shach\\Documents\\Deco.Network\\DeconetRegistry\\contracts\\Registry.sol",
  "compiler": {
    "name": "solc",
    "version": "0.4.18+commit.9cf6e910.Emscripten.clang"
  },
  "schemaVersion": "1.0.1",
  "updatedAt": "2018-02-07T19:05:09.570Z"
}