{
  "contractName": "Registry",
  "abi": [
    {
      "constant": true,
      "inputs": [],
      "name": "version",
      "outputs": [
        {
          "name": "",
          "type": "string"
        }
      ],
      "payable": false,
      "stateMutability": "view",
      "type": "function"
    },
    {
      "constant": true,
      "inputs": [
        {
          "name": "",
          "type": "uint256"
        }
      ],
      "name": "challenges",
      "outputs": [
        {
          "name": "rewardPool",
          "type": "uint256"
        },
        {
          "name": "challenger",
          "type": "address"
        },
        {
          "name": "resolved",
          "type": "bool"
        },
        {
          "name": "stake",
          "type": "uint256"
        },
        {
          "name": "totalTokens",
          "type": "uint256"
        }
      ],
      "payable": false,
      "stateMutability": "view",
      "type": "function"
    },
    {
      "constant": true,
      "inputs": [
        {
          "name": "",
          "type": "bytes32"
        }
      ],
      "name": "listings",
      "outputs": [
        {
          "name": "applicationExpiry",
          "type": "uint256"
        },
        {
          "name": "whitelisted",
          "type": "bool"
        },
        {
          "name": "owner",
          "type": "address"
        },
        {
          "name": "unstakedDeposit",
          "type": "uint256"
        },
        {
          "name": "challengeID",
          "type": "uint256"
        }
      ],
      "payable": false,
      "stateMutability": "view",
      "type": "function"
    },
    {
      "constant": true,
      "inputs": [],
      "name": "parameterizer",
      "outputs": [
        {
          "name": "",
          "type": "address"
        }
      ],
      "payable": false,
      "stateMutability": "view",
      "type": "function"
    },
    {
      "constant": true,
      "inputs": [],
      "name": "token",
      "outputs": [
        {
          "name": "",
          "type": "address"
        }
      ],
      "payable": false,
      "stateMutability": "view",
      "type": "function"
    },
    {
      "constant": true,
      "inputs": [],
      "name": "voting",
      "outputs": [
        {
          "name": "",
          "type": "address"
        }
      ],
      "payable": false,
      "stateMutability": "view",
      "type": "function"
    },
    {
      "inputs": [
        {
          "name": "_tokenAddr",
          "type": "address"
        },
        {
          "name": "_plcrAddr",
          "type": "address"
        },
        {
          "name": "_paramsAddr",
          "type": "address"
        }
      ],
      "payable": false,
      "stateMutability": "nonpayable",
      "type": "constructor"
    },
    {
      "anonymous": false,
      "inputs": [
        {
          "indexed": true,
          "name": "moduleName",
          "type": "string"
        },
        {
          "indexed": true,
          "name": "deposit",
          "type": "uint256"
        },
        {
          "indexed": false,
          "name": "data",
          "type": "string"
        }
      ],
      "name": "_Application",
      "type": "event"
    },
    {
      "anonymous": false,
      "inputs": [
        {
          "indexed": true,
          "name": "moduleName",
          "type": "string"
        },
        {
          "indexed": true,
          "name": "deposit",
          "type": "uint256"
        },
        {
          "indexed": true,
          "name": "pollID",
          "type": "uint256"
        },
        {
          "indexed": false,
          "name": "data",
          "type": "string"
        }
      ],
      "name": "_Challenge",
      "type": "event"
    },
    {
      "anonymous": false,
      "inputs": [
        {
          "indexed": true,
          "name": "moduleName",
          "type": "string"
        },
        {
          "indexed": true,
          "name": "added",
          "type": "uint256"
        },
        {
          "indexed": true,
          "name": "newTotal",
          "type": "uint256"
        }
      ],
      "name": "_Deposit",
      "type": "event"
    },
    {
      "anonymous": false,
      "inputs": [
        {
          "indexed": true,
          "name": "moduleName",
          "type": "string"
        },
        {
          "indexed": true,
          "name": "withdrew",
          "type": "uint256"
        },
        {
          "indexed": true,
          "name": "newTotal",
          "type": "uint256"
        }
      ],
      "name": "_Withdrawal",
      "type": "event"
    },
    {
      "anonymous": false,
      "inputs": [
        {
          "indexed": true,
          "name": "moduleName",
          "type": "string"
        }
      ],
      "name": "_NewListingWhitelisted",
      "type": "event"
    },
    {
      "anonymous": false,
      "inputs": [
        {
          "indexed": true,
          "name": "moduleName",
          "type": "string"
        }
      ],
      "name": "_ApplicationRemoved",
      "type": "event"
    },
    {
      "anonymous": false,
      "inputs": [
        {
          "indexed": true,
          "name": "moduleName",
          "type": "string"
        }
      ],
      "name": "_ListingRemoved",
      "type": "event"
    },
    {
      "anonymous": false,
      "inputs": [
        {
          "indexed": true,
          "name": "challengeID",
          "type": "uint256"
        }
      ],
      "name": "_ChallengeFailed",
      "type": "event"
    },
    {
      "anonymous": false,
      "inputs": [
        {
          "indexed": true,
          "name": "challengeID",
          "type": "uint256"
        }
      ],
      "name": "_ChallengeSucceeded",
      "type": "event"
    },
    {
      "anonymous": false,
      "inputs": [
        {
          "indexed": true,
          "name": "voter",
          "type": "address"
        },
        {
          "indexed": true,
          "name": "challengeID",
          "type": "uint256"
        },
        {
          "indexed": true,
          "name": "reward",
          "type": "uint256"
        }
      ],
      "name": "_RewardClaimed",
      "type": "event"
    },
    {
      "constant": false,
      "inputs": [
        {
          "name": "_moduleName",
          "type": "string"
        },
        {
          "name": "_amount",
          "type": "uint256"
        },
        {
          "name": "_data",
          "type": "string"
        }
      ],
      "name": "apply",
      "outputs": [],
      "payable": false,
      "stateMutability": "nonpayable",
      "type": "function"
    },
    {
      "constant": false,
      "inputs": [
        {
          "name": "_moduleName",
          "type": "string"
        },
        {
          "name": "_amount",
          "type": "uint256"
        }
      ],
      "name": "deposit",
      "outputs": [],
      "payable": false,
      "stateMutability": "nonpayable",
      "type": "function"
    },
    {
      "constant": false,
      "inputs": [
        {
          "name": "_moduleName",
          "type": "string"
        },
        {
          "name": "_amount",
          "type": "uint256"
        }
      ],
      "name": "withdraw",
      "outputs": [],
      "payable": false,
      "stateMutability": "nonpayable",
      "type": "function"
    },
    {
      "constant": false,
      "inputs": [
        {
          "name": "_moduleName",
          "type": "string"
        }
      ],
      "name": "exit",
      "outputs": [],
      "payable": false,
      "stateMutability": "nonpayable",
      "type": "function"
    },
    {
      "constant": false,
      "inputs": [
        {
          "name": "_moduleName",
          "type": "string"
        },
        {
          "name": "_data",
          "type": "string"
        }
      ],
      "name": "challenge",
      "outputs": [
        {
          "name": "challengeID",
          "type": "uint256"
        }
      ],
      "payable": false,
      "stateMutability": "nonpayable",
      "type": "function"
    },
    {
      "constant": false,
      "inputs": [
        {
          "name": "_moduleName",
          "type": "string"
        }
      ],
      "name": "updateStatus",
      "outputs": [],
      "payable": false,
      "stateMutability": "nonpayable",
      "type": "function"
    },
    {
      "constant": false,
      "inputs": [
        {
          "name": "_challengeID",
          "type": "uint256"
        },
        {
          "name": "_salt",
          "type": "uint256"
        }
      ],
      "name": "claimReward",
      "outputs": [],
      "payable": false,
      "stateMutability": "nonpayable",
      "type": "function"
    },
    {
      "constant": true,
      "inputs": [
        {
          "name": "_voter",
          "type": "address"
        },
        {
          "name": "_challengeID",
          "type": "uint256"
        },
        {
          "name": "_salt",
          "type": "uint256"
        }
      ],
      "name": "voterReward",
      "outputs": [
        {
          "name": "",
          "type": "uint256"
        }
      ],
      "payable": false,
      "stateMutability": "view",
      "type": "function"
    },
    {
      "constant": true,
      "inputs": [
        {
          "name": "_moduleName",
          "type": "string"
        }
      ],
      "name": "canBeWhitelisted",
      "outputs": [
        {
          "name": "",
          "type": "bool"
        }
      ],
      "payable": false,
      "stateMutability": "view",
      "type": "function"
    },
    {
      "constant": true,
      "inputs": [
        {
          "name": "_moduleName",
          "type": "string"
        }
      ],
      "name": "isWhitelisted",
      "outputs": [
        {
          "name": "whitelisted",
          "type": "bool"
        }
      ],
      "payable": false,
      "stateMutability": "view",
      "type": "function"
    },
    {
      "constant": true,
      "inputs": [
        {
          "name": "_moduleName",
          "type": "string"
        }
      ],
      "name": "appWasMade",
      "outputs": [
        {
          "name": "exists",
          "type": "bool"
        }
      ],
      "payable": false,
      "stateMutability": "view",
      "type": "function"
    },
    {
      "constant": true,
      "inputs": [
        {
          "name": "_moduleName",
          "type": "string"
        }
      ],
      "name": "challengeExists",
      "outputs": [
        {
          "name": "",
          "type": "bool"
        }
      ],
      "payable": false,
      "stateMutability": "view",
      "type": "function"
    },
    {
      "constant": true,
      "inputs": [
        {
          "name": "_moduleName",
          "type": "string"
        }
      ],
      "name": "challengeCanBeResolved",
      "outputs": [
        {
          "name": "",
          "type": "bool"
        }
      ],
      "payable": false,
      "stateMutability": "view",
      "type": "function"
    },
    {
      "constant": true,
      "inputs": [
        {
          "name": "_challengeID",
          "type": "uint256"
        }
      ],
      "name": "determineReward",
      "outputs": [
        {
          "name": "",
          "type": "uint256"
        }
      ],
      "payable": false,
      "stateMutability": "view",
      "type": "function"
    },
    {
      "constant": true,
      "inputs": [
        {
          "name": "_challengeID",
          "type": "uint256"
        },
        {
          "name": "_voter",
          "type": "address"
        }
      ],
      "name": "tokenClaims",
      "outputs": [
        {
          "name": "",
          "type": "bool"
        }
      ],
      "payable": false,
      "stateMutability": "view",
      "type": "function"
    }
  ],
  "bytecode": "0x60606040526040805190810160405280600181526020017f3100000000000000000000000000000000000000000000000000000000000000815250600590805190602001906200005192919062000159565b5034156200005e57600080fd5b604051606080620038688339810160405280805190602001909190805190602001909190805190602001909190505082600260006101000a81548173ffffffffffffffffffffffffffffffffffffffff021916908373ffffffffffffffffffffffffffffffffffffffff16021790555081600360006101000a81548173ffffffffffffffffffffffffffffffffffffffff021916908373ffffffffffffffffffffffffffffffffffffffff16021790555080600460006101000a81548173ffffffffffffffffffffffffffffffffffffffff021916908373ffffffffffffffffffffffffffffffffffffffff16021790555050505062000208565b828054600181600116156101000203166002900490600052602060002090601f016020900481019282601f106200019c57805160ff1916838001178555620001cd565b82800160010185558215620001cd579182015b82811115620001cc578251825591602001919060010190620001af565b5b509050620001dc9190620001e0565b5090565b6200020591905b8082111562000201576000816000905550600101620001e7565b5090565b90565b61365080620002186000396000f30060606040526004361061011d576000357c0100000000000000000000000000000000000000000000000000000000900463ffffffff1680630f53ba511461012257806323d35f7e146101975780632c215998146101ed57806330b39a621461024a57806354fd4d501461028157806386bb8f371461030f5780638e27d7191461033b5780638f1bbb93146103725780638f1d3776146103bd578063a5ba3b1e14610440578063a7aad3db1461049a578063b48eea44146104f9578063c18b8db41461056e578063c53c614d146105f5578063c8187cf11461066a578063d134f4aa146106a1578063e1a566f414610716578063e1e3f9151461078b578063e7fb5388146107e0578063fc0c546a1461080e578063fce1ccca14610863575b600080fd5b341561012d57600080fd5b61017d600480803590602001908201803590602001908080601f016020809104026020016040519081016040528093929190818152602001838380828437820191505050505050919050506108b8565b604051808215151515815260200191505060405180910390f35b34156101a257600080fd5b6101d7600480803590602001908201803590602001919091929080359060200190820180359060200191909192905050610944565b6040518082815260200191505060405180910390f35b34156101f857600080fd5b610248600480803590602001908201803590602001908080601f0160208091040260200160405190810160405280939291908181526020018383808284378201915050505050509190505061125e565b005b341561025557600080fd5b61027f6004808035906020019082018035906020019190919290803590602001909190505061132e565b005b341561028c57600080fd5b61029461162d565b6040518080602001828103825283818151815260200191508051906020019080838360005b838110156102d45780820151818401526020810190506102b9565b50505050905090810190601f1680156103015780820380516001836020036101000a031916815260200191505b509250505060405180910390f35b341561031a57600080fd5b61033960048080359060200190919080359060200190919050506116cb565b005b341561034657600080fd5b61037060048080359060200190820180359060200191909192908035906020019091905050611a63565b005b341561037d57600080fd5b6103bb600480803590602001908201803590602001919091929080359060200190919080359060200190820180359060200191909192905050611c8a565b005b34156103c857600080fd5b6103de6004808035906020019091905050612231565b604051808681526020018573ffffffffffffffffffffffffffffffffffffffff1673ffffffffffffffffffffffffffffffffffffffff168152602001841515151581526020018381526020018281526020019550505050505060405180910390f35b341561044b57600080fd5b610480600480803590602001909190803573ffffffffffffffffffffffffffffffffffffffff16906020019091905050612294565b604051808215151515815260200191505060405180910390f35b34156104a557600080fd5b6104e3600480803573ffffffffffffffffffffffffffffffffffffffff169060200190919080359060200190919080359060200190919050506122fe565b6040518082815260200191505060405180910390f35b341561050457600080fd5b610554600480803590602001908201803590602001908080601f01602080910402602001604051908101604052809392919081815260200183838082843782019150505050505091905050612440565b604051808215151515815260200191505060405180910390f35b341561057957600080fd5b6105936004808035600019169060200190919050506124d7565b60405180868152602001851515151581526020018473ffffffffffffffffffffffffffffffffffffffff1673ffffffffffffffffffffffffffffffffffffffff1681526020018381526020018281526020019550505050505060405180910390f35b341561060057600080fd5b610650600480803590602001908201803590602001908080601f0160208091040260200160405190810160405280939291908181526020018383808284378201915050505050509190505061253a565b604051808215151515815260200191505060405180910390f35b341561067557600080fd5b61068b6004808035906020019091905050612660565b6040518082815260200191505060405180910390f35b34156106ac57600080fd5b6106fc600480803590602001908201803590602001908080601f01602080910402602001604051908101604052809392919081815260200183838082843782019150505050505091905050612861565b604051808215151515815260200191505060405180910390f35b341561072157600080fd5b610771600480803590602001908201803590602001908080601f016020809104026020016040519081016040528093929190818152602001838380828437820191505050505050919050506129b7565b604051808215151515815260200191505060405180910390f35b341561079657600080fd5b61079e612af5565b604051808273ffffffffffffffffffffffffffffffffffffffff1673ffffffffffffffffffffffffffffffffffffffff16815260200191505060405180910390f35b34156107eb57600080fd5b61080c60048080359060200190820180359060200191909192905050612b1b565b005b341561081957600080fd5b610821612c7b565b604051808273ffffffffffffffffffffffffffffffffffffffff1673ffffffffffffffffffffffffffffffffffffffff16815260200191505060405180910390f35b341561086e57600080fd5b610876612ca1565b604051808273ffffffffffffffffffffffffffffffffffffffff1673ffffffffffffffffffffffffffffffffffffffff16815260200191505060405180910390f35b60008060016000846040518082805190602001908083835b6020831015156108f557805182526020820191506020810190506020830392506108d0565b6001836020036101000a03801982511681845116808217855250505050505090500191505060405180910390206000191660001916815260200190815260200160002060000154119050919050565b600080600080600160008989604051808383808284378201915050925050506040518091039020600019166000191681526020019081526020016000209250600460009054906101000a900473ffffffffffffffffffffffffffffffffffffffff1673ffffffffffffffffffffffffffffffffffffffff1663693ec85e6000604051602001526040518163ffffffff167c010000000000000000000000000000000000000000000000000000000002815260040180806020018281038252600a8152602001807f6d696e4465706f73697400000000000000000000000000000000000000000000815250602001915050602060405180830381600087803b1515610a4d57600080fd5b6102c65a03f11515610a5e57600080fd5b505050604051805190509150610aa588888080601f0160208091040260200160405190810160405280939291908181526020018383808284378201915050505050506108b8565b80610abe57508260010160009054906101000a900460ff165b1515610ac957600080fd5b600083600301541480610aff57506000808460030154815260200190815260200160002060010160149054906101000a900460ff165b1515610b0a57600080fd5b8183600201541015610b5a57610b5188888080601f016020809104026020016040519081016040528093929190818152602001838380828437820191505050505050612cc7565b60009350611253565b600260009054906101000a900473ffffffffffffffffffffffffffffffffffffffff1673ffffffffffffffffffffffffffffffffffffffff166323b872dd3330856000604051602001526040518463ffffffff167c0100000000000000000000000000000000000000000000000000000000028152600401808473ffffffffffffffffffffffffffffffffffffffff1673ffffffffffffffffffffffffffffffffffffffff1681526020018373ffffffffffffffffffffffffffffffffffffffff1673ffffffffffffffffffffffffffffffffffffffff1681526020018281526020019350505050602060405180830381600087803b1515610c5b57600080fd5b6102c65a03f11515610c6c57600080fd5b505050604051805190501515610c8157600080fd5b600360009054906101000a900473ffffffffffffffffffffffffffffffffffffffff1673ffffffffffffffffffffffffffffffffffffffff166332ed3d60600460009054906101000a900473ffffffffffffffffffffffffffffffffffffffff1673ffffffffffffffffffffffffffffffffffffffff1663693ec85e6000604051602001526040518163ffffffff167c010000000000000000000000000000000000000000000000000000000002815260040180806020018281038252600a8152602001807f766f746551756f72756d00000000000000000000000000000000000000000000815250602001915050602060405180830381600087803b1515610d8957600080fd5b6102c65a03f11515610d9a57600080fd5b50505060405180519050600460009054906101000a900473ffffffffffffffffffffffffffffffffffffffff1673ffffffffffffffffffffffffffffffffffffffff1663693ec85e6000604051602001526040518163ffffffff167c010000000000000000000000000000000000000000000000000000000002815260040180806020018281038252600e8152602001807f636f6d6d697453746167654c656e000000000000000000000000000000000000815250602001915050602060405180830381600087803b1515610e6e57600080fd5b6102c65a03f11515610e7f57600080fd5b50505060405180519050600460009054906101000a900473ffffffffffffffffffffffffffffffffffffffff1673ffffffffffffffffffffffffffffffffffffffff1663693ec85e6000604051602001526040518163ffffffff167c010000000000000000000000000000000000000000000000000000000002815260040180806020018281038252600e8152602001807f72657665616c53746167654c656e000000000000000000000000000000000000815250602001915050602060405180830381600087803b1515610f5357600080fd5b6102c65a03f11515610f6457600080fd5b505050604051805190506000604051602001526040518463ffffffff167c0100000000000000000000000000000000000000000000000000000000028152600401808481526020018381526020018281526020019350505050602060405180830381600087803b1515610fd657600080fd5b6102c65a03f11515610fe757600080fd5b50505060405180519050905060a060405190810160405280606484600460009054906101000a900473ffffffffffffffffffffffffffffffffffffffff1673ffffffffffffffffffffffffffffffffffffffff1663693ec85e6000604051602001526040518163ffffffff167c010000000000000000000000000000000000000000000000000000000002815260040180806020018281038252600f8152602001807f64697370656e736174696f6e5063740000000000000000000000000000000000815250602001915050602060405180830381600087803b15156110cc57600080fd5b6102c65a03f115156110dd57600080fd5b50505060405180519050606403028115156110f457fe5b0481526020013373ffffffffffffffffffffffffffffffffffffffff16815260200160001515815260200183815260200160008152506000808381526020019081526020016000206000820151816000015560208201518160010160006101000a81548173ffffffffffffffffffffffffffffffffffffffff021916908373ffffffffffffffffffffffffffffffffffffffff16021790555060408201518160010160146101000a81548160ff0219169083151502179055506060820151816002015560808201518160030155905050808360030181905550818360020160008282540392505081905550808289896040518083838082843782019150509250505060405180910390207f7514bb579bd9dfe1fd36d4a4ca3c65e79f37a989c69cae3232c289e64763b2658989604051808060200182810382528484828181526020019250808284378201915050935050505060405180910390a48093505b505050949350505050565b6112678161253a565b156113095761127581612f48565b806040518082805190602001908083835b6020831015156112ab5780518252602082019150602081019050602083039250611286565b6001836020036101000a03801982511681845116808217855250505050505090500191505060405180910390207f58ddad8b1a00433731351f54c4d99e3e58cb0de46f368fb7105233537113eabc60405160405180910390a261132b565b61131281612861565b156113255761132081612fe3565b61132a565b600080fd5b5b50565b60006001600085856040518083838082843782019150509250505060405180910390206000191660001916815260200190815260200160002090503373ffffffffffffffffffffffffffffffffffffffff168160010160019054906101000a900473ffffffffffffffffffffffffffffffffffffffff1673ffffffffffffffffffffffffffffffffffffffff161415156113c757600080fd5b806002015482111515156113da57600080fd5b600460009054906101000a900473ffffffffffffffffffffffffffffffffffffffff1673ffffffffffffffffffffffffffffffffffffffff1663693ec85e6000604051602001526040518163ffffffff167c010000000000000000000000000000000000000000000000000000000002815260040180806020018281038252600a8152602001807f6d696e4465706f73697400000000000000000000000000000000000000000000815250602001915050602060405180830381600087803b15156114a457600080fd5b6102c65a03f115156114b557600080fd5b5050506040518051905082826002015403101515156114d357600080fd5b600260009054906101000a900473ffffffffffffffffffffffffffffffffffffffff1673ffffffffffffffffffffffffffffffffffffffff1663a9059cbb33846000604051602001526040518363ffffffff167c0100000000000000000000000000000000000000000000000000000000028152600401808373ffffffffffffffffffffffffffffffffffffffff1673ffffffffffffffffffffffffffffffffffffffff16815260200182815260200192505050602060405180830381600087803b15156115a057600080fd5b6102c65a03f115156115b157600080fd5b5050506040518051905015156115c657600080fd5b81816002016000828254039250508190555080600201548285856040518083838082843782019150509250505060405180910390207f35beea79a7fc6641257b3e61add293ddecedd0d3fdabc5f7e12172af93af81ef60405160405180910390a450505050565b60058054600181600116156101000203166002900480601f0160208091040260200160405190810160405280929190818152602001828054600181600116156101000203166002900480156116c35780601f10611698576101008083540402835291602001916116c3565b820191906000526020600020905b8154815290600101906020018083116116a657829003601f168201915b505050505081565b6000806000151560008086815260200190815260200160002060040160003373ffffffffffffffffffffffffffffffffffffffff1673ffffffffffffffffffffffffffffffffffffffff16815260200190815260200160002060009054906101000a900460ff16151514151561174057600080fd5b6001151560008086815260200190815260200160002060010160149054906101000a900460ff16151514151561177557600080fd5b600360009054906101000a900473ffffffffffffffffffffffffffffffffffffffff1673ffffffffffffffffffffffffffffffffffffffff1663b43bd0693386866000604051602001526040518463ffffffff167c0100000000000000000000000000000000000000000000000000000000028152600401808473ffffffffffffffffffffffffffffffffffffffff1673ffffffffffffffffffffffffffffffffffffffff1681526020018381526020018281526020019350505050602060405180830381600087803b151561184a57600080fd5b6102c65a03f1151561185b57600080fd5b5050506040518051905091506118723385856122fe565b905081600080868152602001908152602001600020600301600082825403925050819055508060008086815260200190815260200160002060000160008282540392505081905550600260009054906101000a900473ffffffffffffffffffffffffffffffffffffffff1673ffffffffffffffffffffffffffffffffffffffff1663a9059cbb33836000604051602001526040518363ffffffff167c0100000000000000000000000000000000000000000000000000000000028152600401808373ffffffffffffffffffffffffffffffffffffffff1673ffffffffffffffffffffffffffffffffffffffff16815260200182815260200192505050602060405180830381600087803b151561198757600080fd5b6102c65a03f1151561199857600080fd5b5050506040518051905015156119ad57600080fd5b600160008086815260200190815260200160002060040160003373ffffffffffffffffffffffffffffffffffffffff1673ffffffffffffffffffffffffffffffffffffffff16815260200190815260200160002060006101000a81548160ff02191690831515021790555080843373ffffffffffffffffffffffffffffffffffffffff167f8df5fc7a83008bc089286a6396a5ede7efa20b39ccbac5255b8cc0b7b11b0a5960405160405180910390a450505050565b60006001600085856040518083838082843782019150509250505060405180910390206000191660001916815260200190815260200160002090503373ffffffffffffffffffffffffffffffffffffffff168160010160019054906101000a900473ffffffffffffffffffffffffffffffffffffffff1673ffffffffffffffffffffffffffffffffffffffff16141515611afc57600080fd5b600260009054906101000a900473ffffffffffffffffffffffffffffffffffffffff1673ffffffffffffffffffffffffffffffffffffffff166323b872dd3330856000604051602001526040518463ffffffff167c0100000000000000000000000000000000000000000000000000000000028152600401808473ffffffffffffffffffffffffffffffffffffffff1673ffffffffffffffffffffffffffffffffffffffff1681526020018373ffffffffffffffffffffffffffffffffffffffff1673ffffffffffffffffffffffffffffffffffffffff1681526020018281526020019350505050602060405180830381600087803b1515611bfd57600080fd5b6102c65a03f11515611c0e57600080fd5b505050604051805190501515611c2357600080fd5b81816002016000828254019250508190555080600201548285856040518083838082843782019150509250505060405180910390207fdc637240b7346f24266bcefb85cdc460d11021e894ba4811fc16c9e21694fa8960405160405180910390a450505050565b600083600260009054906101000a900473ffffffffffffffffffffffffffffffffffffffff1673ffffffffffffffffffffffffffffffffffffffff166370a08231336000604051602001526040518263ffffffff167c0100000000000000000000000000000000000000000000000000000000028152600401808273ffffffffffffffffffffffffffffffffffffffff1673ffffffffffffffffffffffffffffffffffffffff168152602001915050602060405180830381600087803b1515611d5257600080fd5b6102c65a03f11515611d6357600080fd5b5050506040518051905010151515611d7a57600080fd5b611db586868080601f016020809104026020016040519081016040528093929190818152602001838380828437820191505050505050612440565b151515611dc157600080fd5b611dfc86868080601f0160208091040260200160405190810160405280939291908181526020018383808284378201915050505050506108b8565b151515611e0857600080fd5b600460009054906101000a900473ffffffffffffffffffffffffffffffffffffffff1673ffffffffffffffffffffffffffffffffffffffff1663693ec85e6000604051602001526040518163ffffffff167c010000000000000000000000000000000000000000000000000000000002815260040180806020018281038252600a8152602001807f6d696e4465706f73697400000000000000000000000000000000000000000000815250602001915050602060405180830381600087803b1515611ed257600080fd5b6102c65a03f11515611ee357600080fd5b505050604051805190508410151515611efb57600080fd5b600160008787604051808383808284378201915050925050506040518091039020600019166000191681526020019081526020016000209050338160010160016101000a81548173ffffffffffffffffffffffffffffffffffffffff021916908373ffffffffffffffffffffffffffffffffffffffff160217905550600260009054906101000a900473ffffffffffffffffffffffffffffffffffffffff1673ffffffffffffffffffffffffffffffffffffffff166323b872dd8260010160019054906101000a900473ffffffffffffffffffffffffffffffffffffffff1630876000604051602001526040518463ffffffff167c0100000000000000000000000000000000000000000000000000000000028152600401808473ffffffffffffffffffffffffffffffffffffffff1673ffffffffffffffffffffffffffffffffffffffff1681526020018373ffffffffffffffffffffffffffffffffffffffff1673ffffffffffffffffffffffffffffffffffffffff1681526020018281526020019350505050602060405180830381600087803b151561209c57600080fd5b6102c65a03f115156120ad57600080fd5b5050506040518051905015156120c257600080fd5b600460009054906101000a900473ffffffffffffffffffffffffffffffffffffffff1673ffffffffffffffffffffffffffffffffffffffff1663693ec85e6000604051602001526040518163ffffffff167c010000000000000000000000000000000000000000000000000000000002815260040180806020018281038252600d8152602001807f6170706c7953746167654c656e00000000000000000000000000000000000000815250602001915050602060405180830381600087803b151561218c57600080fd5b6102c65a03f1151561219d57600080fd5b50505060405180519050420181600001819055508381600201819055508386866040518083838082843782019150509250505060405180910390207f355394f95b04779599171aaa06777ed263b9ac6691347f5bab71abc9469f39098585604051808060200182810382528484828181526020019250808284378201915050935050505060405180910390a3505050505050565b60006020528060005260406000206000915090508060000154908060010160009054906101000a900473ffffffffffffffffffffffffffffffffffffffff16908060010160149054906101000a900460ff16908060020154908060030154905085565b600080600084815260200190815260200160002060040160008373ffffffffffffffffffffffffffffffffffffffff1673ffffffffffffffffffffffffffffffffffffffff16815260200190815260200160002060009054906101000a900460ff16905092915050565b600080600080600080878152602001908152602001600020600301549250600080878152602001908152602001600020600001549150600360009054906101000a900473ffffffffffffffffffffffffffffffffffffffff1673ffffffffffffffffffffffffffffffffffffffff1663b43bd0698888886000604051602001526040518463ffffffff167c0100000000000000000000000000000000000000000000000000000000028152600401808473ffffffffffffffffffffffffffffffffffffffff1673ffffffffffffffffffffffffffffffffffffffff1681526020018381526020018281526020019350505050602060405180830381600087803b151561240957600080fd5b6102c65a03f1151561241a57600080fd5b5050506040518051905090508282820281151561243357fe5b0493505050509392505050565b600060016000836040518082805190602001908083835b60208310151561247c5780518252602082019150602081019050602083039250612457565b6001836020036101000a03801982511681845116808217855250505050505090500191505060405180910390206000191660001916815260200190815260200160002060010160009054906101000a900460ff169050919050565b60016020528060005260406000206000915090508060000154908060010160009054906101000a900460ff16908060010160019054906101000a900473ffffffffffffffffffffffffffffffffffffffff16908060020154908060030154905085565b6000806000836040518082805190602001908083835b6020831015156125755780518252602082019150602081019050602083039250612550565b6001836020036101000a038019825116818451168082178552505050505050905001915050604051809103902091506001600083600019166000191681526020019081526020016000206003015490506125ce846108b8565b80156125f757504260016000846000191660001916815260200190815260200160002060000154105b8015612609575061260784612440565b155b80156126465750600081148061264557506001151560008083815260200190815260200160002060010160149054906101000a900460ff161515145b5b156126545760019250612659565b600092505b5050919050565b600080600083815260200190815260200160002060010160149054906101000a900460ff161580156127425750600360009054906101000a900473ffffffffffffffffffffffffffffffffffffffff1673ffffffffffffffffffffffffffffffffffffffff1663ee684830836000604051602001526040518263ffffffff167c010000000000000000000000000000000000000000000000000000000002815260040180828152602001915050602060405180830381600087803b151561272657600080fd5b6102c65a03f1151561273757600080fd5b505050604051805190505b151561274d57600080fd5b6000600360009054906101000a900473ffffffffffffffffffffffffffffffffffffffff1673ffffffffffffffffffffffffffffffffffffffff1663053e71a6846000604051602001526040518263ffffffff167c010000000000000000000000000000000000000000000000000000000002815260040180828152602001915050602060405180830381600087803b15156127e857600080fd5b6102c65a03f115156127f957600080fd5b5050506040518051905014156128295760008083815260200190815260200160002060020154600202905061285c565b60008083815260200190815260200160002060000154600080848152602001908152602001600020600201546002020390505b919050565b60008060016000846040518082805190602001908083835b60208310151561289e5780518252602082019150602081019050602083039250612879565b6001836020036101000a0380198251168184511680821785525050505050509050019150506040518091039020600019166000191681526020019081526020016000206003015490506128f0836129b7565b15156128fb57600080fd5b600360009054906101000a900473ffffffffffffffffffffffffffffffffffffffff1673ffffffffffffffffffffffffffffffffffffffff1663ee684830826000604051602001526040518263ffffffff167c010000000000000000000000000000000000000000000000000000000002815260040180828152602001915050602060405180830381600087803b151561299457600080fd5b6102c65a03f115156129a557600080fd5b50505060405180519050915050919050565b60008060016000846040518082805190602001908083835b6020831015156129f457805182526020820191506020810190506020830392506129cf565b6001836020036101000a038019825116818451168082178552505050505050905001915050604051809103902060001916600019168152602001908152602001600020600301549050600060016000856040518082805190602001908083835b602083101515612a795780518252602082019150602081019050602083039250612a54565b6001836020036101000a03801982511681845116808217855250505050505090500191505060405180910390206000191660001916815260200190815260200160002060030154118015612aed575060008082815260200190815260200160002060010160149054906101000a900460ff16155b915050919050565b600460009054906101000a900473ffffffffffffffffffffffffffffffffffffffff1681565b60006001600084846040518083838082843782019150509250505060405180910390206000191660001916815260200190815260200160002090508060010160019054906101000a900473ffffffffffffffffffffffffffffffffffffffff1673ffffffffffffffffffffffffffffffffffffffff163373ffffffffffffffffffffffffffffffffffffffff16141515612bb457600080fd5b612bef83838080601f016020809104026020016040519081016040528093929190818152602001838380828437820191505050505050612440565b1515612bfa57600080fd5b600081600301541480612c3057506000808260030154815260200190815260200160002060010160149054906101000a900460ff165b1515612c3b57600080fd5b612c7683838080601f016020809104026020016040519081016040528093929190818152602001838380828437820191505050505050612cc7565b505050565b600260009054906101000a900473ffffffffffffffffffffffffffffffffffffffff1681565b600360009054906101000a900473ffffffffffffffffffffffffffffffffffffffff1681565b600060016000836040518082805190602001908083835b602083101515612d035780518252602082019150602081019050602083039250612cde565b6001836020036101000a0380198251168184511680821785525050505050509050019150506040518091039020600019166000191681526020019081526020016000209050600081600201541115612e7157600260009054906101000a900473ffffffffffffffffffffffffffffffffffffffff1673ffffffffffffffffffffffffffffffffffffffff1663a9059cbb8260010160019054906101000a900473ffffffffffffffffffffffffffffffffffffffff1683600201546000604051602001526040518363ffffffff167c0100000000000000000000000000000000000000000000000000000000028152600401808373ffffffffffffffffffffffffffffffffffffffff1673ffffffffffffffffffffffffffffffffffffffff16815260200182815260200192505050602060405180830381600087803b1515612e4a57600080fd5b6102c65a03f11515612e5b57600080fd5b505050604051805190501515612e7057600080fd5b5b60016000836040518082805190602001908083835b602083101515612eab5780518252602082019150602081019050602083039250612e86565b6001836020036101000a0380198251168184511680821785525050505050509050019150506040518091039020600019166000191681526020019081526020016000206000808201600090556001820160006101000a81549060ff02191690556001820160016101000a81549073ffffffffffffffffffffffffffffffffffffffff02191690556002820160009055600382016000905550505050565b6001806000836040518082805190602001908083835b602083101515612f835780518252602082019150602081019050602083039250612f5e565b6001836020036101000a03801982511681845116808217855250505050505090500191505060405180910390206000191660001916815260200190815260200160002060010160006101000a81548160ff02191690831515021790555050565b600080600060016000856040518082805190602001908083835b6020831015156130225780518252602082019150602081019050602083039250612ffd565b6001836020036101000a03801982511681845116808217855250505050505090500191505060405180910390206000191660001916815260200190815260200160002060030154925061307483612660565b915061307f84612440565b9050600360009054906101000a900473ffffffffffffffffffffffffffffffffffffffff1673ffffffffffffffffffffffffffffffffffffffff166349403183846000604051602001526040518263ffffffff167c010000000000000000000000000000000000000000000000000000000002815260040180828152602001915050602060405180830381600087803b151561311a57600080fd5b6102c65a03f1151561312b57600080fd5b505050604051805190501561329a5761314384612f48565b8160016000866040518082805190602001908083835b60208310151561317e5780518252602082019150602081019050602083039250613159565b6001836020036101000a03801982511681845116808217855250505050505090500191505060405180910390206000191660001916815260200190815260200160002060020160008282540192505081905550827f0596bd84e3e7dc311a8d2e32425107e3c27acef96831b8cf2a2abcae2609461f60405160405180910390a280151561329557836040518082805190602001908083835b60208310151561323b5780518252602082019150602081019050602083039250613216565b6001836020036101000a03801982511681845116808217855250505050505090500191505060405180910390207f58ddad8b1a00433731351f54c4d99e3e58cb0de46f368fb7105233537113eabc60405160405180910390a25b613523565b6132a384612cc7565b600260009054906101000a900473ffffffffffffffffffffffffffffffffffffffff1673ffffffffffffffffffffffffffffffffffffffff1663a9059cbb60008086815260200190815260200160002060010160009054906101000a900473ffffffffffffffffffffffffffffffffffffffff16846000604051602001526040518363ffffffff167c0100000000000000000000000000000000000000000000000000000000028152600401808373ffffffffffffffffffffffffffffffffffffffff1673ffffffffffffffffffffffffffffffffffffffff16815260200182815260200192505050602060405180830381600087803b15156133a557600080fd5b6102c65a03f115156133b657600080fd5b5050506040518051905015156133cb57600080fd5b827f88e47f2988d22858b92549596d2d6a57f107680fc7dc7dcf9dc52a06159e268c60405160405180910390a2801561349257836040518082805190602001908083835b602083101515613434578051825260208201915060208101905060208303925061340f565b6001836020036101000a03801982511681845116808217855250505050505090500191505060405180910390207ffd11b58848f7f6c4037f5a3999c7009884b92a7e0c98fcd20f5d2e849e5158a860405160405180910390a2613522565b836040518082805190602001908083835b6020831015156134c857805182526020820191506020810190506020830392506134a3565b6001836020036101000a03801982511681845116808217855250505050505090500191505060405180910390207ff340a3b60cc69f7c29601c3a7343999504e72a3c96b1ce820aded7352e03feb660405160405180910390a25b5b600160008085815260200190815260200160002060010160146101000a81548160ff021916908315150217905550600360009054906101000a900473ffffffffffffffffffffffffffffffffffffffff1673ffffffffffffffffffffffffffffffffffffffff1663053e71a6846000604051602001526040518263ffffffff167c010000000000000000000000000000000000000000000000000000000002815260040180828152602001915050602060405180830381600087803b15156135ea57600080fd5b6102c65a03f115156135fb57600080fd5b5050506040518051905060008085815260200190815260200160002060030181905550505050505600a165627a7a72305820c8f8b9c90fad599b84777e49f114fb996a4e49cbe69e7f4985928262c15564b40029",
  "source": "pragma solidity ^0.4.18;\r\n\r\nimport \"./lib/tokens/contracts/eip20/EIP20.sol\";\r\nimport \"./Parameterizer.sol\";\r\nimport \"./PLCRVoting.sol\";\r\n\r\ncontract Registry {\r\n\r\n    // ------\r\n    // EVENTS\r\n    // ------\r\n\r\n    event _Application(string  indexed moduleName, uint indexed deposit, string data);\r\n    event _Challenge(string  indexed moduleName, uint indexed deposit, uint indexed pollID, string data);\r\n    event _Deposit(string  indexed moduleName, uint indexed added, uint indexed newTotal);\r\n    event _Withdrawal(string  indexed moduleName, uint indexed withdrew, uint indexed newTotal);\r\n    event _NewListingWhitelisted(string  indexed moduleName);\r\n    event _ApplicationRemoved(string  indexed moduleName);\r\n    event _ListingRemoved(string  indexed moduleName);\r\n    event _ChallengeFailed(uint indexed challengeID);\r\n    event _ChallengeSucceeded(uint indexed challengeID);\r\n    event _RewardClaimed(address indexed voter, uint indexed challengeID, uint indexed reward);\r\n\r\n    struct Listing {\r\n        uint applicationExpiry; // Expiration date of apply stage\r\n        bool whitelisted;       // Indicates registry status\r\n        address owner;          // Owner of Listing\r\n        uint unstakedDeposit;   // Number of tokens in the listing not locked in a challenge\r\n        uint challengeID;       // Corresponds to a PollID in PLCRVoting\r\n    }\r\n\r\n    struct Challenge {\r\n        uint rewardPool;        // (remaining) Pool of tokens to be distributed to winning voters\r\n        address challenger;     // Owner of Challenge\r\n        bool resolved;          // Indication of if challenge is resolved\r\n        uint stake;             // Number of tokens at stake for either party during challenge\r\n        uint totalTokens;       // (remaining) Number of tokens used in voting by the winning side\r\n        mapping(address => bool) tokenClaims; // Indicates whether a voter has claimed a reward yet\r\n    }\r\n\r\n    // Maps challengeIDs to associated challenge data\r\n    mapping(uint => Challenge) public challenges;\r\n\r\n    // Maps moduleNamees to associated moduleName data\r\n    mapping(bytes32 => Listing) public listings;\r\n\r\n    // Global Variables\r\n    EIP20 public token;\r\n    PLCRVoting public voting;\r\n    Parameterizer public parameterizer;\r\n    string public version = \"1\";\r\n\r\n    // ------------\r\n    // CONSTRUCTOR:\r\n    // ------------\r\n\r\n    /**\r\n    @dev Contructor         Sets the addresses for token, voting, and parameterizer\r\n    @param _tokenAddr       Address of the TCR's intrinsic ERC20 token\r\n    @param _plcrAddr        Address of a PLCR voting contract for the provided token\r\n    @param _paramsAddr      Address of a Parameterizer contract \r\n    */\r\n    function Registry(address _tokenAddr, address _plcrAddr, address _paramsAddr) public {\r\n        token = EIP20(_tokenAddr);\r\n        voting = PLCRVoting(_plcrAddr);\r\n        parameterizer = Parameterizer(_paramsAddr);\r\n    }\r\n\r\n    // --------------------\r\n    // PUBLISHER INTERFACE:\r\n    // --------------------\r\n\r\n    /**\r\n    @dev                Allows a user to start an application. Takes tokens from user and sets apply stage end time.\r\n    @param _moduleName  The moduleName of a potential listing a user is applying to add to the registry\r\n    @param _amount      The number of ERC20 tokens a user is willing to potentially stake\r\n    @param _data        Extra data relevant to the application. Think IPFS hashes.\r\n    */\r\n    function apply(string _moduleName, uint _amount, string _data) external {\r\n        require(token.balanceOf(msg.sender) >= _amount);\r\n        require(!isWhitelisted(_moduleName));\r\n        require(!appWasMade(_moduleName));\r\n        require(_amount >= parameterizer.get(\"minDeposit\"));\r\n\r\n        // Sets owner\r\n        Listing storage listing = listings[keccak256(_moduleName)];\r\n        listing.owner = msg.sender;\r\n\r\n        // Transfers tokens from user to Registry contract\r\n        require(token.transferFrom(listing.owner, this, _amount));\r\n\r\n        // Sets apply stage end time\r\n        listing.applicationExpiry = block.timestamp + parameterizer.get(\"applyStageLen\");\r\n        listing.unstakedDeposit = _amount;\r\n\r\n        _Application(_moduleName, _amount, _data);\r\n    }\r\n\r\n    /**\r\n    @dev                Allows the owner of a moduleName to increase their unstaked deposit.\r\n    @param _moduleName  A moduleName msg.sender is the owner of\r\n    @param _amount      The number of ERC20 tokens to increase a user's unstaked deposit\r\n    */\r\n    function deposit(string _moduleName, uint _amount) external {\r\n        Listing storage listing = listings[keccak256(_moduleName)];\r\n\r\n        require(listing.owner == msg.sender);\r\n        require(token.transferFrom(msg.sender, this, _amount));\r\n\r\n        listing.unstakedDeposit += _amount;\r\n\r\n        _Deposit(_moduleName, _amount, listing.unstakedDeposit);\r\n    }\r\n\r\n    /**\r\n    @dev                Allows the owner of a moduleName to decrease their unstaked deposit.\r\n    @param _moduleName  A moduleName msg.sender is the owner of.\r\n    @param _amount      The number of ERC20 tokens to withdraw from the unstaked deposit.\r\n    */\r\n    function withdraw(string _moduleName, uint _amount) external {\r\n        Listing storage listing = listings[keccak256(_moduleName)];\r\n\r\n        require(listing.owner == msg.sender);\r\n        require(_amount <= listing.unstakedDeposit);\r\n        require(listing.unstakedDeposit - _amount >= parameterizer.get(\"minDeposit\"));\r\n\r\n        require(token.transfer(msg.sender, _amount));\r\n\r\n        listing.unstakedDeposit -= _amount;\r\n\r\n        _Withdrawal(_moduleName, _amount, listing.unstakedDeposit);\r\n    }\r\n\r\n    /**\r\n    @dev                Allows the owner of a moduleName to remove the moduleName from the whitelist\r\n                        Returns all tokens to the owner of the moduleName\r\n    @param _moduleName  A moduleName msg.sender is the owner of.\r\n    */\r\n    function exit(string _moduleName) external {\r\n        Listing storage listing = listings[keccak256(_moduleName)];\r\n\r\n        require(msg.sender == listing.owner);\r\n        require(isWhitelisted(_moduleName));\r\n\r\n        // Cannot exit during ongoing challenge\r\n        require(listing.challengeID == 0 || challenges[listing.challengeID].resolved);\r\n\r\n        // Remove moduleName & return tokens\r\n        resetListing(_moduleName);\r\n    }\r\n\r\n    // -----------------------\r\n    // TOKEN HOLDER INTERFACE:\r\n    // -----------------------\r\n\r\n    /**\r\n    @dev                Starts a poll for a moduleName which is either in the apply stage or\r\n                        already in the whitelist. Tokens are taken from the challenger and the\r\n                        applicant's deposits are locked.\r\n    @param _moduleName  The moduleName being challenged, whether listed or in application\r\n    @param _data        Extra data relevant to the challenge. Think IPFS hashes.\r\n    */\r\n    function challenge(string _moduleName, string _data) external returns (uint challengeID) {\r\n        Listing storage listing = listings[keccak256(_moduleName)];\r\n        uint deposit = parameterizer.get(\"minDeposit\");\r\n\r\n        // Listing must be in apply stage or already on the whitelist\r\n        require(appWasMade(_moduleName) || listing.whitelisted);\r\n        // Prevent multiple challenges\r\n        require(listing.challengeID == 0 || challenges[listing.challengeID].resolved);\r\n\r\n        if (listing.unstakedDeposit < deposit) {\r\n            // Not enough tokens, moduleName auto-delisted\r\n            resetListing(_moduleName);\r\n            return 0;\r\n        }\r\n\r\n        // Takes tokens from challenger\r\n        require(token.transferFrom(msg.sender, this, deposit));\r\n\r\n        // Starts poll\r\n        uint pollID = voting.startPoll(\r\n            parameterizer.get(\"voteQuorum\"),\r\n            parameterizer.get(\"commitStageLen\"),\r\n            parameterizer.get(\"revealStageLen\")\r\n        );\r\n\r\n        challenges[pollID] = Challenge({\r\n            challenger: msg.sender,\r\n            rewardPool: ((100 - parameterizer.get(\"dispensationPct\")) * deposit) / 100,\r\n            stake: deposit,\r\n            resolved: false,\r\n            totalTokens: 0\r\n        });\r\n\r\n        // Updates moduleName to store most recent challenge\r\n        listing.challengeID = pollID;\r\n\r\n        // Locks tokens for moduleName during challenge\r\n        listing.unstakedDeposit -= deposit;\r\n\r\n        _Challenge(_moduleName, deposit, pollID, _data);\r\n        return pollID;\r\n    }\r\n\r\n    /**\r\n    @dev                Updates a moduleName's status from 'application' to 'listing' or resolves a challenge if one exists.\r\n    @param _moduleName  The moduleName whose status is being updated\r\n    */\r\n    function updateStatus(string _moduleName) public {\r\n        if (canBeWhitelisted(_moduleName)) {\r\n            whitelistApplication(_moduleName);\r\n            _NewListingWhitelisted(_moduleName);\r\n        } else if (challengeCanBeResolved(_moduleName)) {\r\n            resolveChallenge(_moduleName);\r\n        } else {\r\n            revert();\r\n        }\r\n    }\r\n\r\n    // ----------------\r\n    // TOKEN FUNCTIONS:\r\n    // ----------------\r\n\r\n    /**\r\n    @dev                Called by a voter to claim their reward for each completed vote. Someone must call updateStatus() before this can be called.\r\n    @param _challengeID The PLCR pollID of the challenge a reward is being claimed for\r\n    @param _salt        The salt of a voter's commit hash in the given poll\r\n    */\r\n    function claimReward(uint _challengeID, uint _salt) public {\r\n        // Ensures the voter has not already claimed tokens and challenge results have been processed\r\n        require(challenges[_challengeID].tokenClaims[msg.sender] == false);\r\n        require(challenges[_challengeID].resolved == true);\r\n\r\n        uint voterTokens = voting.getNumPassingTokens(msg.sender, _challengeID, _salt);\r\n        uint reward = voterReward(msg.sender, _challengeID, _salt);\r\n\r\n        // Subtracts the voter's information to preserve the participation ratios\r\n        // of other voters compared to the remaining pool of rewards\r\n        challenges[_challengeID].totalTokens -= voterTokens;\r\n        challenges[_challengeID].rewardPool -= reward;\r\n\r\n        require(token.transfer(msg.sender, reward));\r\n\r\n        // Ensures a voter cannot claim tokens again\r\n        challenges[_challengeID].tokenClaims[msg.sender] = true;\r\n\r\n        _RewardClaimed(msg.sender, _challengeID, reward);\r\n    }\r\n\r\n    // --------\r\n    // GETTERS:\r\n    // --------\r\n\r\n    /**\r\n    @dev                Calculates the provided voter's token reward for the given poll.\r\n    @param _voter       The address of the voter whose reward balance is to be returned\r\n    @param _challengeID The pollID of the challenge a reward balance is being queried for\r\n    @param _salt        The salt of the voter's commit hash in the given poll\r\n    @return             The uint indicating the voter's reward\r\n    */\r\n    function voterReward(address _voter, uint _challengeID, uint _salt) public view returns (uint) {\r\n        uint totalTokens = challenges[_challengeID].totalTokens;\r\n        uint rewardPool = challenges[_challengeID].rewardPool;\r\n        uint voterTokens = voting.getNumPassingTokens(_voter, _challengeID, _salt);\r\n        return (voterTokens * rewardPool) / totalTokens;\r\n    }\r\n\r\n    /**\r\n    @dev                Determines whether the given moduleName be whitelisted.\r\n    @param _moduleName  The moduleName whose status is to be examined\r\n    */\r\n    function canBeWhitelisted(string _moduleName) view public returns (bool) {\r\n        bytes32 moduleNameHash = keccak256(_moduleName);\r\n        uint challengeID = listings[moduleNameHash].challengeID;\r\n\r\n        // Ensures that the application was made,\r\n        // the application period has ended,\r\n        // the moduleName can be whitelisted,\r\n        // and either: the challengeID == 0, or the challenge has been resolved.\r\n        if (appWasMade(_moduleName) && listings[moduleNameHash].applicationExpiry < now && !isWhitelisted(_moduleName) && (challengeID == 0 || challenges[challengeID].resolved == true)) { \r\n            return true;\r\n        }\r\n\r\n        return false;\r\n    }\r\n\r\n    /**\r\n    @dev                Returns true if the provided moduleName is whitelisted\r\n    @param _moduleName  The moduleName whose status is to be examined\r\n    */\r\n    function isWhitelisted(string _moduleName) view public returns (bool whitelisted) {\r\n        return listings[keccak256(_moduleName)].whitelisted;\r\n    }\r\n\r\n    /**\r\n    @dev                Returns true if apply was called for this moduleName\r\n    @param _moduleName  The moduleName whose status is to be examined\r\n    */\r\n    function appWasMade(string _moduleName) view public returns (bool exists) {\r\n        return listings[keccak256(_moduleName)].applicationExpiry > 0;\r\n    }\r\n\r\n    /**\r\n    @dev                Returns true if the application/moduleName has an unresolved challenge\r\n    @param _moduleName  The moduleName whose status is to be examined\r\n    */\r\n    function challengeExists(string _moduleName) view public returns (bool) {\r\n        uint challengeID = listings[keccak256(_moduleName)].challengeID;\r\n        return (listings[keccak256(_moduleName)].challengeID > 0 && !challenges[challengeID].resolved);\r\n    }\r\n\r\n    /**\r\n    @dev                Determines whether voting has concluded in a challenge for a given moduleName. Throws if no challenge exists.\r\n    @param _moduleName  A moduleName with an unresolved challenge\r\n    */\r\n    function challengeCanBeResolved(string _moduleName) view public returns (bool) {\r\n        uint challengeID = listings[keccak256(_moduleName)].challengeID;\r\n        require(challengeExists(_moduleName));\r\n        return voting.pollEnded(challengeID);\r\n    }\r\n\r\n    /**\r\n    @dev                Determines the number of tokens awarded to the winning party in a challenge.\r\n    @param _challengeID The challengeID to determine a reward for\r\n    */\r\n    function determineReward(uint _challengeID) public view returns (uint) {\r\n        require(!challenges[_challengeID].resolved && voting.pollEnded(_challengeID));\r\n\r\n        // Edge case, nobody voted, give all tokens to the challenger.\r\n        if (voting.getTotalNumberOfTokensForWinningOption(_challengeID) == 0) {\r\n            return 2 * challenges[_challengeID].stake;\r\n        }\r\n\r\n        return (2 * challenges[_challengeID].stake) - challenges[_challengeID].rewardPool;\r\n    }\r\n\r\n    /**\r\n    @dev                Getter for Challenge tokenClaims mappings\r\n    @param _challengeID The challengeID to query\r\n    @param _voter       The voter whose claim status to query for the provided challengeID\r\n    */\r\n    function tokenClaims(uint _challengeID, address _voter) public view returns (bool) {\r\n        return challenges[_challengeID].tokenClaims[_voter];\r\n    }\r\n\r\n    // ----------------\r\n    // PRIVATE FUNCTIONS:\r\n    // ----------------\r\n\r\n    /**\r\n    @dev                Determines the winner in a challenge. Rewards the winner tokens and\r\n                        either whitelists or de-whitelists the moduleName.\r\n    @param _moduleName A moduleName with a challenge that is to be resolved\r\n    */\r\n    function resolveChallenge(string _moduleName) private {\r\n        uint challengeID = listings[keccak256(_moduleName)].challengeID;\r\n\r\n        // Calculates the winner's reward, which is:\r\n        // (winner's full stake) + (dispensationPct * loser's stake)\r\n        uint reward = determineReward(challengeID);\r\n\r\n        // Records whether the moduleName is a moduleName or an application\r\n        bool wasWhitelisted = isWhitelisted(_moduleName);\r\n\r\n        // Case: challenge failed\r\n        if (voting.isPassed(challengeID)) {\r\n            whitelistApplication(_moduleName);\r\n            // Unlock stake so that it can be retrieved by the applicant\r\n            listings[keccak256(_moduleName)].unstakedDeposit += reward;\r\n\r\n            _ChallengeFailed(challengeID);\r\n            if (!wasWhitelisted) {\r\n                _NewListingWhitelisted(_moduleName);\r\n            }\r\n        } else {\r\n            // Case: challenge succeeded\r\n            resetListing(_moduleName);\r\n            // Transfer the reward to the challenger\r\n            require(token.transfer(challenges[challengeID].challenger, reward));\r\n\r\n            _ChallengeSucceeded(challengeID);\r\n            if (wasWhitelisted) {\r\n                _ListingRemoved(_moduleName);\r\n            } else { \r\n                _ApplicationRemoved(_moduleName);\r\n            }\r\n        }\r\n\r\n        // Sets flag on challenge being processed\r\n        challenges[challengeID].resolved = true;\r\n\r\n        // Stores the total tokens used for voting by the winning side for reward purposes\r\n        challenges[challengeID].totalTokens = voting.getTotalNumberOfTokensForWinningOption(challengeID);\r\n    }\r\n\r\n    /**\r\n    @dev                Called by updateStatus() if the applicationExpiry date passed without a\r\n                        challenge being made. Called by resolveChallenge() if an\r\n                        application/listing beat a challenge.\r\n    @param _moduleName  The moduleName of an application/moduleName to be whitelisted\r\n    */\r\n    function whitelistApplication(string _moduleName) private {\r\n        listings[keccak256(_moduleName)].whitelisted = true;\r\n    }\r\n\r\n    /**\r\n    @dev                Deletes a moduleName from the whitelist and transfers tokens back to owner\r\n    @param _moduleName  The listing hash to delete\r\n    */\r\n    function resetListing(string _moduleName) private {\r\n        Listing storage listing = listings[keccak256(_moduleName)];\r\n\r\n        // Transfers any remaining balance back to the owner\r\n        if (listing.unstakedDeposit > 0)\r\n            require(token.transfer(listing.owner, listing.unstakedDeposit));\r\n\r\n        delete listings[keccak256(_moduleName)];\r\n    }\r\n}",
  "sourcePath": "C:\\Users\\CryptoMonk\\Documents\\Projects\\DeconetRegistry\\contracts\\Registry.sol",
  "compiler": {
    "name": "solc",
    "version": "0.4.19+commit.c4cbbb05.Emscripten.clang"
  },
  "schemaVersion": "1.0.1",
  "updatedAt": "2018-02-13T12:10:54.268Z"
}