{
  "contractName": "Registry",
  "abi": [
    {
      "constant": true,
      "inputs": [],
      "name": "name",
      "outputs": [
        {
          "name": "",
          "type": "string"
        }
      ],
      "payable": false,
      "stateMutability": "view",
      "type": "function"
    },
    {
      "constant": true,
      "inputs": [],
      "name": "version",
      "outputs": [
        {
          "name": "",
          "type": "string"
        }
      ],
      "payable": false,
      "stateMutability": "view",
      "type": "function"
    },
    {
      "constant": true,
      "inputs": [
        {
          "name": "",
          "type": "uint256"
        }
      ],
      "name": "challenges",
      "outputs": [
        {
          "name": "rewardPool",
          "type": "uint256"
        },
        {
          "name": "challenger",
          "type": "address"
        },
        {
          "name": "resolved",
          "type": "bool"
        },
        {
          "name": "stake",
          "type": "uint256"
        },
        {
          "name": "totalTokens",
          "type": "uint256"
        }
      ],
      "payable": false,
      "stateMutability": "view",
      "type": "function"
    },
    {
      "constant": true,
      "inputs": [
        {
          "name": "",
          "type": "bytes32"
        }
      ],
      "name": "listings",
      "outputs": [
        {
          "name": "applicationExpiry",
          "type": "uint256"
        },
        {
          "name": "whitelisted",
          "type": "bool"
        },
        {
          "name": "owner",
          "type": "address"
        },
        {
          "name": "unstakedDeposit",
          "type": "uint256"
        },
        {
          "name": "challengeID",
          "type": "uint256"
        }
      ],
      "payable": false,
      "stateMutability": "view",
      "type": "function"
    },
    {
      "constant": true,
      "inputs": [],
      "name": "parameterizer",
      "outputs": [
        {
          "name": "",
          "type": "address"
        }
      ],
      "payable": false,
      "stateMutability": "view",
      "type": "function"
    },
    {
      "constant": true,
      "inputs": [],
      "name": "token",
      "outputs": [
        {
          "name": "",
          "type": "address"
        }
      ],
      "payable": false,
      "stateMutability": "view",
      "type": "function"
    },
    {
      "constant": true,
      "inputs": [],
      "name": "voting",
      "outputs": [
        {
          "name": "",
          "type": "address"
        }
      ],
      "payable": false,
      "stateMutability": "view",
      "type": "function"
    },
    {
      "inputs": [
        {
          "name": "_tokenAddr",
          "type": "address"
        },
        {
          "name": "_plcrAddr",
          "type": "address"
        },
        {
          "name": "_paramsAddr",
          "type": "address"
        },
        {
          "name": "_name",
          "type": "string"
        }
      ],
      "payable": false,
      "stateMutability": "nonpayable",
      "type": "constructor"
    },
    {
      "anonymous": false,
      "inputs": [
        {
          "indexed": true,
          "name": "listingHash",
          "type": "bytes32"
        },
        {
          "indexed": false,
          "name": "deposit",
          "type": "uint256"
        },
        {
          "indexed": false,
          "name": "appEndDate",
          "type": "uint256"
        },
        {
          "indexed": false,
          "name": "data",
          "type": "string"
        }
      ],
      "name": "_Application",
      "type": "event"
    },
    {
      "anonymous": false,
      "inputs": [
        {
          "indexed": true,
          "name": "listingHash",
          "type": "bytes32"
        },
        {
          "indexed": false,
          "name": "challengeID",
          "type": "uint256"
        },
        {
          "indexed": false,
          "name": "data",
          "type": "string"
        },
        {
          "indexed": false,
          "name": "commitEndDate",
          "type": "uint256"
        },
        {
          "indexed": false,
          "name": "revealEndDate",
          "type": "uint256"
        }
      ],
      "name": "_Challenge",
      "type": "event"
    },
    {
      "anonymous": false,
      "inputs": [
        {
          "indexed": true,
          "name": "listingHash",
          "type": "bytes32"
        },
        {
          "indexed": false,
          "name": "added",
          "type": "uint256"
        },
        {
          "indexed": false,
          "name": "newTotal",
          "type": "uint256"
        }
      ],
      "name": "_Deposit",
      "type": "event"
    },
    {
      "anonymous": false,
      "inputs": [
        {
          "indexed": true,
          "name": "listingHash",
          "type": "bytes32"
        },
        {
          "indexed": false,
          "name": "withdrew",
          "type": "uint256"
        },
        {
          "indexed": false,
          "name": "newTotal",
          "type": "uint256"
        }
      ],
      "name": "_Withdrawal",
      "type": "event"
    },
    {
      "anonymous": false,
      "inputs": [
        {
          "indexed": true,
          "name": "listingHash",
          "type": "bytes32"
        }
      ],
      "name": "_ApplicationWhitelisted",
      "type": "event"
    },
    {
      "anonymous": false,
      "inputs": [
        {
          "indexed": true,
          "name": "listingHash",
          "type": "bytes32"
        }
      ],
      "name": "_ApplicationRemoved",
      "type": "event"
    },
    {
      "anonymous": false,
      "inputs": [
        {
          "indexed": true,
          "name": "listingHash",
          "type": "bytes32"
        }
      ],
      "name": "_ListingRemoved",
      "type": "event"
    },
    {
      "anonymous": false,
      "inputs": [
        {
          "indexed": true,
          "name": "listingHash",
          "type": "bytes32"
        }
      ],
      "name": "_ListingWithdrawn",
      "type": "event"
    },
    {
      "anonymous": false,
      "inputs": [
        {
          "indexed": true,
          "name": "listingHash",
          "type": "bytes32"
        }
      ],
      "name": "_TouchAndRemoved",
      "type": "event"
    },
    {
      "anonymous": false,
      "inputs": [
        {
          "indexed": true,
          "name": "listingHash",
          "type": "bytes32"
        },
        {
          "indexed": true,
          "name": "challengeID",
          "type": "uint256"
        },
        {
          "indexed": false,
          "name": "rewardPool",
          "type": "uint256"
        },
        {
          "indexed": false,
          "name": "totalTokens",
          "type": "uint256"
        }
      ],
      "name": "_ChallengeFailed",
      "type": "event"
    },
    {
      "anonymous": false,
      "inputs": [
        {
          "indexed": true,
          "name": "listingHash",
          "type": "bytes32"
        },
        {
          "indexed": true,
          "name": "challengeID",
          "type": "uint256"
        },
        {
          "indexed": false,
          "name": "rewardPool",
          "type": "uint256"
        },
        {
          "indexed": false,
          "name": "totalTokens",
          "type": "uint256"
        }
      ],
      "name": "_ChallengeSucceeded",
      "type": "event"
    },
    {
      "anonymous": false,
      "inputs": [
        {
          "indexed": true,
          "name": "challengeID",
          "type": "uint256"
        },
        {
          "indexed": false,
          "name": "reward",
          "type": "uint256"
        }
      ],
      "name": "_RewardClaimed",
      "type": "event"
    },
    {
      "constant": false,
      "inputs": [
        {
          "name": "_listingHash",
          "type": "bytes32"
        },
        {
          "name": "_amount",
          "type": "uint256"
        },
        {
          "name": "_data",
          "type": "string"
        }
      ],
      "name": "apply",
      "outputs": [],
      "payable": false,
      "stateMutability": "nonpayable",
      "type": "function"
    },
    {
      "constant": false,
      "inputs": [
        {
          "name": "_listingHash",
          "type": "bytes32"
        },
        {
          "name": "_amount",
          "type": "uint256"
        }
      ],
      "name": "deposit",
      "outputs": [],
      "payable": false,
      "stateMutability": "nonpayable",
      "type": "function"
    },
    {
      "constant": false,
      "inputs": [
        {
          "name": "_listingHash",
          "type": "bytes32"
        },
        {
          "name": "_amount",
          "type": "uint256"
        }
      ],
      "name": "withdraw",
      "outputs": [],
      "payable": false,
      "stateMutability": "nonpayable",
      "type": "function"
    },
    {
      "constant": false,
      "inputs": [
        {
          "name": "_listingHash",
          "type": "bytes32"
        }
      ],
      "name": "exit",
      "outputs": [],
      "payable": false,
      "stateMutability": "nonpayable",
      "type": "function"
    },
    {
      "constant": false,
      "inputs": [
        {
          "name": "_listingHash",
          "type": "bytes32"
        },
        {
          "name": "_data",
          "type": "string"
        }
      ],
      "name": "challenge",
      "outputs": [
        {
          "name": "challengeID",
          "type": "uint256"
        }
      ],
      "payable": false,
      "stateMutability": "nonpayable",
      "type": "function"
    },
    {
      "constant": false,
      "inputs": [
        {
          "name": "_listingHash",
          "type": "bytes32"
        }
      ],
      "name": "updateStatus",
      "outputs": [],
      "payable": false,
      "stateMutability": "nonpayable",
      "type": "function"
    },
    {
      "constant": false,
      "inputs": [
        {
          "name": "_challengeID",
          "type": "uint256"
        },
        {
          "name": "_salt",
          "type": "uint256"
        }
      ],
      "name": "claimReward",
      "outputs": [],
      "payable": false,
      "stateMutability": "nonpayable",
      "type": "function"
    },
    {
      "constant": true,
      "inputs": [
        {
          "name": "_voter",
          "type": "address"
        },
        {
          "name": "_challengeID",
          "type": "uint256"
        },
        {
          "name": "_salt",
          "type": "uint256"
        }
      ],
      "name": "voterReward",
      "outputs": [
        {
          "name": "",
          "type": "uint256"
        }
      ],
      "payable": false,
      "stateMutability": "view",
      "type": "function"
    },
    {
      "constant": true,
      "inputs": [
        {
          "name": "_listingHash",
          "type": "bytes32"
        }
      ],
      "name": "canBeWhitelisted",
      "outputs": [
        {
          "name": "",
          "type": "bool"
        }
      ],
      "payable": false,
      "stateMutability": "view",
      "type": "function"
    },
    {
      "constant": true,
      "inputs": [
        {
          "name": "_listingHash",
          "type": "bytes32"
        }
      ],
      "name": "isWhitelisted",
      "outputs": [
        {
          "name": "whitelisted",
          "type": "bool"
        }
      ],
      "payable": false,
      "stateMutability": "view",
      "type": "function"
    },
    {
      "constant": true,
      "inputs": [
        {
          "name": "_listingHash",
          "type": "bytes32"
        }
      ],
      "name": "appWasMade",
      "outputs": [
        {
          "name": "exists",
          "type": "bool"
        }
      ],
      "payable": false,
      "stateMutability": "view",
      "type": "function"
    },
    {
      "constant": true,
      "inputs": [
        {
          "name": "_listingHash",
          "type": "bytes32"
        }
      ],
      "name": "challengeExists",
      "outputs": [
        {
          "name": "",
          "type": "bool"
        }
      ],
      "payable": false,
      "stateMutability": "view",
      "type": "function"
    },
    {
      "constant": true,
      "inputs": [
        {
          "name": "_listingHash",
          "type": "bytes32"
        }
      ],
      "name": "challengeCanBeResolved",
      "outputs": [
        {
          "name": "",
          "type": "bool"
        }
      ],
      "payable": false,
      "stateMutability": "view",
      "type": "function"
    },
    {
      "constant": true,
      "inputs": [
        {
          "name": "_challengeID",
          "type": "uint256"
        }
      ],
      "name": "determineReward",
      "outputs": [
        {
          "name": "",
          "type": "uint256"
        }
      ],
      "payable": false,
      "stateMutability": "view",
      "type": "function"
    },
    {
      "constant": true,
      "inputs": [
        {
          "name": "_challengeID",
          "type": "uint256"
        },
        {
          "name": "_voter",
          "type": "address"
        }
      ],
      "name": "tokenClaims",
      "outputs": [
        {
          "name": "",
          "type": "bool"
        }
      ],
      "payable": false,
      "stateMutability": "view",
      "type": "function"
    }
  ],
  "bytecode": "0x60606040526040805190810160405280600181526020017f310000000000000000000000000000000000000000000000000000000000000081525060069080519060200190620000519291906200017d565b5034156200005e57600080fd5b60405162003093380380620030938339810160405280805190602001909190805190602001909190805190602001909190805182019190505083600260006101000a81548173ffffffffffffffffffffffffffffffffffffffff021916908373ffffffffffffffffffffffffffffffffffffffff16021790555082600360006101000a81548173ffffffffffffffffffffffffffffffffffffffff021916908373ffffffffffffffffffffffffffffffffffffffff16021790555081600460006101000a81548173ffffffffffffffffffffffffffffffffffffffff021916908373ffffffffffffffffffffffffffffffffffffffff1602179055508060059080519060200190620001729291906200017d565b50505050506200022c565b828054600181600116156101000203166002900490600052602060002090601f016020900481019282601f10620001c057805160ff1916838001178555620001f1565b82800160010185558215620001f1579182015b82811115620001f0578251825591602001919060010190620001d3565b5b50905062000200919062000204565b5090565b6200022991905b80821115620002255760008160009055506001016200020b565b5090565b90565b612e57806200023c6000396000f300606060405260043610610128576000357c0100000000000000000000000000000000000000000000000000000000900463ffffffff16806301a5e3fe1461012d578063040cf0201461016c57806306fdde031461019c5780630ca362631461022a5780631b7bbecb146102515780631de26e161461029057806343cffefe146102c057806354fd4d501461030f578063691a38ab1461039d57806377609a41146103dc57806386bb8f371461041b57806389bb55c7146104475780638a59eb561461048b5780638cf8151f146104b25780638f1d3776146104f1578063a5ba3b1e14610574578063a7aad3db146105ce578063c18b8db41461062d578063c8187cf1146106b4578063e1e3f915146106eb578063fc0c546a14610740578063fce1ccca14610795575b600080fd5b341561013857600080fd5b6101526004808035600019169060200190919050506107ea565b604051808215151515815260200191505060405180910390f35b341561017757600080fd5b61019a60048080356000191690602001909190803590602001909190505061081f565b005b34156101a757600080fd5b6101af610ae0565b6040518080602001828103825283818151815260200191508051906020019080838360005b838110156101ef5780820151818401526020810190506101d4565b50505050905090810190601f16801561021c5780820380516001836020036101000a031916815260200191505b509250505060405180910390f35b341561023557600080fd5b61024f600480803560001916906020019091905050610b7e565b005b341561025c57600080fd5b610276600480803560001916906020019091905050610c8e565b604051808215151515815260200191505060405180910390f35b341561029b57600080fd5b6102be600480803560001916906020019091908035906020019091905050610d08565b005b34156102cb57600080fd5b6102f96004808035600019169060200190919080359060200190820180359060200191909192905050610efe565b6040518082815260200191505060405180910390f35b341561031a57600080fd5b610322611836565b6040518080602001828103825283818151815260200191508051906020019080838360005b83811015610362578082015181840152602081019050610347565b50505050905090810190601f16801561038f5780820380516001836020036101000a031916815260200191505b509250505060405180910390f35b34156103a857600080fd5b6103c26004808035600019169060200190919050506118d4565b604051808215151515815260200191505060405180910390f35b34156103e757600080fd5b610401600480803560001916906020019091905050611992565b604051808215151515815260200191505060405180910390f35b341561042657600080fd5b6104456004808035906020019091908035906020019091905050611a79565b005b341561045257600080fd5b6104896004808035600019169060200190919080359060200190919080359060200190820180359060200191909192905050611dea565b005b341561049657600080fd5b6104b0600480803560001916906020019091905050612206565b005b34156104bd57600080fd5b6104d7600480803560001916906020019091905050612247565b604051808215151515815260200191505060405180910390f35b34156104fc57600080fd5b6105126004808035906020019091905050612271565b604051808681526020018573ffffffffffffffffffffffffffffffffffffffff1673ffffffffffffffffffffffffffffffffffffffff168152602001841515151581526020018381526020018281526020019550505050505060405180910390f35b341561057f57600080fd5b6105b4600480803590602001909190803573ffffffffffffffffffffffffffffffffffffffff169060200190919050506122d4565b604051808215151515815260200191505060405180910390f35b34156105d957600080fd5b610617600480803573ffffffffffffffffffffffffffffffffffffffff1690602001909190803590602001909190803590602001909190505061233e565b6040518082815260200191505060405180910390f35b341561063857600080fd5b610652600480803560001916906020019091905050612473565b60405180868152602001851515151581526020018473ffffffffffffffffffffffffffffffffffffffff1673ffffffffffffffffffffffffffffffffffffffff1681526020018381526020018281526020019550505050505060405180910390f35b34156106bf57600080fd5b6106d560048080359060200190919050506124d6565b6040518082815260200191505060405180910390f35b34156106f657600080fd5b6106fe6126bd565b604051808273ffffffffffffffffffffffffffffffffffffffff1673ffffffffffffffffffffffffffffffffffffffff16815260200191505060405180910390f35b341561074b57600080fd5b6107536126e3565b604051808273ffffffffffffffffffffffffffffffffffffffff1673ffffffffffffffffffffffffffffffffffffffff16815260200191505060405180910390f35b34156107a057600080fd5b6107a8612709565b604051808273ffffffffffffffffffffffffffffffffffffffff1673ffffffffffffffffffffffffffffffffffffffff16815260200191505060405180910390f35b600060016000836000191660001916815260200190815260200160002060010160009054906101000a900460ff169050919050565b600060016000846000191660001916815260200190815260200160002090503373ffffffffffffffffffffffffffffffffffffffff168160010160019054906101000a900473ffffffffffffffffffffffffffffffffffffffff1673ffffffffffffffffffffffffffffffffffffffff1614151561089c57600080fd5b806002015482111515156108af57600080fd5b600460009054906101000a900473ffffffffffffffffffffffffffffffffffffffff1673ffffffffffffffffffffffffffffffffffffffff1663693ec85e6040518163ffffffff167c010000000000000000000000000000000000000000000000000000000002815260040180806020018281038252600a8152602001807f6d696e4465706f73697400000000000000000000000000000000000000000000815250602001915050602060405180830381600087803b151561097057600080fd5b5af1151561097d57600080fd5b50505060405180519050828260020154031015151561099b57600080fd5b818160020160008282540392505081905550600260009054906101000a900473ffffffffffffffffffffffffffffffffffffffff1673ffffffffffffffffffffffffffffffffffffffff1663a9059cbb33846040518363ffffffff167c0100000000000000000000000000000000000000000000000000000000028152600401808373ffffffffffffffffffffffffffffffffffffffff1673ffffffffffffffffffffffffffffffffffffffff16815260200182815260200192505050602060405180830381600087803b1515610a7157600080fd5b5af11515610a7e57600080fd5b505050604051805190501515610a9357600080fd5b82600019167febf81d30de8bdb30e2a07a5e34bd7c1b843c5b9674b224113cc6cee0d8571c92838360020154604051808381526020018281526020019250505060405180910390a2505050565b60058054600181600116156101000203166002900480601f016020809104026020016040519081016040528092919081815260200182805460018160011615610100020316600290048015610b765780601f10610b4b57610100808354040283529160200191610b76565b820191906000526020600020905b815481529060010190602001808311610b5957829003601f168201915b505050505081565b600060016000836000191660001916815260200190815260200160002090508060010160019054906101000a900473ffffffffffffffffffffffffffffffffffffffff1673ffffffffffffffffffffffffffffffffffffffff163373ffffffffffffffffffffffffffffffffffffffff16141515610bfb57600080fd5b610c04826107ea565b1515610c0f57600080fd5b600081600301541480610c4557506000808260030154815260200190815260200160002060010160149054906101000a900460ff165b1515610c5057600080fd5b610c598261272f565b81600019167f8a51904a50ce4451be09dc08242bd2d5565b05cf0f4f5aa88c77f96fdf538b4260405160405180910390a25050565b600080600160008460001916600019168152602001908152602001600020600301549050600060016000856000191660001916815260200190815260200160002060030154118015610d00575060008082815260200190815260200160002060010160149054906101000a900460ff16155b915050919050565b600060016000846000191660001916815260200190815260200160002090503373ffffffffffffffffffffffffffffffffffffffff168160010160019054906101000a900473ffffffffffffffffffffffffffffffffffffffff1673ffffffffffffffffffffffffffffffffffffffff16141515610d8557600080fd5b818160020160008282540192505081905550600260009054906101000a900473ffffffffffffffffffffffffffffffffffffffff1673ffffffffffffffffffffffffffffffffffffffff166323b872dd3330856040518463ffffffff167c0100000000000000000000000000000000000000000000000000000000028152600401808473ffffffffffffffffffffffffffffffffffffffff1673ffffffffffffffffffffffffffffffffffffffff1681526020018373ffffffffffffffffffffffffffffffffffffffff1673ffffffffffffffffffffffffffffffffffffffff1681526020018281526020019350505050602060405180830381600087803b1515610e8f57600080fd5b5af11515610e9c57600080fd5b505050604051805190501515610eb157600080fd5b82600019167f77e303d2327bb214eb0f6441b799c7b1de3cea010185c2a27a60cbd774e590c2838360020154604051808381526020018281526020019250505060405180910390a2505050565b600080600080600080600160008a600019166000191681526020019081526020016000209450600460009054906101000a900473ffffffffffffffffffffffffffffffffffffffff1673ffffffffffffffffffffffffffffffffffffffff1663693ec85e6040518163ffffffff167c010000000000000000000000000000000000000000000000000000000002815260040180806020018281038252600a8152602001807f6d696e4465706f73697400000000000000000000000000000000000000000000815250602001915050602060405180830381600087803b1515610fe557600080fd5b5af11515610ff257600080fd5b50505060405180519050935061100789612247565b8061102057508460010160009054906101000a900460ff165b151561102b57600080fd5b60008560030154148061106157506000808660030154815260200190815260200160002060010160149054906101000a900460ff165b151561106c57600080fd5b83856002015410156110bb576110818961272f565b88600019167f4a9ee335af9e32f32f2229943dc7a0d3b5adf7e4c5c4062b372eae8c476d928660405160405180910390a26000955061182a565b600360009054906101000a900473ffffffffffffffffffffffffffffffffffffffff1673ffffffffffffffffffffffffffffffffffffffff166332ed3d60600460009054906101000a900473ffffffffffffffffffffffffffffffffffffffff1673ffffffffffffffffffffffffffffffffffffffff1663693ec85e6040518163ffffffff167c010000000000000000000000000000000000000000000000000000000002815260040180806020018281038252600a8152602001807f766f746551756f72756d00000000000000000000000000000000000000000000815250602001915050602060405180830381600087803b15156111ba57600080fd5b5af115156111c757600080fd5b50505060405180519050600460009054906101000a900473ffffffffffffffffffffffffffffffffffffffff1673ffffffffffffffffffffffffffffffffffffffff1663693ec85e6040518163ffffffff167c010000000000000000000000000000000000000000000000000000000002815260040180806020018281038252600e8152602001807f636f6d6d697453746167654c656e000000000000000000000000000000000000815250602001915050602060405180830381600087803b151561129257600080fd5b5af1151561129f57600080fd5b50505060405180519050600460009054906101000a900473ffffffffffffffffffffffffffffffffffffffff1673ffffffffffffffffffffffffffffffffffffffff1663693ec85e6040518163ffffffff167c010000000000000000000000000000000000000000000000000000000002815260040180806020018281038252600e8152602001807f72657665616c53746167654c656e000000000000000000000000000000000000815250602001915050602060405180830381600087803b151561136a57600080fd5b5af1151561137757600080fd5b505050604051805190506040518463ffffffff167c0100000000000000000000000000000000000000000000000000000000028152600401808481526020018381526020018281526020019350505050602060405180830381600087803b15156113e057600080fd5b5af115156113ed57600080fd5b50505060405180519050925060a060405190810160405280606486600460009054906101000a900473ffffffffffffffffffffffffffffffffffffffff1673ffffffffffffffffffffffffffffffffffffffff1663693ec85e6040518163ffffffff167c010000000000000000000000000000000000000000000000000000000002815260040180806020018281038252600f8152602001807f64697370656e736174696f6e5063740000000000000000000000000000000000815250602001915050602060405180830381600087803b15156114c957600080fd5b5af115156114d657600080fd5b50505060405180519050606403028115156114ed57fe5b0481526020013373ffffffffffffffffffffffffffffffffffffffff16815260200160001515815260200185815260200160008152506000808581526020019081526020016000206000820151816000015560208201518160010160006101000a81548173ffffffffffffffffffffffffffffffffffffffff021916908373ffffffffffffffffffffffffffffffffffffffff16021790555060408201518160010160146101000a81548160ff0219169083151502179055506060820151816002015560808201518160030155905050828560030181905550838560020160008282540392505081905550600260009054906101000a900473ffffffffffffffffffffffffffffffffffffffff1673ffffffffffffffffffffffffffffffffffffffff166323b872dd3330876040518463ffffffff167c0100000000000000000000000000000000000000000000000000000000028152600401808473ffffffffffffffffffffffffffffffffffffffff1673ffffffffffffffffffffffffffffffffffffffff1681526020018373ffffffffffffffffffffffffffffffffffffffff1673ffffffffffffffffffffffffffffffffffffffff1681526020018281526020019350505050602060405180830381600087803b15156116d057600080fd5b5af115156116dd57600080fd5b5050506040518051905015156116f257600080fd5b600360009054906101000a900473ffffffffffffffffffffffffffffffffffffffff1673ffffffffffffffffffffffffffffffffffffffff16636148fed5846040518263ffffffff167c01000000000000000000000000000000000000000000000000000000000281526004018082815260200191505060a060405180830381600087803b151561178257600080fd5b5af1151561178f57600080fd5b505050604051805190602001805190602001805190602001805190602001805190505050509150915088600019167f70bf35e61156e166467b71b9a42bfcd4cb38d09f66bf90b2dabf0f19d45b732b848a8a8686604051808681526020018060200184815260200183815260200182810382528686828181526020019250808284378201915050965050505050505060405180910390a28295505b50505050509392505050565b60068054600181600116156101000203166002900480601f0160208091040260200160405190810160405280929190818152602001828054600181600116156101000203166002900480156118cc5780601f106118a1576101008083540402835291602001916118cc565b820191906000526020600020905b8154815290600101906020018083116118af57829003601f168201915b505050505081565b60008060016000846000191660001916815260200190815260200160002060030154905061190183612247565b801561192a57504260016000856000191660001916815260200190815260200160002060000154105b801561193c575061193a836107ea565b155b80156119795750600081148061197857506001151560008083815260200190815260200160002060010160149054906101000a900460ff161515145b5b15611987576001915061198c565b600091505b50919050565b6000806001600084600019166000191681526020019081526020016000206003015490506119bf83610c8e565b15156119ca57600080fd5b600360009054906101000a900473ffffffffffffffffffffffffffffffffffffffff1673ffffffffffffffffffffffffffffffffffffffff1663ee684830826040518263ffffffff167c010000000000000000000000000000000000000000000000000000000002815260040180828152602001915050602060405180830381600087803b1515611a5a57600080fd5b5af11515611a6757600080fd5b50505060405180519050915050919050565b6000806000151560008086815260200190815260200160002060040160003373ffffffffffffffffffffffffffffffffffffffff1673ffffffffffffffffffffffffffffffffffffffff16815260200190815260200160002060009054906101000a900460ff161515141515611aee57600080fd5b6001151560008086815260200190815260200160002060010160149054906101000a900460ff161515141515611b2357600080fd5b600360009054906101000a900473ffffffffffffffffffffffffffffffffffffffff1673ffffffffffffffffffffffffffffffffffffffff1663b43bd0693386866040518463ffffffff167c0100000000000000000000000000000000000000000000000000000000028152600401808473ffffffffffffffffffffffffffffffffffffffff1673ffffffffffffffffffffffffffffffffffffffff1681526020018381526020018281526020019350505050602060405180830381600087803b1515611bef57600080fd5b5af11515611bfc57600080fd5b505050604051805190509150611c1333858561233e565b905081600080868152602001908152602001600020600301600082825403925050819055508060008086815260200190815260200160002060000160008282540392505081905550600160008086815260200190815260200160002060040160003373ffffffffffffffffffffffffffffffffffffffff1673ffffffffffffffffffffffffffffffffffffffff16815260200190815260200160002060006101000a81548160ff021916908315150217905550600260009054906101000a900473ffffffffffffffffffffffffffffffffffffffff1673ffffffffffffffffffffffffffffffffffffffff1663a9059cbb33836040518363ffffffff167c0100000000000000000000000000000000000000000000000000000000028152600401808373ffffffffffffffffffffffffffffffffffffffff1673ffffffffffffffffffffffffffffffffffffffff16815260200182815260200192505050602060405180830381600087803b1515611d8a57600080fd5b5af11515611d9757600080fd5b505050604051805190501515611dac57600080fd5b837fdd8c90eb7b58b95be79e20fdec3539242183fc9657e5ced305a7498aee449033826040518082815260200191505060405180910390a250505050565b6000611df5856107ea565b151515611e0157600080fd5b611e0a85612247565b151515611e1657600080fd5b600460009054906101000a900473ffffffffffffffffffffffffffffffffffffffff1673ffffffffffffffffffffffffffffffffffffffff1663693ec85e6040518163ffffffff167c010000000000000000000000000000000000000000000000000000000002815260040180806020018281038252600a8152602001807f6d696e4465706f73697400000000000000000000000000000000000000000000815250602001915050602060405180830381600087803b1515611ed757600080fd5b5af11515611ee457600080fd5b505050604051805190508410151515611efc57600080fd5b6001600086600019166000191681526020019081526020016000209050338160010160016101000a81548173ffffffffffffffffffffffffffffffffffffffff021916908373ffffffffffffffffffffffffffffffffffffffff160217905550612046600460009054906101000a900473ffffffffffffffffffffffffffffffffffffffff1673ffffffffffffffffffffffffffffffffffffffff1663693ec85e6040518163ffffffff167c010000000000000000000000000000000000000000000000000000000002815260040180806020018281038252600d8152602001807f6170706c7953746167654c656e00000000000000000000000000000000000000815250602001915050602060405180830381600087803b151561202057600080fd5b5af1151561202d57600080fd5b505050604051805190504261296590919063ffffffff16565b8160000181905550838160020181905550600260009054906101000a900473ffffffffffffffffffffffffffffffffffffffff1673ffffffffffffffffffffffffffffffffffffffff166323b872dd8260010160019054906101000a900473ffffffffffffffffffffffffffffffffffffffff1630876040518463ffffffff167c0100000000000000000000000000000000000000000000000000000000028152600401808473ffffffffffffffffffffffffffffffffffffffff1673ffffffffffffffffffffffffffffffffffffffff1681526020018373ffffffffffffffffffffffffffffffffffffffff1673ffffffffffffffffffffffffffffffffffffffff1681526020018281526020019350505050602060405180830381600087803b151561217357600080fd5b5af1151561218057600080fd5b50505060405180519050151561219557600080fd5b84600019167feeb12328919531145f8e8dce4e50e39dba9eaa8a7051cea29fcf9afc17d75e2185836000015486866040518085815260200184815260200180602001828103825284848281815260200192508082843782019150509550505050505060405180910390a25050505050565b61220f816118d4565b156122225761221d81612983565b612244565b61222b81611992565b1561223e5761223981612a20565b612243565b600080fd5b5b50565b60008060016000846000191660001916815260200190815260200160002060000154119050919050565b60006020528060005260406000206000915090508060000154908060010160009054906101000a900473ffffffffffffffffffffffffffffffffffffffff16908060010160149054906101000a900460ff16908060020154908060030154905085565b600080600084815260200190815260200160002060040160008373ffffffffffffffffffffffffffffffffffffffff1673ffffffffffffffffffffffffffffffffffffffff16815260200190815260200160002060009054906101000a900460ff16905092915050565b600080600080600080878152602001908152602001600020600301549250600080878152602001908152602001600020600001549150600360009054906101000a900473ffffffffffffffffffffffffffffffffffffffff1673ffffffffffffffffffffffffffffffffffffffff1663b43bd0698888886040518463ffffffff167c0100000000000000000000000000000000000000000000000000000000028152600401808473ffffffffffffffffffffffffffffffffffffffff1673ffffffffffffffffffffffffffffffffffffffff1681526020018381526020018281526020019350505050602060405180830381600087803b151561244057600080fd5b5af1151561244d57600080fd5b5050506040518051905090508282820281151561246657fe5b0493505050509392505050565b60016020528060005260406000206000915090508060000154908060010160009054906101000a900460ff16908060010160019054906101000a900473ffffffffffffffffffffffffffffffffffffffff16908060020154908060030154905085565b600080600083815260200190815260200160002060010160149054906101000a900460ff161580156125ab5750600360009054906101000a900473ffffffffffffffffffffffffffffffffffffffff1673ffffffffffffffffffffffffffffffffffffffff1663ee684830836040518263ffffffff167c010000000000000000000000000000000000000000000000000000000002815260040180828152602001915050602060405180830381600087803b151561259357600080fd5b5af115156125a057600080fd5b505050604051805190505b15156125b657600080fd5b6000600360009054906101000a900473ffffffffffffffffffffffffffffffffffffffff1673ffffffffffffffffffffffffffffffffffffffff1663053e71a6846040518263ffffffff167c010000000000000000000000000000000000000000000000000000000002815260040180828152602001915050602060405180830381600087803b151561264857600080fd5b5af1151561265557600080fd5b505050604051805190501415612685576000808381526020019081526020016000206002015460020290506126b8565b60008083815260200190815260200160002060000154600080848152602001908152602001600020600201546002020390505b919050565b600460009054906101000a900473ffffffffffffffffffffffffffffffffffffffff1681565b600260009054906101000a900473ffffffffffffffffffffffffffffffffffffffff1681565b600360009054906101000a900473ffffffffffffffffffffffffffffffffffffffff1681565b600080600060016000856000191660001916815260200190815260200160002092508260010160009054906101000a900460ff161561279e5783600019167fd1ffb796b7108387b2f02adf47b4b81a1690cf2a190422c87a4f670780103e6360405160405180910390a26127d0565b83600019167f2e5ec035f6eac8ff1cf7cdf36cfeca7c85413f9f67652dc2c13d20f337204a2660405160405180910390a25b8260010160019054906101000a900473ffffffffffffffffffffffffffffffffffffffff169150826002015490506001600085600019166000191681526020019081526020016000206000808201600090556001820160006101000a81549060ff02191690556001820160016101000a81549073ffffffffffffffffffffffffffffffffffffffff0219169055600282016000905560038201600090555050600081111561295f57600260009054906101000a900473ffffffffffffffffffffffffffffffffffffffff1673ffffffffffffffffffffffffffffffffffffffff1663a9059cbb83836040518363ffffffff167c0100000000000000000000000000000000000000000000000000000000028152600401808373ffffffffffffffffffffffffffffffffffffffff1673ffffffffffffffffffffffffffffffffffffffff16815260200182815260200192505050602060405180830381600087803b151561293c57600080fd5b5af1151561294957600080fd5b50505060405180519050151561295e57600080fd5b5b50505050565b600080828401905083811015151561297957fe5b8091505092915050565b60016000826000191660001916815260200190815260200160002060010160009054906101000a900460ff1615156129e75780600019167fa7bc1d57d9006d9d248707c7b6828c1bab8c51719cc06d78c82a3ee891ef967c60405160405180910390a25b6001806000836000191660001916815260200190815260200160002060010160006101000a81548160ff02191690831515021790555050565b600080600160008460001916600019168152602001908152602001600020600301549150612a4d826124d6565b9050600160008084815260200190815260200160002060010160146101000a81548160ff021916908315150217905550600360009054906101000a900473ffffffffffffffffffffffffffffffffffffffff1673ffffffffffffffffffffffffffffffffffffffff1663053e71a6836040518263ffffffff167c010000000000000000000000000000000000000000000000000000000002815260040180828152602001915050602060405180830381600087803b1515612b0d57600080fd5b5af11515612b1a57600080fd5b5050506040518051905060008084815260200190815260200160002060030181905550600360009054906101000a900473ffffffffffffffffffffffffffffffffffffffff1673ffffffffffffffffffffffffffffffffffffffff166349403183836040518263ffffffff167c010000000000000000000000000000000000000000000000000000000002815260040180828152602001915050602060405180830381600087803b1515612bcd57600080fd5b5af11515612bda57600080fd5b5050506040518051905015612c9257612bf283612983565b80600160008560001916600019168152602001908152602001600020600201600082825401925050819055508183600019167fc4497224aa78dd50c9b3e344aab02596201ca1e6dca4057a91a6c02f83f4f6c16000808681526020019081526020016000206000015460008087815260200190815260200160002060030154604051808381526020018281526020019250505060405180910390a3612e26565b612c9b8361272f565b600260009054906101000a900473ffffffffffffffffffffffffffffffffffffffff1673ffffffffffffffffffffffffffffffffffffffff1663a9059cbb60008085815260200190815260200160002060010160009054906101000a900473ffffffffffffffffffffffffffffffffffffffff16836040518363ffffffff167c0100000000000000000000000000000000000000000000000000000000028152600401808373ffffffffffffffffffffffffffffffffffffffff1673ffffffffffffffffffffffffffffffffffffffff16815260200182815260200192505050602060405180830381600087803b1515612d9457600080fd5b5af11515612da157600080fd5b505050604051805190501515612db657600080fd5b8183600019167f362a12431f779a2baff4f77f75ba7960ae993a5c41b425df11f7fd0af2b9cbe66000808681526020019081526020016000206000015460008087815260200190815260200160002060030154604051808381526020018281526020019250505060405180910390a35b5050505600a165627a7a72305820753b4a34b6e3ebc20591179c900492b2d5537073c3c3c47448a6181e85d25f2c0029",
  "source": "pragma solidity ^0.4.20;\r\n\r\nimport \"tokens/eip20/EIP20Interface.sol\";\r\nimport \"./Parameterizer.sol\";\r\nimport \"plcrvoting/PLCRVoting.sol\";\r\nimport \"zeppelin/math/SafeMath.sol\";\r\n\r\ncontract Registry {\r\n\r\n    // ------\r\n    // EVENTS\r\n    // ------\r\n\r\n    event _Application(bytes32 indexed listingHash, uint deposit, uint appEndDate, string data);\r\n    event _Challenge(bytes32 indexed listingHash, uint challengeID, string data, uint commitEndDate, uint revealEndDate);\r\n    event _Deposit(bytes32 indexed listingHash, uint added, uint newTotal);\r\n    event _Withdrawal(bytes32 indexed listingHash, uint withdrew, uint newTotal);\r\n    event _ApplicationWhitelisted(bytes32 indexed listingHash);\r\n    event _ApplicationRemoved(bytes32 indexed listingHash);\r\n    event _ListingRemoved(bytes32 indexed listingHash);\r\n    event _ListingWithdrawn(bytes32 indexed listingHash);\r\n    event _TouchAndRemoved(bytes32 indexed listingHash);\r\n    event _ChallengeFailed(bytes32 indexed listingHash, uint indexed challengeID, uint rewardPool, uint totalTokens);\r\n    event _ChallengeSucceeded(bytes32 indexed listingHash, uint indexed challengeID, uint rewardPool, uint totalTokens);\r\n    event _RewardClaimed(uint indexed challengeID, uint reward);\r\n\r\n    using SafeMath for uint;\r\n\r\n    struct Listing {\r\n        uint applicationExpiry; // Expiration date of apply stage\r\n        bool whitelisted;       // Indicates registry status\r\n        address owner;          // Owner of Listing\r\n        uint unstakedDeposit;   // Number of tokens in the listing not locked in a challenge\r\n        uint challengeID;       // Corresponds to a PollID in PLCRVoting\r\n    }\r\n\r\n    struct Challenge {\r\n        uint rewardPool;        // (remaining) Pool of tokens to be distributed to winning voters\r\n        address challenger;     // Owner of Challenge\r\n        bool resolved;          // Indication of if challenge is resolved\r\n        uint stake;             // Number of tokens at stake for either party during challenge\r\n        uint totalTokens;       // (remaining) Number of tokens used in voting by the winning side\r\n        mapping(address => bool) tokenClaims; // Indicates whether a voter has claimed a reward yet\r\n    }\r\n\r\n    // Maps challengeIDs to associated challenge data\r\n    mapping(uint => Challenge) public challenges;\r\n\r\n    // Maps listingHashes to associated listingHash data\r\n    mapping(bytes32 => Listing) public listings;\r\n\r\n    // Global Variables\r\n    EIP20Interface public token;\r\n    PLCRVoting public voting;\r\n    Parameterizer public parameterizer;\r\n    string public name;\r\n    string public version = \"1\";\r\n\r\n    // ------------\r\n    // CONSTRUCTOR:\r\n    // ------------\r\n\r\n    /**\r\n    @dev Contructor         Sets the addresses for token, voting, and parameterizer\r\n    @param _tokenAddr       Address of the TCR's intrinsic ERC20 token\r\n    @param _plcrAddr        Address of a PLCR voting contract for the provided token\r\n    @param _paramsAddr      Address of a Parameterizer contract \r\n    */\r\n    function Registry(\r\n        address _tokenAddr,\r\n        address _plcrAddr,\r\n        address _paramsAddr,\r\n        string _name\r\n    ) public {\r\n        token = EIP20Interface(_tokenAddr);\r\n        voting = PLCRVoting(_plcrAddr);\r\n        parameterizer = Parameterizer(_paramsAddr);\r\n        name = _name;\r\n    }\r\n\r\n    // --------------------\r\n    // PUBLISHER INTERFACE:\r\n    // --------------------\r\n\r\n    /**\r\n    @dev                Allows a user to start an application. Takes tokens from user and sets\r\n                        apply stage end time.\r\n    @param _listingHash The hash of a potential listing a user is applying to add to the registry\r\n    @param _amount      The number of ERC20 tokens a user is willing to potentially stake\r\n    @param _data        Extra data relevant to the application. Think IPFS hashes.\r\n    */\r\n    function apply(bytes32 _listingHash, uint _amount, string _data) external {\r\n        require(!isWhitelisted(_listingHash));\r\n        require(!appWasMade(_listingHash));\r\n        require(_amount >= parameterizer.get(\"minDeposit\"));\r\n\r\n        // Sets owner\r\n        Listing storage listing = listings[_listingHash];\r\n        listing.owner = msg.sender;\r\n\r\n        // Sets apply stage end time\r\n        listing.applicationExpiry = block.timestamp.add(parameterizer.get(\"applyStageLen\"));\r\n        listing.unstakedDeposit = _amount;\r\n\r\n        // Transfers tokens from user to Registry contract\r\n        require(token.transferFrom(listing.owner, this, _amount));\r\n\r\n        _Application(_listingHash, _amount, listing.applicationExpiry, _data);\r\n    }\r\n\r\n    /**\r\n    @dev                Allows the owner of a listingHash to increase their unstaked deposit.\r\n    @param _listingHash A listingHash msg.sender is the owner of\r\n    @param _amount      The number of ERC20 tokens to increase a user's unstaked deposit\r\n    */\r\n    function deposit(bytes32 _listingHash, uint _amount) external {\r\n        Listing storage listing = listings[_listingHash];\r\n\r\n        require(listing.owner == msg.sender);\r\n\r\n        listing.unstakedDeposit += _amount;\r\n        require(token.transferFrom(msg.sender, this, _amount));\r\n\r\n        _Deposit(_listingHash, _amount, listing.unstakedDeposit);\r\n    }\r\n\r\n    /**\r\n    @dev                Allows the owner of a listingHash to decrease their unstaked deposit.\r\n    @param _listingHash A listingHash msg.sender is the owner of.\r\n    @param _amount      The number of ERC20 tokens to withdraw from the unstaked deposit.\r\n    */\r\n    function withdraw(bytes32 _listingHash, uint _amount) external {\r\n        Listing storage listing = listings[_listingHash];\r\n\r\n        require(listing.owner == msg.sender);\r\n        require(_amount <= listing.unstakedDeposit);\r\n        require(listing.unstakedDeposit - _amount >= parameterizer.get(\"minDeposit\"));\r\n\r\n        listing.unstakedDeposit -= _amount;\r\n        require(token.transfer(msg.sender, _amount));\r\n\r\n        _Withdrawal(_listingHash, _amount, listing.unstakedDeposit);\r\n    }\r\n\r\n    /**\r\n    @dev                Allows the owner of a listingHash to remove the listingHash from the whitelist\r\n                        Returns all tokens to the owner of the listingHash\r\n    @param _listingHash A listingHash msg.sender is the owner of.\r\n    */\r\n    function exit(bytes32 _listingHash) external {\r\n        Listing storage listing = listings[_listingHash];\r\n\r\n        require(msg.sender == listing.owner);\r\n        require(isWhitelisted(_listingHash));\r\n\r\n        // Cannot exit during ongoing challenge\r\n        require(listing.challengeID == 0 || challenges[listing.challengeID].resolved);\r\n\r\n        // Remove listingHash & return tokens\r\n        resetListing(_listingHash);\r\n        _ListingWithdrawn(_listingHash);\r\n    }\r\n\r\n    // -----------------------\r\n    // TOKEN HOLDER INTERFACE:\r\n    // -----------------------\r\n\r\n    /**\r\n    @dev                Starts a poll for a listingHash which is either in the apply stage or\r\n                        already in the whitelist. Tokens are taken from the challenger and the\r\n                        applicant's deposits are locked.\r\n    @param _listingHash The listingHash being challenged, whether listed or in application\r\n    @param _data        Extra data relevant to the challenge. Think IPFS hashes.\r\n    */\r\n    function challenge(bytes32 _listingHash, string _data) external returns (uint challengeID) {\r\n        Listing storage listing = listings[_listingHash];\r\n        uint deposit = parameterizer.get(\"minDeposit\");\r\n\r\n        // Listing must be in apply stage or already on the whitelist\r\n        require(appWasMade(_listingHash) || listing.whitelisted);\r\n        // Prevent multiple challenges\r\n        require(listing.challengeID == 0 || challenges[listing.challengeID].resolved);\r\n\r\n        if (listing.unstakedDeposit < deposit) {\r\n            // Not enough tokens, listingHash auto-delisted\r\n            resetListing(_listingHash);\r\n            _TouchAndRemoved(_listingHash);\r\n            return 0;\r\n        }\r\n\r\n        // Starts poll\r\n        uint pollID = voting.startPoll(\r\n            parameterizer.get(\"voteQuorum\"),\r\n            parameterizer.get(\"commitStageLen\"),\r\n            parameterizer.get(\"revealStageLen\")\r\n        );\r\n\r\n        challenges[pollID] = Challenge({\r\n            challenger: msg.sender,\r\n            rewardPool: ((100 - parameterizer.get(\"dispensationPct\")) * deposit) / 100,\r\n            stake: deposit,\r\n            resolved: false,\r\n            totalTokens: 0\r\n        });\r\n\r\n        // Updates listingHash to store most recent challenge\r\n        listing.challengeID = pollID;\r\n\r\n        // Locks tokens for listingHash during challenge\r\n        listing.unstakedDeposit -= deposit;\r\n\r\n        // Takes tokens from challenger\r\n        require(token.transferFrom(msg.sender, this, deposit));\r\n\r\n        var (commitEndDate, revealEndDate,) = voting.pollMap(pollID);\r\n\r\n        _Challenge(_listingHash, pollID, _data, commitEndDate, revealEndDate);\r\n        return pollID;\r\n    }\r\n\r\n    /**\r\n    @dev                Updates a listingHash's status from 'application' to 'listing' or resolves\r\n                        a challenge if one exists.\r\n    @param _listingHash The listingHash whose status is being updated\r\n    */\r\n    function updateStatus(bytes32 _listingHash) public {\r\n        if (canBeWhitelisted(_listingHash)) {\r\n          whitelistApplication(_listingHash);\r\n        } else if (challengeCanBeResolved(_listingHash)) {\r\n          resolveChallenge(_listingHash);\r\n        } else {\r\n          revert();\r\n        }\r\n    }\r\n\r\n    // ----------------\r\n    // TOKEN FUNCTIONS:\r\n    // ----------------\r\n\r\n    /**\r\n    @dev                Called by a voter to claim their reward for each completed vote. Someone\r\n                        must call updateStatus() before this can be called.\r\n    @param _challengeID The PLCR pollID of the challenge a reward is being claimed for\r\n    @param _salt        The salt of a voter's commit hash in the given poll\r\n    */\r\n    function claimReward(uint _challengeID, uint _salt) public {\r\n        // Ensures the voter has not already claimed tokens and challenge results have been processed\r\n        require(challenges[_challengeID].tokenClaims[msg.sender] == false);\r\n        require(challenges[_challengeID].resolved == true);\r\n\r\n        uint voterTokens = voting.getNumPassingTokens(msg.sender, _challengeID, _salt);\r\n        uint reward = voterReward(msg.sender, _challengeID, _salt);\r\n\r\n        // Subtracts the voter's information to preserve the participation ratios\r\n        // of other voters compared to the remaining pool of rewards\r\n        challenges[_challengeID].totalTokens -= voterTokens;\r\n        challenges[_challengeID].rewardPool -= reward;\r\n\r\n        // Ensures a voter cannot claim tokens again\r\n        challenges[_challengeID].tokenClaims[msg.sender] = true;\r\n\r\n        require(token.transfer(msg.sender, reward));\r\n\r\n        _RewardClaimed(_challengeID, reward);\r\n    }\r\n\r\n    // --------\r\n    // GETTERS:\r\n    // --------\r\n\r\n    /**\r\n    @dev                Calculates the provided voter's token reward for the given poll.\r\n    @param _voter       The address of the voter whose reward balance is to be returned\r\n    @param _challengeID The pollID of the challenge a reward balance is being queried for\r\n    @param _salt        The salt of the voter's commit hash in the given poll\r\n    @return             The uint indicating the voter's reward\r\n    */\r\n    function voterReward(address _voter, uint _challengeID, uint _salt)\r\n    public view returns (uint) {\r\n        uint totalTokens = challenges[_challengeID].totalTokens;\r\n        uint rewardPool = challenges[_challengeID].rewardPool;\r\n        uint voterTokens = voting.getNumPassingTokens(_voter, _challengeID, _salt);\r\n        return (voterTokens * rewardPool) / totalTokens;\r\n    }\r\n\r\n    /**\r\n    @dev                Determines whether the given listingHash be whitelisted.\r\n    @param _listingHash The listingHash whose status is to be examined\r\n    */\r\n    function canBeWhitelisted(bytes32 _listingHash) view public returns (bool) {\r\n        uint challengeID = listings[_listingHash].challengeID;\r\n\r\n        // Ensures that the application was made,\r\n        // the application period has ended,\r\n        // the listingHash can be whitelisted,\r\n        // and either: the challengeID == 0, or the challenge has been resolved.\r\n        if (\r\n            appWasMade(_listingHash) &&\r\n            listings[_listingHash].applicationExpiry < now &&\r\n            !isWhitelisted(_listingHash) &&\r\n            (challengeID == 0 || challenges[challengeID].resolved == true)\r\n        ) { return true; }\r\n\r\n        return false;\r\n    }\r\n\r\n    /**\r\n    @dev                Returns true if the provided listingHash is whitelisted\r\n    @param _listingHash The listingHash whose status is to be examined\r\n    */\r\n    function isWhitelisted(bytes32 _listingHash) view public returns (bool whitelisted) {\r\n        return listings[_listingHash].whitelisted;\r\n    }\r\n\r\n    /**\r\n    @dev                Returns true if apply was called for this listingHash\r\n    @param _listingHash The listingHash whose status is to be examined\r\n    */\r\n    function appWasMade(bytes32 _listingHash) view public returns (bool exists) {\r\n        return listings[_listingHash].applicationExpiry > 0;\r\n    }\r\n\r\n    /**\r\n    @dev                Returns true if the application/listingHash has an unresolved challenge\r\n    @param _listingHash The listingHash whose status is to be examined\r\n    */\r\n    function challengeExists(bytes32 _listingHash) view public returns (bool) {\r\n        uint challengeID = listings[_listingHash].challengeID;\r\n\r\n        return (listings[_listingHash].challengeID > 0 && !challenges[challengeID].resolved);\r\n    }\r\n\r\n    /**\r\n    @dev                Determines whether voting has concluded in a challenge for a given\r\n                        listingHash. Throws if no challenge exists.\r\n    @param _listingHash A listingHash with an unresolved challenge\r\n    */\r\n    function challengeCanBeResolved(bytes32 _listingHash) view public returns (bool) {\r\n        uint challengeID = listings[_listingHash].challengeID;\r\n\r\n        require(challengeExists(_listingHash));\r\n\r\n        return voting.pollEnded(challengeID);\r\n    }\r\n\r\n    /**\r\n    @dev                Determines the number of tokens awarded to the winning party in a challenge.\r\n    @param _challengeID The challengeID to determine a reward for\r\n    */\r\n    function determineReward(uint _challengeID) public view returns (uint) {\r\n        require(!challenges[_challengeID].resolved && voting.pollEnded(_challengeID));\r\n\r\n        // Edge case, nobody voted, give all tokens to the challenger.\r\n        if (voting.getTotalNumberOfTokensForWinningOption(_challengeID) == 0) {\r\n            return 2 * challenges[_challengeID].stake;\r\n        }\r\n\r\n        return (2 * challenges[_challengeID].stake) - challenges[_challengeID].rewardPool;\r\n    }\r\n\r\n    /**\r\n    @dev                Getter for Challenge tokenClaims mappings\r\n    @param _challengeID The challengeID to query\r\n    @param _voter       The voter whose claim status to query for the provided challengeID\r\n    */\r\n    function tokenClaims(uint _challengeID, address _voter) public view returns (bool) {\r\n      return challenges[_challengeID].tokenClaims[_voter];\r\n    }\r\n\r\n    // ----------------\r\n    // PRIVATE FUNCTIONS:\r\n    // ----------------\r\n\r\n    /**\r\n    @dev                Determines the winner in a challenge. Rewards the winner tokens and\r\n                        either whitelists or de-whitelists the listingHash.\r\n    @param _listingHash A listingHash with a challenge that is to be resolved\r\n    */\r\n    function resolveChallenge(bytes32 _listingHash) private {\r\n        uint challengeID = listings[_listingHash].challengeID;\r\n\r\n        // Calculates the winner's reward,\r\n        // which is: (winner's full stake) + (dispensationPct * loser's stake)\r\n        uint reward = determineReward(challengeID);\r\n\r\n        // Sets flag on challenge being processed\r\n        challenges[challengeID].resolved = true;\r\n\r\n        // Stores the total tokens used for voting by the winning side for reward purposes\r\n        challenges[challengeID].totalTokens =\r\n            voting.getTotalNumberOfTokensForWinningOption(challengeID);\r\n\r\n        // Case: challenge failed\r\n        if (voting.isPassed(challengeID)) {\r\n            whitelistApplication(_listingHash);\r\n            // Unlock stake so that it can be retrieved by the applicant\r\n            listings[_listingHash].unstakedDeposit += reward;\r\n\r\n            _ChallengeFailed(_listingHash, challengeID, challenges[challengeID].rewardPool, challenges[challengeID].totalTokens);\r\n        }\r\n        // Case: challenge succeeded or nobody voted\r\n        else {\r\n            resetListing(_listingHash);\r\n            // Transfer the reward to the challenger\r\n            require(token.transfer(challenges[challengeID].challenger, reward));\r\n\r\n            _ChallengeSucceeded(_listingHash, challengeID, challenges[challengeID].rewardPool, challenges[challengeID].totalTokens);\r\n        }\r\n    }\r\n\r\n    /**\r\n    @dev                Called by updateStatus() if the applicationExpiry date passed without a\r\n                        challenge being made. Called by resolveChallenge() if an\r\n                        application/listing beat a challenge.\r\n    @param _listingHash The listingHash of an application/listingHash to be whitelisted\r\n    */\r\n    function whitelistApplication(bytes32 _listingHash) private {\r\n        if (!listings[_listingHash].whitelisted) { _ApplicationWhitelisted(_listingHash); }\r\n        listings[_listingHash].whitelisted = true;\r\n    }\r\n\r\n    /**\r\n    @dev                Deletes a listingHash from the whitelist and transfers tokens back to owner\r\n    @param _listingHash The listing hash to delete\r\n    */\r\n    function resetListing(bytes32 _listingHash) private {\r\n        Listing storage listing = listings[_listingHash];\r\n\r\n        // Emit events before deleting listing to check whether is whitelisted\r\n        if (listing.whitelisted) {\r\n            _ListingRemoved(_listingHash);\r\n        } else {\r\n            _ApplicationRemoved(_listingHash);\r\n        }\r\n\r\n        // Deleting listing to prevent reentry\r\n        address owner = listing.owner;\r\n        uint unstakedDeposit = listing.unstakedDeposit;\r\n        delete listings[_listingHash];\r\n        \r\n        // Transfers any remaining balance back to the owner\r\n        if (unstakedDeposit > 0){\r\n            require(token.transfer(owner, unstakedDeposit));\r\n        }\r\n    }\r\n}\r\n",
  "sourcePath": "C:\\Users\\shach\\Documents\\Deco.Network\\DeconetRegistry\\contracts\\Registry.sol",
  "compiler": {
    "name": "solc",
    "version": "0.4.21+commit.dfe3193c.Emscripten.clang"
  },
  "schemaVersion": "2.0.0",
  "updatedAt": "2018-04-10T00:47:29.222Z"
}