{
  "contractName": "TestDLL",
  "abi": [
    {
      "constant": true,
      "inputs": [
        {
          "name": "_curr",
          "type": "uint256"
        }
      ],
      "name": "getNext",
      "outputs": [
        {
          "name": "",
          "type": "uint256"
        }
      ],
      "payable": false,
      "stateMutability": "view",
      "type": "function"
    },
    {
      "constant": true,
      "inputs": [
        {
          "name": "_curr",
          "type": "uint256"
        }
      ],
      "name": "getPrev",
      "outputs": [
        {
          "name": "",
          "type": "uint256"
        }
      ],
      "payable": false,
      "stateMutability": "view",
      "type": "function"
    },
    {
      "constant": false,
      "inputs": [
        {
          "name": "_prev",
          "type": "uint256"
        },
        {
          "name": "_curr",
          "type": "uint256"
        },
        {
          "name": "_next",
          "type": "uint256"
        }
      ],
      "name": "insert",
      "outputs": [],
      "payable": false,
      "stateMutability": "nonpayable",
      "type": "function"
    },
    {
      "constant": false,
      "inputs": [
        {
          "name": "_curr",
          "type": "uint256"
        }
      ],
      "name": "remove",
      "outputs": [],
      "payable": false,
      "stateMutability": "nonpayable",
      "type": "function"
    },
    {
      "constant": true,
      "inputs": [],
      "name": "isEmpty",
      "outputs": [
        {
          "name": "",
          "type": "bool"
        }
      ],
      "payable": false,
      "stateMutability": "view",
      "type": "function"
    },
    {
      "constant": true,
      "inputs": [],
      "name": "getEnd",
      "outputs": [
        {
          "name": "",
          "type": "uint256"
        }
      ],
      "payable": false,
      "stateMutability": "view",
      "type": "function"
    },
    {
      "constant": true,
      "inputs": [
        {
          "name": "_curr",
          "type": "uint256"
        }
      ],
      "name": "contains",
      "outputs": [
        {
          "name": "",
          "type": "bool"
        }
      ],
      "payable": false,
      "stateMutability": "view",
      "type": "function"
    },
    {
      "constant": true,
      "inputs": [],
      "name": "getStart",
      "outputs": [
        {
          "name": "",
          "type": "uint256"
        }
      ],
      "payable": false,
      "stateMutability": "view",
      "type": "function"
    }
  ],
  "bytecode": "0x6060604052341561000f57600080fd5b6104cc8061001e6000396000f3006060604052600436106100745763ffffffff60e060020a60003504166307aba33d81146100795780631037a5f4146100a15780634a803387146100b75780634cc82215146100d5578063681fe70c146100eb5780639f05a36d14610112578063c34052e014610125578063c5292c671461013b575b600080fd5b341561008457600080fd5b61008f60043561014e565b60405190815260200160405180910390f35b34156100ac57600080fd5b61008f6004356101cd565b34156100c257600080fd5b6100d360043560243560443561022c565b005b34156100e057600080fd5b6100d36004356102aa565b34156100f657600080fd5b6100fe610317565b604051901515815260200160405180910390f35b341561011d57600080fd5b61008f61038f565b341561013057600080fd5b6100fe6004356103e8565b341561014657600080fd5b61008f610447565b600073__DLL___________________________________6307d29ac98284816040516020015260405160e060020a63ffffffff85160281526004810192909252602482015260440160206040518083038186803b15156101ad57600080fd5b6102c65a03f415156101be57600080fd5b50505060405180519392505050565b600073__DLL___________________________________6330fe0a0a8284816040516020015260405160e060020a63ffffffff85160281526004810192909252602482015260440160206040518083038186803b15156101ad57600080fd5b73__DLL___________________________________639735c51b600085858560405160e060020a63ffffffff8716028152600481019490945260248401929092526044830152606482015260840160006040518083038186803b151561029157600080fd5b6102c65a03f415156102a257600080fd5b505050505050565b73__DLL___________________________________636d900ed060008360405160e060020a63ffffffff85160281526004810192909252602482015260440160006040518083038186803b151561030057600080fd5b6102c65a03f4151561031157600080fd5b50505050565b600073__DLL___________________________________63c426b00682806040516020015260405160e060020a63ffffffff8416028152600481019190915260240160206040518083038186803b151561037057600080fd5b6102c65a03f4151561038157600080fd5b505050604051805191505090565b600073__DLL___________________________________637c11cf6482806040516020015260405160e060020a63ffffffff8416028152600481019190915260240160206040518083038186803b151561037057600080fd5b600073__DLL___________________________________63366a5ba28284816040516020015260405160e060020a63ffffffff85160281526004810192909252602482015260440160206040518083038186803b15156101ad57600080fd5b600073__DLL___________________________________63ee4f1ac482806040516020015260405160e060020a63ffffffff8416028152600481019190915260240160206040518083038186803b151561037057600080fd00a165627a7a723058200cb597c6ea0a1f9e8389ff8bec32a05cc3cc771bcd14aa19d1dbfb2759e2d0ab0029",
  "source": "pragma solidity^0.4.0;\r\n\r\nimport \"./DLL.sol\";\r\n\r\ncontract TestDLL {\r\n\r\n\tusing DLL for DLL.Data;\r\n\tDLL.Data dll;\r\n\r\n\tfunction isEmpty() public view returns (bool) {\r\n\t\treturn dll.isEmpty();\r\n\t}\r\n\t\r\n\tfunction contains(uint _curr) public view returns (bool) {\r\n\t\treturn dll.contains(_curr);\r\n\t}\r\n\r\n\tfunction getNext(uint _curr) public view returns (uint) {\r\n\t\treturn dll.getNext(_curr);\r\n\t}\r\n\t\r\n\tfunction getPrev(uint _curr) public view returns (uint) {\r\n\t\treturn dll.getPrev(_curr);\r\n\t}\r\n\t\r\n\tfunction getStart() public view returns (uint) {\r\n\t\treturn dll.getStart();\r\n\t}\r\n\t\r\n\tfunction getEnd() public view returns (uint) {\r\n\t\treturn dll.getEnd();\r\n\t}\r\n\r\n\tfunction insert(uint _prev, uint _curr, uint _next) public {\r\n\t\tdll.insert(_prev, _curr, _next);\r\n\t}\r\n\r\n\tfunction remove(uint _curr) public {\r\n\t\tdll.remove(_curr);\r\n\t}\r\n}\r\n",
  "sourcePath": "C:\\Users\\shach\\Documents\\Deco.Network\\DeconetRegistry\\contracts\\lib\\dll\\contracts\\TestDLL.sol",
  "compiler": {
    "name": "solc",
    "version": "0.4.18+commit.9cf6e910.Emscripten.clang"
  },
  "schemaVersion": "1.0.1",
  "updatedAt": "2018-02-07T18:41:12.075Z"
}