{
  "contractName": "TestDLL",
  "abi": [
    {
      "constant": true,
      "inputs": [],
      "name": "isEmpty",
      "outputs": [
        {
          "name": "",
          "type": "bool"
        }
      ],
      "payable": false,
      "stateMutability": "view",
      "type": "function"
    },
    {
      "constant": true,
      "inputs": [
        {
          "name": "_curr",
          "type": "uint256"
        }
      ],
      "name": "contains",
      "outputs": [
        {
          "name": "",
          "type": "bool"
        }
      ],
      "payable": false,
      "stateMutability": "view",
      "type": "function"
    },
    {
      "constant": true,
      "inputs": [
        {
          "name": "_curr",
          "type": "uint256"
        }
      ],
      "name": "getNext",
      "outputs": [
        {
          "name": "",
          "type": "uint256"
        }
      ],
      "payable": false,
      "stateMutability": "view",
      "type": "function"
    },
    {
      "constant": true,
      "inputs": [
        {
          "name": "_curr",
          "type": "uint256"
        }
      ],
      "name": "getPrev",
      "outputs": [
        {
          "name": "",
          "type": "uint256"
        }
      ],
      "payable": false,
      "stateMutability": "view",
      "type": "function"
    },
    {
      "constant": true,
      "inputs": [],
      "name": "getStart",
      "outputs": [
        {
          "name": "",
          "type": "uint256"
        }
      ],
      "payable": false,
      "stateMutability": "view",
      "type": "function"
    },
    {
      "constant": true,
      "inputs": [],
      "name": "getEnd",
      "outputs": [
        {
          "name": "",
          "type": "uint256"
        }
      ],
      "payable": false,
      "stateMutability": "view",
      "type": "function"
    },
    {
      "constant": false,
      "inputs": [
        {
          "name": "_prev",
          "type": "uint256"
        },
        {
          "name": "_curr",
          "type": "uint256"
        },
        {
          "name": "_next",
          "type": "uint256"
        }
      ],
      "name": "insert",
      "outputs": [],
      "payable": false,
      "stateMutability": "nonpayable",
      "type": "function"
    },
    {
      "constant": false,
      "inputs": [
        {
          "name": "_curr",
          "type": "uint256"
        }
      ],
      "name": "remove",
      "outputs": [],
      "payable": false,
      "stateMutability": "nonpayable",
      "type": "function"
    }
  ],
  "bytecode": "0x6060604052341561000f57600080fd5b6107118061001e6000396000f30060606040526004361061008e576000357c0100000000000000000000000000000000000000000000000000000000900463ffffffff16806307aba33d146100935780631037a5f4146100ca5780634a803387146101015780634cc8221514610136578063681fe70c146101595780639f05a36d14610186578063c34052e0146101af578063c5292c67146101ea575b600080fd5b341561009e57600080fd5b6100b46004808035906020019091905050610213565b6040518082815260200191505060405180910390f35b34156100d557600080fd5b6100eb60048080359060200190919050506102b4565b6040518082815260200191505060405180910390f35b341561010c57600080fd5b6101346004808035906020019091908035906020019091908035906020019091905050610355565b005b341561014157600080fd5b61015760048080359060200190919050506103f3565b005b341561016457600080fd5b61016c61047f565b604051808215151515815260200191505060405180910390f35b341561019157600080fd5b610199610516565b6040518082815260200191505060405180910390f35b34156101ba57600080fd5b6101d060048080359060200190919050506105ad565b604051808215151515815260200191505060405180910390f35b34156101f557600080fd5b6101fd61064e565b6040518082815260200191505060405180910390f35b60008073__DLL___________________________________6307d29ac99091846000604051602001526040518363ffffffff167c0100000000000000000000000000000000000000000000000000000000028152600401808381526020018281526020019250505060206040518083038186803b151561029257600080fd5b6102c65a03f415156102a357600080fd5b505050604051805190509050919050565b60008073__DLL___________________________________6330fe0a0a9091846000604051602001526040518363ffffffff167c0100000000000000000000000000000000000000000000000000000000028152600401808381526020018281526020019250505060206040518083038186803b151561033357600080fd5b6102c65a03f4151561034457600080fd5b505050604051805190509050919050565b600073__DLL___________________________________639735c51b90918585856040518563ffffffff167c01000000000000000000000000000000000000000000000000000000000281526004018085815260200184815260200183815260200182815260200194505050505060006040518083038186803b15156103da57600080fd5b6102c65a03f415156103eb57600080fd5b505050505050565b600073__DLL___________________________________636d900ed09091836040518363ffffffff167c0100000000000000000000000000000000000000000000000000000000028152600401808381526020018281526020019250505060006040518083038186803b151561046857600080fd5b6102c65a03f4151561047957600080fd5b50505050565b60008073__DLL___________________________________63c426b00690916000604051602001526040518263ffffffff167c01000000000000000000000000000000000000000000000000000000000281526004018082815260200191505060206040518083038186803b15156104f657600080fd5b6102c65a03f4151561050757600080fd5b50505060405180519050905090565b60008073__DLL___________________________________637c11cf6490916000604051602001526040518263ffffffff167c01000000000000000000000000000000000000000000000000000000000281526004018082815260200191505060206040518083038186803b151561058d57600080fd5b6102c65a03f4151561059e57600080fd5b50505060405180519050905090565b60008073__DLL___________________________________63366a5ba29091846000604051602001526040518363ffffffff167c0100000000000000000000000000000000000000000000000000000000028152600401808381526020018281526020019250505060206040518083038186803b151561062c57600080fd5b6102c65a03f4151561063d57600080fd5b505050604051805190509050919050565b60008073__DLL___________________________________63ee4f1ac490916000604051602001526040518263ffffffff167c01000000000000000000000000000000000000000000000000000000000281526004018082815260200191505060206040518083038186803b15156106c557600080fd5b6102c65a03f415156106d657600080fd5b505050604051805190509050905600a165627a7a72305820c88b581269256465ccff5d331f97b6b0a1a3ab87f138290bef81317a6451c4fd0029",
  "source": "pragma solidity^0.4.0;\r\n\r\nimport \"./DLL.sol\";\r\n\r\ncontract TestDLL {\r\n\r\n\tusing DLL for DLL.Data;\r\n\tDLL.Data dll;\r\n\r\n\tfunction isEmpty() public view returns (bool) {\r\n\t\treturn dll.isEmpty();\r\n\t}\r\n\t\r\n\tfunction contains(uint _curr) public view returns (bool) {\r\n\t\treturn dll.contains(_curr);\r\n\t}\r\n\r\n\tfunction getNext(uint _curr) public view returns (uint) {\r\n\t\treturn dll.getNext(_curr);\r\n\t}\r\n\t\r\n\tfunction getPrev(uint _curr) public view returns (uint) {\r\n\t\treturn dll.getPrev(_curr);\r\n\t}\r\n\t\r\n\tfunction getStart() public view returns (uint) {\r\n\t\treturn dll.getStart();\r\n\t}\r\n\t\r\n\tfunction getEnd() public view returns (uint) {\r\n\t\treturn dll.getEnd();\r\n\t}\r\n\r\n\tfunction insert(uint _prev, uint _curr, uint _next) public {\r\n\t\tdll.insert(_prev, _curr, _next);\r\n\t}\r\n\r\n\tfunction remove(uint _curr) public {\r\n\t\tdll.remove(_curr);\r\n\t}\r\n}\r\n",
  "sourcePath": "C:\\Users\\CryptoMonk\\Documents\\Projects\\DeconetRegistry\\contracts\\lib\\dll\\contracts\\TestDLL.sol",
  "compiler": {
    "name": "solc",
    "version": "0.4.19+commit.c4cbbb05.Emscripten.clang"
  },
  "schemaVersion": "1.0.1",
  "updatedAt": "2018-02-13T12:10:54.273Z"
}